{"contracts/AccessControl.sol":{"AccessControl":{"abi":[{"inputs":[],"stateMutability":"nonpayable","type":"constructor"},{"anonymous":false,"inputs":[{"indexed":true,"internalType":"address","name":"previousOwner","type":"address"},{"indexed":true,"internalType":"address","name":"newOwner","type":"address"}],"name":"OwnershipTransferred","type":"event"},{"anonymous":false,"inputs":[{"indexed":true,"internalType":"bytes32","name":"role","type":"bytes32"},{"indexed":true,"internalType":"address","name":"account","type":"address"},{"indexed":true,"internalType":"address","name":"sender","type":"address"}],"name":"RoleGranted","type":"event"},{"anonymous":false,"inputs":[{"indexed":true,"internalType":"bytes32","name":"role","type":"bytes32"},{"indexed":true,"internalType":"address","name":"account","type":"address"},{"indexed":true,"internalType":"address","name":"sender","type":"address"}],"name":"RoleRevoked","type":"event"},{"inputs":[],"name":"ADMIN_ROLE","outputs":[{"internalType":"bytes32","name":"","type":"bytes32"}],"stateMutability":"view","type":"function"},{"inputs":[],"name":"EMPLOYEE_ROLE","outputs":[{"internalType":"bytes32","name":"","type":"bytes32"}],"stateMutability":"view","type":"function"},{"inputs":[],"name":"FINANCE_MANAGER_ROLE","outputs":[{"internalType":"bytes32","name":"","type":"bytes32"}],"stateMutability":"view","type":"function"},{"inputs":[],"name":"OWNER_ROLE","outputs":[{"internalType":"bytes32","name":"","type":"bytes32"}],"stateMutability":"view","type":"function"},{"inputs":[{"internalType":"bytes32","name":"role","type":"bytes32"}],"name":"getRoleMembers","outputs":[{"internalType":"address[]","name":"","type":"address[]"}],"stateMutability":"view","type":"function"},{"inputs":[{"internalType":"bytes32","name":"role","type":"bytes32"},{"internalType":"address","name":"account","type":"address"}],"name":"grantRole","outputs":[],"stateMutability":"nonpayable","type":"function"},{"inputs":[{"internalType":"bytes32","name":"role","type":"bytes32"},{"internalType":"address","name":"account","type":"address"}],"name":"hasRole","outputs":[{"internalType":"bool","name":"","type":"bool"}],"stateMutability":"view","type":"function"},{"inputs":[],"name":"owner","outputs":[{"internalType":"address","name":"","type":"address"}],"stateMutability":"view","type":"function"},{"inputs":[{"internalType":"bytes32","name":"role","type":"bytes32"}],"name":"renounceRole","outputs":[],"stateMutability":"nonpayable","type":"function"},{"inputs":[{"internalType":"bytes32","name":"role","type":"bytes32"},{"internalType":"address","name":"account","type":"address"}],"name":"revokeRole","outputs":[],"stateMutability":"nonpayable","type":"function"},{"inputs":[{"internalType":"address","name":"newOwner","type":"address"}],"name":"transferOwnership","outputs":[],"stateMutability":"nonpayable","type":"function"}],"evm":{"bytecode":{"linkReferences":{},"object":"608060408181523461011c5760018060a01b031990338260025416176002557fb19546dff01e856fb3f010c267a7b1c60363cf8a4664e21cc89c26224620214e91600091838352602090838252808420338552825260ff81852054161561006d575b610b3b86816101228239f35b8484528382528084203385528252808420600160ff19825416179055848452600182528320908154916801000000000000000083101561010857600183018082558310156100f457845283200190339082541617905533917f2f8788117e7eff1d82e926ec794901d17c78024a50270940304540a733656f0d339280a43880808080610061565b634e487b7160e01b85526032600452602485fd5b634e487b7160e01b85526041600452602485fd5b600080fdfe6080604081815260048036101561001557600080fd5b600092833560e01c9081632a4cab9014610903575080632f2ff15d1461070557806375b238fc146106ca5780638a780f651461068f5780638bb9c5bf146106705780638da5cb5b1461064757806391d1485414610602578063a3246ad314610523578063d547741f1461042a578063e58378bb146103fd5763f2fde38b1461009c57600080fd5b346103f957602090816003193601126103f55780356001600160a01b03818116949092908583036103f15760025494848616958633036103a0578715610349576001600160a01b0319168717600255600080516020610ae6833981519152808952888252828920878a5282528289205490959060ff16610208575b50848852878152818820878952815260ff82892054161561015d575b8787877f8be0079c531659141344cd1fd0a4f28419497f9722a3daafe3b4186f6b6457e08380a380f35b600190858952888152828920888a5281528289208260ff19825416179055858952528620805491600160401b8310156101f55750816101a59160016101c49594018155610958565b90919082549060031b9160018060a01b03809116831b921b1916179055565b8233917f2f8788117e7eff1d82e926ec794901d17c78024a50270940304540a733656f0d8680a43880808080610133565b634e487b7160e01b885260419052602487fd5b858952888252828920878a528252828920805460ff191690558589526001808352838a2090918a835b610267575b505050503386867ff6391f5c32d9c69d2a47ea670b442974b53935d1edc7fd64eb21e047a839171b8b80a438610117565b82548082101561034357828b61027d8487610958565b929054600393841b1c16146102b2575050600019811461029f57830183610231565b634e487b7160e01b8c526011875260248cfd5b939450600019939192919084810190811161033057916101a5916102da6102e7959488610958565b9054911b1c169185610958565b8154801561031d5701906103136102fe8383610958565b81549060018060a01b039060031b1b19169055565b5538808080610236565b634e487b7160e01b8b526031865260248bfd5b634e487b7160e01b8e526011895260248efd5b50610236565b50905162461bcd60e51b815291820152602c60248201527f416363657373436f6e74726f6c3a206e6577206f776e6572206973207468652060448201526b7a65726f206164647265737360a01b6064820152608490fd5b50905162461bcd60e51b815291820152602660248201527f416363657373436f6e74726f6c3a2063616c6c6572206973206e6f74207468656044820152651037bbb732b960d11b6064820152608490fd5b8680fd5b8380fd5b8280fd5b50503461042657816003193601126104265760209051600080516020610ae68339815191528152f35b5080fd5b5082903461042657826003193601126104265761044561093d565b90600080516020610ae683398151915283528260205283832033845260205260ff848420541680156104e6575b1561048557906104829135610986565b80f35b608490602085519162461bcd60e51b8352820152603560248201527f416363657373436f6e74726f6c3a206d757374206265206f776e6572206f722060448201527461646d696e20746f207265766f6b6520726f6c657360581b6064820152fd5b507fa49807205ce4d355092ef5a8a18f56e8913cf4a201fbe287825b095693c2177583528260205283832033845260205260ff8484205416610472565b5082346105ff5760209283600319360112610426578235825260019384815281832092825192828481875491828152019081978552828520908a865b8281106105e15750505050859003601f01601f1916850196905067ffffffffffffffff8711858810176105ce575092869284878096528186019282875251809352850195925b8281106105b25785870386f35b83516001600160a01b03168752958101959281019284016105a5565b634e487b7160e01b835260419052602482fd5b83546001600160a01b0316855288959094019392810192810161055f565b80fd5b50346103f957816003193601126103f9578160209360ff9261062261093d565b903582528186528282206001600160a01b039091168252855220549151911615158152f35b50503461042657816003193601126104265760025490516001600160a01b039091168152602090f35b8382346104265760203660031901126104265761048290339035610986565b505034610426578160031936011261042657602090517f572f022558b687eed59080237cb7778171198110a24741b57d6ed3432df881fc8152f35b505034610426578160031936011261042657602090517fa49807205ce4d355092ef5a8a18f56e8913cf4a201fbe287825b095693c217758152f35b5090346103f957806003193601126103f95781359161072261093d565b90600080516020610ae68339815191528552602092858452808620338752845260ff818720541680156108c8575b15610869576001600160a01b03831693841561080f57858752868152818720858852815260ff828820541615610784578680f35b60019086885287815282882086895281528288208260ff19825416179055868852528520805491600160401b8310156107fc5750816101a59160016107cc9594018155610958565b33917f2f8788117e7eff1d82e926ec794901d17c78024a50270940304540a733656f0d8480a43880808080808680f35b634e487b7160e01b875260419052602486fd5b905162461bcd60e51b815291820152603060248201527f416363657373436f6e74726f6c3a2063616e6e6f74206772616e7420726f6c6560448201526f20746f207a65726f206164647265737360801b6064820152608490fd5b5162461bcd60e51b8152908101839052603460248201527f416363657373436f6e74726f6c3a206d757374206265206f776e6572206f722060448201527361646d696e20746f206772616e7420726f6c657360601b6064820152608490fd5b507fa49807205ce4d355092ef5a8a18f56e8913cf4a201fbe287825b095693c217758652858452808620338752845260ff8187205416610750565b849034610426578160031936011261042657807f5a3425ea67e73c95853ecfc0c443062de292a303c186bc2aac1178ae1b86c62a60209252f35b602435906001600160a01b038216820361095357565b600080fd5b80548210156109705760005260206000200190600090565b634e487b7160e01b600052603260045260246000fd5b6000818152602081815260408083206001600160a01b039586168085529252822054919390929160ff166109bb575b50505050565b81845283602052604084208385526020526040842060ff1981541690558184526001908160205260408520908286905b610a22575b505050507ff6391f5c32d9c69d2a47ea670b442974b53935d1edc7fd64eb21e047a839171b339380a4388080806109b5565b825480821015610adf578287610a388487610958565b929054600393841b1c1614610a6e5750506000198114610a5a578301836109eb565b634e487b7160e01b87526011600452602487fd5b9394506000199391929190848101908111610acb57916101a5916102da610a96959488610958565b81548015610ab7570190610aad6102fe8383610958565b55388080806109f0565b634e487b7160e01b86526031600452602486fd5b634e487b7160e01b89526011600452602489fd5b506109f056feb19546dff01e856fb3f010c267a7b1c60363cf8a4664e21cc89c26224620214ea2646970667358221220abca05fdf3fe683dc7ee624692d25d9bab6eb6814b958b8356e3e04c7bfbdd0d64736f6c63430008140033","opcodes":"PUSH1 0x80 PUSH1 0x40 DUP2 DUP2 MSTORE CALLVALUE PUSH2 0x11C JUMPI PUSH1 0x1 DUP1 PUSH1 0xA0 SHL SUB NOT SWAP1 CALLER DUP3 PUSH1 0x2 SLOAD AND OR PUSH1 0x2 SSTORE PUSH32 0xB19546DFF01E856FB3F010C267A7B1C60363CF8A4664E21CC89C26224620214E SWAP2 PUSH1 0x0 SWAP2 DUP4 DUP4 MSTORE PUSH1 0x20 SWAP1 DUP4 DUP3 MSTORE DUP1 DUP5 KECCAK256 CALLER DUP6 MSTORE DUP3 MSTORE PUSH1 0xFF DUP2 DUP6 KECCAK256 SLOAD AND ISZERO PUSH2 0x6D JUMPI JUMPDEST PUSH2 0xB3B DUP7 DUP2 PUSH2 0x122 DUP3 CODECOPY RETURN JUMPDEST DUP5 DUP5 MSTORE DUP4 DUP3 MSTORE DUP1 DUP5 KECCAK256 CALLER DUP6 MSTORE DUP3 MSTORE DUP1 DUP5 KECCAK256 PUSH1 0x1 PUSH1 0xFF NOT DUP3 SLOAD AND OR SWAP1 SSTORE DUP5 DUP5 MSTORE PUSH1 0x1 DUP3 MSTORE DUP4 KECCAK256 SWAP1 DUP2 SLOAD SWAP2 PUSH9 0x10000000000000000 DUP4 LT ISZERO PUSH2 0x108 JUMPI PUSH1 0x1 DUP4 ADD DUP1 DUP3 SSTORE DUP4 LT ISZERO PUSH2 0xF4 JUMPI DUP5 MSTORE DUP4 KECCAK256 ADD SWAP1 CALLER SWAP1 DUP3 SLOAD AND OR SWAP1 SSTORE CALLER SWAP2 PUSH32 0x2F8788117E7EFF1D82E926EC794901D17C78024A50270940304540A733656F0D CALLER SWAP3 DUP1 LOG4 CODESIZE DUP1 DUP1 DUP1 DUP1 PUSH2 0x61 JUMP JUMPDEST PUSH4 0x4E487B71 PUSH1 0xE0 SHL DUP6 MSTORE PUSH1 0x32 PUSH1 0x4 MSTORE PUSH1 0x24 DUP6 REVERT JUMPDEST PUSH4 0x4E487B71 PUSH1 0xE0 SHL DUP6 MSTORE PUSH1 0x41 PUSH1 0x4 MSTORE PUSH1 0x24 DUP6 REVERT JUMPDEST PUSH1 0x0 DUP1 REVERT INVALID PUSH1 0x80 PUSH1 0x40 DUP2 DUP2 MSTORE PUSH1 0x4 DUP1 CALLDATASIZE LT ISZERO PUSH2 0x15 JUMPI PUSH1 0x0 DUP1 REVERT JUMPDEST PUSH1 0x0 SWAP3 DUP4 CALLDATALOAD PUSH1 0xE0 SHR SWAP1 DUP2 PUSH4 0x2A4CAB90 EQ PUSH2 0x903 JUMPI POP DUP1 PUSH4 0x2F2FF15D EQ PUSH2 0x705 JUMPI DUP1 PUSH4 0x75B238FC EQ PUSH2 0x6CA JUMPI DUP1 PUSH4 0x8A780F65 EQ PUSH2 0x68F JUMPI DUP1 PUSH4 0x8BB9C5BF EQ PUSH2 0x670 JUMPI DUP1 PUSH4 0x8DA5CB5B EQ PUSH2 0x647 JUMPI DUP1 PUSH4 0x91D14854 EQ PUSH2 0x602 JUMPI DUP1 PUSH4 0xA3246AD3 EQ PUSH2 0x523 JUMPI DUP1 PUSH4 0xD547741F EQ PUSH2 0x42A JUMPI DUP1 PUSH4 0xE58378BB EQ PUSH2 0x3FD JUMPI PUSH4 0xF2FDE38B EQ PUSH2 0x9C JUMPI PUSH1 0x0 DUP1 REVERT JUMPDEST CALLVALUE PUSH2 0x3F9 JUMPI PUSH1 0x20 SWAP1 DUP2 PUSH1 0x3 NOT CALLDATASIZE ADD SLT PUSH2 0x3F5 JUMPI DUP1 CALLDATALOAD PUSH1 0x1 PUSH1 0x1 PUSH1 0xA0 SHL SUB DUP2 DUP2 AND SWAP5 SWAP1 SWAP3 SWAP1 DUP6 DUP4 SUB PUSH2 0x3F1 JUMPI PUSH1 0x2 SLOAD SWAP5 DUP5 DUP7 AND SWAP6 DUP7 CALLER SUB PUSH2 0x3A0 JUMPI DUP8 ISZERO PUSH2 0x349 JUMPI PUSH1 0x1 PUSH1 0x1 PUSH1 0xA0 SHL SUB NOT AND DUP8 OR PUSH1 0x2 SSTORE PUSH1 0x0 DUP1 MLOAD PUSH1 0x20 PUSH2 0xAE6 DUP4 CODECOPY DUP2 MLOAD SWAP2 MSTORE DUP1 DUP10 MSTORE DUP9 DUP3 MSTORE DUP3 DUP10 KECCAK256 DUP8 DUP11 MSTORE DUP3 MSTORE DUP3 DUP10 KECCAK256 SLOAD SWAP1 SWAP6 SWAP1 PUSH1 0xFF AND PUSH2 0x208 JUMPI JUMPDEST POP DUP5 DUP9 MSTORE DUP8 DUP2 MSTORE DUP2 DUP9 KECCAK256 DUP8 DUP10 MSTORE DUP2 MSTORE PUSH1 0xFF DUP3 DUP10 KECCAK256 SLOAD AND ISZERO PUSH2 0x15D JUMPI JUMPDEST DUP8 DUP8 DUP8 PUSH32 0x8BE0079C531659141344CD1FD0A4F28419497F9722A3DAAFE3B4186F6B6457E0 DUP4 DUP1 LOG3 DUP1 RETURN JUMPDEST PUSH1 0x1 SWAP1 DUP6 DUP10 MSTORE DUP9 DUP2 MSTORE DUP3 DUP10 KECCAK256 DUP9 DUP11 MSTORE DUP2 MSTORE DUP3 DUP10 KECCAK256 DUP3 PUSH1 0xFF NOT DUP3 SLOAD AND OR SWAP1 SSTORE DUP6 DUP10 MSTORE MSTORE DUP7 KECCAK256 DUP1 SLOAD SWAP2 PUSH1 0x1 PUSH1 0x40 SHL DUP4 LT ISZERO PUSH2 0x1F5 JUMPI POP DUP2 PUSH2 0x1A5 SWAP2 PUSH1 0x1 PUSH2 0x1C4 SWAP6 SWAP5 ADD DUP2 SSTORE PUSH2 0x958 JUMP JUMPDEST SWAP1 SWAP2 SWAP1 DUP3 SLOAD SWAP1 PUSH1 0x3 SHL SWAP2 PUSH1 0x1 DUP1 PUSH1 0xA0 SHL SUB DUP1 SWAP2 AND DUP4 SHL SWAP3 SHL NOT AND OR SWAP1 SSTORE JUMP JUMPDEST DUP3 CALLER SWAP2 PUSH32 0x2F8788117E7EFF1D82E926EC794901D17C78024A50270940304540A733656F0D DUP7 DUP1 LOG4 CODESIZE DUP1 DUP1 DUP1 DUP1 PUSH2 0x133 JUMP JUMPDEST PUSH4 0x4E487B71 PUSH1 0xE0 SHL DUP9 MSTORE PUSH1 0x41 SWAP1 MSTORE PUSH1 0x24 DUP8 REVERT JUMPDEST DUP6 DUP10 MSTORE DUP9 DUP3 MSTORE DUP3 DUP10 KECCAK256 DUP8 DUP11 MSTORE DUP3 MSTORE DUP3 DUP10 KECCAK256 DUP1 SLOAD PUSH1 0xFF NOT AND SWAP1 SSTORE DUP6 DUP10 MSTORE PUSH1 0x1 DUP1 DUP4 MSTORE DUP4 DUP11 KECCAK256 SWAP1 SWAP2 DUP11 DUP4 JUMPDEST PUSH2 0x267 JUMPI JUMPDEST POP POP POP POP CALLER DUP7 DUP7 PUSH32 0xF6391F5C32D9C69D2A47EA670B442974B53935D1EDC7FD64EB21E047A839171B DUP12 DUP1 LOG4 CODESIZE PUSH2 0x117 JUMP JUMPDEST DUP3 SLOAD DUP1 DUP3 LT ISZERO PUSH2 0x343 JUMPI DUP3 DUP12 PUSH2 0x27D DUP5 DUP8 PUSH2 0x958 JUMP JUMPDEST SWAP3 SWAP1 SLOAD PUSH1 0x3 SWAP4 DUP5 SHL SHR AND EQ PUSH2 0x2B2 JUMPI POP POP PUSH1 0x0 NOT DUP2 EQ PUSH2 0x29F JUMPI DUP4 ADD DUP4 PUSH2 0x231 JUMP JUMPDEST PUSH4 0x4E487B71 PUSH1 0xE0 SHL DUP13 MSTORE PUSH1 0x11 DUP8 MSTORE PUSH1 0x24 DUP13 REVERT JUMPDEST SWAP4 SWAP5 POP PUSH1 0x0 NOT SWAP4 SWAP2 SWAP3 SWAP2 SWAP1 DUP5 DUP2 ADD SWAP1 DUP2 GT PUSH2 0x330 JUMPI SWAP2 PUSH2 0x1A5 SWAP2 PUSH2 0x2DA PUSH2 0x2E7 SWAP6 SWAP5 DUP9 PUSH2 0x958 JUMP JUMPDEST SWAP1 SLOAD SWAP2 SHL SHR AND SWAP2 DUP6 PUSH2 0x958 JUMP JUMPDEST DUP2 SLOAD DUP1 ISZERO PUSH2 0x31D JUMPI ADD SWAP1 PUSH2 0x313 PUSH2 0x2FE DUP4 DUP4 PUSH2 0x958 JUMP JUMPDEST DUP2 SLOAD SWAP1 PUSH1 0x1 DUP1 PUSH1 0xA0 SHL SUB SWAP1 PUSH1 0x3 SHL SHL NOT AND SWAP1 SSTORE JUMP JUMPDEST SSTORE CODESIZE DUP1 DUP1 DUP1 PUSH2 0x236 JUMP JUMPDEST PUSH4 0x4E487B71 PUSH1 0xE0 SHL DUP12 MSTORE PUSH1 0x31 DUP7 MSTORE PUSH1 0x24 DUP12 REVERT JUMPDEST PUSH4 0x4E487B71 PUSH1 0xE0 SHL DUP15 MSTORE PUSH1 0x11 DUP10 MSTORE PUSH1 0x24 DUP15 REVERT JUMPDEST POP PUSH2 0x236 JUMP JUMPDEST POP SWAP1 MLOAD PUSH3 0x461BCD PUSH1 0xE5 SHL DUP2 MSTORE SWAP2 DUP3 ADD MSTORE PUSH1 0x2C PUSH1 0x24 DUP3 ADD MSTORE PUSH32 0x416363657373436F6E74726F6C3A206E6577206F776E65722069732074686520 PUSH1 0x44 DUP3 ADD MSTORE PUSH12 0x7A65726F2061646472657373 PUSH1 0xA0 SHL PUSH1 0x64 DUP3 ADD MSTORE PUSH1 0x84 SWAP1 REVERT JUMPDEST POP SWAP1 MLOAD PUSH3 0x461BCD PUSH1 0xE5 SHL DUP2 MSTORE SWAP2 DUP3 ADD MSTORE PUSH1 0x26 PUSH1 0x24 DUP3 ADD MSTORE PUSH32 0x416363657373436F6E74726F6C3A2063616C6C6572206973206E6F7420746865 PUSH1 0x44 DUP3 ADD MSTORE PUSH6 0x1037BBB732B9 PUSH1 0xD1 SHL PUSH1 0x64 DUP3 ADD MSTORE PUSH1 0x84 SWAP1 REVERT JUMPDEST DUP7 DUP1 REVERT JUMPDEST DUP4 DUP1 REVERT JUMPDEST DUP3 DUP1 REVERT JUMPDEST POP POP CALLVALUE PUSH2 0x426 JUMPI DUP2 PUSH1 0x3 NOT CALLDATASIZE ADD SLT PUSH2 0x426 JUMPI PUSH1 0x20 SWAP1 MLOAD PUSH1 0x0 DUP1 MLOAD PUSH1 0x20 PUSH2 0xAE6 DUP4 CODECOPY DUP2 MLOAD SWAP2 MSTORE DUP2 MSTORE RETURN JUMPDEST POP DUP1 REVERT JUMPDEST POP DUP3 SWAP1 CALLVALUE PUSH2 0x426 JUMPI DUP3 PUSH1 0x3 NOT CALLDATASIZE ADD SLT PUSH2 0x426 JUMPI PUSH2 0x445 PUSH2 0x93D JUMP JUMPDEST SWAP1 PUSH1 0x0 DUP1 MLOAD PUSH1 0x20 PUSH2 0xAE6 DUP4 CODECOPY DUP2 MLOAD SWAP2 MSTORE DUP4 MSTORE DUP3 PUSH1 0x20 MSTORE DUP4 DUP4 KECCAK256 CALLER DUP5 MSTORE PUSH1 0x20 MSTORE PUSH1 0xFF DUP5 DUP5 KECCAK256 SLOAD AND DUP1 ISZERO PUSH2 0x4E6 JUMPI JUMPDEST ISZERO PUSH2 0x485 JUMPI SWAP1 PUSH2 0x482 SWAP2 CALLDATALOAD PUSH2 0x986 JUMP JUMPDEST DUP1 RETURN JUMPDEST PUSH1 0x84 SWAP1 PUSH1 0x20 DUP6 MLOAD SWAP2 PUSH3 0x461BCD PUSH1 0xE5 SHL DUP4 MSTORE DUP3 ADD MSTORE PUSH1 0x35 PUSH1 0x24 DUP3 ADD MSTORE PUSH32 0x416363657373436F6E74726F6C3A206D757374206265206F776E6572206F7220 PUSH1 0x44 DUP3 ADD MSTORE PUSH21 0x61646D696E20746F207265766F6B6520726F6C6573 PUSH1 0x58 SHL PUSH1 0x64 DUP3 ADD MSTORE REVERT JUMPDEST POP PUSH32 0xA49807205CE4D355092EF5A8A18F56E8913CF4A201FBE287825B095693C21775 DUP4 MSTORE DUP3 PUSH1 0x20 MSTORE DUP4 DUP4 KECCAK256 CALLER DUP5 MSTORE PUSH1 0x20 MSTORE PUSH1 0xFF DUP5 DUP5 KECCAK256 SLOAD AND PUSH2 0x472 JUMP JUMPDEST POP DUP3 CALLVALUE PUSH2 0x5FF JUMPI PUSH1 0x20 SWAP3 DUP4 PUSH1 0x3 NOT CALLDATASIZE ADD SLT PUSH2 0x426 JUMPI DUP3 CALLDATALOAD DUP3 MSTORE PUSH1 0x1 SWAP4 DUP5 DUP2 MSTORE DUP2 DUP4 KECCAK256 SWAP3 DUP3 MLOAD SWAP3 DUP3 DUP5 DUP2 DUP8 SLOAD SWAP2 DUP3 DUP2 MSTORE ADD SWAP1 DUP2 SWAP8 DUP6 MSTORE DUP3 DUP6 KECCAK256 SWAP1 DUP11 DUP7 JUMPDEST DUP3 DUP2 LT PUSH2 0x5E1 JUMPI POP POP POP POP DUP6 SWAP1 SUB PUSH1 0x1F ADD PUSH1 0x1F NOT AND DUP6 ADD SWAP7 SWAP1 POP PUSH8 0xFFFFFFFFFFFFFFFF DUP8 GT DUP6 DUP9 LT OR PUSH2 0x5CE JUMPI POP SWAP3 DUP7 SWAP3 DUP5 DUP8 DUP1 SWAP7 MSTORE DUP2 DUP7 ADD SWAP3 DUP3 DUP8 MSTORE MLOAD DUP1 SWAP4 MSTORE DUP6 ADD SWAP6 SWAP3 JUMPDEST DUP3 DUP2 LT PUSH2 0x5B2 JUMPI DUP6 DUP8 SUB DUP7 RETURN JUMPDEST DUP4 MLOAD PUSH1 0x1 PUSH1 0x1 PUSH1 0xA0 SHL SUB AND DUP8 MSTORE SWAP6 DUP2 ADD SWAP6 SWAP3 DUP2 ADD SWAP3 DUP5 ADD PUSH2 0x5A5 JUMP JUMPDEST PUSH4 0x4E487B71 PUSH1 0xE0 SHL DUP4 MSTORE PUSH1 0x41 SWAP1 MSTORE PUSH1 0x24 DUP3 REVERT JUMPDEST DUP4 SLOAD PUSH1 0x1 PUSH1 0x1 PUSH1 0xA0 SHL SUB AND DUP6 MSTORE DUP9 SWAP6 SWAP1 SWAP5 ADD SWAP4 SWAP3 DUP2 ADD SWAP3 DUP2 ADD PUSH2 0x55F JUMP JUMPDEST DUP1 REVERT JUMPDEST POP CALLVALUE PUSH2 0x3F9 JUMPI DUP2 PUSH1 0x3 NOT CALLDATASIZE ADD SLT PUSH2 0x3F9 JUMPI DUP2 PUSH1 0x20 SWAP4 PUSH1 0xFF SWAP3 PUSH2 0x622 PUSH2 0x93D JUMP JUMPDEST SWAP1 CALLDATALOAD DUP3 MSTORE DUP2 DUP7 MSTORE DUP3 DUP3 KECCAK256 PUSH1 0x1 PUSH1 0x1 PUSH1 0xA0 SHL SUB SWAP1 SWAP2 AND DUP3 MSTORE DUP6 MSTORE KECCAK256 SLOAD SWAP2 MLOAD SWAP2 AND ISZERO ISZERO DUP2 MSTORE RETURN JUMPDEST POP POP CALLVALUE PUSH2 0x426 JUMPI DUP2 PUSH1 0x3 NOT CALLDATASIZE ADD SLT PUSH2 0x426 JUMPI PUSH1 0x2 SLOAD SWAP1 MLOAD PUSH1 0x1 PUSH1 0x1 PUSH1 0xA0 SHL SUB SWAP1 SWAP2 AND DUP2 MSTORE PUSH1 0x20 SWAP1 RETURN JUMPDEST DUP4 DUP3 CALLVALUE PUSH2 0x426 JUMPI PUSH1 0x20 CALLDATASIZE PUSH1 0x3 NOT ADD SLT PUSH2 0x426 JUMPI PUSH2 0x482 SWAP1 CALLER SWAP1 CALLDATALOAD PUSH2 0x986 JUMP JUMPDEST POP POP CALLVALUE PUSH2 0x426 JUMPI DUP2 PUSH1 0x3 NOT CALLDATASIZE ADD SLT PUSH2 0x426 JUMPI PUSH1 0x20 SWAP1 MLOAD PUSH32 0x572F022558B687EED59080237CB7778171198110A24741B57D6ED3432DF881FC DUP2 MSTORE RETURN JUMPDEST POP POP CALLVALUE PUSH2 0x426 JUMPI DUP2 PUSH1 0x3 NOT CALLDATASIZE ADD SLT PUSH2 0x426 JUMPI PUSH1 0x20 SWAP1 MLOAD PUSH32 0xA49807205CE4D355092EF5A8A18F56E8913CF4A201FBE287825B095693C21775 DUP2 MSTORE RETURN JUMPDEST POP SWAP1 CALLVALUE PUSH2 0x3F9 JUMPI DUP1 PUSH1 0x3 NOT CALLDATASIZE ADD SLT PUSH2 0x3F9 JUMPI DUP2 CALLDATALOAD SWAP2 PUSH2 0x722 PUSH2 0x93D JUMP JUMPDEST SWAP1 PUSH1 0x0 DUP1 MLOAD PUSH1 0x20 PUSH2 0xAE6 DUP4 CODECOPY DUP2 MLOAD SWAP2 MSTORE DUP6 MSTORE PUSH1 0x20 SWAP3 DUP6 DUP5 MSTORE DUP1 DUP7 KECCAK256 CALLER DUP8 MSTORE DUP5 MSTORE PUSH1 0xFF DUP2 DUP8 KECCAK256 SLOAD AND DUP1 ISZERO PUSH2 0x8C8 JUMPI JUMPDEST ISZERO PUSH2 0x869 JUMPI PUSH1 0x1 PUSH1 0x1 PUSH1 0xA0 SHL SUB DUP4 AND SWAP4 DUP5 ISZERO PUSH2 0x80F JUMPI DUP6 DUP8 MSTORE DUP7 DUP2 MSTORE DUP2 DUP8 KECCAK256 DUP6 DUP9 MSTORE DUP2 MSTORE PUSH1 0xFF DUP3 DUP9 KECCAK256 SLOAD AND ISZERO PUSH2 0x784 JUMPI DUP7 DUP1 RETURN JUMPDEST PUSH1 0x1 SWAP1 DUP7 DUP9 MSTORE DUP8 DUP2 MSTORE DUP3 DUP9 KECCAK256 DUP7 DUP10 MSTORE DUP2 MSTORE DUP3 DUP9 KECCAK256 DUP3 PUSH1 0xFF NOT DUP3 SLOAD AND OR SWAP1 SSTORE DUP7 DUP9 MSTORE MSTORE DUP6 KECCAK256 DUP1 SLOAD SWAP2 PUSH1 0x1 PUSH1 0x40 SHL DUP4 LT ISZERO PUSH2 0x7FC JUMPI POP DUP2 PUSH2 0x1A5 SWAP2 PUSH1 0x1 PUSH2 0x7CC SWAP6 SWAP5 ADD DUP2 SSTORE PUSH2 0x958 JUMP JUMPDEST CALLER SWAP2 PUSH32 0x2F8788117E7EFF1D82E926EC794901D17C78024A50270940304540A733656F0D DUP5 DUP1 LOG4 CODESIZE DUP1 DUP1 DUP1 DUP1 DUP1 DUP7 DUP1 RETURN JUMPDEST PUSH4 0x4E487B71 PUSH1 0xE0 SHL DUP8 MSTORE PUSH1 0x41 SWAP1 MSTORE PUSH1 0x24 DUP7 REVERT JUMPDEST SWAP1 MLOAD PUSH3 0x461BCD PUSH1 0xE5 SHL DUP2 MSTORE SWAP2 DUP3 ADD MSTORE PUSH1 0x30 PUSH1 0x24 DUP3 ADD MSTORE PUSH32 0x416363657373436F6E74726F6C3A2063616E6E6F74206772616E7420726F6C65 PUSH1 0x44 DUP3 ADD MSTORE PUSH16 0x20746F207A65726F2061646472657373 PUSH1 0x80 SHL PUSH1 0x64 DUP3 ADD MSTORE PUSH1 0x84 SWAP1 REVERT JUMPDEST MLOAD PUSH3 0x461BCD PUSH1 0xE5 SHL DUP2 MSTORE SWAP1 DUP2 ADD DUP4 SWAP1 MSTORE PUSH1 0x34 PUSH1 0x24 DUP3 ADD MSTORE PUSH32 0x416363657373436F6E74726F6C3A206D757374206265206F776E6572206F7220 PUSH1 0x44 DUP3 ADD MSTORE PUSH20 0x61646D696E20746F206772616E7420726F6C6573 PUSH1 0x60 SHL PUSH1 0x64 DUP3 ADD MSTORE PUSH1 0x84 SWAP1 REVERT JUMPDEST POP PUSH32 0xA49807205CE4D355092EF5A8A18F56E8913CF4A201FBE287825B095693C21775 DUP7 MSTORE DUP6 DUP5 MSTORE DUP1 DUP7 KECCAK256 CALLER DUP8 MSTORE DUP5 MSTORE PUSH1 0xFF DUP2 DUP8 KECCAK256 SLOAD AND PUSH2 0x750 JUMP JUMPDEST DUP5 SWAP1 CALLVALUE PUSH2 0x426 JUMPI DUP2 PUSH1 0x3 NOT CALLDATASIZE ADD SLT PUSH2 0x426 JUMPI DUP1 PUSH32 0x5A3425EA67E73C95853ECFC0C443062DE292A303C186BC2AAC1178AE1B86C62A PUSH1 0x20 SWAP3 MSTORE RETURN JUMPDEST PUSH1 0x24 CALLDATALOAD SWAP1 PUSH1 0x1 PUSH1 0x1 PUSH1 0xA0 SHL SUB DUP3 AND DUP3 SUB PUSH2 0x953 JUMPI JUMP JUMPDEST PUSH1 0x0 DUP1 REVERT JUMPDEST DUP1 SLOAD DUP3 LT ISZERO PUSH2 0x970 JUMPI PUSH1 0x0 MSTORE PUSH1 0x20 PUSH1 0x0 KECCAK256 ADD SWAP1 PUSH1 0x0 SWAP1 JUMP JUMPDEST PUSH4 0x4E487B71 PUSH1 0xE0 SHL PUSH1 0x0 MSTORE PUSH1 0x32 PUSH1 0x4 MSTORE PUSH1 0x24 PUSH1 0x0 REVERT JUMPDEST PUSH1 0x0 DUP2 DUP2 MSTORE PUSH1 0x20 DUP2 DUP2 MSTORE PUSH1 0x40 DUP1 DUP4 KECCAK256 PUSH1 0x1 PUSH1 0x1 PUSH1 0xA0 SHL SUB SWAP6 DUP7 AND DUP1 DUP6 MSTORE SWAP3 MSTORE DUP3 KECCAK256 SLOAD SWAP2 SWAP4 SWAP1 SWAP3 SWAP2 PUSH1 0xFF AND PUSH2 0x9BB JUMPI JUMPDEST POP POP POP POP JUMP JUMPDEST DUP2 DUP5 MSTORE DUP4 PUSH1 0x20 MSTORE PUSH1 0x40 DUP5 KECCAK256 DUP4 DUP6 MSTORE PUSH1 0x20 MSTORE PUSH1 0x40 DUP5 KECCAK256 PUSH1 0xFF NOT DUP2 SLOAD AND SWAP1 SSTORE DUP2 DUP5 MSTORE PUSH1 0x1 SWAP1 DUP2 PUSH1 0x20 MSTORE PUSH1 0x40 DUP6 KECCAK256 SWAP1 DUP3 DUP7 SWAP1 JUMPDEST PUSH2 0xA22 JUMPI JUMPDEST POP POP POP POP PUSH32 0xF6391F5C32D9C69D2A47EA670B442974B53935D1EDC7FD64EB21E047A839171B CALLER SWAP4 DUP1 LOG4 CODESIZE DUP1 DUP1 DUP1 PUSH2 0x9B5 JUMP JUMPDEST DUP3 SLOAD DUP1 DUP3 LT ISZERO PUSH2 0xADF JUMPI DUP3 DUP8 PUSH2 0xA38 DUP5 DUP8 PUSH2 0x958 JUMP JUMPDEST SWAP3 SWAP1 SLOAD PUSH1 0x3 SWAP4 DUP5 SHL SHR AND EQ PUSH2 0xA6E JUMPI POP POP PUSH1 0x0 NOT DUP2 EQ PUSH2 0xA5A JUMPI DUP4 ADD DUP4 PUSH2 0x9EB JUMP JUMPDEST PUSH4 0x4E487B71 PUSH1 0xE0 SHL DUP8 MSTORE PUSH1 0x11 PUSH1 0x4 MSTORE PUSH1 0x24 DUP8 REVERT JUMPDEST SWAP4 SWAP5 POP PUSH1 0x0 NOT SWAP4 SWAP2 SWAP3 SWAP2 SWAP1 DUP5 DUP2 ADD SWAP1 DUP2 GT PUSH2 0xACB JUMPI SWAP2 PUSH2 0x1A5 SWAP2 PUSH2 0x2DA PUSH2 0xA96 SWAP6 SWAP5 DUP9 PUSH2 0x958 JUMP JUMPDEST DUP2 SLOAD DUP1 ISZERO PUSH2 0xAB7 JUMPI ADD SWAP1 PUSH2 0xAAD PUSH2 0x2FE DUP4 DUP4 PUSH2 0x958 JUMP JUMPDEST SSTORE CODESIZE DUP1 DUP1 DUP1 PUSH2 0x9F0 JUMP JUMPDEST PUSH4 0x4E487B71 PUSH1 0xE0 SHL DUP7 MSTORE PUSH1 0x31 PUSH1 0x4 MSTORE PUSH1 0x24 DUP7 REVERT JUMPDEST PUSH4 0x4E487B71 PUSH1 0xE0 SHL DUP10 MSTORE PUSH1 0x11 PUSH1 0x4 MSTORE PUSH1 0x24 DUP10 REVERT JUMPDEST POP PUSH2 0x9F0 JUMP INVALID 0xB1 SWAP6 CHAINID 0xDF CREATE 0x1E DUP6 PUSH16 0xB3F010C267A7B1C60363CF8A4664E21C 0xC8 SWAP13 0x26 0x22 CHAINID KECCAK256 0x21 0x4E LOG2 PUSH5 0x6970667358 0x22 SLT KECCAK256 0xAB 0xCA SDIV REVERT RETURN INVALID PUSH9 0x3DC7EE624692D25D9B 0xAB PUSH15 0xB6814B958B8356E3E04C7BFBDD0D64 PUSH20 0x6F6C634300081400330000000000000000000000 "},"methodIdentifiers":{"ADMIN_ROLE()":"75b238fc","EMPLOYEE_ROLE()":"2a4cab90","FINANCE_MANAGER_ROLE()":"8a780f65","OWNER_ROLE()":"e58378bb","getRoleMembers(bytes32)":"a3246ad3","grantRole(bytes32,address)":"2f2ff15d","hasRole(bytes32,address)":"91d14854","owner()":"8da5cb5b","renounceRole(bytes32)":"8bb9c5bf","revokeRole(bytes32,address)":"d547741f","transferOwnership(address)":"f2fde38b"}}}}}