{"contracts/PaymentApproval.sol":{"PaymentApproval":{"abi":[{"inputs":[{"internalType":"uint256","name":"_autoApprovalDelay","type":"uint256"}],"stateMutability":"nonpayable","type":"constructor"},{"anonymous":false,"inputs":[{"indexed":true,"internalType":"uint256","name":"recordId","type":"uint256"},{"indexed":true,"internalType":"uint256","name":"requestId","type":"uint256"},{"indexed":true,"internalType":"address","name":"approver","type":"address"},{"indexed":false,"internalType":"enum PaymentApproval.ApprovalStatus","name":"decision","type":"uint8"}],"name":"ApprovalRecordAdded","type":"event"},{"anonymous":false,"inputs":[{"indexed":false,"internalType":"uint256","name":"oldDelay","type":"uint256"},{"indexed":false,"internalType":"uint256","name":"newDelay","type":"uint256"}],"name":"AutoApprovalDelayUpdated","type":"event"},{"anonymous":false,"inputs":[{"indexed":true,"internalType":"address","name":"previousOwner","type":"address"},{"indexed":true,"internalType":"address","name":"newOwner","type":"address"}],"name":"OwnershipTransferred","type":"event"},{"anonymous":false,"inputs":[{"indexed":true,"internalType":"uint256","name":"requestId","type":"uint256"},{"indexed":true,"internalType":"address","name":"approver","type":"address"},{"indexed":false,"internalType":"uint256","name":"timestamp","type":"uint256"}],"name":"PaymentRequestApproved","type":"event"},{"anonymous":false,"inputs":[{"indexed":true,"internalType":"uint256","name":"requestId","type":"uint256"},{"indexed":true,"internalType":"address","name":"cancelledBy","type":"address"},{"indexed":false,"internalType":"uint256","name":"timestamp","type":"uint256"}],"name":"PaymentRequestCancelled","type":"event"},{"anonymous":false,"inputs":[{"indexed":true,"internalType":"uint256","name":"requestId","type":"uint256"},{"indexed":true,"internalType":"address","name":"requestedBy","type":"address"},{"indexed":false,"internalType":"uint256","name":"employeeCount","type":"uint256"},{"indexed":false,"internalType":"uint256","name":"totalAmount","type":"uint256"},{"indexed":false,"internalType":"address","name":"token","type":"address"}],"name":"PaymentRequestCreated","type":"event"},{"anonymous":false,"inputs":[{"indexed":true,"internalType":"uint256","name":"requestId","type":"uint256"},{"indexed":false,"internalType":"uint256","name":"timestamp","type":"uint256"}],"name":"PaymentRequestExecuted","type":"event"},{"anonymous":false,"inputs":[{"indexed":true,"internalType":"uint256","name":"requestId","type":"uint256"},{"indexed":true,"internalType":"address","name":"approver","type":"address"},{"indexed":false,"internalType":"string","name":"reason","type":"string"},{"indexed":false,"internalType":"uint256","name":"timestamp","type":"uint256"}],"name":"PaymentRequestRejected","type":"event"},{"anonymous":false,"inputs":[{"indexed":true,"internalType":"bytes32","name":"role","type":"bytes32"},{"indexed":true,"internalType":"address","name":"account","type":"address"},{"indexed":true,"internalType":"address","name":"sender","type":"address"}],"name":"RoleGranted","type":"event"},{"anonymous":false,"inputs":[{"indexed":true,"internalType":"bytes32","name":"role","type":"bytes32"},{"indexed":true,"internalType":"address","name":"account","type":"address"},{"indexed":true,"internalType":"address","name":"sender","type":"address"}],"name":"RoleRevoked","type":"event"},{"inputs":[],"name":"ADMIN_ROLE","outputs":[{"internalType":"bytes32","name":"","type":"bytes32"}],"stateMutability":"view","type":"function"},{"inputs":[],"name":"EMPLOYEE_ROLE","outputs":[{"internalType":"bytes32","name":"","type":"bytes32"}],"stateMutability":"view","type":"function"},{"inputs":[],"name":"FINANCE_MANAGER_ROLE","outputs":[{"internalType":"bytes32","name":"","type":"bytes32"}],"stateMutability":"view","type":"function"},{"inputs":[],"name":"OWNER_ROLE","outputs":[{"internalType":"bytes32","name":"","type":"bytes32"}],"stateMutability":"view","type":"function"},{"inputs":[{"internalType":"uint256","name":"requestId","type":"uint256"},{"internalType":"string","name":"comments","type":"string"}],"name":"approvePaymentRequest","outputs":[],"stateMutability":"nonpayable","type":"function"},{"inputs":[],"name":"autoApprovalDelay","outputs":[{"internalType":"uint256","name":"","type":"uint256"}],"stateMutability":"view","type":"function"},{"inputs":[{"internalType":"uint256","name":"requestId","type":"uint256"}],"name":"autoApprove","outputs":[],"stateMutability":"nonpayable","type":"function"},{"inputs":[{"internalType":"uint256","name":"requestId","type":"uint256"}],"name":"canAutoApprove","outputs":[{"internalType":"bool","name":"","type":"bool"}],"stateMutability":"view","type":"function"},{"inputs":[{"internalType":"uint256","name":"requestId","type":"uint256"},{"internalType":"string","name":"comments","type":"string"}],"name":"cancelPaymentRequest","outputs":[],"stateMutability":"nonpayable","type":"function"},{"inputs":[{"internalType":"uint256[]","name":"employeeIds","type":"uint256[]"},{"internalType":"address[]","name":"employeeWallets","type":"address[]"},{"internalType":"uint256[]","name":"amounts","type":"uint256[]"},{"internalType":"address","name":"token","type":"address"},{"internalType":"string","name":"reason","type":"string"}],"name":"createPaymentRequest","outputs":[{"internalType":"uint256","name":"","type":"uint256"}],"stateMutability":"nonpayable","type":"function"},{"inputs":[],"name":"getAllRequestIds","outputs":[{"internalType":"uint256[]","name":"","type":"uint256[]"}],"stateMutability":"view","type":"function"},{"inputs":[{"internalType":"uint256","name":"requestId","type":"uint256"}],"name":"getApprovalHistory","outputs":[{"components":[{"internalType":"uint256","name":"recordId","type":"uint256"},{"internalType":"uint256","name":"requestId","type":"uint256"},{"internalType":"address","name":"approver","type":"address"},{"internalType":"enum PaymentApproval.ApprovalStatus","name":"decision","type":"uint8"},{"internalType":"uint256","name":"timestamp","type":"uint256"},{"internalType":"string","name":"comments","type":"string"}],"internalType":"struct PaymentApproval.ApprovalRecord[]","name":"","type":"tuple[]"}],"stateMutability":"view","type":"function"},{"inputs":[{"internalType":"uint256","name":"requestId","type":"uint256"}],"name":"getPaymentRequest","outputs":[{"components":[{"internalType":"uint256","name":"requestId","type":"uint256"},{"internalType":"uint256[]","name":"employeeIds","type":"uint256[]"},{"internalType":"address[]","name":"employeeWallets","type":"address[]"},{"internalType":"uint256[]","name":"amounts","type":"uint256[]"},{"internalType":"address","name":"token","type":"address"},{"internalType":"enum PaymentApproval.ApprovalStatus","name":"status","type":"uint8"},{"internalType":"uint256","name":"createdAt","type":"uint256"},{"internalType":"uint256","name":"approvedAt","type":"uint256"},{"internalType":"uint256","name":"executedAt","type":"uint256"},{"internalType":"uint256","name":"autoApprovalTime","type":"uint256"},{"internalType":"address","name":"requestedBy","type":"address"},{"internalType":"address","name":"approvedBy","type":"address"},{"internalType":"string","name":"reason","type":"string"}],"internalType":"struct PaymentApproval.PaymentRequest","name":"","type":"tuple"}],"stateMutability":"view","type":"function"},{"inputs":[],"name":"getPendingRequests","outputs":[{"internalType":"uint256[]","name":"","type":"uint256[]"}],"stateMutability":"view","type":"function"},{"inputs":[{"internalType":"enum PaymentApproval.ApprovalStatus","name":"status","type":"uint8"}],"name":"getRequestsByStatus","outputs":[{"internalType":"uint256[]","name":"","type":"uint256[]"}],"stateMutability":"view","type":"function"},{"inputs":[{"internalType":"bytes32","name":"role","type":"bytes32"}],"name":"getRoleMembers","outputs":[{"internalType":"address[]","name":"","type":"address[]"}],"stateMutability":"view","type":"function"},{"inputs":[],"name":"getTotalRequests","outputs":[{"internalType":"uint256","name":"","type":"uint256"}],"stateMutability":"view","type":"function"},{"inputs":[{"internalType":"bytes32","name":"role","type":"bytes32"},{"internalType":"address","name":"account","type":"address"}],"name":"grantRole","outputs":[],"stateMutability":"nonpayable","type":"function"},{"inputs":[{"internalType":"bytes32","name":"role","type":"bytes32"},{"internalType":"address","name":"account","type":"address"}],"name":"hasRole","outputs":[{"internalType":"bool","name":"","type":"bool"}],"stateMutability":"view","type":"function"},{"inputs":[{"internalType":"uint256","name":"requestId","type":"uint256"}],"name":"markAsExecuted","outputs":[],"stateMutability":"nonpayable","type":"function"},{"inputs":[],"name":"owner","outputs":[{"internalType":"address","name":"","type":"address"}],"stateMutability":"view","type":"function"},{"inputs":[{"internalType":"uint256","name":"requestId","type":"uint256"},{"internalType":"string","name":"comments","type":"string"}],"name":"rejectPaymentRequest","outputs":[],"stateMutability":"nonpayable","type":"function"},{"inputs":[{"internalType":"bytes32","name":"role","type":"bytes32"}],"name":"renounceRole","outputs":[],"stateMutability":"nonpayable","type":"function"},{"inputs":[{"internalType":"bytes32","name":"role","type":"bytes32"},{"internalType":"address","name":"account","type":"address"}],"name":"revokeRole","outputs":[],"stateMutability":"nonpayable","type":"function"},{"inputs":[{"internalType":"uint256","name":"newDelay","type":"uint256"}],"name":"setAutoApprovalDelay","outputs":[],"stateMutability":"nonpayable","type":"function"},{"inputs":[{"internalType":"address","name":"newOwner","type":"address"}],"name":"transferOwnership","outputs":[],"stateMutability":"nonpayable","type":"function"}],"evm":{"bytecode":{"linkReferences":{},"object":"6080346200016c57601f620032a338819003918201601f1916830192916001600160401b038411838510176200017157808392604095865283396020928391810103126200016c57519060018060a01b031990338260025416176002557fb19546dff01e856fb3f010c267a7b1c60363cf8a4664e21cc89c26224620214e91600091838352828152858320338452815260ff868420541615620000ba575b8585600160035560016004556005555161311b9081620001888239f35b8383528281528583203384528152858320600160ff198254161790558383526001815285832090815491680100000000000000008310156200015857600183018082558310156200014457845283200190339082541617905533917f2f8788117e7eff1d82e926ec794901d17c78024a50270940304540a733656f0d339280a4388080806200009d565b634e487b7160e01b85526032600452602485fd5b634e487b7160e01b85526041600452602485fd5b600080fd5b634e487b7160e01b600052604160045260246000fdfe6080604052600436101561001257600080fd5b60003560e01c80631a0db0bc146120fc5780632a4cab90146120c15780632f2ff15d14611ec3578063741aea6414611ce457806374e83f8f14611cc657806375b238fc14611c8b57806380a1f71214611c105780638a780f6514611bd55780638bb9c5bf14611bb85780638da5cb5b14611b8f57806391d1485414611b42578063a3246ad314611b02578063a97c275b146119a9578063b0574b6814611948578063b09fbe1a146116f0578063b45d9412146115c5578063b9a116bd146113ba578063d067493f14611392578063d547741f146112b6578063d59b17b814611131578063e58378bb146110f6578063ea1fb4c5146108ee578063ec1e6bd614610863578063f0e22d5214610845578063f2fde38b1461051b5763fe37969a1461013a57600080fd5b346105165761014836612528565b3360009081526000805160206130a683398151915260205260409020549192909160ff1680156104f0575b156104915780600052600860205261019260ff60406000205416612af8565b8060005260066020526004604060002001805460ff8160a01c166005811015610465576101bf9015612b54565b60ff60a01b1916600160a11b1790556101d9368385612a1a565b926004546101e68161282d565b600455604051946101f6866126b6565b8186528360208701523360408701526002606087015242608087015260a08601528260005260076020526040600020805490600160401b82101561044f576001820180825582101561047b57600052600560206000209102018551815560208601516001820155600281019060018060a01b036040880151166001600160601b0360a01b83541617825560608701519060058210156104655761029d60049260a094612a9a565b60808801516003820155019501519485516001600160401b03811161044f576102c68254612abe565b601f8111610412575b506020601f82116001146103885781907ff4f337f91caa9841dae2416e1308ef55e7c210ddf33efccb52473ce0ffce73e696979860009261037d575b50508160011b916000199060031b1c19161790555b8360405191600283526000805160206130c683398151915260203394a461034683612ffb565b83604051916040835281604084015260608301376000606085830101524260208201526060813395601f80199101168101030190a3005b01519050388061030b565b601f198216978360005260206000209860005b8181106103fa5750917ff4f337f91caa9841dae2416e1308ef55e7c210ddf33efccb52473ce0ffce73e6979899918460019594106103e1575b505050811b019055610320565b015160001960f88460031b161c191690553880806103d4565b838301518b556001909a01996020938401930161039b565b61043f90836000526020600020601f840160051c81019160208510610445575b601f0160051c0190612a60565b386102cf565b9091508190610432565b634e487b7160e01b600052604160045260246000fd5b634e487b7160e01b600052602160045260246000fd5b634e487b7160e01b600052603260045260246000fd5b60405162461bcd60e51b815260206004820152603160248201527f5061796d656e74417070726f76616c3a206d7573742062652061646d696e206f6044820152701c881bdddb995c881d1bc81c995a9958dd607a1b6064820152608490fd5b50336000908152600080516020613086833981519152602052604090205460ff16610173565b600080fd5b3461051657602080600319360112610516576004356001600160a01b03818116929183810361051657600254928284169361055785331461274c565b85156107eb5785906001600160601b0360a01b16176002557fb19546dff01e856fb3f010c267a7b1c60363cf8a4664e21cc89c26224620214e928360005260008252604060002085600052825260ff604060002054166106a0575b508260005260008152604060002085600052815260ff60406000205416156105ff575b5050507f8be0079c531659141344cd1fd0a4f28419497f9722a3daafe3b4186f6b6457e0600080a3005b6001908360005260008152604060002086600052815260406000208260ff198254161790558360005252604060002090815491600160401b83101561044f578261065191600161067095018155612815565b90919082549060031b9160018060a01b03809116831b921b1916179055565b8233917f2f8788117e7eff1d82e926ec794901d17c78024a50270940304540a733656f0d600080a48280806105d5565b9392919082600052600081526040600020846000528152604060002060ff19815416905582600052600194858252604060002090866000905b610714575b50505090919293503384847ff6391f5c32d9c69d2a47ea670b442974b53935d1edc7fd64eb21e047a839171b600080a4856105b2565b8254808210156107e55782908861072b8487612815565b939054600394851b1c161461074b5750506107459061282d565b876106d9565b909293949596979850600019938482019182116107cf57610780936107736106519388612815565b9054911b1c169185612815565b815480156107b95701906107ac6107978383612815565b81549060018060a01b039060031b1b19169055565b55908392918680806106de565b634e487b7160e01b600052603160045260246000fd5b634e487b7160e01b600052601160045260246000fd5b506106de565b60405162461bcd60e51b815260048101839052602c60248201527f416363657373436f6e74726f6c3a206e6577206f776e6572206973207468652060448201526b7a65726f206164647265737360a01b6064820152608490fd5b34610516576000366003190112610516576020600954604051908152f35b3461051657600036600319011261051657604051806009549182815260208091019260096000527f6e1540171b6c0c960b71a7020d9f60077f6af931a8bbf590da0223dacf75c7af916000905b8282106108d7576108d3856108c7818903826126d1565b60405191829182612571565b0390f35b8354865294850194600193840193909101906108b0565b346105165760a0366003190112610516576004356001600160401b0381116105165761091e90369060040161266a565b6024356001600160401b0381116105165761093d90369060040161266a565b91906044356001600160401b0381116105165761095e90369060040161266a565b94606435929091906001600160a01b0384168403610516576001600160401b036084351161051657610995366084356004016124fb565b3360009081527fb0b4ebebfe6253ca64923e3c53f81360b506c7a8e002c8b4d138d245e76cf24f6020526040902054919390929160ff1680156110d0575b1561107157861561101c5787871480611013575b15610fbf5760009860005b818110610eb1575060035498610a078a61282d565b60035560009360055480610e9e575b50610a3260405198610a278a61269a565b8c8a528b36916129c0565b6020890152610a40826129a9565b91610a4e60405193846126d1565b8083526020830191368260051b8201116105165780925b8260051b82018410610e7c57505050506040870152610ad794939291610a8c9136916129c0565b606086015260018060a01b0386166080860152600060a08601524260c0860152600060e086015260006101008601526101208501523361014085015260006101608501523691612a1a565b61018082015283600052600660205260406000208151815560208201518051906001600160401b03821161044f57600160401b821161044f5760206001840191610b2684845481865585612a77565b0190600052602060002060005b838110610e68575050505060408201518051906001600160401b03821161044f57600160401b821161044f5760206002840191610b7584845481865585612a77565b0190600052602060002060005b838110610e4b575050505060608201518051906001600160401b03821161044f57600160401b821161044f5760206003840191610bc484845481865585612a77565b0190600052602060002060005b838110610e375750505050600481019060018060a01b03608084015116906001600160601b0360a01b918284541617835560a084015191600583101561046557610c20600b9361018095612a9a565b60c0850151600583015560e08501516006830155610100850151600783015561012085015160088301556009820160018060a01b036101408701511682825416179055600a82019060018060a01b036101608701511690825416179055019101518051906001600160401b03821161044f578190610c9e8454612abe565b601f8111610e05575b50602090601f8311600114610d9f57600092610d94575b50508160011b916000199060031b1c19161790555b8260005260086020526040600020600160ff19825416179055600954600160401b81101561044f5783610d0f826001610d2894016009556127a7565b90919082549060031b91821b91600019901b1916179055565b600a5493600160401b85101561044f57610d4e84610d0f87600160209901600a556127de565b6040519283528483015260018060a01b03166040820152817fe0d8ee83f927a30c8be04c8505ccfc6846816a94c3e55dc0a6daf58219955d1760603393a3604051908152f35b015190508780610cbe565b6000858152602081209350601f198516905b818110610ded5750908460019594939210610dd4575b505050811b019055610cd3565b015160001960f88460031b161c19169055878080610dc7565b92936020600181928786015181550195019301610db1565b610e3190856000526020600020601f850160051c8101916020861061044557601f0160051c0190612a60565b88610ca7565b600190602084519401938184015501610bd1565b82516001600160a01b031681830155602090920191600101610b82565b600190602084519401938184015501610b33565b83356001600160a01b0381169003610516578335815260209384019301610a65565b610eaa9195504261299c565b938c610a16565b99610ebd8b838561298c565b3515610f6057610ece8b8b8661298c565b356001600160a01b038116908190036105165715610f0a57610eff610f0591610ef88d858761298c565b359061299c565b9a61282d565b6109f2565b60405162461bcd60e51b815260206004820152602860248201527f5061796d656e74417070726f76616c3a20696e76616c696420656d706c6f796560448201526719481dd85b1b195d60c21b6064820152608490fd5b60405162461bcd60e51b815260206004820152603160248201527f5061796d656e74417070726f76616c3a20616d6f756e74206d7573742062652060448201527067726561746572207468616e207a65726f60781b6064820152608490fd5b60405162461bcd60e51b815260206004820152602660248201527f5061796d656e74417070726f76616c3a206172726179206c656e677468206d696044820152650e6dac2e8c6d60d31b6064820152608490fd5b508887146109e7565b60405162461bcd60e51b815260206004820152602760248201527f5061796d656e74417070726f76616c3a206e6f20656d706c6f796565732073706044820152661958da599a595960ca1b6064820152608490fd5b60405162461bcd60e51b815260206004820152603160248201527f5061796d656e74417070726f76616c3a206d7573742062652066696e616e63656044820152701036b0b730b3b2b91037b91030b236b4b760791b6064820152608490fd5b503360009081526000805160206130a6833981519152602052604090205460ff166109d3565b346105165760003660031901126105165760206040517fb19546dff01e856fb3f010c267a7b1c60363cf8a4664e21cc89c26224620214e8152f35b34610516576020806003193601126105165760043590816000526008815260ff916111628360406000205416612af8565b6000526007815260406000208054611179816129a9565b9361118760405195866126d1565b81855260009283528383208486019391845b84841061124557604080518881528951818a01819052600092600582901b83018101918a918c9085015b8287106111d05785850386f35b909192938280611235600193603f198a82030186528851805182528381015184830152858060a01b0360408201511660408301526112166060808301519084019061261d565b6080808201519083015260a0809101519160c08092820152019061262a565b96019201960195929190926111c3565b60058760019260409a999a5161125a816126b6565b8654815284870154838201526002870154858060a01b038116604083015261128b8760a092831c1660608401612a0e565b600388015460808301526112a160048901612bff565b90820152815201930193019291969596611199565b34610516576040366003190112610516576112cf61255b565b336000908152600080516020613086833981519152602052604090205460ff16801561136c575b15611309576113079060043561283c565b005b60405162461bcd60e51b815260206004820152603560248201527f416363657373436f6e74726f6c3a206d757374206265206f776e6572206f722060448201527461646d696e20746f207265766f6b6520726f6c657360581b6064820152608490fd5b503360009081526000805160206130a6833981519152602052604090205460ff166112f6565b346105165760203660031901126105165760206113b0600435612ca3565b6040519015158152f35b34610516576113c836612528565b3360009081526000805160206130a68339815191526020908152604090912054909392919060ff168015611583575b1561152357826000526008845261141560ff60406000205416612af8565b8260005260068452604060002060048101805460ff8160a01c166005811015610465576114429015612b54565b60098301546001600160a01b031633146114ca5760ff60a01b1916600160a01b179055426006820155600a0180546001600160a01b031916331790556114949161148d913691612a1a565b3383612dd3565b61149d81612ffb565b7fdd199c4568b2fd8a463f64486d5c66cd8f715b3cb6322c5637edff886020490f604051924284523393a3005b60405162461bcd60e51b815260048101889052602b60248201527f5061796d656e74417070726f76616c3a2063616e6e6f7420617070726f76652060448201526a1bdddb881c995c5d595cdd60aa1b6064820152608490fd5b60405162461bcd60e51b815260048101859052603260248201527f5061796d656e74417070726f76616c3a206d7573742062652061646d696e206f60448201527172206f776e657220746f20617070726f766560701b6064820152608490fd5b507fb19546dff01e856fb3f010c267a7b1c60363cf8a4664e21cc89c26224620214e60005260008452604060002033600052845260ff604060002054166113f7565b34610516576020366003190112610516576004356115e281612ca3565b1561169f57806000526006602052600a604060002060048101600160a01b60ff60a01b1982541617905542600682015501306001600160601b0360a01b82541617905560405160408101908082106001600160401b0383111761044f5761166791604052600d81526c105d5d1bcb585c1c1c9bdd9959609a1b60208201523083612dd3565b61167081612ffb565b604051904282527fdd199c4568b2fd8a463f64486d5c66cd8f715b3cb6322c5637edff886020490f60203093a3005b60405162461bcd60e51b8152602060048201526024808201527f5061796d656e74417070726f76616c3a2063616e6e6f74206175746f2d617070604482015263726f766560e01b6064820152608490fd5b346105165760203660031901126105165760043560606101806040516117158161269a565b60008152826020820152826040820152828082015260006080820152600060a0820152600060c0820152600060e08201526000610100820152600061012082015260006101408201526000610160820152015280600052600860205261178260ff60406000205416612af8565b60005260066020526108d36040600020611855600b604051926117a48461269a565b805484526117b460018201612bb0565b60208501526117c5600282016126f2565b60408501526117d660038201612bb0565b606085015260048101546001600160a01b03811660808601526118039060a090811c60ff16908601612a0e565b600581015460c0850152600681015460e08501526007810154610100850152600881015461012085015260098101546001600160a01b03908116610140860152600a8201541661016085015201612bff565b61018082015260405191829160208352805160208401526101806118bc6118a661189060208501516101a060408901526101c08801906125e9565b6040850151878203601f190160608901526125ac565b6060840151868203601f190160808801526125e9565b9160018060a01b0360808201511660a08601526118e160a082015160c087019061261d565b60c081015160e086015260e081015161010086015261010081015161012086015261012081015161014086015260018060a01b036101408201511661016086015260018060a01b0361016082015116828601520151601f19848303016101a085015261262a565b34610516576020366003190112610516577f9b21170a84b37dca648b25a24b5a4d8b98d2274da5ea623c0a2e60f7f6dde2c4604060043561199460018060a01b0360025416331461274c565b600554908060055582519182526020820152a1005b346105165760208060031936011261051657600435600580821015918261051657600093600093600954945b858110611aa457506119e6866129a9565b956119f460405197886126d1565b808752611a03601f19916129a9565b01368388013760009260005b868110611a2457604051806108d38a82612571565b611a2d816127a7565b9054600391821b1c600052600685528360ff60046040600020015460a01c16906104655787811015610465578314611a6f575b50611a6a9061282d565b611a0f565b611a7a8296926127a7565b9054911b1c885182101561047b5781611a9d9186611a6a948a1b8c01015261282d565b9490611a60565b611aad816127a7565b90549060031b1c600052600683528160ff60046040600020015460a01c16906104655785811015610465578414611aed575b611ae89061282d565b6119d5565b95611afa611ae89161282d565b969050611adf565b346105165760203660031901126105165760043560005260016020526108d3611b2e60406000206126f2565b6040519182916020835260208301906125ac565b3461051657604036600319011261051657611b5b61255b565b600435600052600060205260406000209060018060a01b0316600052602052602060ff604060002054166040519015158152f35b34610516576000366003190112610516576002546040516001600160a01b039091168152602090f35b34610516576020366003190112610516576113073360043561283c565b346105165760003660031901126105165760206040517f572f022558b687eed59080237cb7778171198110a24741b57d6ed3432df881fc8152f35b346105165760003660031901126105165760405180600a5491828152602080910192600a6000527fc65a7bb8d6351c1cf70c95a316cc6a92839c986682d98bc35f958f4883f9d2a8916000905b828210611c74576108d3856108c7818903826126d1565b835486529485019460019384019390910190611c5d565b346105165760003660031901126105165760206040517fa49807205ce4d355092ef5a8a18f56e8913cf4a201fbe287825b095693c217758152f35b34610516576000366003190112610516576020600554604051908152f35b3461051657602080600319360112610516576004357fa49807205ce4d355092ef5a8a18f56e8913cf4a201fbe287825b095693c2177560005260008252604060002033600052825260ff604060002054168015611e81575b15611e20578060005260088252611d5a60ff60406000205416612af8565b8060005260068252604060002091600483019283549360ff8560a01c16600581101561046557600103611dc9577f64232ffdde5e36bf88c77d8d4ef2ade7ec7dc87549522e094843ef9be379b6a49394600160a21b9060ff60a01b1916179055600742910155604051428152a2005b60405162461bcd60e51b815260048101849052602960248201527f5061796d656e74417070726f76616c3a2072657175657374206d75737420626560448201526808185c1c1c9bdd995960ba1b6064820152608490fd5b60405162461bcd60e51b815260048101839052603360248201527f5061796d656e74417070726f76616c3a206e6f7420617574686f72697a6564206044820152721d1bc81b585c9ac8185cc8195e1958dd5d1959606a1b6064820152608490fd5b507f572f022558b687eed59080237cb7778171198110a24741b57d6ed3432df881fc60005260008252604060002033600052825260ff60406000205416611d3c565b3461051657604036600319011261051657600435611edf61255b565b336000908152600080516020613086833981519152602090815260409091205490919060ff16801561207f575b1561201d576001600160a01b038116918215611fc0578360005260008152604060002083600052815260ff6040600020541615611f4557005b6001908460005260008152604060002084600052815260406000208260ff198254161790558460005252604060002090815491600160401b83101561044f5782610651916001611f9795018155612815565b33917f2f8788117e7eff1d82e926ec794901d17c78024a50270940304540a733656f0d600080a4005b6084906040519062461bcd60e51b82526004820152603060248201527f416363657373436f6e74726f6c3a2063616e6e6f74206772616e7420726f6c6560448201526f20746f207a65726f206164647265737360801b6064820152fd5b60405162461bcd60e51b815260048101839052603460248201527f416363657373436f6e74726f6c3a206d757374206265206f776e6572206f722060448201527361646d696e20746f206772616e7420726f6c657360601b6064820152608490fd5b507fa49807205ce4d355092ef5a8a18f56e8913cf4a201fbe287825b095693c2177560005260008252604060002033600052825260ff60406000205416611f0c565b346105165760003660031901126105165760206040517f5a3425ea67e73c95853ecfc0c443062de292a303c186bc2aac1178ae1b86c62a8152f35b346105165761210a36612528565b82600052600860205261212460ff60406000205416612af8565b82600052600660205260406000209160018060a01b03600984015416331480156124d5575b80156124af575b156124585760048301549160ff8360a01c16600581101561046557801590811561244d575b50156123e25760ff60a01b19909216600360a01b17600484015561219a913691612a1a565b600454906121a78261282d565b600455604051906121b7826126b6565b8282528460208301523360408301526003606083015242608083015260a08201528360005260076020526040600020805490600160401b82101561044f576001820180825582101561047b57600052600560206000209102018151815560208201516001820155600281019060018060a01b036040840151166001600160601b0360a01b83541617825560608301519060058210156104655761225e60049260a094612a9a565b60808401516003820155019101518051906001600160401b03821161044f576122878354612abe565b601f81116123b0575b50602090601f831160011461234157918060ff96949260049694600092612336575b50508160011b916000199060031b1c19161790555b8460405191600383526000805160206130c683398151915260203394a4015460a01c1660058110156104655715612328575b604051904282527fa328181bc64cd2008e108c07b86e69235c90eab0f4ef827cdb3eb578592bd3f760203393a3005b61233181612ffb565b6122f9565b0151905088806122b2565b90601f198316918460005260206000209260005b81811061239857509260019285926004989660ff9a98961061237f575b505050811b0190556122c7565b015160001960f88460031b161c19169055888080612372565b92936020600181928786015181550195019301612355565b6123dc90846000526020600020601f850160051c8101916020861061044557601f0160051c0190612a60565b86612290565b60405162461bcd60e51b815260206004820152603d60248201527f5061796d656e74417070726f76616c3a2063616e206f6e6c792063616e63656c60448201527f2070656e64696e67206f7220617070726f7665642072657175657374730000006064820152608490fd5b600191501486612175565b60405162461bcd60e51b815260206004820152602960248201527f5061796d656e74417070726f76616c3a206e6f7420617574686f72697a6564206044820152681d1bc818d85b98d95b60ba1b6064820152608490fd5b50336000908152600080516020613086833981519152602052604090205460ff16612150565b503360009081526000805160206130a6833981519152602052604090205460ff16612149565b9181601f84011215610516578235916001600160401b038311610516576020838186019501011161051657565b9060406003198301126105165760043591602435906001600160401b03821161051657612557916004016124fb565b9091565b602435906001600160a01b038216820361051657565b6020908160408183019282815285518094520193019160005b828110612598575050505090565b83518552938101939281019260010161258a565b90815180825260208080930193019160005b8281106125cc575050505090565b83516001600160a01b0316855293810193928101926001016125be565b90815180825260208080930193019160005b828110612609575050505090565b8351855293810193928101926001016125fb565b9060058210156104655752565b919082519283825260005b848110612656575050826000602080949584010152601f8019910116010190565b602081830181015184830182015201612635565b9181601f84011215610516578235916001600160401b038311610516576020808501948460051b01011161051657565b6101a081019081106001600160401b0382111761044f57604052565b60c081019081106001600160401b0382111761044f57604052565b90601f801991011681019081106001600160401b0382111761044f57604052565b9060405191828154918282526020928383019160005283600020936000905b82821061272957505050612727925003836126d1565b565b85546001600160a01b031684526001958601958895509381019390910190612711565b1561275357565b60405162461bcd60e51b815260206004820152602660248201527f416363657373436f6e74726f6c3a2063616c6c6572206973206e6f74207468656044820152651037bbb732b960d11b6064820152608490fd5b60095481101561047b5760096000527f6e1540171b6c0c960b71a7020d9f60077f6af931a8bbf590da0223dacf75c7af0190600090565b600a5481101561047b57600a6000527fc65a7bb8d6351c1cf70c95a316cc6a92839c986682d98bc35f958f4883f9d2a80190600090565b805482101561047b5760005260206000200190600090565b60001981146107cf5760010190565b6000818152602081815260408083206001600160a01b0395861680855292528220549192909160ff16612870575b50505050565b80835282602052604083208284526020526040832060ff1981541690558083526001938460205260408420908585905b6128da575b505050909192507ff6391f5c32d9c69d2a47ea670b442974b53935d1edc7fd64eb21e047a839171b339380a43880808061286a565b8254808210156129865782866128f08487612815565b929054600393841b1c161461291057505061290a9061282d565b866128a0565b909394959697506000929192199384810190811161297257916106519161077361293b959488612815565b8154801561295e5701906129526107978383612815565b559082913880806128a5565b634e487b7160e01b86526031600452602486fd5b634e487b7160e01b89526011600452602489fd5b506128a5565b919081101561047b5760051b0190565b919082018092116107cf57565b6001600160401b03811161044f5760051b60200190565b92916129cb826129a9565b916129d960405193846126d1565b829481845260208094019160051b810192831161051657905b8282106129ff5750505050565b813581529083019083016129f2565b60058210156104655752565b9291926001600160401b03821161044f5760405191612a43601f8201601f1916602001846126d1565b829481845281830111610516578281602093846000960137010152565b818110612a6b575050565b60008155600101612a60565b91818110612a8457505050565b6127279260005260206000209182019101612a60565b90600581101561046557815460ff60a01b191660a09190911b60ff60a01b16179055565b90600182811c92168015612aee575b6020831014612ad857565b634e487b7160e01b600052602260045260246000fd5b91607f1691612acd565b15612aff57565b60405162461bcd60e51b815260206004820152602760248201527f5061796d656e74417070726f76616c3a207265717565737420646f6573206e6f6044820152661d08195e1a5cdd60ca1b6064820152608490fd5b15612b5b57565b60405162461bcd60e51b815260206004820152602760248201527f5061796d656e74417070726f76616c3a2072657175657374206973206e6f742060448201526670656e64696e6760c81b6064820152608490fd5b9060405191828154918282526020928383019160005283600020936000905b828210612be557505050612727925003836126d1565b855484526001958601958895509381019390910190612bcf565b9060405191826000825492612c1384612abe565b908184526001948581169081600014612c805750600114612c3d575b5050612727925003836126d1565b9093915060005260209081600020936000915b818310612c6857505061272793508201013880612c2f565b85548884018501529485019487945091830191612c50565b91505061272794506020925060ff191682840152151560051b8201013880612c2f565b6000908082526008602052612cbe60ff604084205416612af8565b815260066020526040812090604051612cd68161269a565b82548152612ce660018401612bb0565b6020820152612cf7600284016126f2565b6040820152612d0860038401612bb0565b6060820152600483015490610180612d8b600b60018060a01b03968786166080860152612d3f60ff60a087019760a01c1687612a0e565b600581015460c0860152600681015460e08601526007810154610100860152600881015497610120860198895280600983015416610140870152600a8201541661016086015201612bff565b91015251906005821015612dbf5750159081612db4575b81612dab575090565b90505142101590565b805115159150612da2565b634e487b7160e01b81526021600452602490fd5b90916004805491612de38361282d565b8255604051612df1816126b6565b83815260209182820193868552604083019260018060a01b03809916988985526060820194600195868152608084019242845260a085019687526000998c8b5260078a5260408b20805490600160401b821015612fe8578a8201808255821015612fd5578c5260058b8d20910201955186555188860155600285019251166001600160601b0360a01b83541617825551906005821015612fc25784939291612e9891612a9a565b516003820155019151948551916001600160401b038311612faf5750612ebe8354612abe565b601f8111612f81575b508490601f8311600114612f1457906000805160206130c68339815191529683612f09575b5050600019600383901b1c191690831b1790555b604051908152a4565b015190503880612eec565b95601f198316848852868820975b818110612f6c5750916000805160206130c683398151915297918487959410612f53575b505050811b019055612f00565b015160001960f88460031b161c19169055388080612f46565b82840151895597860197928701928701612f22565b612fa990848352868320601f850160051c81019188861061044557601f0160051c0190612a60565b38612ec7565b634e487b7160e01b825260419052602490fd5b634e487b7160e01b895260218552602489fd5b634e487b7160e01b8d526032895260248dfd5b634e487b7160e01b8d526041895260248dfd5b60005b600a908154918282101561286a578392613017836127de565b959054600396871b1c1461303757505061303291925061282d565b612ffe565b909250600019918282019182116107cf57610d0f613057613063936127de565b905490871b1c916127de565b815480156107b957810192613077846127de565b81939154921b1b191690555556fed329ff8a035c3ce5df2b0dae604d660c0d8783bf7e64be00c1d10db96c0b87b47d7ffb7a348e1c6a02869081a26547b49160dd3df72d1d75a570eb9b698292ecb381a55a8093012b20833fa61fc98067ee6dbe063ab24f7a262253477fc75feea26469706673582212208bee6c24e784a54bde4ff732b171718277b12fb84c63c7e2933da00bfb8d0eb564736f6c63430008140033","opcodes":"PUSH1 0x80 CALLVALUE PUSH3 0x16C JUMPI PUSH1 0x1F PUSH3 0x32A3 CODESIZE DUP2 SWAP1 SUB SWAP2 DUP3 ADD PUSH1 0x1F NOT AND DUP4 ADD SWAP3 SWAP2 PUSH1 0x1 PUSH1 0x1 PUSH1 0x40 SHL SUB DUP5 GT DUP4 DUP6 LT OR PUSH3 0x171 JUMPI DUP1 DUP4 SWAP3 PUSH1 0x40 SWAP6 DUP7 MSTORE DUP4 CODECOPY PUSH1 0x20 SWAP3 DUP4 SWAP2 DUP2 ADD SUB SLT PUSH3 0x16C JUMPI MLOAD SWAP1 PUSH1 0x1 DUP1 PUSH1 0xA0 SHL SUB NOT SWAP1 CALLER DUP3 PUSH1 0x2 SLOAD AND OR PUSH1 0x2 SSTORE PUSH32 0xB19546DFF01E856FB3F010C267A7B1C60363CF8A4664E21CC89C26224620214E SWAP2 PUSH1 0x0 SWAP2 DUP4 DUP4 MSTORE DUP3 DUP2 MSTORE DUP6 DUP4 KECCAK256 CALLER DUP5 MSTORE DUP2 MSTORE PUSH1 0xFF DUP7 DUP5 KECCAK256 SLOAD AND ISZERO PUSH3 0xBA JUMPI JUMPDEST DUP6 DUP6 PUSH1 0x1 PUSH1 0x3 SSTORE PUSH1 0x1 PUSH1 0x4 SSTORE PUSH1 0x5 SSTORE MLOAD PUSH2 0x311B SWAP1 DUP2 PUSH3 0x188 DUP3 CODECOPY RETURN JUMPDEST DUP4 DUP4 MSTORE DUP3 DUP2 MSTORE DUP6 DUP4 KECCAK256 CALLER DUP5 MSTORE DUP2 MSTORE DUP6 DUP4 KECCAK256 PUSH1 0x1 PUSH1 0xFF NOT DUP3 SLOAD AND OR SWAP1 SSTORE DUP4 DUP4 MSTORE PUSH1 0x1 DUP2 MSTORE DUP6 DUP4 KECCAK256 SWAP1 DUP2 SLOAD SWAP2 PUSH9 0x10000000000000000 DUP4 LT ISZERO PUSH3 0x158 JUMPI PUSH1 0x1 DUP4 ADD DUP1 DUP3 SSTORE DUP4 LT ISZERO PUSH3 0x144 JUMPI DUP5 MSTORE DUP4 KECCAK256 ADD SWAP1 CALLER SWAP1 DUP3 SLOAD AND OR SWAP1 SSTORE CALLER SWAP2 PUSH32 0x2F8788117E7EFF1D82E926EC794901D17C78024A50270940304540A733656F0D CALLER SWAP3 DUP1 LOG4 CODESIZE DUP1 DUP1 DUP1 PUSH3 0x9D JUMP JUMPDEST PUSH4 0x4E487B71 PUSH1 0xE0 SHL DUP6 MSTORE PUSH1 0x32 PUSH1 0x4 MSTORE PUSH1 0x24 DUP6 REVERT JUMPDEST PUSH4 0x4E487B71 PUSH1 0xE0 SHL DUP6 MSTORE PUSH1 0x41 PUSH1 0x4 MSTORE PUSH1 0x24 DUP6 REVERT JUMPDEST PUSH1 0x0 DUP1 REVERT JUMPDEST PUSH4 0x4E487B71 PUSH1 0xE0 SHL PUSH1 0x0 MSTORE PUSH1 0x41 PUSH1 0x4 MSTORE PUSH1 0x24 PUSH1 0x0 REVERT INVALID PUSH1 0x80 PUSH1 0x40 MSTORE PUSH1 0x4 CALLDATASIZE LT ISZERO PUSH2 0x12 JUMPI PUSH1 0x0 DUP1 REVERT JUMPDEST PUSH1 0x0 CALLDATALOAD PUSH1 0xE0 SHR DUP1 PUSH4 0x1A0DB0BC EQ PUSH2 0x20FC JUMPI DUP1 PUSH4 0x2A4CAB90 EQ PUSH2 0x20C1 JUMPI DUP1 PUSH4 0x2F2FF15D EQ PUSH2 0x1EC3 JUMPI DUP1 PUSH4 0x741AEA64 EQ PUSH2 0x1CE4 JUMPI DUP1 PUSH4 0x74E83F8F EQ PUSH2 0x1CC6 JUMPI DUP1 PUSH4 0x75B238FC EQ PUSH2 0x1C8B JUMPI DUP1 PUSH4 0x80A1F712 EQ PUSH2 0x1C10 JUMPI DUP1 PUSH4 0x8A780F65 EQ PUSH2 0x1BD5 JUMPI DUP1 PUSH4 0x8BB9C5BF EQ PUSH2 0x1BB8 JUMPI DUP1 PUSH4 0x8DA5CB5B EQ PUSH2 0x1B8F JUMPI DUP1 PUSH4 0x91D14854 EQ PUSH2 0x1B42 JUMPI DUP1 PUSH4 0xA3246AD3 EQ PUSH2 0x1B02 JUMPI DUP1 PUSH4 0xA97C275B EQ PUSH2 0x19A9 JUMPI DUP1 PUSH4 0xB0574B68 EQ PUSH2 0x1948 JUMPI DUP1 PUSH4 0xB09FBE1A EQ PUSH2 0x16F0 JUMPI DUP1 PUSH4 0xB45D9412 EQ PUSH2 0x15C5 JUMPI DUP1 PUSH4 0xB9A116BD EQ PUSH2 0x13BA JUMPI DUP1 PUSH4 0xD067493F EQ PUSH2 0x1392 JUMPI DUP1 PUSH4 0xD547741F EQ PUSH2 0x12B6 JUMPI DUP1 PUSH4 0xD59B17B8 EQ PUSH2 0x1131 JUMPI DUP1 PUSH4 0xE58378BB EQ PUSH2 0x10F6 JUMPI DUP1 PUSH4 0xEA1FB4C5 EQ PUSH2 0x8EE JUMPI DUP1 PUSH4 0xEC1E6BD6 EQ PUSH2 0x863 JUMPI DUP1 PUSH4 0xF0E22D52 EQ PUSH2 0x845 JUMPI DUP1 PUSH4 0xF2FDE38B EQ PUSH2 0x51B JUMPI PUSH4 0xFE37969A EQ PUSH2 0x13A JUMPI PUSH1 0x0 DUP1 REVERT JUMPDEST CALLVALUE PUSH2 0x516 JUMPI PUSH2 0x148 CALLDATASIZE PUSH2 0x2528 JUMP JUMPDEST CALLER PUSH1 0x0 SWAP1 DUP2 MSTORE PUSH1 0x0 DUP1 MLOAD PUSH1 0x20 PUSH2 0x30A6 DUP4 CODECOPY DUP2 MLOAD SWAP2 MSTORE PUSH1 0x20 MSTORE PUSH1 0x40 SWAP1 KECCAK256 SLOAD SWAP2 SWAP3 SWAP1 SWAP2 PUSH1 0xFF AND DUP1 ISZERO PUSH2 0x4F0 JUMPI JUMPDEST ISZERO PUSH2 0x491 JUMPI DUP1 PUSH1 0x0 MSTORE PUSH1 0x8 PUSH1 0x20 MSTORE PUSH2 0x192 PUSH1 0xFF PUSH1 0x40 PUSH1 0x0 KECCAK256 SLOAD AND PUSH2 0x2AF8 JUMP JUMPDEST DUP1 PUSH1 0x0 MSTORE PUSH1 0x6 PUSH1 0x20 MSTORE PUSH1 0x4 PUSH1 0x40 PUSH1 0x0 KECCAK256 ADD DUP1 SLOAD PUSH1 0xFF DUP2 PUSH1 0xA0 SHR AND PUSH1 0x5 DUP2 LT ISZERO PUSH2 0x465 JUMPI PUSH2 0x1BF SWAP1 ISZERO PUSH2 0x2B54 JUMP JUMPDEST PUSH1 0xFF PUSH1 0xA0 SHL NOT AND PUSH1 0x1 PUSH1 0xA1 SHL OR SWAP1 SSTORE PUSH2 0x1D9 CALLDATASIZE DUP4 DUP6 PUSH2 0x2A1A JUMP JUMPDEST SWAP3 PUSH1 0x4 SLOAD PUSH2 0x1E6 DUP2 PUSH2 0x282D JUMP JUMPDEST PUSH1 0x4 SSTORE PUSH1 0x40 MLOAD SWAP5 PUSH2 0x1F6 DUP7 PUSH2 0x26B6 JUMP JUMPDEST DUP2 DUP7 MSTORE DUP4 PUSH1 0x20 DUP8 ADD MSTORE CALLER PUSH1 0x40 DUP8 ADD MSTORE PUSH1 0x2 PUSH1 0x60 DUP8 ADD MSTORE TIMESTAMP PUSH1 0x80 DUP8 ADD MSTORE PUSH1 0xA0 DUP7 ADD MSTORE DUP3 PUSH1 0x0 MSTORE PUSH1 0x7 PUSH1 0x20 MSTORE PUSH1 0x40 PUSH1 0x0 KECCAK256 DUP1 SLOAD SWAP1 PUSH1 0x1 PUSH1 0x40 SHL DUP3 LT ISZERO PUSH2 0x44F JUMPI PUSH1 0x1 DUP3 ADD DUP1 DUP3 SSTORE DUP3 LT ISZERO PUSH2 0x47B JUMPI PUSH1 0x0 MSTORE PUSH1 0x5 PUSH1 0x20 PUSH1 0x0 KECCAK256 SWAP2 MUL ADD DUP6 MLOAD DUP2 SSTORE PUSH1 0x20 DUP7 ADD MLOAD PUSH1 0x1 DUP3 ADD SSTORE PUSH1 0x2 DUP2 ADD SWAP1 PUSH1 0x1 DUP1 PUSH1 0xA0 SHL SUB PUSH1 0x40 DUP9 ADD MLOAD AND PUSH1 0x1 PUSH1 0x1 PUSH1 0x60 SHL SUB PUSH1 0xA0 SHL DUP4 SLOAD AND OR DUP3 SSTORE PUSH1 0x60 DUP8 ADD MLOAD SWAP1 PUSH1 0x5 DUP3 LT ISZERO PUSH2 0x465 JUMPI PUSH2 0x29D PUSH1 0x4 SWAP3 PUSH1 0xA0 SWAP5 PUSH2 0x2A9A JUMP JUMPDEST PUSH1 0x80 DUP9 ADD MLOAD PUSH1 0x3 DUP3 ADD SSTORE ADD SWAP6 ADD MLOAD SWAP5 DUP6 MLOAD PUSH1 0x1 PUSH1 0x1 PUSH1 0x40 SHL SUB DUP2 GT PUSH2 0x44F JUMPI PUSH2 0x2C6 DUP3 SLOAD PUSH2 0x2ABE JUMP JUMPDEST PUSH1 0x1F DUP2 GT PUSH2 0x412 JUMPI JUMPDEST POP PUSH1 0x20 PUSH1 0x1F DUP3 GT PUSH1 0x1 EQ PUSH2 0x388 JUMPI DUP2 SWAP1 PUSH32 0xF4F337F91CAA9841DAE2416E1308EF55E7C210DDF33EFCCB52473CE0FFCE73E6 SWAP7 SWAP8 SWAP9 PUSH1 0x0 SWAP3 PUSH2 0x37D JUMPI JUMPDEST POP POP DUP2 PUSH1 0x1 SHL SWAP2 PUSH1 0x0 NOT SWAP1 PUSH1 0x3 SHL SHR NOT AND OR SWAP1 SSTORE JUMPDEST DUP4 PUSH1 0x40 MLOAD SWAP2 PUSH1 0x2 DUP4 MSTORE PUSH1 0x0 DUP1 MLOAD PUSH1 0x20 PUSH2 0x30C6 DUP4 CODECOPY DUP2 MLOAD SWAP2 MSTORE PUSH1 0x20 CALLER SWAP5 LOG4 PUSH2 0x346 DUP4 PUSH2 0x2FFB JUMP JUMPDEST DUP4 PUSH1 0x40 MLOAD SWAP2 PUSH1 0x40 DUP4 MSTORE DUP2 PUSH1 0x40 DUP5 ADD MSTORE PUSH1 0x60 DUP4 ADD CALLDATACOPY PUSH1 0x0 PUSH1 0x60 DUP6 DUP4 ADD ADD MSTORE TIMESTAMP PUSH1 0x20 DUP3 ADD MSTORE PUSH1 0x60 DUP2 CALLER SWAP6 PUSH1 0x1F DUP1 NOT SWAP2 ADD AND DUP2 ADD SUB ADD SWAP1 LOG3 STOP JUMPDEST ADD MLOAD SWAP1 POP CODESIZE DUP1 PUSH2 0x30B JUMP JUMPDEST PUSH1 0x1F NOT DUP3 AND SWAP8 DUP4 PUSH1 0x0 MSTORE PUSH1 0x20 PUSH1 0x0 KECCAK256 SWAP9 PUSH1 0x0 JUMPDEST DUP2 DUP2 LT PUSH2 0x3FA JUMPI POP SWAP2 PUSH32 0xF4F337F91CAA9841DAE2416E1308EF55E7C210DDF33EFCCB52473CE0FFCE73E6 SWAP8 SWAP9 SWAP10 SWAP2 DUP5 PUSH1 0x1 SWAP6 SWAP5 LT PUSH2 0x3E1 JUMPI JUMPDEST POP POP POP DUP2 SHL ADD SWAP1 SSTORE PUSH2 0x320 JUMP JUMPDEST ADD MLOAD PUSH1 0x0 NOT PUSH1 0xF8 DUP5 PUSH1 0x3 SHL AND SHR NOT AND SWAP1 SSTORE CODESIZE DUP1 DUP1 PUSH2 0x3D4 JUMP JUMPDEST DUP4 DUP4 ADD MLOAD DUP12 SSTORE PUSH1 0x1 SWAP1 SWAP11 ADD SWAP10 PUSH1 0x20 SWAP4 DUP5 ADD SWAP4 ADD PUSH2 0x39B JUMP JUMPDEST PUSH2 0x43F SWAP1 DUP4 PUSH1 0x0 MSTORE PUSH1 0x20 PUSH1 0x0 KECCAK256 PUSH1 0x1F DUP5 ADD PUSH1 0x5 SHR DUP2 ADD SWAP2 PUSH1 0x20 DUP6 LT PUSH2 0x445 JUMPI JUMPDEST PUSH1 0x1F ADD PUSH1 0x5 SHR ADD SWAP1 PUSH2 0x2A60 JUMP JUMPDEST CODESIZE PUSH2 0x2CF JUMP JUMPDEST SWAP1 SWAP2 POP DUP2 SWAP1 PUSH2 0x432 JUMP JUMPDEST PUSH4 0x4E487B71 PUSH1 0xE0 SHL PUSH1 0x0 MSTORE PUSH1 0x41 PUSH1 0x4 MSTORE PUSH1 0x24 PUSH1 0x0 REVERT JUMPDEST PUSH4 0x4E487B71 PUSH1 0xE0 SHL PUSH1 0x0 MSTORE PUSH1 0x21 PUSH1 0x4 MSTORE PUSH1 0x24 PUSH1 0x0 REVERT JUMPDEST PUSH4 0x4E487B71 PUSH1 0xE0 SHL PUSH1 0x0 MSTORE PUSH1 0x32 PUSH1 0x4 MSTORE PUSH1 0x24 PUSH1 0x0 REVERT JUMPDEST PUSH1 0x40 MLOAD PUSH3 0x461BCD PUSH1 0xE5 SHL DUP2 MSTORE PUSH1 0x20 PUSH1 0x4 DUP3 ADD MSTORE PUSH1 0x31 PUSH1 0x24 DUP3 ADD MSTORE PUSH32 0x5061796D656E74417070726F76616C3A206D7573742062652061646D696E206F PUSH1 0x44 DUP3 ADD MSTORE PUSH17 0x1C881BDDDB995C881D1BC81C995A9958DD PUSH1 0x7A SHL PUSH1 0x64 DUP3 ADD MSTORE PUSH1 0x84 SWAP1 REVERT JUMPDEST POP CALLER PUSH1 0x0 SWAP1 DUP2 MSTORE PUSH1 0x0 DUP1 MLOAD PUSH1 0x20 PUSH2 0x3086 DUP4 CODECOPY DUP2 MLOAD SWAP2 MSTORE PUSH1 0x20 MSTORE PUSH1 0x40 SWAP1 KECCAK256 SLOAD PUSH1 0xFF AND PUSH2 0x173 JUMP JUMPDEST PUSH1 0x0 DUP1 REVERT JUMPDEST CALLVALUE PUSH2 0x516 JUMPI PUSH1 0x20 DUP1 PUSH1 0x3 NOT CALLDATASIZE ADD SLT PUSH2 0x516 JUMPI PUSH1 0x4 CALLDATALOAD PUSH1 0x1 PUSH1 0x1 PUSH1 0xA0 SHL SUB DUP2 DUP2 AND SWAP3 SWAP2 DUP4 DUP2 SUB PUSH2 0x516 JUMPI PUSH1 0x2 SLOAD SWAP3 DUP3 DUP5 AND SWAP4 PUSH2 0x557 DUP6 CALLER EQ PUSH2 0x274C JUMP JUMPDEST DUP6 ISZERO PUSH2 0x7EB JUMPI DUP6 SWAP1 PUSH1 0x1 PUSH1 0x1 PUSH1 0x60 SHL SUB PUSH1 0xA0 SHL AND OR PUSH1 0x2 SSTORE PUSH32 0xB19546DFF01E856FB3F010C267A7B1C60363CF8A4664E21CC89C26224620214E SWAP3 DUP4 PUSH1 0x0 MSTORE PUSH1 0x0 DUP3 MSTORE PUSH1 0x40 PUSH1 0x0 KECCAK256 DUP6 PUSH1 0x0 MSTORE DUP3 MSTORE PUSH1 0xFF PUSH1 0x40 PUSH1 0x0 KECCAK256 SLOAD AND PUSH2 0x6A0 JUMPI JUMPDEST POP DUP3 PUSH1 0x0 MSTORE PUSH1 0x0 DUP2 MSTORE PUSH1 0x40 PUSH1 0x0 KECCAK256 DUP6 PUSH1 0x0 MSTORE DUP2 MSTORE PUSH1 0xFF PUSH1 0x40 PUSH1 0x0 KECCAK256 SLOAD AND ISZERO PUSH2 0x5FF JUMPI JUMPDEST POP POP POP PUSH32 0x8BE0079C531659141344CD1FD0A4F28419497F9722A3DAAFE3B4186F6B6457E0 PUSH1 0x0 DUP1 LOG3 STOP JUMPDEST PUSH1 0x1 SWAP1 DUP4 PUSH1 0x0 MSTORE PUSH1 0x0 DUP2 MSTORE PUSH1 0x40 PUSH1 0x0 KECCAK256 DUP7 PUSH1 0x0 MSTORE DUP2 MSTORE PUSH1 0x40 PUSH1 0x0 KECCAK256 DUP3 PUSH1 0xFF NOT DUP3 SLOAD AND OR SWAP1 SSTORE DUP4 PUSH1 0x0 MSTORE MSTORE PUSH1 0x40 PUSH1 0x0 KECCAK256 SWAP1 DUP2 SLOAD SWAP2 PUSH1 0x1 PUSH1 0x40 SHL DUP4 LT ISZERO PUSH2 0x44F JUMPI DUP3 PUSH2 0x651 SWAP2 PUSH1 0x1 PUSH2 0x670 SWAP6 ADD DUP2 SSTORE PUSH2 0x2815 JUMP JUMPDEST SWAP1 SWAP2 SWAP1 DUP3 SLOAD SWAP1 PUSH1 0x3 SHL SWAP2 PUSH1 0x1 DUP1 PUSH1 0xA0 SHL SUB DUP1 SWAP2 AND DUP4 SHL SWAP3 SHL NOT AND OR SWAP1 SSTORE JUMP JUMPDEST DUP3 CALLER SWAP2 PUSH32 0x2F8788117E7EFF1D82E926EC794901D17C78024A50270940304540A733656F0D PUSH1 0x0 DUP1 LOG4 DUP3 DUP1 DUP1 PUSH2 0x5D5 JUMP JUMPDEST SWAP4 SWAP3 SWAP2 SWAP1 DUP3 PUSH1 0x0 MSTORE PUSH1 0x0 DUP2 MSTORE PUSH1 0x40 PUSH1 0x0 KECCAK256 DUP5 PUSH1 0x0 MSTORE DUP2 MSTORE PUSH1 0x40 PUSH1 0x0 KECCAK256 PUSH1 0xFF NOT DUP2 SLOAD AND SWAP1 SSTORE DUP3 PUSH1 0x0 MSTORE PUSH1 0x1 SWAP5 DUP6 DUP3 MSTORE PUSH1 0x40 PUSH1 0x0 KECCAK256 SWAP1 DUP7 PUSH1 0x0 SWAP1 JUMPDEST PUSH2 0x714 JUMPI JUMPDEST POP POP POP SWAP1 SWAP2 SWAP3 SWAP4 POP CALLER DUP5 DUP5 PUSH32 0xF6391F5C32D9C69D2A47EA670B442974B53935D1EDC7FD64EB21E047A839171B PUSH1 0x0 DUP1 LOG4 DUP6 PUSH2 0x5B2 JUMP JUMPDEST DUP3 SLOAD DUP1 DUP3 LT ISZERO PUSH2 0x7E5 JUMPI DUP3 SWAP1 DUP9 PUSH2 0x72B DUP5 DUP8 PUSH2 0x2815 JUMP JUMPDEST SWAP4 SWAP1 SLOAD PUSH1 0x3 SWAP5 DUP6 SHL SHR AND EQ PUSH2 0x74B JUMPI POP POP PUSH2 0x745 SWAP1 PUSH2 0x282D JUMP JUMPDEST DUP8 PUSH2 0x6D9 JUMP JUMPDEST SWAP1 SWAP3 SWAP4 SWAP5 SWAP6 SWAP7 SWAP8 SWAP9 POP PUSH1 0x0 NOT SWAP4 DUP5 DUP3 ADD SWAP2 DUP3 GT PUSH2 0x7CF JUMPI PUSH2 0x780 SWAP4 PUSH2 0x773 PUSH2 0x651 SWAP4 DUP9 PUSH2 0x2815 JUMP JUMPDEST SWAP1 SLOAD SWAP2 SHL SHR AND SWAP2 DUP6 PUSH2 0x2815 JUMP JUMPDEST DUP2 SLOAD DUP1 ISZERO PUSH2 0x7B9 JUMPI ADD SWAP1 PUSH2 0x7AC PUSH2 0x797 DUP4 DUP4 PUSH2 0x2815 JUMP JUMPDEST DUP2 SLOAD SWAP1 PUSH1 0x1 DUP1 PUSH1 0xA0 SHL SUB SWAP1 PUSH1 0x3 SHL SHL NOT AND SWAP1 SSTORE JUMP JUMPDEST SSTORE SWAP1 DUP4 SWAP3 SWAP2 DUP7 DUP1 DUP1 PUSH2 0x6DE JUMP JUMPDEST PUSH4 0x4E487B71 PUSH1 0xE0 SHL PUSH1 0x0 MSTORE PUSH1 0x31 PUSH1 0x4 MSTORE PUSH1 0x24 PUSH1 0x0 REVERT JUMPDEST PUSH4 0x4E487B71 PUSH1 0xE0 SHL PUSH1 0x0 MSTORE PUSH1 0x11 PUSH1 0x4 MSTORE PUSH1 0x24 PUSH1 0x0 REVERT JUMPDEST POP PUSH2 0x6DE JUMP JUMPDEST PUSH1 0x40 MLOAD PUSH3 0x461BCD PUSH1 0xE5 SHL DUP2 MSTORE PUSH1 0x4 DUP2 ADD DUP4 SWAP1 MSTORE PUSH1 0x2C PUSH1 0x24 DUP3 ADD MSTORE PUSH32 0x416363657373436F6E74726F6C3A206E6577206F776E65722069732074686520 PUSH1 0x44 DUP3 ADD MSTORE PUSH12 0x7A65726F2061646472657373 PUSH1 0xA0 SHL PUSH1 0x64 DUP3 ADD MSTORE PUSH1 0x84 SWAP1 REVERT JUMPDEST CALLVALUE PUSH2 0x516 JUMPI PUSH1 0x0 CALLDATASIZE PUSH1 0x3 NOT ADD SLT PUSH2 0x516 JUMPI PUSH1 0x20 PUSH1 0x9 SLOAD PUSH1 0x40 MLOAD SWAP1 DUP2 MSTORE RETURN JUMPDEST CALLVALUE PUSH2 0x516 JUMPI PUSH1 0x0 CALLDATASIZE PUSH1 0x3 NOT ADD SLT PUSH2 0x516 JUMPI PUSH1 0x40 MLOAD DUP1 PUSH1 0x9 SLOAD SWAP2 DUP3 DUP2 MSTORE PUSH1 0x20 DUP1 SWAP2 ADD SWAP3 PUSH1 0x9 PUSH1 0x0 MSTORE PUSH32 0x6E1540171B6C0C960B71A7020D9F60077F6AF931A8BBF590DA0223DACF75C7AF SWAP2 PUSH1 0x0 SWAP1 JUMPDEST DUP3 DUP3 LT PUSH2 0x8D7 JUMPI PUSH2 0x8D3 DUP6 PUSH2 0x8C7 DUP2 DUP10 SUB DUP3 PUSH2 0x26D1 JUMP JUMPDEST PUSH1 0x40 MLOAD SWAP2 DUP3 SWAP2 DUP3 PUSH2 0x2571 JUMP JUMPDEST SUB SWAP1 RETURN JUMPDEST DUP4 SLOAD DUP7 MSTORE SWAP5 DUP6 ADD SWAP5 PUSH1 0x1 SWAP4 DUP5 ADD SWAP4 SWAP1 SWAP2 ADD SWAP1 PUSH2 0x8B0 JUMP JUMPDEST CALLVALUE PUSH2 0x516 JUMPI PUSH1 0xA0 CALLDATASIZE PUSH1 0x3 NOT ADD SLT PUSH2 0x516 JUMPI PUSH1 0x4 CALLDATALOAD PUSH1 0x1 PUSH1 0x1 PUSH1 0x40 SHL SUB DUP2 GT PUSH2 0x516 JUMPI PUSH2 0x91E SWAP1 CALLDATASIZE SWAP1 PUSH1 0x4 ADD PUSH2 0x266A JUMP JUMPDEST PUSH1 0x24 CALLDATALOAD PUSH1 0x1 PUSH1 0x1 PUSH1 0x40 SHL SUB DUP2 GT PUSH2 0x516 JUMPI PUSH2 0x93D SWAP1 CALLDATASIZE SWAP1 PUSH1 0x4 ADD PUSH2 0x266A JUMP JUMPDEST SWAP2 SWAP1 PUSH1 0x44 CALLDATALOAD PUSH1 0x1 PUSH1 0x1 PUSH1 0x40 SHL SUB DUP2 GT PUSH2 0x516 JUMPI PUSH2 0x95E SWAP1 CALLDATASIZE SWAP1 PUSH1 0x4 ADD PUSH2 0x266A JUMP JUMPDEST SWAP5 PUSH1 0x64 CALLDATALOAD SWAP3 SWAP1 SWAP2 SWAP1 PUSH1 0x1 PUSH1 0x1 PUSH1 0xA0 SHL SUB DUP5 AND DUP5 SUB PUSH2 0x516 JUMPI PUSH1 0x1 PUSH1 0x1 PUSH1 0x40 SHL SUB PUSH1 0x84 CALLDATALOAD GT PUSH2 0x516 JUMPI PUSH2 0x995 CALLDATASIZE PUSH1 0x84 CALLDATALOAD PUSH1 0x4 ADD PUSH2 0x24FB JUMP JUMPDEST CALLER PUSH1 0x0 SWAP1 DUP2 MSTORE PUSH32 0xB0B4EBEBFE6253CA64923E3C53F81360B506C7A8E002C8B4D138D245E76CF24F PUSH1 0x20 MSTORE PUSH1 0x40 SWAP1 KECCAK256 SLOAD SWAP2 SWAP4 SWAP1 SWAP3 SWAP2 PUSH1 0xFF AND DUP1 ISZERO PUSH2 0x10D0 JUMPI JUMPDEST ISZERO PUSH2 0x1071 JUMPI DUP7 ISZERO PUSH2 0x101C JUMPI DUP8 DUP8 EQ DUP1 PUSH2 0x1013 JUMPI JUMPDEST ISZERO PUSH2 0xFBF JUMPI PUSH1 0x0 SWAP9 PUSH1 0x0 JUMPDEST DUP2 DUP2 LT PUSH2 0xEB1 JUMPI POP PUSH1 0x3 SLOAD SWAP9 PUSH2 0xA07 DUP11 PUSH2 0x282D JUMP JUMPDEST PUSH1 0x3 SSTORE PUSH1 0x0 SWAP4 PUSH1 0x5 SLOAD DUP1 PUSH2 0xE9E JUMPI JUMPDEST POP PUSH2 0xA32 PUSH1 0x40 MLOAD SWAP9 PUSH2 0xA27 DUP11 PUSH2 0x269A JUMP JUMPDEST DUP13 DUP11 MSTORE DUP12 CALLDATASIZE SWAP2 PUSH2 0x29C0 JUMP JUMPDEST PUSH1 0x20 DUP10 ADD MSTORE PUSH2 0xA40 DUP3 PUSH2 0x29A9 JUMP JUMPDEST SWAP2 PUSH2 0xA4E PUSH1 0x40 MLOAD SWAP4 DUP5 PUSH2 0x26D1 JUMP JUMPDEST DUP1 DUP4 MSTORE PUSH1 0x20 DUP4 ADD SWAP2 CALLDATASIZE DUP3 PUSH1 0x5 SHL DUP3 ADD GT PUSH2 0x516 JUMPI DUP1 SWAP3 JUMPDEST DUP3 PUSH1 0x5 SHL DUP3 ADD DUP5 LT PUSH2 0xE7C JUMPI POP POP POP POP PUSH1 0x40 DUP8 ADD MSTORE PUSH2 0xAD7 SWAP5 SWAP4 SWAP3 SWAP2 PUSH2 0xA8C SWAP2 CALLDATASIZE SWAP2 PUSH2 0x29C0 JUMP JUMPDEST PUSH1 0x60 DUP7 ADD MSTORE PUSH1 0x1 DUP1 PUSH1 0xA0 SHL SUB DUP7 AND PUSH1 0x80 DUP7 ADD MSTORE PUSH1 0x0 PUSH1 0xA0 DUP7 ADD MSTORE TIMESTAMP PUSH1 0xC0 DUP7 ADD MSTORE PUSH1 0x0 PUSH1 0xE0 DUP7 ADD MSTORE PUSH1 0x0 PUSH2 0x100 DUP7 ADD MSTORE PUSH2 0x120 DUP6 ADD MSTORE CALLER PUSH2 0x140 DUP6 ADD MSTORE PUSH1 0x0 PUSH2 0x160 DUP6 ADD MSTORE CALLDATASIZE SWAP2 PUSH2 0x2A1A JUMP JUMPDEST PUSH2 0x180 DUP3 ADD MSTORE DUP4 PUSH1 0x0 MSTORE PUSH1 0x6 PUSH1 0x20 MSTORE PUSH1 0x40 PUSH1 0x0 KECCAK256 DUP2 MLOAD DUP2 SSTORE PUSH1 0x20 DUP3 ADD MLOAD DUP1 MLOAD SWAP1 PUSH1 0x1 PUSH1 0x1 PUSH1 0x40 SHL SUB DUP3 GT PUSH2 0x44F JUMPI PUSH1 0x1 PUSH1 0x40 SHL DUP3 GT PUSH2 0x44F JUMPI PUSH1 0x20 PUSH1 0x1 DUP5 ADD SWAP2 PUSH2 0xB26 DUP5 DUP5 SLOAD DUP2 DUP7 SSTORE DUP6 PUSH2 0x2A77 JUMP JUMPDEST ADD SWAP1 PUSH1 0x0 MSTORE PUSH1 0x20 PUSH1 0x0 KECCAK256 PUSH1 0x0 JUMPDEST DUP4 DUP2 LT PUSH2 0xE68 JUMPI POP POP POP POP PUSH1 0x40 DUP3 ADD MLOAD DUP1 MLOAD SWAP1 PUSH1 0x1 PUSH1 0x1 PUSH1 0x40 SHL SUB DUP3 GT PUSH2 0x44F JUMPI PUSH1 0x1 PUSH1 0x40 SHL DUP3 GT PUSH2 0x44F JUMPI PUSH1 0x20 PUSH1 0x2 DUP5 ADD SWAP2 PUSH2 0xB75 DUP5 DUP5 SLOAD DUP2 DUP7 SSTORE DUP6 PUSH2 0x2A77 JUMP JUMPDEST ADD SWAP1 PUSH1 0x0 MSTORE PUSH1 0x20 PUSH1 0x0 KECCAK256 PUSH1 0x0 JUMPDEST DUP4 DUP2 LT PUSH2 0xE4B JUMPI POP POP POP POP PUSH1 0x60 DUP3 ADD MLOAD DUP1 MLOAD SWAP1 PUSH1 0x1 PUSH1 0x1 PUSH1 0x40 SHL SUB DUP3 GT PUSH2 0x44F JUMPI PUSH1 0x1 PUSH1 0x40 SHL DUP3 GT PUSH2 0x44F JUMPI PUSH1 0x20 PUSH1 0x3 DUP5 ADD SWAP2 PUSH2 0xBC4 DUP5 DUP5 SLOAD DUP2 DUP7 SSTORE DUP6 PUSH2 0x2A77 JUMP JUMPDEST ADD SWAP1 PUSH1 0x0 MSTORE PUSH1 0x20 PUSH1 0x0 KECCAK256 PUSH1 0x0 JUMPDEST DUP4 DUP2 LT PUSH2 0xE37 JUMPI POP POP POP POP PUSH1 0x4 DUP2 ADD SWAP1 PUSH1 0x1 DUP1 PUSH1 0xA0 SHL SUB PUSH1 0x80 DUP5 ADD MLOAD AND SWAP1 PUSH1 0x1 PUSH1 0x1 PUSH1 0x60 SHL SUB PUSH1 0xA0 SHL SWAP2 DUP3 DUP5 SLOAD AND OR DUP4 SSTORE PUSH1 0xA0 DUP5 ADD MLOAD SWAP2 PUSH1 0x5 DUP4 LT ISZERO PUSH2 0x465 JUMPI PUSH2 0xC20 PUSH1 0xB SWAP4 PUSH2 0x180 SWAP6 PUSH2 0x2A9A JUMP JUMPDEST PUSH1 0xC0 DUP6 ADD MLOAD PUSH1 0x5 DUP4 ADD SSTORE PUSH1 0xE0 DUP6 ADD MLOAD PUSH1 0x6 DUP4 ADD SSTORE PUSH2 0x100 DUP6 ADD MLOAD PUSH1 0x7 DUP4 ADD SSTORE PUSH2 0x120 DUP6 ADD MLOAD PUSH1 0x8 DUP4 ADD SSTORE PUSH1 0x9 DUP3 ADD PUSH1 0x1 DUP1 PUSH1 0xA0 SHL SUB PUSH2 0x140 DUP8 ADD MLOAD AND DUP3 DUP3 SLOAD AND OR SWAP1 SSTORE PUSH1 0xA DUP3 ADD SWAP1 PUSH1 0x1 DUP1 PUSH1 0xA0 SHL SUB PUSH2 0x160 DUP8 ADD MLOAD AND SWAP1 DUP3 SLOAD AND OR SWAP1 SSTORE ADD SWAP2 ADD MLOAD DUP1 MLOAD SWAP1 PUSH1 0x1 PUSH1 0x1 PUSH1 0x40 SHL SUB DUP3 GT PUSH2 0x44F JUMPI DUP2 SWAP1 PUSH2 0xC9E DUP5 SLOAD PUSH2 0x2ABE JUMP JUMPDEST PUSH1 0x1F DUP2 GT PUSH2 0xE05 JUMPI JUMPDEST POP PUSH1 0x20 SWAP1 PUSH1 0x1F DUP4 GT PUSH1 0x1 EQ PUSH2 0xD9F JUMPI PUSH1 0x0 SWAP3 PUSH2 0xD94 JUMPI JUMPDEST POP POP DUP2 PUSH1 0x1 SHL SWAP2 PUSH1 0x0 NOT SWAP1 PUSH1 0x3 SHL SHR NOT AND OR SWAP1 SSTORE JUMPDEST DUP3 PUSH1 0x0 MSTORE PUSH1 0x8 PUSH1 0x20 MSTORE PUSH1 0x40 PUSH1 0x0 KECCAK256 PUSH1 0x1 PUSH1 0xFF NOT DUP3 SLOAD AND OR SWAP1 SSTORE PUSH1 0x9 SLOAD PUSH1 0x1 PUSH1 0x40 SHL DUP2 LT ISZERO PUSH2 0x44F JUMPI DUP4 PUSH2 0xD0F DUP3 PUSH1 0x1 PUSH2 0xD28 SWAP5 ADD PUSH1 0x9 SSTORE PUSH2 0x27A7 JUMP JUMPDEST SWAP1 SWAP2 SWAP1 DUP3 SLOAD SWAP1 PUSH1 0x3 SHL SWAP2 DUP3 SHL SWAP2 PUSH1 0x0 NOT SWAP1 SHL NOT AND OR SWAP1 SSTORE JUMP JUMPDEST PUSH1 0xA SLOAD SWAP4 PUSH1 0x1 PUSH1 0x40 SHL DUP6 LT ISZERO PUSH2 0x44F JUMPI PUSH2 0xD4E DUP5 PUSH2 0xD0F DUP8 PUSH1 0x1 PUSH1 0x20 SWAP10 ADD PUSH1 0xA SSTORE PUSH2 0x27DE JUMP JUMPDEST PUSH1 0x40 MLOAD SWAP3 DUP4 MSTORE DUP5 DUP4 ADD MSTORE PUSH1 0x1 DUP1 PUSH1 0xA0 SHL SUB AND PUSH1 0x40 DUP3 ADD MSTORE DUP2 PUSH32 0xE0D8EE83F927A30C8BE04C8505CCFC6846816A94C3E55DC0A6DAF58219955D17 PUSH1 0x60 CALLER SWAP4 LOG3 PUSH1 0x40 MLOAD SWAP1 DUP2 MSTORE RETURN JUMPDEST ADD MLOAD SWAP1 POP DUP8 DUP1 PUSH2 0xCBE JUMP JUMPDEST PUSH1 0x0 DUP6 DUP2 MSTORE PUSH1 0x20 DUP2 KECCAK256 SWAP4 POP PUSH1 0x1F NOT DUP6 AND SWAP1 JUMPDEST DUP2 DUP2 LT PUSH2 0xDED JUMPI POP SWAP1 DUP5 PUSH1 0x1 SWAP6 SWAP5 SWAP4 SWAP3 LT PUSH2 0xDD4 JUMPI JUMPDEST POP POP POP DUP2 SHL ADD SWAP1 SSTORE PUSH2 0xCD3 JUMP JUMPDEST ADD MLOAD PUSH1 0x0 NOT PUSH1 0xF8 DUP5 PUSH1 0x3 SHL AND SHR NOT AND SWAP1 SSTORE DUP8 DUP1 DUP1 PUSH2 0xDC7 JUMP JUMPDEST SWAP3 SWAP4 PUSH1 0x20 PUSH1 0x1 DUP2 SWAP3 DUP8 DUP7 ADD MLOAD DUP2 SSTORE ADD SWAP6 ADD SWAP4 ADD PUSH2 0xDB1 JUMP JUMPDEST PUSH2 0xE31 SWAP1 DUP6 PUSH1 0x0 MSTORE PUSH1 0x20 PUSH1 0x0 KECCAK256 PUSH1 0x1F DUP6 ADD PUSH1 0x5 SHR DUP2 ADD SWAP2 PUSH1 0x20 DUP7 LT PUSH2 0x445 JUMPI PUSH1 0x1F ADD PUSH1 0x5 SHR ADD SWAP1 PUSH2 0x2A60 JUMP JUMPDEST DUP9 PUSH2 0xCA7 JUMP JUMPDEST PUSH1 0x1 SWAP1 PUSH1 0x20 DUP5 MLOAD SWAP5 ADD SWAP4 DUP2 DUP5 ADD SSTORE ADD PUSH2 0xBD1 JUMP JUMPDEST DUP3 MLOAD PUSH1 0x1 PUSH1 0x1 PUSH1 0xA0 SHL SUB AND DUP2 DUP4 ADD SSTORE PUSH1 0x20 SWAP1 SWAP3 ADD SWAP2 PUSH1 0x1 ADD PUSH2 0xB82 JUMP JUMPDEST PUSH1 0x1 SWAP1 PUSH1 0x20 DUP5 MLOAD SWAP5 ADD SWAP4 DUP2 DUP5 ADD SSTORE ADD PUSH2 0xB33 JUMP JUMPDEST DUP4 CALLDATALOAD PUSH1 0x1 PUSH1 0x1 PUSH1 0xA0 SHL SUB DUP2 AND SWAP1 SUB PUSH2 0x516 JUMPI DUP4 CALLDATALOAD DUP2 MSTORE PUSH1 0x20 SWAP4 DUP5 ADD SWAP4 ADD PUSH2 0xA65 JUMP JUMPDEST PUSH2 0xEAA SWAP2 SWAP6 POP TIMESTAMP PUSH2 0x299C JUMP JUMPDEST SWAP4 DUP13 PUSH2 0xA16 JUMP JUMPDEST SWAP10 PUSH2 0xEBD DUP12 DUP4 DUP6 PUSH2 0x298C JUMP JUMPDEST CALLDATALOAD ISZERO PUSH2 0xF60 JUMPI PUSH2 0xECE DUP12 DUP12 DUP7 PUSH2 0x298C JUMP JUMPDEST CALLDATALOAD PUSH1 0x1 PUSH1 0x1 PUSH1 0xA0 SHL SUB DUP2 AND SWAP1 DUP2 SWAP1 SUB PUSH2 0x516 JUMPI ISZERO PUSH2 0xF0A JUMPI PUSH2 0xEFF PUSH2 0xF05 SWAP2 PUSH2 0xEF8 DUP14 DUP6 DUP8 PUSH2 0x298C JUMP JUMPDEST CALLDATALOAD SWAP1 PUSH2 0x299C JUMP JUMPDEST SWAP11 PUSH2 0x282D JUMP JUMPDEST PUSH2 0x9F2 JUMP JUMPDEST PUSH1 0x40 MLOAD PUSH3 0x461BCD PUSH1 0xE5 SHL DUP2 MSTORE PUSH1 0x20 PUSH1 0x4 DUP3 ADD MSTORE PUSH1 0x28 PUSH1 0x24 DUP3 ADD MSTORE PUSH32 0x5061796D656E74417070726F76616C3A20696E76616C696420656D706C6F7965 PUSH1 0x44 DUP3 ADD MSTORE PUSH8 0x19481DD85B1B195D PUSH1 0xC2 SHL PUSH1 0x64 DUP3 ADD MSTORE PUSH1 0x84 SWAP1 REVERT JUMPDEST PUSH1 0x40 MLOAD PUSH3 0x461BCD PUSH1 0xE5 SHL DUP2 MSTORE PUSH1 0x20 PUSH1 0x4 DUP3 ADD MSTORE PUSH1 0x31 PUSH1 0x24 DUP3 ADD MSTORE PUSH32 0x5061796D656E74417070726F76616C3A20616D6F756E74206D75737420626520 PUSH1 0x44 DUP3 ADD MSTORE PUSH17 0x67726561746572207468616E207A65726F PUSH1 0x78 SHL PUSH1 0x64 DUP3 ADD MSTORE PUSH1 0x84 SWAP1 REVERT JUMPDEST PUSH1 0x40 MLOAD PUSH3 0x461BCD PUSH1 0xE5 SHL DUP2 MSTORE PUSH1 0x20 PUSH1 0x4 DUP3 ADD MSTORE PUSH1 0x26 PUSH1 0x24 DUP3 ADD MSTORE PUSH32 0x5061796D656E74417070726F76616C3A206172726179206C656E677468206D69 PUSH1 0x44 DUP3 ADD MSTORE PUSH6 0xE6DAC2E8C6D PUSH1 0xD3 SHL PUSH1 0x64 DUP3 ADD MSTORE PUSH1 0x84 SWAP1 REVERT JUMPDEST POP DUP9 DUP8 EQ PUSH2 0x9E7 JUMP JUMPDEST PUSH1 0x40 MLOAD PUSH3 0x461BCD PUSH1 0xE5 SHL DUP2 MSTORE PUSH1 0x20 PUSH1 0x4 DUP3 ADD MSTORE PUSH1 0x27 PUSH1 0x24 DUP3 ADD MSTORE PUSH32 0x5061796D656E74417070726F76616C3A206E6F20656D706C6F79656573207370 PUSH1 0x44 DUP3 ADD MSTORE PUSH7 0x1958DA599A5959 PUSH1 0xCA SHL PUSH1 0x64 DUP3 ADD MSTORE PUSH1 0x84 SWAP1 REVERT JUMPDEST PUSH1 0x40 MLOAD PUSH3 0x461BCD PUSH1 0xE5 SHL DUP2 MSTORE PUSH1 0x20 PUSH1 0x4 DUP3 ADD MSTORE PUSH1 0x31 PUSH1 0x24 DUP3 ADD MSTORE PUSH32 0x5061796D656E74417070726F76616C3A206D7573742062652066696E616E6365 PUSH1 0x44 DUP3 ADD MSTORE PUSH17 0x1036B0B730B3B2B91037B91030B236B4B7 PUSH1 0x79 SHL PUSH1 0x64 DUP3 ADD MSTORE PUSH1 0x84 SWAP1 REVERT JUMPDEST POP CALLER PUSH1 0x0 SWAP1 DUP2 MSTORE PUSH1 0x0 DUP1 MLOAD PUSH1 0x20 PUSH2 0x30A6 DUP4 CODECOPY DUP2 MLOAD SWAP2 MSTORE PUSH1 0x20 MSTORE PUSH1 0x40 SWAP1 KECCAK256 SLOAD PUSH1 0xFF AND PUSH2 0x9D3 JUMP JUMPDEST CALLVALUE PUSH2 0x516 JUMPI PUSH1 0x0 CALLDATASIZE PUSH1 0x3 NOT ADD SLT PUSH2 0x516 JUMPI PUSH1 0x20 PUSH1 0x40 MLOAD PUSH32 0xB19546DFF01E856FB3F010C267A7B1C60363CF8A4664E21CC89C26224620214E DUP2 MSTORE RETURN JUMPDEST CALLVALUE PUSH2 0x516 JUMPI PUSH1 0x20 DUP1 PUSH1 0x3 NOT CALLDATASIZE ADD SLT PUSH2 0x516 JUMPI PUSH1 0x4 CALLDATALOAD SWAP1 DUP2 PUSH1 0x0 MSTORE PUSH1 0x8 DUP2 MSTORE PUSH1 0xFF SWAP2 PUSH2 0x1162 DUP4 PUSH1 0x40 PUSH1 0x0 KECCAK256 SLOAD AND PUSH2 0x2AF8 JUMP JUMPDEST PUSH1 0x0 MSTORE PUSH1 0x7 DUP2 MSTORE PUSH1 0x40 PUSH1 0x0 KECCAK256 DUP1 SLOAD PUSH2 0x1179 DUP2 PUSH2 0x29A9 JUMP JUMPDEST SWAP4 PUSH2 0x1187 PUSH1 0x40 MLOAD SWAP6 DUP7 PUSH2 0x26D1 JUMP JUMPDEST DUP2 DUP6 MSTORE PUSH1 0x0 SWAP3 DUP4 MSTORE DUP4 DUP4 KECCAK256 DUP5 DUP7 ADD SWAP4 SWAP2 DUP5 JUMPDEST DUP5 DUP5 LT PUSH2 0x1245 JUMPI PUSH1 0x40 DUP1 MLOAD DUP9 DUP2 MSTORE DUP10 MLOAD DUP2 DUP11 ADD DUP2 SWAP1 MSTORE PUSH1 0x0 SWAP3 PUSH1 0x5 DUP3 SWAP1 SHL DUP4 ADD DUP2 ADD SWAP2 DUP11 SWAP2 DUP13 SWAP1 DUP6 ADD JUMPDEST DUP3 DUP8 LT PUSH2 0x11D0 JUMPI DUP6 DUP6 SUB DUP7 RETURN JUMPDEST SWAP1 SWAP2 SWAP3 SWAP4 DUP3 DUP1 PUSH2 0x1235 PUSH1 0x1 SWAP4 PUSH1 0x3F NOT DUP11 DUP3 SUB ADD DUP7 MSTORE DUP9 MLOAD DUP1 MLOAD DUP3 MSTORE DUP4 DUP2 ADD MLOAD DUP5 DUP4 ADD MSTORE DUP6 DUP1 PUSH1 0xA0 SHL SUB PUSH1 0x40 DUP3 ADD MLOAD AND PUSH1 0x40 DUP4 ADD MSTORE PUSH2 0x1216 PUSH1 0x60 DUP1 DUP4 ADD MLOAD SWAP1 DUP5 ADD SWAP1 PUSH2 0x261D JUMP JUMPDEST PUSH1 0x80 DUP1 DUP3 ADD MLOAD SWAP1 DUP4 ADD MSTORE PUSH1 0xA0 DUP1 SWAP2 ADD MLOAD SWAP2 PUSH1 0xC0 DUP1 SWAP3 DUP3 ADD MSTORE ADD SWAP1 PUSH2 0x262A JUMP JUMPDEST SWAP7 ADD SWAP3 ADD SWAP7 ADD SWAP6 SWAP3 SWAP2 SWAP1 SWAP3 PUSH2 0x11C3 JUMP JUMPDEST PUSH1 0x5 DUP8 PUSH1 0x1 SWAP3 PUSH1 0x40 SWAP11 SWAP10 SWAP11 MLOAD PUSH2 0x125A DUP2 PUSH2 0x26B6 JUMP JUMPDEST DUP7 SLOAD DUP2 MSTORE DUP5 DUP8 ADD SLOAD DUP4 DUP3 ADD MSTORE PUSH1 0x2 DUP8 ADD SLOAD DUP6 DUP1 PUSH1 0xA0 SHL SUB DUP2 AND PUSH1 0x40 DUP4 ADD MSTORE PUSH2 0x128B DUP8 PUSH1 0xA0 SWAP3 DUP4 SHR AND PUSH1 0x60 DUP5 ADD PUSH2 0x2A0E JUMP JUMPDEST PUSH1 0x3 DUP9 ADD SLOAD PUSH1 0x80 DUP4 ADD MSTORE PUSH2 0x12A1 PUSH1 0x4 DUP10 ADD PUSH2 0x2BFF JUMP JUMPDEST SWAP1 DUP3 ADD MSTORE DUP2 MSTORE ADD SWAP4 ADD SWAP4 ADD SWAP3 SWAP2 SWAP7 SWAP6 SWAP7 PUSH2 0x1199 JUMP JUMPDEST CALLVALUE PUSH2 0x516 JUMPI PUSH1 0x40 CALLDATASIZE PUSH1 0x3 NOT ADD SLT PUSH2 0x516 JUMPI PUSH2 0x12CF PUSH2 0x255B JUMP JUMPDEST CALLER PUSH1 0x0 SWAP1 DUP2 MSTORE PUSH1 0x0 DUP1 MLOAD PUSH1 0x20 PUSH2 0x3086 DUP4 CODECOPY DUP2 MLOAD SWAP2 MSTORE PUSH1 0x20 MSTORE PUSH1 0x40 SWAP1 KECCAK256 SLOAD PUSH1 0xFF AND DUP1 ISZERO PUSH2 0x136C JUMPI JUMPDEST ISZERO PUSH2 0x1309 JUMPI PUSH2 0x1307 SWAP1 PUSH1 0x4 CALLDATALOAD PUSH2 0x283C JUMP JUMPDEST STOP JUMPDEST PUSH1 0x40 MLOAD PUSH3 0x461BCD PUSH1 0xE5 SHL DUP2 MSTORE PUSH1 0x20 PUSH1 0x4 DUP3 ADD MSTORE PUSH1 0x35 PUSH1 0x24 DUP3 ADD MSTORE PUSH32 0x416363657373436F6E74726F6C3A206D757374206265206F776E6572206F7220 PUSH1 0x44 DUP3 ADD MSTORE PUSH21 0x61646D696E20746F207265766F6B6520726F6C6573 PUSH1 0x58 SHL PUSH1 0x64 DUP3 ADD MSTORE PUSH1 0x84 SWAP1 REVERT JUMPDEST POP CALLER PUSH1 0x0 SWAP1 DUP2 MSTORE PUSH1 0x0 DUP1 MLOAD PUSH1 0x20 PUSH2 0x30A6 DUP4 CODECOPY DUP2 MLOAD SWAP2 MSTORE PUSH1 0x20 MSTORE PUSH1 0x40 SWAP1 KECCAK256 SLOAD PUSH1 0xFF AND PUSH2 0x12F6 JUMP JUMPDEST CALLVALUE PUSH2 0x516 JUMPI PUSH1 0x20 CALLDATASIZE PUSH1 0x3 NOT ADD SLT PUSH2 0x516 JUMPI PUSH1 0x20 PUSH2 0x13B0 PUSH1 0x4 CALLDATALOAD PUSH2 0x2CA3 JUMP JUMPDEST PUSH1 0x40 MLOAD SWAP1 ISZERO ISZERO DUP2 MSTORE RETURN JUMPDEST CALLVALUE PUSH2 0x516 JUMPI PUSH2 0x13C8 CALLDATASIZE PUSH2 0x2528 JUMP JUMPDEST CALLER PUSH1 0x0 SWAP1 DUP2 MSTORE PUSH1 0x0 DUP1 MLOAD PUSH1 0x20 PUSH2 0x30A6 DUP4 CODECOPY DUP2 MLOAD SWAP2 MSTORE PUSH1 0x20 SWAP1 DUP2 MSTORE PUSH1 0x40 SWAP1 SWAP2 KECCAK256 SLOAD SWAP1 SWAP4 SWAP3 SWAP2 SWAP1 PUSH1 0xFF AND DUP1 ISZERO PUSH2 0x1583 JUMPI JUMPDEST ISZERO PUSH2 0x1523 JUMPI DUP3 PUSH1 0x0 MSTORE PUSH1 0x8 DUP5 MSTORE PUSH2 0x1415 PUSH1 0xFF PUSH1 0x40 PUSH1 0x0 KECCAK256 SLOAD AND PUSH2 0x2AF8 JUMP JUMPDEST DUP3 PUSH1 0x0 MSTORE PUSH1 0x6 DUP5 MSTORE PUSH1 0x40 PUSH1 0x0 KECCAK256 PUSH1 0x4 DUP2 ADD DUP1 SLOAD PUSH1 0xFF DUP2 PUSH1 0xA0 SHR AND PUSH1 0x5 DUP2 LT ISZERO PUSH2 0x465 JUMPI PUSH2 0x1442 SWAP1 ISZERO PUSH2 0x2B54 JUMP JUMPDEST PUSH1 0x9 DUP4 ADD SLOAD PUSH1 0x1 PUSH1 0x1 PUSH1 0xA0 SHL SUB AND CALLER EQ PUSH2 0x14CA JUMPI PUSH1 0xFF PUSH1 0xA0 SHL NOT AND PUSH1 0x1 PUSH1 0xA0 SHL OR SWAP1 SSTORE TIMESTAMP PUSH1 0x6 DUP3 ADD SSTORE PUSH1 0xA ADD DUP1 SLOAD PUSH1 0x1 PUSH1 0x1 PUSH1 0xA0 SHL SUB NOT AND CALLER OR SWAP1 SSTORE PUSH2 0x1494 SWAP2 PUSH2 0x148D SWAP2 CALLDATASIZE SWAP2 PUSH2 0x2A1A JUMP JUMPDEST CALLER DUP4 PUSH2 0x2DD3 JUMP JUMPDEST PUSH2 0x149D DUP2 PUSH2 0x2FFB JUMP JUMPDEST PUSH32 0xDD199C4568B2FD8A463F64486D5C66CD8F715B3CB6322C5637EDFF886020490F PUSH1 0x40 MLOAD SWAP3 TIMESTAMP DUP5 MSTORE CALLER SWAP4 LOG3 STOP JUMPDEST PUSH1 0x40 MLOAD PUSH3 0x461BCD PUSH1 0xE5 SHL DUP2 MSTORE PUSH1 0x4 DUP2 ADD DUP9 SWAP1 MSTORE PUSH1 0x2B PUSH1 0x24 DUP3 ADD MSTORE PUSH32 0x5061796D656E74417070726F76616C3A2063616E6E6F7420617070726F766520 PUSH1 0x44 DUP3 ADD MSTORE PUSH11 0x1BDDDB881C995C5D595CDD PUSH1 0xAA SHL PUSH1 0x64 DUP3 ADD MSTORE PUSH1 0x84 SWAP1 REVERT JUMPDEST PUSH1 0x40 MLOAD PUSH3 0x461BCD PUSH1 0xE5 SHL DUP2 MSTORE PUSH1 0x4 DUP2 ADD DUP6 SWAP1 MSTORE PUSH1 0x32 PUSH1 0x24 DUP3 ADD MSTORE PUSH32 0x5061796D656E74417070726F76616C3A206D7573742062652061646D696E206F PUSH1 0x44 DUP3 ADD MSTORE PUSH18 0x72206F776E657220746F20617070726F7665 PUSH1 0x70 SHL PUSH1 0x64 DUP3 ADD MSTORE PUSH1 0x84 SWAP1 REVERT JUMPDEST POP PUSH32 0xB19546DFF01E856FB3F010C267A7B1C60363CF8A4664E21CC89C26224620214E PUSH1 0x0 MSTORE PUSH1 0x0 DUP5 MSTORE PUSH1 0x40 PUSH1 0x0 KECCAK256 CALLER PUSH1 0x0 MSTORE DUP5 MSTORE PUSH1 0xFF PUSH1 0x40 PUSH1 0x0 KECCAK256 SLOAD AND PUSH2 0x13F7 JUMP JUMPDEST CALLVALUE PUSH2 0x516 JUMPI PUSH1 0x20 CALLDATASIZE PUSH1 0x3 NOT ADD SLT PUSH2 0x516 JUMPI PUSH1 0x4 CALLDATALOAD PUSH2 0x15E2 DUP2 PUSH2 0x2CA3 JUMP JUMPDEST ISZERO PUSH2 0x169F JUMPI DUP1 PUSH1 0x0 MSTORE PUSH1 0x6 PUSH1 0x20 MSTORE PUSH1 0xA PUSH1 0x40 PUSH1 0x0 KECCAK256 PUSH1 0x4 DUP2 ADD PUSH1 0x1 PUSH1 0xA0 SHL PUSH1 0xFF PUSH1 0xA0 SHL NOT DUP3 SLOAD AND OR SWAP1 SSTORE TIMESTAMP PUSH1 0x6 DUP3 ADD SSTORE ADD ADDRESS PUSH1 0x1 PUSH1 0x1 PUSH1 0x60 SHL SUB PUSH1 0xA0 SHL DUP3 SLOAD AND OR SWAP1 SSTORE PUSH1 0x40 MLOAD PUSH1 0x40 DUP2 ADD SWAP1 DUP1 DUP3 LT PUSH1 0x1 PUSH1 0x1 PUSH1 0x40 SHL SUB DUP4 GT OR PUSH2 0x44F JUMPI PUSH2 0x1667 SWAP2 PUSH1 0x40 MSTORE PUSH1 0xD DUP2 MSTORE PUSH13 0x105D5D1BCB585C1C1C9BDD9959 PUSH1 0x9A SHL PUSH1 0x20 DUP3 ADD MSTORE ADDRESS DUP4 PUSH2 0x2DD3 JUMP JUMPDEST PUSH2 0x1670 DUP2 PUSH2 0x2FFB JUMP JUMPDEST PUSH1 0x40 MLOAD SWAP1 TIMESTAMP DUP3 MSTORE PUSH32 0xDD199C4568B2FD8A463F64486D5C66CD8F715B3CB6322C5637EDFF886020490F PUSH1 0x20 ADDRESS SWAP4 LOG3 STOP JUMPDEST PUSH1 0x40 MLOAD PUSH3 0x461BCD PUSH1 0xE5 SHL DUP2 MSTORE PUSH1 0x20 PUSH1 0x4 DUP3 ADD MSTORE PUSH1 0x24 DUP1 DUP3 ADD MSTORE PUSH32 0x5061796D656E74417070726F76616C3A2063616E6E6F74206175746F2D617070 PUSH1 0x44 DUP3 ADD MSTORE PUSH4 0x726F7665 PUSH1 0xE0 SHL PUSH1 0x64 DUP3 ADD MSTORE PUSH1 0x84 SWAP1 REVERT JUMPDEST CALLVALUE PUSH2 0x516 JUMPI PUSH1 0x20 CALLDATASIZE PUSH1 0x3 NOT ADD SLT PUSH2 0x516 JUMPI PUSH1 0x4 CALLDATALOAD PUSH1 0x60 PUSH2 0x180 PUSH1 0x40 MLOAD PUSH2 0x1715 DUP2 PUSH2 0x269A JUMP JUMPDEST PUSH1 0x0 DUP2 MSTORE DUP3 PUSH1 0x20 DUP3 ADD MSTORE DUP3 PUSH1 0x40 DUP3 ADD MSTORE DUP3 DUP1 DUP3 ADD MSTORE PUSH1 0x0 PUSH1 0x80 DUP3 ADD MSTORE PUSH1 0x0 PUSH1 0xA0 DUP3 ADD MSTORE PUSH1 0x0 PUSH1 0xC0 DUP3 ADD MSTORE PUSH1 0x0 PUSH1 0xE0 DUP3 ADD MSTORE PUSH1 0x0 PUSH2 0x100 DUP3 ADD MSTORE PUSH1 0x0 PUSH2 0x120 DUP3 ADD MSTORE PUSH1 0x0 PUSH2 0x140 DUP3 ADD MSTORE PUSH1 0x0 PUSH2 0x160 DUP3 ADD MSTORE ADD MSTORE DUP1 PUSH1 0x0 MSTORE PUSH1 0x8 PUSH1 0x20 MSTORE PUSH2 0x1782 PUSH1 0xFF PUSH1 0x40 PUSH1 0x0 KECCAK256 SLOAD AND PUSH2 0x2AF8 JUMP JUMPDEST PUSH1 0x0 MSTORE PUSH1 0x6 PUSH1 0x20 MSTORE PUSH2 0x8D3 PUSH1 0x40 PUSH1 0x0 KECCAK256 PUSH2 0x1855 PUSH1 0xB PUSH1 0x40 MLOAD SWAP3 PUSH2 0x17A4 DUP5 PUSH2 0x269A JUMP JUMPDEST DUP1 SLOAD DUP5 MSTORE PUSH2 0x17B4 PUSH1 0x1 DUP3 ADD PUSH2 0x2BB0 JUMP JUMPDEST PUSH1 0x20 DUP6 ADD MSTORE PUSH2 0x17C5 PUSH1 0x2 DUP3 ADD PUSH2 0x26F2 JUMP JUMPDEST PUSH1 0x40 DUP6 ADD MSTORE PUSH2 0x17D6 PUSH1 0x3 DUP3 ADD PUSH2 0x2BB0 JUMP JUMPDEST PUSH1 0x60 DUP6 ADD MSTORE PUSH1 0x4 DUP2 ADD SLOAD PUSH1 0x1 PUSH1 0x1 PUSH1 0xA0 SHL SUB DUP2 AND PUSH1 0x80 DUP7 ADD MSTORE PUSH2 0x1803 SWAP1 PUSH1 0xA0 SWAP1 DUP2 SHR PUSH1 0xFF AND SWAP1 DUP7 ADD PUSH2 0x2A0E JUMP JUMPDEST PUSH1 0x5 DUP2 ADD SLOAD PUSH1 0xC0 DUP6 ADD MSTORE PUSH1 0x6 DUP2 ADD SLOAD PUSH1 0xE0 DUP6 ADD MSTORE PUSH1 0x7 DUP2 ADD SLOAD PUSH2 0x100 DUP6 ADD MSTORE PUSH1 0x8 DUP2 ADD SLOAD PUSH2 0x120 DUP6 ADD MSTORE PUSH1 0x9 DUP2 ADD SLOAD PUSH1 0x1 PUSH1 0x1 PUSH1 0xA0 SHL SUB SWAP1 DUP2 AND PUSH2 0x140 DUP7 ADD MSTORE PUSH1 0xA DUP3 ADD SLOAD AND PUSH2 0x160 DUP6 ADD MSTORE ADD PUSH2 0x2BFF JUMP JUMPDEST PUSH2 0x180 DUP3 ADD MSTORE PUSH1 0x40 MLOAD SWAP2 DUP3 SWAP2 PUSH1 0x20 DUP4 MSTORE DUP1 MLOAD PUSH1 0x20 DUP5 ADD MSTORE PUSH2 0x180 PUSH2 0x18BC PUSH2 0x18A6 PUSH2 0x1890 PUSH1 0x20 DUP6 ADD MLOAD PUSH2 0x1A0 PUSH1 0x40 DUP10 ADD MSTORE PUSH2 0x1C0 DUP9 ADD SWAP1 PUSH2 0x25E9 JUMP JUMPDEST PUSH1 0x40 DUP6 ADD MLOAD DUP8 DUP3 SUB PUSH1 0x1F NOT ADD PUSH1 0x60 DUP10 ADD MSTORE PUSH2 0x25AC JUMP JUMPDEST PUSH1 0x60 DUP5 ADD MLOAD DUP7 DUP3 SUB PUSH1 0x1F NOT ADD PUSH1 0x80 DUP9 ADD MSTORE PUSH2 0x25E9 JUMP JUMPDEST SWAP2 PUSH1 0x1 DUP1 PUSH1 0xA0 SHL SUB PUSH1 0x80 DUP3 ADD MLOAD AND PUSH1 0xA0 DUP7 ADD MSTORE PUSH2 0x18E1 PUSH1 0xA0 DUP3 ADD MLOAD PUSH1 0xC0 DUP8 ADD SWAP1 PUSH2 0x261D JUMP JUMPDEST PUSH1 0xC0 DUP2 ADD MLOAD PUSH1 0xE0 DUP7 ADD MSTORE PUSH1 0xE0 DUP2 ADD MLOAD PUSH2 0x100 DUP7 ADD MSTORE PUSH2 0x100 DUP2 ADD MLOAD PUSH2 0x120 DUP7 ADD MSTORE PUSH2 0x120 DUP2 ADD MLOAD PUSH2 0x140 DUP7 ADD MSTORE PUSH1 0x1 DUP1 PUSH1 0xA0 SHL SUB PUSH2 0x140 DUP3 ADD MLOAD AND PUSH2 0x160 DUP7 ADD MSTORE PUSH1 0x1 DUP1 PUSH1 0xA0 SHL SUB PUSH2 0x160 DUP3 ADD MLOAD AND DUP3 DUP7 ADD MSTORE ADD MLOAD PUSH1 0x1F NOT DUP5 DUP4 SUB ADD PUSH2 0x1A0 DUP6 ADD MSTORE PUSH2 0x262A JUMP JUMPDEST CALLVALUE PUSH2 0x516 JUMPI PUSH1 0x20 CALLDATASIZE PUSH1 0x3 NOT ADD SLT PUSH2 0x516 JUMPI PUSH32 0x9B21170A84B37DCA648B25A24B5A4D8B98D2274DA5EA623C0A2E60F7F6DDE2C4 PUSH1 0x40 PUSH1 0x4 CALLDATALOAD PUSH2 0x1994 PUSH1 0x1 DUP1 PUSH1 0xA0 SHL SUB PUSH1 0x2 SLOAD AND CALLER EQ PUSH2 0x274C JUMP JUMPDEST PUSH1 0x5 SLOAD SWAP1 DUP1 PUSH1 0x5 SSTORE DUP3 MLOAD SWAP2 DUP3 MSTORE PUSH1 0x20 DUP3 ADD MSTORE LOG1 STOP JUMPDEST CALLVALUE PUSH2 0x516 JUMPI PUSH1 0x20 DUP1 PUSH1 0x3 NOT CALLDATASIZE ADD SLT PUSH2 0x516 JUMPI PUSH1 0x4 CALLDATALOAD PUSH1 0x5 DUP1 DUP3 LT ISZERO SWAP2 DUP3 PUSH2 0x516 JUMPI PUSH1 0x0 SWAP4 PUSH1 0x0 SWAP4 PUSH1 0x9 SLOAD SWAP5 JUMPDEST DUP6 DUP2 LT PUSH2 0x1AA4 JUMPI POP PUSH2 0x19E6 DUP7 PUSH2 0x29A9 JUMP JUMPDEST SWAP6 PUSH2 0x19F4 PUSH1 0x40 MLOAD SWAP8 DUP9 PUSH2 0x26D1 JUMP JUMPDEST DUP1 DUP8 MSTORE PUSH2 0x1A03 PUSH1 0x1F NOT SWAP2 PUSH2 0x29A9 JUMP JUMPDEST ADD CALLDATASIZE DUP4 DUP9 ADD CALLDATACOPY PUSH1 0x0 SWAP3 PUSH1 0x0 JUMPDEST DUP7 DUP2 LT PUSH2 0x1A24 JUMPI PUSH1 0x40 MLOAD DUP1 PUSH2 0x8D3 DUP11 DUP3 PUSH2 0x2571 JUMP JUMPDEST PUSH2 0x1A2D DUP2 PUSH2 0x27A7 JUMP JUMPDEST SWAP1 SLOAD PUSH1 0x3 SWAP2 DUP3 SHL SHR PUSH1 0x0 MSTORE PUSH1 0x6 DUP6 MSTORE DUP4 PUSH1 0xFF PUSH1 0x4 PUSH1 0x40 PUSH1 0x0 KECCAK256 ADD SLOAD PUSH1 0xA0 SHR AND SWAP1 PUSH2 0x465 JUMPI DUP8 DUP2 LT ISZERO PUSH2 0x465 JUMPI DUP4 EQ PUSH2 0x1A6F JUMPI JUMPDEST POP PUSH2 0x1A6A SWAP1 PUSH2 0x282D JUMP JUMPDEST PUSH2 0x1A0F JUMP JUMPDEST PUSH2 0x1A7A DUP3 SWAP7 SWAP3 PUSH2 0x27A7 JUMP JUMPDEST SWAP1 SLOAD SWAP2 SHL SHR DUP9 MLOAD DUP3 LT ISZERO PUSH2 0x47B JUMPI DUP2 PUSH2 0x1A9D SWAP2 DUP7 PUSH2 0x1A6A SWAP5 DUP11 SHL DUP13 ADD ADD MSTORE PUSH2 0x282D JUMP JUMPDEST SWAP5 SWAP1 PUSH2 0x1A60 JUMP JUMPDEST PUSH2 0x1AAD DUP2 PUSH2 0x27A7 JUMP JUMPDEST SWAP1 SLOAD SWAP1 PUSH1 0x3 SHL SHR PUSH1 0x0 MSTORE PUSH1 0x6 DUP4 MSTORE DUP2 PUSH1 0xFF PUSH1 0x4 PUSH1 0x40 PUSH1 0x0 KECCAK256 ADD SLOAD PUSH1 0xA0 SHR AND SWAP1 PUSH2 0x465 JUMPI DUP6 DUP2 LT ISZERO PUSH2 0x465 JUMPI DUP5 EQ PUSH2 0x1AED JUMPI JUMPDEST PUSH2 0x1AE8 SWAP1 PUSH2 0x282D JUMP JUMPDEST PUSH2 0x19D5 JUMP JUMPDEST SWAP6 PUSH2 0x1AFA PUSH2 0x1AE8 SWAP2 PUSH2 0x282D JUMP JUMPDEST SWAP7 SWAP1 POP PUSH2 0x1ADF JUMP JUMPDEST CALLVALUE PUSH2 0x516 JUMPI PUSH1 0x20 CALLDATASIZE PUSH1 0x3 NOT ADD SLT PUSH2 0x516 JUMPI PUSH1 0x4 CALLDATALOAD PUSH1 0x0 MSTORE PUSH1 0x1 PUSH1 0x20 MSTORE PUSH2 0x8D3 PUSH2 0x1B2E PUSH1 0x40 PUSH1 0x0 KECCAK256 PUSH2 0x26F2 JUMP JUMPDEST PUSH1 0x40 MLOAD SWAP2 DUP3 SWAP2 PUSH1 0x20 DUP4 MSTORE PUSH1 0x20 DUP4 ADD SWAP1 PUSH2 0x25AC JUMP JUMPDEST CALLVALUE PUSH2 0x516 JUMPI PUSH1 0x40 CALLDATASIZE PUSH1 0x3 NOT ADD SLT PUSH2 0x516 JUMPI PUSH2 0x1B5B PUSH2 0x255B JUMP JUMPDEST PUSH1 0x4 CALLDATALOAD PUSH1 0x0 MSTORE PUSH1 0x0 PUSH1 0x20 MSTORE PUSH1 0x40 PUSH1 0x0 KECCAK256 SWAP1 PUSH1 0x1 DUP1 PUSH1 0xA0 SHL SUB AND PUSH1 0x0 MSTORE PUSH1 0x20 MSTORE PUSH1 0x20 PUSH1 0xFF PUSH1 0x40 PUSH1 0x0 KECCAK256 SLOAD AND PUSH1 0x40 MLOAD SWAP1 ISZERO ISZERO DUP2 MSTORE RETURN JUMPDEST CALLVALUE PUSH2 0x516 JUMPI PUSH1 0x0 CALLDATASIZE PUSH1 0x3 NOT ADD SLT PUSH2 0x516 JUMPI PUSH1 0x2 SLOAD PUSH1 0x40 MLOAD PUSH1 0x1 PUSH1 0x1 PUSH1 0xA0 SHL SUB SWAP1 SWAP2 AND DUP2 MSTORE PUSH1 0x20 SWAP1 RETURN JUMPDEST CALLVALUE PUSH2 0x516 JUMPI PUSH1 0x20 CALLDATASIZE PUSH1 0x3 NOT ADD SLT PUSH2 0x516 JUMPI PUSH2 0x1307 CALLER PUSH1 0x4 CALLDATALOAD PUSH2 0x283C JUMP JUMPDEST CALLVALUE PUSH2 0x516 JUMPI PUSH1 0x0 CALLDATASIZE PUSH1 0x3 NOT ADD SLT PUSH2 0x516 JUMPI PUSH1 0x20 PUSH1 0x40 MLOAD PUSH32 0x572F022558B687EED59080237CB7778171198110A24741B57D6ED3432DF881FC DUP2 MSTORE RETURN JUMPDEST CALLVALUE PUSH2 0x516 JUMPI PUSH1 0x0 CALLDATASIZE PUSH1 0x3 NOT ADD SLT PUSH2 0x516 JUMPI PUSH1 0x40 MLOAD DUP1 PUSH1 0xA SLOAD SWAP2 DUP3 DUP2 MSTORE PUSH1 0x20 DUP1 SWAP2 ADD SWAP3 PUSH1 0xA PUSH1 0x0 MSTORE PUSH32 0xC65A7BB8D6351C1CF70C95A316CC6A92839C986682D98BC35F958F4883F9D2A8 SWAP2 PUSH1 0x0 SWAP1 JUMPDEST DUP3 DUP3 LT PUSH2 0x1C74 JUMPI PUSH2 0x8D3 DUP6 PUSH2 0x8C7 DUP2 DUP10 SUB DUP3 PUSH2 0x26D1 JUMP JUMPDEST DUP4 SLOAD DUP7 MSTORE SWAP5 DUP6 ADD SWAP5 PUSH1 0x1 SWAP4 DUP5 ADD SWAP4 SWAP1 SWAP2 ADD SWAP1 PUSH2 0x1C5D JUMP JUMPDEST CALLVALUE PUSH2 0x516 JUMPI PUSH1 0x0 CALLDATASIZE PUSH1 0x3 NOT ADD SLT PUSH2 0x516 JUMPI PUSH1 0x20 PUSH1 0x40 MLOAD PUSH32 0xA49807205CE4D355092EF5A8A18F56E8913CF4A201FBE287825B095693C21775 DUP2 MSTORE RETURN JUMPDEST CALLVALUE PUSH2 0x516 JUMPI PUSH1 0x0 CALLDATASIZE PUSH1 0x3 NOT ADD SLT PUSH2 0x516 JUMPI PUSH1 0x20 PUSH1 0x5 SLOAD PUSH1 0x40 MLOAD SWAP1 DUP2 MSTORE RETURN JUMPDEST CALLVALUE PUSH2 0x516 JUMPI PUSH1 0x20 DUP1 PUSH1 0x3 NOT CALLDATASIZE ADD SLT PUSH2 0x516 JUMPI PUSH1 0x4 CALLDATALOAD PUSH32 0xA49807205CE4D355092EF5A8A18F56E8913CF4A201FBE287825B095693C21775 PUSH1 0x0 MSTORE PUSH1 0x0 DUP3 MSTORE PUSH1 0x40 PUSH1 0x0 KECCAK256 CALLER PUSH1 0x0 MSTORE DUP3 MSTORE PUSH1 0xFF PUSH1 0x40 PUSH1 0x0 KECCAK256 SLOAD AND DUP1 ISZERO PUSH2 0x1E81 JUMPI JUMPDEST ISZERO PUSH2 0x1E20 JUMPI DUP1 PUSH1 0x0 MSTORE PUSH1 0x8 DUP3 MSTORE PUSH2 0x1D5A PUSH1 0xFF PUSH1 0x40 PUSH1 0x0 KECCAK256 SLOAD AND PUSH2 0x2AF8 JUMP JUMPDEST DUP1 PUSH1 0x0 MSTORE PUSH1 0x6 DUP3 MSTORE PUSH1 0x40 PUSH1 0x0 KECCAK256 SWAP2 PUSH1 0x4 DUP4 ADD SWAP3 DUP4 SLOAD SWAP4 PUSH1 0xFF DUP6 PUSH1 0xA0 SHR AND PUSH1 0x5 DUP2 LT ISZERO PUSH2 0x465 JUMPI PUSH1 0x1 SUB PUSH2 0x1DC9 JUMPI PUSH32 0x64232FFDDE5E36BF88C77D8D4EF2ADE7EC7DC87549522E094843EF9BE379B6A4 SWAP4 SWAP5 PUSH1 0x1 PUSH1 0xA2 SHL SWAP1 PUSH1 0xFF PUSH1 0xA0 SHL NOT AND OR SWAP1 SSTORE PUSH1 0x7 TIMESTAMP SWAP2 ADD SSTORE PUSH1 0x40 MLOAD TIMESTAMP DUP2 MSTORE LOG2 STOP JUMPDEST PUSH1 0x40 MLOAD PUSH3 0x461BCD PUSH1 0xE5 SHL DUP2 MSTORE PUSH1 0x4 DUP2 ADD DUP5 SWAP1 MSTORE PUSH1 0x29 PUSH1 0x24 DUP3 ADD MSTORE PUSH32 0x5061796D656E74417070726F76616C3A2072657175657374206D757374206265 PUSH1 0x44 DUP3 ADD MSTORE PUSH9 0x8185C1C1C9BDD9959 PUSH1 0xBA SHL PUSH1 0x64 DUP3 ADD MSTORE PUSH1 0x84 SWAP1 REVERT JUMPDEST PUSH1 0x40 MLOAD PUSH3 0x461BCD PUSH1 0xE5 SHL DUP2 MSTORE PUSH1 0x4 DUP2 ADD DUP4 SWAP1 MSTORE PUSH1 0x33 PUSH1 0x24 DUP3 ADD MSTORE PUSH32 0x5061796D656E74417070726F76616C3A206E6F7420617574686F72697A656420 PUSH1 0x44 DUP3 ADD MSTORE PUSH19 0x1D1BC81B585C9AC8185CC8195E1958DD5D1959 PUSH1 0x6A SHL PUSH1 0x64 DUP3 ADD MSTORE PUSH1 0x84 SWAP1 REVERT JUMPDEST POP PUSH32 0x572F022558B687EED59080237CB7778171198110A24741B57D6ED3432DF881FC PUSH1 0x0 MSTORE PUSH1 0x0 DUP3 MSTORE PUSH1 0x40 PUSH1 0x0 KECCAK256 CALLER PUSH1 0x0 MSTORE DUP3 MSTORE PUSH1 0xFF PUSH1 0x40 PUSH1 0x0 KECCAK256 SLOAD AND PUSH2 0x1D3C JUMP JUMPDEST CALLVALUE PUSH2 0x516 JUMPI PUSH1 0x40 CALLDATASIZE PUSH1 0x3 NOT ADD SLT PUSH2 0x516 JUMPI PUSH1 0x4 CALLDATALOAD PUSH2 0x1EDF PUSH2 0x255B JUMP JUMPDEST CALLER PUSH1 0x0 SWAP1 DUP2 MSTORE PUSH1 0x0 DUP1 MLOAD PUSH1 0x20 PUSH2 0x3086 DUP4 CODECOPY DUP2 MLOAD SWAP2 MSTORE PUSH1 0x20 SWAP1 DUP2 MSTORE PUSH1 0x40 SWAP1 SWAP2 KECCAK256 SLOAD SWAP1 SWAP2 SWAP1 PUSH1 0xFF AND DUP1 ISZERO PUSH2 0x207F JUMPI JUMPDEST ISZERO PUSH2 0x201D JUMPI PUSH1 0x1 PUSH1 0x1 PUSH1 0xA0 SHL SUB DUP2 AND SWAP2 DUP3 ISZERO PUSH2 0x1FC0 JUMPI DUP4 PUSH1 0x0 MSTORE PUSH1 0x0 DUP2 MSTORE PUSH1 0x40 PUSH1 0x0 KECCAK256 DUP4 PUSH1 0x0 MSTORE DUP2 MSTORE PUSH1 0xFF PUSH1 0x40 PUSH1 0x0 KECCAK256 SLOAD AND ISZERO PUSH2 0x1F45 JUMPI STOP JUMPDEST PUSH1 0x1 SWAP1 DUP5 PUSH1 0x0 MSTORE PUSH1 0x0 DUP2 MSTORE PUSH1 0x40 PUSH1 0x0 KECCAK256 DUP5 PUSH1 0x0 MSTORE DUP2 MSTORE PUSH1 0x40 PUSH1 0x0 KECCAK256 DUP3 PUSH1 0xFF NOT DUP3 SLOAD AND OR SWAP1 SSTORE DUP5 PUSH1 0x0 MSTORE MSTORE PUSH1 0x40 PUSH1 0x0 KECCAK256 SWAP1 DUP2 SLOAD SWAP2 PUSH1 0x1 PUSH1 0x40 SHL DUP4 LT ISZERO PUSH2 0x44F JUMPI DUP3 PUSH2 0x651 SWAP2 PUSH1 0x1 PUSH2 0x1F97 SWAP6 ADD DUP2 SSTORE PUSH2 0x2815 JUMP JUMPDEST CALLER SWAP2 PUSH32 0x2F8788117E7EFF1D82E926EC794901D17C78024A50270940304540A733656F0D PUSH1 0x0 DUP1 LOG4 STOP JUMPDEST PUSH1 0x84 SWAP1 PUSH1 0x40 MLOAD SWAP1 PUSH3 0x461BCD PUSH1 0xE5 SHL DUP3 MSTORE PUSH1 0x4 DUP3 ADD MSTORE PUSH1 0x30 PUSH1 0x24 DUP3 ADD MSTORE PUSH32 0x416363657373436F6E74726F6C3A2063616E6E6F74206772616E7420726F6C65 PUSH1 0x44 DUP3 ADD MSTORE PUSH16 0x20746F207A65726F2061646472657373 PUSH1 0x80 SHL PUSH1 0x64 DUP3 ADD MSTORE REVERT JUMPDEST PUSH1 0x40 MLOAD PUSH3 0x461BCD PUSH1 0xE5 SHL DUP2 MSTORE PUSH1 0x4 DUP2 ADD DUP4 SWAP1 MSTORE PUSH1 0x34 PUSH1 0x24 DUP3 ADD MSTORE PUSH32 0x416363657373436F6E74726F6C3A206D757374206265206F776E6572206F7220 PUSH1 0x44 DUP3 ADD MSTORE PUSH20 0x61646D696E20746F206772616E7420726F6C6573 PUSH1 0x60 SHL PUSH1 0x64 DUP3 ADD MSTORE PUSH1 0x84 SWAP1 REVERT JUMPDEST POP PUSH32 0xA49807205CE4D355092EF5A8A18F56E8913CF4A201FBE287825B095693C21775 PUSH1 0x0 MSTORE PUSH1 0x0 DUP3 MSTORE PUSH1 0x40 PUSH1 0x0 KECCAK256 CALLER PUSH1 0x0 MSTORE DUP3 MSTORE PUSH1 0xFF PUSH1 0x40 PUSH1 0x0 KECCAK256 SLOAD AND PUSH2 0x1F0C JUMP JUMPDEST CALLVALUE PUSH2 0x516 JUMPI PUSH1 0x0 CALLDATASIZE PUSH1 0x3 NOT ADD SLT PUSH2 0x516 JUMPI PUSH1 0x20 PUSH1 0x40 MLOAD PUSH32 0x5A3425EA67E73C95853ECFC0C443062DE292A303C186BC2AAC1178AE1B86C62A DUP2 MSTORE RETURN JUMPDEST CALLVALUE PUSH2 0x516 JUMPI PUSH2 0x210A CALLDATASIZE PUSH2 0x2528 JUMP JUMPDEST DUP3 PUSH1 0x0 MSTORE PUSH1 0x8 PUSH1 0x20 MSTORE PUSH2 0x2124 PUSH1 0xFF PUSH1 0x40 PUSH1 0x0 KECCAK256 SLOAD AND PUSH2 0x2AF8 JUMP JUMPDEST DUP3 PUSH1 0x0 MSTORE PUSH1 0x6 PUSH1 0x20 MSTORE PUSH1 0x40 PUSH1 0x0 KECCAK256 SWAP2 PUSH1 0x1 DUP1 PUSH1 0xA0 SHL SUB PUSH1 0x9 DUP5 ADD SLOAD AND CALLER EQ DUP1 ISZERO PUSH2 0x24D5 JUMPI JUMPDEST DUP1 ISZERO PUSH2 0x24AF JUMPI JUMPDEST ISZERO PUSH2 0x2458 JUMPI PUSH1 0x4 DUP4 ADD SLOAD SWAP2 PUSH1 0xFF DUP4 PUSH1 0xA0 SHR AND PUSH1 0x5 DUP2 LT ISZERO PUSH2 0x465 JUMPI DUP1 ISZERO SWAP1 DUP2 ISZERO PUSH2 0x244D JUMPI JUMPDEST POP ISZERO PUSH2 0x23E2 JUMPI PUSH1 0xFF PUSH1 0xA0 SHL NOT SWAP1 SWAP3 AND PUSH1 0x3 PUSH1 0xA0 SHL OR PUSH1 0x4 DUP5 ADD SSTORE PUSH2 0x219A SWAP2 CALLDATASIZE SWAP2 PUSH2 0x2A1A JUMP JUMPDEST PUSH1 0x4 SLOAD SWAP1 PUSH2 0x21A7 DUP3 PUSH2 0x282D JUMP JUMPDEST PUSH1 0x4 SSTORE PUSH1 0x40 MLOAD SWAP1 PUSH2 0x21B7 DUP3 PUSH2 0x26B6 JUMP JUMPDEST DUP3 DUP3 MSTORE DUP5 PUSH1 0x20 DUP4 ADD MSTORE CALLER PUSH1 0x40 DUP4 ADD MSTORE PUSH1 0x3 PUSH1 0x60 DUP4 ADD MSTORE TIMESTAMP PUSH1 0x80 DUP4 ADD MSTORE PUSH1 0xA0 DUP3 ADD MSTORE DUP4 PUSH1 0x0 MSTORE PUSH1 0x7 PUSH1 0x20 MSTORE PUSH1 0x40 PUSH1 0x0 KECCAK256 DUP1 SLOAD SWAP1 PUSH1 0x1 PUSH1 0x40 SHL DUP3 LT ISZERO PUSH2 0x44F JUMPI PUSH1 0x1 DUP3 ADD DUP1 DUP3 SSTORE DUP3 LT ISZERO PUSH2 0x47B JUMPI PUSH1 0x0 MSTORE PUSH1 0x5 PUSH1 0x20 PUSH1 0x0 KECCAK256 SWAP2 MUL ADD DUP2 MLOAD DUP2 SSTORE PUSH1 0x20 DUP3 ADD MLOAD PUSH1 0x1 DUP3 ADD SSTORE PUSH1 0x2 DUP2 ADD SWAP1 PUSH1 0x1 DUP1 PUSH1 0xA0 SHL SUB PUSH1 0x40 DUP5 ADD MLOAD AND PUSH1 0x1 PUSH1 0x1 PUSH1 0x60 SHL SUB PUSH1 0xA0 SHL DUP4 SLOAD AND OR DUP3 SSTORE PUSH1 0x60 DUP4 ADD MLOAD SWAP1 PUSH1 0x5 DUP3 LT ISZERO PUSH2 0x465 JUMPI PUSH2 0x225E PUSH1 0x4 SWAP3 PUSH1 0xA0 SWAP5 PUSH2 0x2A9A JUMP JUMPDEST PUSH1 0x80 DUP5 ADD MLOAD PUSH1 0x3 DUP3 ADD SSTORE ADD SWAP2 ADD MLOAD DUP1 MLOAD SWAP1 PUSH1 0x1 PUSH1 0x1 PUSH1 0x40 SHL SUB DUP3 GT PUSH2 0x44F JUMPI PUSH2 0x2287 DUP4 SLOAD PUSH2 0x2ABE JUMP JUMPDEST PUSH1 0x1F DUP2 GT PUSH2 0x23B0 JUMPI JUMPDEST POP PUSH1 0x20 SWAP1 PUSH1 0x1F DUP4 GT PUSH1 0x1 EQ PUSH2 0x2341 JUMPI SWAP2 DUP1 PUSH1 0xFF SWAP7 SWAP5 SWAP3 PUSH1 0x4 SWAP7 SWAP5 PUSH1 0x0 SWAP3 PUSH2 0x2336 JUMPI JUMPDEST POP POP DUP2 PUSH1 0x1 SHL SWAP2 PUSH1 0x0 NOT SWAP1 PUSH1 0x3 SHL SHR NOT AND OR SWAP1 SSTORE JUMPDEST DUP5 PUSH1 0x40 MLOAD SWAP2 PUSH1 0x3 DUP4 MSTORE PUSH1 0x0 DUP1 MLOAD PUSH1 0x20 PUSH2 0x30C6 DUP4 CODECOPY DUP2 MLOAD SWAP2 MSTORE PUSH1 0x20 CALLER SWAP5 LOG4 ADD SLOAD PUSH1 0xA0 SHR AND PUSH1 0x5 DUP2 LT ISZERO PUSH2 0x465 JUMPI ISZERO PUSH2 0x2328 JUMPI JUMPDEST PUSH1 0x40 MLOAD SWAP1 TIMESTAMP DUP3 MSTORE PUSH32 0xA328181BC64CD2008E108C07B86E69235C90EAB0F4EF827CDB3EB578592BD3F7 PUSH1 0x20 CALLER SWAP4 LOG3 STOP JUMPDEST PUSH2 0x2331 DUP2 PUSH2 0x2FFB JUMP JUMPDEST PUSH2 0x22F9 JUMP JUMPDEST ADD MLOAD SWAP1 POP DUP9 DUP1 PUSH2 0x22B2 JUMP JUMPDEST SWAP1 PUSH1 0x1F NOT DUP4 AND SWAP2 DUP5 PUSH1 0x0 MSTORE PUSH1 0x20 PUSH1 0x0 KECCAK256 SWAP3 PUSH1 0x0 JUMPDEST DUP2 DUP2 LT PUSH2 0x2398 JUMPI POP SWAP3 PUSH1 0x1 SWAP3 DUP6 SWAP3 PUSH1 0x4 SWAP9 SWAP7 PUSH1 0xFF SWAP11 SWAP9 SWAP7 LT PUSH2 0x237F JUMPI JUMPDEST POP POP POP DUP2 SHL ADD SWAP1 SSTORE PUSH2 0x22C7 JUMP JUMPDEST ADD MLOAD PUSH1 0x0 NOT PUSH1 0xF8 DUP5 PUSH1 0x3 SHL AND SHR NOT AND SWAP1 SSTORE DUP9 DUP1 DUP1 PUSH2 0x2372 JUMP JUMPDEST SWAP3 SWAP4 PUSH1 0x20 PUSH1 0x1 DUP2 SWAP3 DUP8 DUP7 ADD MLOAD DUP2 SSTORE ADD SWAP6 ADD SWAP4 ADD PUSH2 0x2355 JUMP JUMPDEST PUSH2 0x23DC SWAP1 DUP5 PUSH1 0x0 MSTORE PUSH1 0x20 PUSH1 0x0 KECCAK256 PUSH1 0x1F DUP6 ADD PUSH1 0x5 SHR DUP2 ADD SWAP2 PUSH1 0x20 DUP7 LT PUSH2 0x445 JUMPI PUSH1 0x1F ADD PUSH1 0x5 SHR ADD SWAP1 PUSH2 0x2A60 JUMP JUMPDEST DUP7 PUSH2 0x2290 JUMP JUMPDEST PUSH1 0x40 MLOAD PUSH3 0x461BCD PUSH1 0xE5 SHL DUP2 MSTORE PUSH1 0x20 PUSH1 0x4 DUP3 ADD MSTORE PUSH1 0x3D PUSH1 0x24 DUP3 ADD MSTORE PUSH32 0x5061796D656E74417070726F76616C3A2063616E206F6E6C792063616E63656C PUSH1 0x44 DUP3 ADD MSTORE PUSH32 0x2070656E64696E67206F7220617070726F766564207265717565737473000000 PUSH1 0x64 DUP3 ADD MSTORE PUSH1 0x84 SWAP1 REVERT JUMPDEST PUSH1 0x1 SWAP2 POP EQ DUP7 PUSH2 0x2175 JUMP JUMPDEST PUSH1 0x40 MLOAD PUSH3 0x461BCD PUSH1 0xE5 SHL DUP2 MSTORE PUSH1 0x20 PUSH1 0x4 DUP3 ADD MSTORE PUSH1 0x29 PUSH1 0x24 DUP3 ADD MSTORE PUSH32 0x5061796D656E74417070726F76616C3A206E6F7420617574686F72697A656420 PUSH1 0x44 DUP3 ADD MSTORE PUSH9 0x1D1BC818D85B98D95B PUSH1 0xBA SHL PUSH1 0x64 DUP3 ADD MSTORE PUSH1 0x84 SWAP1 REVERT JUMPDEST POP CALLER PUSH1 0x0 SWAP1 DUP2 MSTORE PUSH1 0x0 DUP1 MLOAD PUSH1 0x20 PUSH2 0x3086 DUP4 CODECOPY DUP2 MLOAD SWAP2 MSTORE PUSH1 0x20 MSTORE PUSH1 0x40 SWAP1 KECCAK256 SLOAD PUSH1 0xFF AND PUSH2 0x2150 JUMP JUMPDEST POP CALLER PUSH1 0x0 SWAP1 DUP2 MSTORE PUSH1 0x0 DUP1 MLOAD PUSH1 0x20 PUSH2 0x30A6 DUP4 CODECOPY DUP2 MLOAD SWAP2 MSTORE PUSH1 0x20 MSTORE PUSH1 0x40 SWAP1 KECCAK256 SLOAD PUSH1 0xFF AND PUSH2 0x2149 JUMP JUMPDEST SWAP2 DUP2 PUSH1 0x1F DUP5 ADD SLT ISZERO PUSH2 0x516 JUMPI DUP3 CALLDATALOAD SWAP2 PUSH1 0x1 PUSH1 0x1 PUSH1 0x40 SHL SUB DUP4 GT PUSH2 0x516 JUMPI PUSH1 0x20 DUP4 DUP2 DUP7 ADD SWAP6 ADD ADD GT PUSH2 0x516 JUMPI JUMP JUMPDEST SWAP1 PUSH1 0x40 PUSH1 0x3 NOT DUP4 ADD SLT PUSH2 0x516 JUMPI PUSH1 0x4 CALLDATALOAD SWAP2 PUSH1 0x24 CALLDATALOAD SWAP1 PUSH1 0x1 PUSH1 0x1 PUSH1 0x40 SHL SUB DUP3 GT PUSH2 0x516 JUMPI PUSH2 0x2557 SWAP2 PUSH1 0x4 ADD PUSH2 0x24FB JUMP JUMPDEST SWAP1 SWAP2 JUMP JUMPDEST PUSH1 0x24 CALLDATALOAD SWAP1 PUSH1 0x1 PUSH1 0x1 PUSH1 0xA0 SHL SUB DUP3 AND DUP3 SUB PUSH2 0x516 JUMPI JUMP JUMPDEST PUSH1 0x20 SWAP1 DUP2 PUSH1 0x40 DUP2 DUP4 ADD SWAP3 DUP3 DUP2 MSTORE DUP6 MLOAD DUP1 SWAP5 MSTORE ADD SWAP4 ADD SWAP2 PUSH1 0x0 JUMPDEST DUP3 DUP2 LT PUSH2 0x2598 JUMPI POP POP POP POP SWAP1 JUMP JUMPDEST DUP4 MLOAD DUP6 MSTORE SWAP4 DUP2 ADD SWAP4 SWAP3 DUP2 ADD SWAP3 PUSH1 0x1 ADD PUSH2 0x258A JUMP JUMPDEST SWAP1 DUP2 MLOAD DUP1 DUP3 MSTORE PUSH1 0x20 DUP1 DUP1 SWAP4 ADD SWAP4 ADD SWAP2 PUSH1 0x0 JUMPDEST DUP3 DUP2 LT PUSH2 0x25CC JUMPI POP POP POP POP SWAP1 JUMP JUMPDEST DUP4 MLOAD PUSH1 0x1 PUSH1 0x1 PUSH1 0xA0 SHL SUB AND DUP6 MSTORE SWAP4 DUP2 ADD SWAP4 SWAP3 DUP2 ADD SWAP3 PUSH1 0x1 ADD PUSH2 0x25BE JUMP JUMPDEST SWAP1 DUP2 MLOAD DUP1 DUP3 MSTORE PUSH1 0x20 DUP1 DUP1 SWAP4 ADD SWAP4 ADD SWAP2 PUSH1 0x0 JUMPDEST DUP3 DUP2 LT PUSH2 0x2609 JUMPI POP POP POP POP SWAP1 JUMP JUMPDEST DUP4 MLOAD DUP6 MSTORE SWAP4 DUP2 ADD SWAP4 SWAP3 DUP2 ADD SWAP3 PUSH1 0x1 ADD PUSH2 0x25FB JUMP JUMPDEST SWAP1 PUSH1 0x5 DUP3 LT ISZERO PUSH2 0x465 JUMPI MSTORE JUMP JUMPDEST SWAP2 SWAP1 DUP3 MLOAD SWAP3 DUP4 DUP3 MSTORE PUSH1 0x0 JUMPDEST DUP5 DUP2 LT PUSH2 0x2656 JUMPI POP POP DUP3 PUSH1 0x0 PUSH1 0x20 DUP1 SWAP5 SWAP6 DUP5 ADD ADD MSTORE PUSH1 0x1F DUP1 NOT SWAP2 ADD AND ADD ADD SWAP1 JUMP JUMPDEST PUSH1 0x20 DUP2 DUP4 ADD DUP2 ADD MLOAD DUP5 DUP4 ADD DUP3 ADD MSTORE ADD PUSH2 0x2635 JUMP JUMPDEST SWAP2 DUP2 PUSH1 0x1F DUP5 ADD SLT ISZERO PUSH2 0x516 JUMPI DUP3 CALLDATALOAD SWAP2 PUSH1 0x1 PUSH1 0x1 PUSH1 0x40 SHL SUB DUP4 GT PUSH2 0x516 JUMPI PUSH1 0x20 DUP1 DUP6 ADD SWAP5 DUP5 PUSH1 0x5 SHL ADD ADD GT PUSH2 0x516 JUMPI JUMP JUMPDEST PUSH2 0x1A0 DUP2 ADD SWAP1 DUP2 LT PUSH1 0x1 PUSH1 0x1 PUSH1 0x40 SHL SUB DUP3 GT OR PUSH2 0x44F JUMPI PUSH1 0x40 MSTORE JUMP JUMPDEST PUSH1 0xC0 DUP2 ADD SWAP1 DUP2 LT PUSH1 0x1 PUSH1 0x1 PUSH1 0x40 SHL SUB DUP3 GT OR PUSH2 0x44F JUMPI PUSH1 0x40 MSTORE JUMP JUMPDEST SWAP1 PUSH1 0x1F DUP1 NOT SWAP2 ADD AND DUP2 ADD SWAP1 DUP2 LT PUSH1 0x1 PUSH1 0x1 PUSH1 0x40 SHL SUB DUP3 GT OR PUSH2 0x44F JUMPI PUSH1 0x40 MSTORE JUMP JUMPDEST SWAP1 PUSH1 0x40 MLOAD SWAP2 DUP3 DUP2 SLOAD SWAP2 DUP3 DUP3 MSTORE PUSH1 0x20 SWAP3 DUP4 DUP4 ADD SWAP2 PUSH1 0x0 MSTORE DUP4 PUSH1 0x0 KECCAK256 SWAP4 PUSH1 0x0 SWAP1 JUMPDEST DUP3 DUP3 LT PUSH2 0x2729 JUMPI POP POP POP PUSH2 0x2727 SWAP3 POP SUB DUP4 PUSH2 0x26D1 JUMP JUMPDEST JUMP JUMPDEST DUP6 SLOAD PUSH1 0x1 PUSH1 0x1 PUSH1 0xA0 SHL SUB AND DUP5 MSTORE PUSH1 0x1 SWAP6 DUP7 ADD SWAP6 DUP9 SWAP6 POP SWAP4 DUP2 ADD SWAP4 SWAP1 SWAP2 ADD SWAP1 PUSH2 0x2711 JUMP JUMPDEST ISZERO PUSH2 0x2753 JUMPI JUMP JUMPDEST PUSH1 0x40 MLOAD PUSH3 0x461BCD PUSH1 0xE5 SHL DUP2 MSTORE PUSH1 0x20 PUSH1 0x4 DUP3 ADD MSTORE PUSH1 0x26 PUSH1 0x24 DUP3 ADD MSTORE PUSH32 0x416363657373436F6E74726F6C3A2063616C6C6572206973206E6F7420746865 PUSH1 0x44 DUP3 ADD MSTORE PUSH6 0x1037BBB732B9 PUSH1 0xD1 SHL PUSH1 0x64 DUP3 ADD MSTORE PUSH1 0x84 SWAP1 REVERT JUMPDEST PUSH1 0x9 SLOAD DUP2 LT ISZERO PUSH2 0x47B JUMPI PUSH1 0x9 PUSH1 0x0 MSTORE PUSH32 0x6E1540171B6C0C960B71A7020D9F60077F6AF931A8BBF590DA0223DACF75C7AF ADD SWAP1 PUSH1 0x0 SWAP1 JUMP JUMPDEST PUSH1 0xA SLOAD DUP2 LT ISZERO PUSH2 0x47B JUMPI PUSH1 0xA PUSH1 0x0 MSTORE PUSH32 0xC65A7BB8D6351C1CF70C95A316CC6A92839C986682D98BC35F958F4883F9D2A8 ADD SWAP1 PUSH1 0x0 SWAP1 JUMP JUMPDEST DUP1 SLOAD DUP3 LT ISZERO PUSH2 0x47B JUMPI PUSH1 0x0 MSTORE PUSH1 0x20 PUSH1 0x0 KECCAK256 ADD SWAP1 PUSH1 0x0 SWAP1 JUMP JUMPDEST PUSH1 0x0 NOT DUP2 EQ PUSH2 0x7CF JUMPI PUSH1 0x1 ADD SWAP1 JUMP JUMPDEST PUSH1 0x0 DUP2 DUP2 MSTORE PUSH1 0x20 DUP2 DUP2 MSTORE PUSH1 0x40 DUP1 DUP4 KECCAK256 PUSH1 0x1 PUSH1 0x1 PUSH1 0xA0 SHL SUB SWAP6 DUP7 AND DUP1 DUP6 MSTORE SWAP3 MSTORE DUP3 KECCAK256 SLOAD SWAP2 SWAP3 SWAP1 SWAP2 PUSH1 0xFF AND PUSH2 0x2870 JUMPI JUMPDEST POP POP POP POP JUMP JUMPDEST DUP1 DUP4 MSTORE DUP3 PUSH1 0x20 MSTORE PUSH1 0x40 DUP4 KECCAK256 DUP3 DUP5 MSTORE PUSH1 0x20 MSTORE PUSH1 0x40 DUP4 KECCAK256 PUSH1 0xFF NOT DUP2 SLOAD AND SWAP1 SSTORE DUP1 DUP4 MSTORE PUSH1 0x1 SWAP4 DUP5 PUSH1 0x20 MSTORE PUSH1 0x40 DUP5 KECCAK256 SWAP1 DUP6 DUP6 SWAP1 JUMPDEST PUSH2 0x28DA JUMPI JUMPDEST POP POP POP SWAP1 SWAP2 SWAP3 POP PUSH32 0xF6391F5C32D9C69D2A47EA670B442974B53935D1EDC7FD64EB21E047A839171B CALLER SWAP4 DUP1 LOG4 CODESIZE DUP1 DUP1 DUP1 PUSH2 0x286A JUMP JUMPDEST DUP3 SLOAD DUP1 DUP3 LT ISZERO PUSH2 0x2986 JUMPI DUP3 DUP7 PUSH2 0x28F0 DUP5 DUP8 PUSH2 0x2815 JUMP JUMPDEST SWAP3 SWAP1 SLOAD PUSH1 0x3 SWAP4 DUP5 SHL SHR AND EQ PUSH2 0x2910 JUMPI POP POP PUSH2 0x290A SWAP1 PUSH2 0x282D JUMP JUMPDEST DUP7 PUSH2 0x28A0 JUMP JUMPDEST SWAP1 SWAP4 SWAP5 SWAP6 SWAP7 SWAP8 POP PUSH1 0x0 SWAP3 SWAP2 SWAP3 NOT SWAP4 DUP5 DUP2 ADD SWAP1 DUP2 GT PUSH2 0x2972 JUMPI SWAP2 PUSH2 0x651 SWAP2 PUSH2 0x773 PUSH2 0x293B SWAP6 SWAP5 DUP9 PUSH2 0x2815 JUMP JUMPDEST DUP2 SLOAD DUP1 ISZERO PUSH2 0x295E JUMPI ADD SWAP1 PUSH2 0x2952 PUSH2 0x797 DUP4 DUP4 PUSH2 0x2815 JUMP JUMPDEST SSTORE SWAP1 DUP3 SWAP2 CODESIZE DUP1 DUP1 PUSH2 0x28A5 JUMP JUMPDEST PUSH4 0x4E487B71 PUSH1 0xE0 SHL DUP7 MSTORE PUSH1 0x31 PUSH1 0x4 MSTORE PUSH1 0x24 DUP7 REVERT JUMPDEST PUSH4 0x4E487B71 PUSH1 0xE0 SHL DUP10 MSTORE PUSH1 0x11 PUSH1 0x4 MSTORE PUSH1 0x24 DUP10 REVERT JUMPDEST POP PUSH2 0x28A5 JUMP JUMPDEST SWAP2 SWAP1 DUP2 LT ISZERO PUSH2 0x47B JUMPI PUSH1 0x5 SHL ADD SWAP1 JUMP JUMPDEST SWAP2 SWAP1 DUP3 ADD DUP1 SWAP3 GT PUSH2 0x7CF JUMPI JUMP JUMPDEST PUSH1 0x1 PUSH1 0x1 PUSH1 0x40 SHL SUB DUP2 GT PUSH2 0x44F JUMPI PUSH1 0x5 SHL PUSH1 0x20 ADD SWAP1 JUMP JUMPDEST SWAP3 SWAP2 PUSH2 0x29CB DUP3 PUSH2 0x29A9 JUMP JUMPDEST SWAP2 PUSH2 0x29D9 PUSH1 0x40 MLOAD SWAP4 DUP5 PUSH2 0x26D1 JUMP JUMPDEST DUP3 SWAP5 DUP2 DUP5 MSTORE PUSH1 0x20 DUP1 SWAP5 ADD SWAP2 PUSH1 0x5 SHL DUP2 ADD SWAP3 DUP4 GT PUSH2 0x516 JUMPI SWAP1 JUMPDEST DUP3 DUP3 LT PUSH2 0x29FF JUMPI POP POP POP POP JUMP JUMPDEST DUP2 CALLDATALOAD DUP2 MSTORE SWAP1 DUP4 ADD SWAP1 DUP4 ADD PUSH2 0x29F2 JUMP JUMPDEST PUSH1 0x5 DUP3 LT ISZERO PUSH2 0x465 JUMPI MSTORE JUMP JUMPDEST SWAP3 SWAP2 SWAP3 PUSH1 0x1 PUSH1 0x1 PUSH1 0x40 SHL SUB DUP3 GT PUSH2 0x44F JUMPI PUSH1 0x40 MLOAD SWAP2 PUSH2 0x2A43 PUSH1 0x1F DUP3 ADD PUSH1 0x1F NOT AND PUSH1 0x20 ADD DUP5 PUSH2 0x26D1 JUMP JUMPDEST DUP3 SWAP5 DUP2 DUP5 MSTORE DUP2 DUP4 ADD GT PUSH2 0x516 JUMPI DUP3 DUP2 PUSH1 0x20 SWAP4 DUP5 PUSH1 0x0 SWAP7 ADD CALLDATACOPY ADD ADD MSTORE JUMP JUMPDEST DUP2 DUP2 LT PUSH2 0x2A6B JUMPI POP POP JUMP JUMPDEST PUSH1 0x0 DUP2 SSTORE PUSH1 0x1 ADD PUSH2 0x2A60 JUMP JUMPDEST SWAP2 DUP2 DUP2 LT PUSH2 0x2A84 JUMPI POP POP POP JUMP JUMPDEST PUSH2 0x2727 SWAP3 PUSH1 0x0 MSTORE PUSH1 0x20 PUSH1 0x0 KECCAK256 SWAP2 DUP3 ADD SWAP2 ADD PUSH2 0x2A60 JUMP JUMPDEST SWAP1 PUSH1 0x5 DUP2 LT ISZERO PUSH2 0x465 JUMPI DUP2 SLOAD PUSH1 0xFF PUSH1 0xA0 SHL NOT AND PUSH1 0xA0 SWAP2 SWAP1 SWAP2 SHL PUSH1 0xFF PUSH1 0xA0 SHL AND OR SWAP1 SSTORE JUMP JUMPDEST SWAP1 PUSH1 0x1 DUP3 DUP2 SHR SWAP3 AND DUP1 ISZERO PUSH2 0x2AEE JUMPI JUMPDEST PUSH1 0x20 DUP4 LT EQ PUSH2 0x2AD8 JUMPI JUMP JUMPDEST PUSH4 0x4E487B71 PUSH1 0xE0 SHL PUSH1 0x0 MSTORE PUSH1 0x22 PUSH1 0x4 MSTORE PUSH1 0x24 PUSH1 0x0 REVERT JUMPDEST SWAP2 PUSH1 0x7F AND SWAP2 PUSH2 0x2ACD JUMP JUMPDEST ISZERO PUSH2 0x2AFF JUMPI JUMP JUMPDEST PUSH1 0x40 MLOAD PUSH3 0x461BCD PUSH1 0xE5 SHL DUP2 MSTORE PUSH1 0x20 PUSH1 0x4 DUP3 ADD MSTORE PUSH1 0x27 PUSH1 0x24 DUP3 ADD MSTORE PUSH32 0x5061796D656E74417070726F76616C3A207265717565737420646F6573206E6F PUSH1 0x44 DUP3 ADD MSTORE PUSH7 0x1D08195E1A5CDD PUSH1 0xCA SHL PUSH1 0x64 DUP3 ADD MSTORE PUSH1 0x84 SWAP1 REVERT JUMPDEST ISZERO PUSH2 0x2B5B JUMPI JUMP JUMPDEST PUSH1 0x40 MLOAD PUSH3 0x461BCD PUSH1 0xE5 SHL DUP2 MSTORE PUSH1 0x20 PUSH1 0x4 DUP3 ADD MSTORE PUSH1 0x27 PUSH1 0x24 DUP3 ADD MSTORE PUSH32 0x5061796D656E74417070726F76616C3A2072657175657374206973206E6F7420 PUSH1 0x44 DUP3 ADD MSTORE PUSH7 0x70656E64696E67 PUSH1 0xC8 SHL PUSH1 0x64 DUP3 ADD MSTORE PUSH1 0x84 SWAP1 REVERT JUMPDEST SWAP1 PUSH1 0x40 MLOAD SWAP2 DUP3 DUP2 SLOAD SWAP2 DUP3 DUP3 MSTORE PUSH1 0x20 SWAP3 DUP4 DUP4 ADD SWAP2 PUSH1 0x0 MSTORE DUP4 PUSH1 0x0 KECCAK256 SWAP4 PUSH1 0x0 SWAP1 JUMPDEST DUP3 DUP3 LT PUSH2 0x2BE5 JUMPI POP POP POP PUSH2 0x2727 SWAP3 POP SUB DUP4 PUSH2 0x26D1 JUMP JUMPDEST DUP6 SLOAD DUP5 MSTORE PUSH1 0x1 SWAP6 DUP7 ADD SWAP6 DUP9 SWAP6 POP SWAP4 DUP2 ADD SWAP4 SWAP1 SWAP2 ADD SWAP1 PUSH2 0x2BCF JUMP JUMPDEST SWAP1 PUSH1 0x40 MLOAD SWAP2 DUP3 PUSH1 0x0 DUP3 SLOAD SWAP3 PUSH2 0x2C13 DUP5 PUSH2 0x2ABE JUMP JUMPDEST SWAP1 DUP2 DUP5 MSTORE PUSH1 0x1 SWAP5 DUP6 DUP2 AND SWAP1 DUP2 PUSH1 0x0 EQ PUSH2 0x2C80 JUMPI POP PUSH1 0x1 EQ PUSH2 0x2C3D JUMPI JUMPDEST POP POP PUSH2 0x2727 SWAP3 POP SUB DUP4 PUSH2 0x26D1 JUMP JUMPDEST SWAP1 SWAP4 SWAP2 POP PUSH1 0x0 MSTORE PUSH1 0x20 SWAP1 DUP2 PUSH1 0x0 KECCAK256 SWAP4 PUSH1 0x0 SWAP2 JUMPDEST DUP2 DUP4 LT PUSH2 0x2C68 JUMPI POP POP PUSH2 0x2727 SWAP4 POP DUP3 ADD ADD CODESIZE DUP1 PUSH2 0x2C2F JUMP JUMPDEST DUP6 SLOAD DUP9 DUP5 ADD DUP6 ADD MSTORE SWAP5 DUP6 ADD SWAP5 DUP8 SWAP5 POP SWAP2 DUP4 ADD SWAP2 PUSH2 0x2C50 JUMP JUMPDEST SWAP2 POP POP PUSH2 0x2727 SWAP5 POP PUSH1 0x20 SWAP3 POP PUSH1 0xFF NOT AND DUP3 DUP5 ADD MSTORE ISZERO ISZERO PUSH1 0x5 SHL DUP3 ADD ADD CODESIZE DUP1 PUSH2 0x2C2F JUMP JUMPDEST PUSH1 0x0 SWAP1 DUP1 DUP3 MSTORE PUSH1 0x8 PUSH1 0x20 MSTORE PUSH2 0x2CBE PUSH1 0xFF PUSH1 0x40 DUP5 KECCAK256 SLOAD AND PUSH2 0x2AF8 JUMP JUMPDEST DUP2 MSTORE PUSH1 0x6 PUSH1 0x20 MSTORE PUSH1 0x40 DUP2 KECCAK256 SWAP1 PUSH1 0x40 MLOAD PUSH2 0x2CD6 DUP2 PUSH2 0x269A JUMP JUMPDEST DUP3 SLOAD DUP2 MSTORE PUSH2 0x2CE6 PUSH1 0x1 DUP5 ADD PUSH2 0x2BB0 JUMP JUMPDEST PUSH1 0x20 DUP3 ADD MSTORE PUSH2 0x2CF7 PUSH1 0x2 DUP5 ADD PUSH2 0x26F2 JUMP JUMPDEST PUSH1 0x40 DUP3 ADD MSTORE PUSH2 0x2D08 PUSH1 0x3 DUP5 ADD PUSH2 0x2BB0 JUMP JUMPDEST PUSH1 0x60 DUP3 ADD MSTORE PUSH1 0x4 DUP4 ADD SLOAD SWAP1 PUSH2 0x180 PUSH2 0x2D8B PUSH1 0xB PUSH1 0x1 DUP1 PUSH1 0xA0 SHL SUB SWAP7 DUP8 DUP7 AND PUSH1 0x80 DUP7 ADD MSTORE PUSH2 0x2D3F PUSH1 0xFF PUSH1 0xA0 DUP8 ADD SWAP8 PUSH1 0xA0 SHR AND DUP8 PUSH2 0x2A0E JUMP JUMPDEST PUSH1 0x5 DUP2 ADD SLOAD PUSH1 0xC0 DUP7 ADD MSTORE PUSH1 0x6 DUP2 ADD SLOAD PUSH1 0xE0 DUP7 ADD MSTORE PUSH1 0x7 DUP2 ADD SLOAD PUSH2 0x100 DUP7 ADD MSTORE PUSH1 0x8 DUP2 ADD SLOAD SWAP8 PUSH2 0x120 DUP7 ADD SWAP9 DUP10 MSTORE DUP1 PUSH1 0x9 DUP4 ADD SLOAD AND PUSH2 0x140 DUP8 ADD MSTORE PUSH1 0xA DUP3 ADD SLOAD AND PUSH2 0x160 DUP7 ADD MSTORE ADD PUSH2 0x2BFF JUMP JUMPDEST SWAP2 ADD MSTORE MLOAD SWAP1 PUSH1 0x5 DUP3 LT ISZERO PUSH2 0x2DBF JUMPI POP ISZERO SWAP1 DUP2 PUSH2 0x2DB4 JUMPI JUMPDEST DUP2 PUSH2 0x2DAB JUMPI POP SWAP1 JUMP JUMPDEST SWAP1 POP MLOAD TIMESTAMP LT ISZERO SWAP1 JUMP JUMPDEST DUP1 MLOAD ISZERO ISZERO SWAP2 POP PUSH2 0x2DA2 JUMP JUMPDEST PUSH4 0x4E487B71 PUSH1 0xE0 SHL DUP2 MSTORE PUSH1 0x21 PUSH1 0x4 MSTORE PUSH1 0x24 SWAP1 REVERT JUMPDEST SWAP1 SWAP2 PUSH1 0x4 DUP1 SLOAD SWAP2 PUSH2 0x2DE3 DUP4 PUSH2 0x282D JUMP JUMPDEST DUP3 SSTORE PUSH1 0x40 MLOAD PUSH2 0x2DF1 DUP2 PUSH2 0x26B6 JUMP JUMPDEST DUP4 DUP2 MSTORE PUSH1 0x20 SWAP2 DUP3 DUP3 ADD SWAP4 DUP7 DUP6 MSTORE PUSH1 0x40 DUP4 ADD SWAP3 PUSH1 0x1 DUP1 PUSH1 0xA0 SHL SUB DUP1 SWAP10 AND SWAP9 DUP10 DUP6 MSTORE PUSH1 0x60 DUP3 ADD SWAP5 PUSH1 0x1 SWAP6 DUP7 DUP2 MSTORE PUSH1 0x80 DUP5 ADD SWAP3 TIMESTAMP DUP5 MSTORE PUSH1 0xA0 DUP6 ADD SWAP7 DUP8 MSTORE PUSH1 0x0 SWAP10 DUP13 DUP12 MSTORE PUSH1 0x7 DUP11 MSTORE PUSH1 0x40 DUP12 KECCAK256 DUP1 SLOAD SWAP1 PUSH1 0x1 PUSH1 0x40 SHL DUP3 LT ISZERO PUSH2 0x2FE8 JUMPI DUP11 DUP3 ADD DUP1 DUP3 SSTORE DUP3 LT ISZERO PUSH2 0x2FD5 JUMPI DUP13 MSTORE PUSH1 0x5 DUP12 DUP14 KECCAK256 SWAP2 MUL ADD SWAP6 MLOAD DUP7 SSTORE MLOAD DUP9 DUP7 ADD SSTORE PUSH1 0x2 DUP6 ADD SWAP3 MLOAD AND PUSH1 0x1 PUSH1 0x1 PUSH1 0x60 SHL SUB PUSH1 0xA0 SHL DUP4 SLOAD AND OR DUP3 SSTORE MLOAD SWAP1 PUSH1 0x5 DUP3 LT ISZERO PUSH2 0x2FC2 JUMPI DUP5 SWAP4 SWAP3 SWAP2 PUSH2 0x2E98 SWAP2 PUSH2 0x2A9A JUMP JUMPDEST MLOAD PUSH1 0x3 DUP3 ADD SSTORE ADD SWAP2 MLOAD SWAP5 DUP6 MLOAD SWAP2 PUSH1 0x1 PUSH1 0x1 PUSH1 0x40 SHL SUB DUP4 GT PUSH2 0x2FAF JUMPI POP PUSH2 0x2EBE DUP4 SLOAD PUSH2 0x2ABE JUMP JUMPDEST PUSH1 0x1F DUP2 GT PUSH2 0x2F81 JUMPI JUMPDEST POP DUP5 SWAP1 PUSH1 0x1F DUP4 GT PUSH1 0x1 EQ PUSH2 0x2F14 JUMPI SWAP1 PUSH1 0x0 DUP1 MLOAD PUSH1 0x20 PUSH2 0x30C6 DUP4 CODECOPY DUP2 MLOAD SWAP2 MSTORE SWAP7 DUP4 PUSH2 0x2F09 JUMPI JUMPDEST POP POP PUSH1 0x0 NOT PUSH1 0x3 DUP4 SWAP1 SHL SHR NOT AND SWAP1 DUP4 SHL OR SWAP1 SSTORE JUMPDEST PUSH1 0x40 MLOAD SWAP1 DUP2 MSTORE LOG4 JUMP JUMPDEST ADD MLOAD SWAP1 POP CODESIZE DUP1 PUSH2 0x2EEC JUMP JUMPDEST SWAP6 PUSH1 0x1F NOT DUP4 AND DUP5 DUP9 MSTORE DUP7 DUP9 KECCAK256 SWAP8 JUMPDEST DUP2 DUP2 LT PUSH2 0x2F6C JUMPI POP SWAP2 PUSH1 0x0 DUP1 MLOAD PUSH1 0x20 PUSH2 0x30C6 DUP4 CODECOPY DUP2 MLOAD SWAP2 MSTORE SWAP8 SWAP2 DUP5 DUP8 SWAP6 SWAP5 LT PUSH2 0x2F53 JUMPI JUMPDEST POP POP POP DUP2 SHL ADD SWAP1 SSTORE PUSH2 0x2F00 JUMP JUMPDEST ADD MLOAD PUSH1 0x0 NOT PUSH1 0xF8 DUP5 PUSH1 0x3 SHL AND SHR NOT AND SWAP1 SSTORE CODESIZE DUP1 DUP1 PUSH2 0x2F46 JUMP JUMPDEST DUP3 DUP5 ADD MLOAD DUP10 SSTORE SWAP8 DUP7 ADD SWAP8 SWAP3 DUP8 ADD SWAP3 DUP8 ADD PUSH2 0x2F22 JUMP JUMPDEST PUSH2 0x2FA9 SWAP1 DUP5 DUP4 MSTORE DUP7 DUP4 KECCAK256 PUSH1 0x1F DUP6 ADD PUSH1 0x5 SHR DUP2 ADD SWAP2 DUP9 DUP7 LT PUSH2 0x445 JUMPI PUSH1 0x1F ADD PUSH1 0x5 SHR ADD SWAP1 PUSH2 0x2A60 JUMP JUMPDEST CODESIZE PUSH2 0x2EC7 JUMP JUMPDEST PUSH4 0x4E487B71 PUSH1 0xE0 SHL DUP3 MSTORE PUSH1 0x41 SWAP1 MSTORE PUSH1 0x24 SWAP1 REVERT JUMPDEST PUSH4 0x4E487B71 PUSH1 0xE0 SHL DUP10 MSTORE PUSH1 0x21 DUP6 MSTORE PUSH1 0x24 DUP10 REVERT JUMPDEST PUSH4 0x4E487B71 PUSH1 0xE0 SHL DUP14 MSTORE PUSH1 0x32 DUP10 MSTORE PUSH1 0x24 DUP14 REVERT JUMPDEST PUSH4 0x4E487B71 PUSH1 0xE0 SHL DUP14 MSTORE PUSH1 0x41 DUP10 MSTORE PUSH1 0x24 DUP14 REVERT JUMPDEST PUSH1 0x0 JUMPDEST PUSH1 0xA SWAP1 DUP2 SLOAD SWAP2 DUP3 DUP3 LT ISZERO PUSH2 0x286A JUMPI DUP4 SWAP3 PUSH2 0x3017 DUP4 PUSH2 0x27DE JUMP JUMPDEST SWAP6 SWAP1 SLOAD PUSH1 0x3 SWAP7 DUP8 SHL SHR EQ PUSH2 0x3037 JUMPI POP POP PUSH2 0x3032 SWAP2 SWAP3 POP PUSH2 0x282D JUMP JUMPDEST PUSH2 0x2FFE JUMP JUMPDEST SWAP1 SWAP3 POP PUSH1 0x0 NOT SWAP2 DUP3 DUP3 ADD SWAP2 DUP3 GT PUSH2 0x7CF JUMPI PUSH2 0xD0F PUSH2 0x3057 PUSH2 0x3063 SWAP4 PUSH2 0x27DE JUMP JUMPDEST SWAP1 SLOAD SWAP1 DUP8 SHL SHR SWAP2 PUSH2 0x27DE JUMP JUMPDEST DUP2 SLOAD DUP1 ISZERO PUSH2 0x7B9 JUMPI DUP2 ADD SWAP3 PUSH2 0x3077 DUP5 PUSH2 0x27DE JUMP JUMPDEST DUP2 SWAP4 SWAP2 SLOAD SWAP3 SHL SHL NOT AND SWAP1 SSTORE SSTORE JUMP INVALID 0xD3 0x29 SELFDESTRUCT DUP11 SUB 0x5C EXTCODECOPY 0xE5 0xDF 0x2B 0xD 0xAE PUSH1 0x4D PUSH7 0xC0D8783BF7E64 0xBE STOP 0xC1 0xD1 0xD 0xB9 PUSH13 0xB87B47D7FFB7A348E1C6A0286 SWAP1 DUP2 LOG2 PUSH6 0x47B49160DD3D 0xF7 0x2D SAR PUSH22 0xA570EB9B698292ECB381A55A8093012B20833FA61FC9 DUP1 PUSH8 0xEE6DBE063AB24F7A 0x26 0x22 MSTORE8 SELFBALANCE PUSH32 0xC75FEEA26469706673582212208BEE6C24E784A54BDE4FF732B171718277B12F 0xB8 0x4C PUSH4 0xC7E2933D LOG0 SIGNEXTEND 0xFB DUP14 0xE 0xB5 PUSH5 0x736F6C6343 STOP ADDMOD EQ STOP CALLER "},"methodIdentifiers":{"ADMIN_ROLE()":"75b238fc","EMPLOYEE_ROLE()":"2a4cab90","FINANCE_MANAGER_ROLE()":"8a780f65","OWNER_ROLE()":"e58378bb","approvePaymentRequest(uint256,string)":"b9a116bd","autoApprovalDelay()":"74e83f8f","autoApprove(uint256)":"b45d9412","canAutoApprove(uint256)":"d067493f","cancelPaymentRequest(uint256,string)":"1a0db0bc","createPaymentRequest(uint256[],address[],uint256[],address,string)":"ea1fb4c5","getAllRequestIds()":"ec1e6bd6","getApprovalHistory(uint256)":"d59b17b8","getPaymentRequest(uint256)":"b09fbe1a","getPendingRequests()":"80a1f712","getRequestsByStatus(uint8)":"a97c275b","getRoleMembers(bytes32)":"a3246ad3","getTotalRequests()":"f0e22d52","grantRole(bytes32,address)":"2f2ff15d","hasRole(bytes32,address)":"91d14854","markAsExecuted(uint256)":"741aea64","owner()":"8da5cb5b","rejectPaymentRequest(uint256,string)":"fe37969a","renounceRole(bytes32)":"8bb9c5bf","revokeRole(bytes32,address)":"d547741f","setAutoApprovalDelay(uint256)":"b0574b68","transferOwnership(address)":"f2fde38b"}}}}}