{"contracts/InvoiceManager.sol":{"InvoiceManager":{"abi":[{"inputs":[],"stateMutability":"nonpayable","type":"constructor"},{"anonymous":false,"inputs":[{"indexed":true,"internalType":"uint256","name":"invoiceId","type":"uint256"}],"name":"InvoiceCancelled","type":"event"},{"anonymous":false,"inputs":[{"indexed":true,"internalType":"uint256","name":"invoiceId","type":"uint256"},{"indexed":true,"internalType":"uint256","name":"employeeId","type":"uint256"},{"indexed":true,"internalType":"address","name":"employeeWallet","type":"address"},{"indexed":false,"internalType":"uint256","name":"amount","type":"uint256"},{"indexed":false,"internalType":"address","name":"token","type":"address"},{"indexed":false,"internalType":"uint256","name":"dueDate","type":"uint256"}],"name":"InvoiceCreated","type":"event"},{"anonymous":false,"inputs":[{"indexed":true,"internalType":"uint256","name":"invoiceId","type":"uint256"},{"indexed":true,"internalType":"uint256","name":"receiptId","type":"uint256"},{"indexed":false,"internalType":"bytes32","name":"transactionHash","type":"bytes32"},{"indexed":false,"internalType":"uint256","name":"paidAt","type":"uint256"}],"name":"InvoicePaid","type":"event"},{"anonymous":false,"inputs":[{"indexed":true,"internalType":"uint256","name":"invoiceId","type":"uint256"},{"indexed":false,"internalType":"enum InvoiceManager.InvoiceStatus","name":"oldStatus","type":"uint8"},{"indexed":false,"internalType":"enum InvoiceManager.InvoiceStatus","name":"newStatus","type":"uint8"}],"name":"InvoiceStatusChanged","type":"event"},{"anonymous":false,"inputs":[{"indexed":true,"internalType":"address","name":"previousOwner","type":"address"},{"indexed":true,"internalType":"address","name":"newOwner","type":"address"}],"name":"OwnershipTransferred","type":"event"},{"anonymous":false,"inputs":[{"indexed":true,"internalType":"uint256","name":"receiptId","type":"uint256"},{"indexed":true,"internalType":"uint256","name":"invoiceId","type":"uint256"},{"indexed":true,"internalType":"uint256","name":"employeeId","type":"uint256"},{"indexed":false,"internalType":"bytes32","name":"transactionHash","type":"bytes32"}],"name":"ReceiptGenerated","type":"event"},{"anonymous":false,"inputs":[{"indexed":true,"internalType":"bytes32","name":"role","type":"bytes32"},{"indexed":true,"internalType":"address","name":"account","type":"address"},{"indexed":true,"internalType":"address","name":"sender","type":"address"}],"name":"RoleGranted","type":"event"},{"anonymous":false,"inputs":[{"indexed":true,"internalType":"bytes32","name":"role","type":"bytes32"},{"indexed":true,"internalType":"address","name":"account","type":"address"},{"indexed":true,"internalType":"address","name":"sender","type":"address"}],"name":"RoleRevoked","type":"event"},{"inputs":[],"name":"ADMIN_ROLE","outputs":[{"internalType":"bytes32","name":"","type":"bytes32"}],"stateMutability":"view","type":"function"},{"inputs":[],"name":"EMPLOYEE_ROLE","outputs":[{"internalType":"bytes32","name":"","type":"bytes32"}],"stateMutability":"view","type":"function"},{"inputs":[],"name":"FINANCE_MANAGER_ROLE","outputs":[{"internalType":"bytes32","name":"","type":"bytes32"}],"stateMutability":"view","type":"function"},{"inputs":[],"name":"OWNER_ROLE","outputs":[{"internalType":"bytes32","name":"","type":"bytes32"}],"stateMutability":"view","type":"function"},{"inputs":[{"internalType":"uint256","name":"invoiceId","type":"uint256"}],"name":"cancelInvoice","outputs":[],"stateMutability":"nonpayable","type":"function"},{"inputs":[{"internalType":"uint256","name":"employeeId","type":"uint256"},{"internalType":"address","name":"employeeWallet","type":"address"},{"internalType":"uint256","name":"amount","type":"uint256"},{"internalType":"address","name":"token","type":"address"},{"internalType":"uint256","name":"dueDate","type":"uint256"},{"internalType":"string","name":"description","type":"string"}],"name":"createInvoice","outputs":[{"internalType":"uint256","name":"","type":"uint256"}],"stateMutability":"nonpayable","type":"function"},{"inputs":[],"name":"getAllInvoiceIds","outputs":[{"internalType":"uint256[]","name":"","type":"uint256[]"}],"stateMutability":"view","type":"function"},{"inputs":[],"name":"getAllReceiptIds","outputs":[{"internalType":"uint256[]","name":"","type":"uint256[]"}],"stateMutability":"view","type":"function"},{"inputs":[{"internalType":"uint256","name":"employeeId","type":"uint256"}],"name":"getEmployeeInvoices","outputs":[{"internalType":"uint256[]","name":"","type":"uint256[]"}],"stateMutability":"view","type":"function"},{"inputs":[{"internalType":"uint256","name":"employeeId","type":"uint256"}],"name":"getEmployeeReceipts","outputs":[{"internalType":"uint256[]","name":"","type":"uint256[]"}],"stateMutability":"view","type":"function"},{"inputs":[{"internalType":"uint256","name":"invoiceId","type":"uint256"}],"name":"getInvoice","outputs":[{"components":[{"internalType":"uint256","name":"invoiceId","type":"uint256"},{"internalType":"uint256","name":"employeeId","type":"uint256"},{"internalType":"address","name":"employeeWallet","type":"address"},{"internalType":"uint256","name":"amount","type":"uint256"},{"internalType":"address","name":"token","type":"address"},{"internalType":"enum InvoiceManager.InvoiceStatus","name":"status","type":"uint8"},{"internalType":"uint256","name":"createdAt","type":"uint256"},{"internalType":"uint256","name":"dueDate","type":"uint256"},{"internalType":"uint256","name":"paidAt","type":"uint256"},{"internalType":"bytes32","name":"transactionHash","type":"bytes32"},{"internalType":"string","name":"description","type":"string"}],"internalType":"struct InvoiceManager.Invoice","name":"","type":"tuple"}],"stateMutability":"view","type":"function"},{"inputs":[{"internalType":"uint256","name":"startDate","type":"uint256"},{"internalType":"uint256","name":"endDate","type":"uint256"}],"name":"getInvoicesByDateRange","outputs":[{"internalType":"uint256[]","name":"","type":"uint256[]"}],"stateMutability":"view","type":"function"},{"inputs":[{"internalType":"enum InvoiceManager.InvoiceStatus","name":"status","type":"uint8"}],"name":"getInvoicesByStatus","outputs":[{"internalType":"uint256[]","name":"","type":"uint256[]"}],"stateMutability":"view","type":"function"},{"inputs":[{"internalType":"uint256","name":"receiptId","type":"uint256"}],"name":"getReceipt","outputs":[{"components":[{"internalType":"uint256","name":"receiptId","type":"uint256"},{"internalType":"uint256","name":"invoiceId","type":"uint256"},{"internalType":"uint256","name":"employeeId","type":"uint256"},{"internalType":"address","name":"employeeWallet","type":"address"},{"internalType":"uint256","name":"amount","type":"uint256"},{"internalType":"address","name":"token","type":"address"},{"internalType":"uint256","name":"paidAt","type":"uint256"},{"internalType":"bytes32","name":"transactionHash","type":"bytes32"},{"internalType":"address","name":"paidBy","type":"address"}],"internalType":"struct InvoiceManager.Receipt","name":"","type":"tuple"}],"stateMutability":"view","type":"function"},{"inputs":[{"internalType":"bytes32","name":"transactionHash","type":"bytes32"}],"name":"getReceiptByTxHash","outputs":[{"components":[{"internalType":"uint256","name":"receiptId","type":"uint256"},{"internalType":"uint256","name":"invoiceId","type":"uint256"},{"internalType":"uint256","name":"employeeId","type":"uint256"},{"internalType":"address","name":"employeeWallet","type":"address"},{"internalType":"uint256","name":"amount","type":"uint256"},{"internalType":"address","name":"token","type":"address"},{"internalType":"uint256","name":"paidAt","type":"uint256"},{"internalType":"bytes32","name":"transactionHash","type":"bytes32"},{"internalType":"address","name":"paidBy","type":"address"}],"internalType":"struct InvoiceManager.Receipt","name":"","type":"tuple"}],"stateMutability":"view","type":"function"},{"inputs":[{"internalType":"uint256","name":"startDate","type":"uint256"},{"internalType":"uint256","name":"endDate","type":"uint256"}],"name":"getReceiptsByDateRange","outputs":[{"internalType":"uint256[]","name":"","type":"uint256[]"}],"stateMutability":"view","type":"function"},{"inputs":[{"internalType":"bytes32","name":"role","type":"bytes32"}],"name":"getRoleMembers","outputs":[{"internalType":"address[]","name":"","type":"address[]"}],"stateMutability":"view","type":"function"},{"inputs":[],"name":"getTotalInvoices","outputs":[{"internalType":"uint256","name":"","type":"uint256"}],"stateMutability":"view","type":"function"},{"inputs":[],"name":"getTotalReceipts","outputs":[{"internalType":"uint256","name":"","type":"uint256"}],"stateMutability":"view","type":"function"},{"inputs":[{"internalType":"bytes32","name":"role","type":"bytes32"},{"internalType":"address","name":"account","type":"address"}],"name":"grantRole","outputs":[],"stateMutability":"nonpayable","type":"function"},{"inputs":[{"internalType":"bytes32","name":"role","type":"bytes32"},{"internalType":"address","name":"account","type":"address"}],"name":"hasRole","outputs":[{"internalType":"bool","name":"","type":"bool"}],"stateMutability":"view","type":"function"},{"inputs":[{"internalType":"uint256","name":"invoiceId","type":"uint256"},{"internalType":"bytes32","name":"transactionHash","type":"bytes32"}],"name":"markInvoiceAsPaid","outputs":[{"internalType":"uint256","name":"","type":"uint256"}],"stateMutability":"nonpayable","type":"function"},{"inputs":[],"name":"owner","outputs":[{"internalType":"address","name":"","type":"address"}],"stateMutability":"view","type":"function"},{"inputs":[{"internalType":"bytes32","name":"role","type":"bytes32"}],"name":"renounceRole","outputs":[],"stateMutability":"nonpayable","type":"function"},{"inputs":[{"internalType":"bytes32","name":"role","type":"bytes32"},{"internalType":"address","name":"account","type":"address"}],"name":"revokeRole","outputs":[],"stateMutability":"nonpayable","type":"function"},{"inputs":[{"internalType":"address","name":"newOwner","type":"address"}],"name":"transferOwnership","outputs":[],"stateMutability":"nonpayable","type":"function"},{"inputs":[{"internalType":"uint256","name":"invoiceId","type":"uint256"},{"internalType":"enum InvoiceManager.InvoiceStatus","name":"newStatus","type":"uint8"}],"name":"updateInvoiceStatus","outputs":[],"stateMutability":"nonpayable","type":"function"}],"evm":{"bytecode":{"linkReferences":{},"object":"60806040818152346101285760018060a01b031990338260025416176002557fb19546dff01e856fb3f010c267a7b1c60363cf8a4664e21cc89c26224620214e91600091838352602090838252808420338552825260ff818520541615610079575b856001600355600160045561268590816200012e8239f35b8484528382528084203385528252808420600160ff198254161790558484526001825283209081549168010000000000000000831015610114576001830180825583101561010057845283200190339082541617905533917f2f8788117e7eff1d82e926ec794901d17c78024a50270940304540a733656f0d339280a43880808080610061565b634e487b7160e01b85526032600452602485fd5b634e487b7160e01b85526041600452602485fd5b600080fdfe608080604052600436101561001357600080fd5b60003560e01c9081630433386114611f94575080630478460f14611f7657806305b1479414611f0c5780632a4cab9014611ed15780632b8375d314611aef5780632f2ff15d146118df5780633a23cc0a1461177d5780634ba0b411146116665780634cd78efa1461143b57806373114f3c1461132257806375b238fc146112e757806376003926146112355780638a780f65146111fa5780638bb9c5bf146111dd5780638da5cb5b146111b457806391d148541461116757806397efc5d8146110ec5780639ebda53314610be1578063a3246ad314610b2f578063b63e6ac3146109ba578063ba7c743e14610944578063d547741f14610844578063d716e9ca14610826578063d9ad32c1146106f6578063da9c273d14610518578063e58378bb146104dd5763f2fde38b1461014857600080fd5b346104d8576020806003193601126104d8576004356001600160a01b0381811692918381036104d857600254928284169384330361048457851561042a5785906001600160601b0360a01b16176002557fb19546dff01e856fb3f010c267a7b1c60363cf8a4664e21cc89c26224620214e928360005260008252604060002085600052825260ff604060002054166102df575b508260005260008152604060002085600052815260ff6040600020541615610228575b5050507f8be0079c531659141344cd1fd0a4f28419497f9722a3daafe3b4186f6b6457e0600080a3005b6001908360005260008152604060002086600052815260406000208260ff198254161790558360005252604060002090815491600160401b8310156102c9578261027a9160016102999501815561215f565b90919082549060031b9160018060a01b03809116831b921b1916179055565b8233917f2f8788117e7eff1d82e926ec794901d17c78024a50270940304540a733656f0d600080a43880806101fe565b634e487b7160e01b600052604160045260246000fd5b9392919082600052600081526040600020846000528152604060002060ff19815416905582600052600194858252604060002090866000905b610353575b50505090919293503384847ff6391f5c32d9c69d2a47ea670b442974b53935d1edc7fd64eb21e047a839171b600080a4386101db565b8254808210156104245782908861036a848761215f565b939054600394851b1c161461038a57505061038490612177565b87610318565b9092939495969798506000199384820191821161040e576103bf936103b261027a938861215f565b9054911b1c16918561215f565b815480156103f85701906103eb6103d6838361215f565b81549060018060a01b039060031b1b19169055565b559083929138808061031d565b634e487b7160e01b600052603160045260246000fd5b634e487b7160e01b600052601160045260246000fd5b5061031d565b60405162461bcd60e51b815260048101839052602c60248201527f416363657373436f6e74726f6c3a206e6577206f776e6572206973207468652060448201526b7a65726f206164647265737360a01b6064820152608490fd5b60405162461bcd60e51b815260048101839052602660248201527f416363657373436f6e74726f6c3a2063616c6c6572206973206e6f74207468656044820152651037bbb732b960d11b6064820152608490fd5b600080fd5b346104d85760003660031901126104d85760206040517fb19546dff01e856fb3f010c267a7b1c60363cf8a4664e21cc89c26224620214e8152f35b346104d8576020806003193601126104d8576004357f572f022558b687eed59080237cb7778171198110a24741b57d6ed3432df881fc60005260008252604060002033600052825261057160ff604060002054166122d6565b806000526005825261058960406000205415156123bf565b8060005260058252600460406000200180549060ff8260a01c169160048310156106e0576002831461068857600383146106315760ff60a01b1916600360a01b17905560408051929384937f1bd9ff6dd5bac6bcdb836cff31ce376515b7ed6eebade1982ce3ab2d428d494893909160039161060690849061205c565b820152a27f2e9842040508f80e6420769a8673529eb3af5b952f53af83d9c9d3432da78046600080a2005b60405162461bcd60e51b815260048101869052602960248201527f496e766f6963654d616e616765723a20696e766f69636520616c72656164792060448201526818d85b98d95b1b195960ba1b6064820152608490fd5b60405162461bcd60e51b815260048101869052602a60248201527f496e766f6963654d616e616765723a2063616e6e6f742063616e63656c207061604482015269696420696e766f69636560b01b6064820152608490fd5b634e487b7160e01b600052602160045260246000fd5b346104d85761070436612069565b610710818311156125f8565b600b54906000805b8381106107c55750610729906125b2565b9260009060005b8481106107495760405180610745888261200b565b0390f35b61075281612128565b9054600391821b1c60005260068060205260406000200154858482101591826107ba575b505061078c575b5061078790612177565b610730565b81936107b39161079e61078794612128565b9054911b1c6107ad828a6125e4565b52612177565b929061077d565b111590508589610776565b6107ce81612128565b90549060031b1c600052600680602052604060002001548386821015918261081b575b5050610806575b61080190612177565b610718565b9061081361080191612177565b9190506107f8565b1115905083876107f1565b346104d85760003660031901126104d8576020600a54604051908152f35b346104d85760403660031901126104d85761085d612046565b3360009081527fd329ff8a035c3ce5df2b0dae604d660c0d8783bf7e64be00c1d10db96c0b87b4602052604090205460ff16801561090c575b156108a9576108a790600435612186565b005b60405162461bcd60e51b815260206004820152603560248201527f416363657373436f6e74726f6c3a206d757374206265206f776e6572206f722060448201527461646d696e20746f207265766f6b6520726f6c657360581b6064820152608490fd5b503360009081527f7d7ffb7a348e1c6a02869081a26547b49160dd3df72d1d75a570eb9b698292ec602052604090205460ff16610896565b346104d8576020806003193601126104d85760043560005260088152604060002090604051908181845491828152019360005281600020916000905b8282106109a35761074585610997818903826120b9565b6040519182918261200b565b835486529485019460019384019390910190610980565b346104d85760203660031901126104d8576004356109d6612555565b5080600052600660205260406000205415610adb576000526006602052610745604060002060405190610a088261207f565b805482526001810154602083015260028101546040830152600860018060a01b0391826003820154166060850152600481015460808501528260058201541660a0850152600681015460c0850152600781015460e08501520154166101008201526040519182918291909161012081019280518252602081015160208301526040810151604083015260018060a01b03806060830151166060840152608082015160808401528060a08301511660a084015260c082015160c084015260e082015160e08401526101008092015116910152565b60405162461bcd60e51b815260206004820152602660248201527f496e766f6963654d616e616765723a207265636569707420646f6573206e6f7460448201526508195e1a5cdd60d21b6064820152608490fd5b346104d8576020806003193601126104d85760043560005260019081815260406000209160405191828185549182815201908195600052826000209060005b818110610bc55750505083610b849103846120b9565b60405192818401908285525180915260408401949160005b828110610ba95785870386f35b83516001600160a01b0316875295810195928101928401610b9c565b82546001600160a01b0316845292840192918501918501610b6e565b346104d85760c03660031901126104d857610bfa612046565b6064356001600160a01b03811681036104d85767ffffffffffffffff60a435116104d85736602360a4350112156104d85767ffffffffffffffff60a43560040135116104d85736602460a4356004013560a4350101116104d8573360009081527fb0b4ebebfe6253ca64923e3c53f81360b506c7a8e002c8b4d138d245e76cf24f6020526040902054610c8f9060ff166122d6565b6001600160a01b03821615611097576044351561103957426084351115610fdd5760035490610cbd82612177565b600355604051610ccc8161209c565b828152600435602082015260018060a01b0384166040820152604435606082015260018060a01b0382166080820152600060a08201524260c082015260843560e082015260006101008201526000610120820152604051610d3d6020601f19601f60a43560040135011601826120b9565b60a43560048101358083529060240160208301376000602060a43560040135830101526101408201528260005260056020526040600020908051825560208101516001830155600282019060018060a01b03604082015116916001600160601b0360a01b928382541617905560608101516003840155600483019160018060a01b036080830151169083541617825560a08101519160048310156106e05761014092610de89161233c565b60c0810151600584015560e0810151600684015561010081015160078401556101208101516008840155015180519067ffffffffffffffff82116102c957610e336009840154612360565b601f8111610f96575b50602090601f8311600114610f28576009929160009183610f1d575b50508160011b916000199060031b1c1916179101555b6004356000526007602052610e8782604060002061239a565b600a5492600160401b8410156102c957610ec683610ead86600160209801600a556120db565b90919082549060031b91821b91600019901b1916179055565b60405191604435835260018060a01b031684830152608435604083015260018060a01b031690827f477905dc020254b6e1c96536799ac79bdbb73609eb6670eb0bb13ca99ef82380606060043593a4604051908152f35b015190508780610e58565b90601f198316916009850160005260206000209260005b818110610f7e57509160019391856009969410610f65575b505050811b01910155610e6e565b015160001960f88460031b161c19169055878080610f57565b92936020600181928786015181550195019301610f3f565b600984016000526020600020601f840160051c810160208510610fd6575b601f830160051c82018110610fca575050610e3c565b60008155600101610fb4565b5080610fb4565b60405162461bcd60e51b815260206004820152602e60248201527f496e766f6963654d616e616765723a206475652064617465206d75737420626560448201526d20696e207468652066757475726560901b6064820152608490fd5b60405162461bcd60e51b815260206004820152603060248201527f496e766f6963654d616e616765723a20616d6f756e74206d757374206265206760448201526f726561746572207468616e207a65726f60801b6064820152608490fd5b60405162461bcd60e51b815260206004820152602760248201527f496e766f6963654d616e616765723a20696e76616c696420656d706c6f796565604482015266081dd85b1b195d60ca1b6064820152608490fd5b346104d85760003660031901126104d85760405180600b5491828152602080910192600b6000527f0175b7a638427703f0dbe7bb9bbf987a2551717b34e79f33b5b1008d1fa01db9916000905b8282106111505761074585610997818903826120b9565b835486529485019460019384019390910190611139565b346104d85760403660031901126104d857611180612046565b600435600052600060205260406000209060018060a01b0316600052602052602060ff604060002054166040519015158152f35b346104d85760003660031901126104d8576002546040516001600160a01b039091168152602090f35b346104d85760203660031901126104d8576108a733600435612186565b346104d85760003660031901126104d85760206040517f572f022558b687eed59080237cb7778171198110a24741b57d6ed3432df881fc8152f35b346104d85760203660031901126104d85761124e612555565b5060043560005260096020526040600020548015611283576000526006602052610745604060002060405190610a088261207f565b60405162461bcd60e51b815260206004820152603660248201527f496e766f6963654d616e616765723a2072656365697074206e6f7420666f756e6044820152750c840ccdee440e8e4c2dce6c2c6e8d2dedc40d0c2e6d60531b6064820152608490fd5b346104d85760003660031901126104d85760206040517fa49807205ce4d355092ef5a8a18f56e8913cf4a201fbe287825b095693c217758152f35b346104d8576020806003193601126104d857600435600481101591826104d857600a54906000805b8381106113dc575061135b906125b2565b9260009060005b8481106113775760405180610745888261200b565b611380816120db565b9054600391821b1c600052600585528760ff60046040600020015460a01c16906106e05760048110156106e05783146113c3575b506113be90612177565b611362565b81936113d59161079e6113be946120db565b92906113b4565b6113e5816120db565b90549060031b1c600052600583528560ff60046040600020015460a01c16906106e05760048110156106e0578514611426575b61142190612177565b61134a565b9061143361142191612177565b919050611418565b346104d85760403660031901126104d85760043560243560048110156104d8573360009081527fb0b4ebebfe6253ca64923e3c53f81360b506c7a8e002c8b4d138d245e76cf24f602090815260409091205490919061149c9060ff166122d6565b82600052600582526114b460406000205415156123bf565b826000526005825260046040600020019160ff835460a01c169260048410156106e0576002841461160457600384146115995782841461153857827f1bd9ff6dd5bac6bcdb836cff31ce376515b7ed6eebade1982ce3ab2d428d494894926115216040956115359461233c565b61152d8551809561205c565b83019061205c565ba2005b60405162461bcd60e51b815260048101839052603360248201527f496e766f6963654d616e616765723a2073746174757320697320616c72656164604482015272792073657420746f20746869732076616c756560681b6064820152608490fd5b60405162461bcd60e51b815260048101839052603960248201527f496e766f6963654d616e616765723a2063616e6e6f74206368616e676520737460448201527f61747573206f662063616e63656c6c656420696e766f696365000000000000006064820152608490fd5b60405162461bcd60e51b815260048101839052603460248201527f496e766f6963654d616e616765723a2063616e6e6f74206368616e676520737460448201527361747573206f66207061696420696e766f69636560601b6064820152608490fd5b346104d85761167436612069565b611680818311156125f8565b600a54906000805b83811061171c5750611699906125b2565b9260009060005b8481106116b55760405180610745888261200b565b6116be816120db565b9054600391821b1c6000526005806020526040600020015485848210159182611711575b50506116f8575b506116f390612177565b6116a0565b819361170a9161079e6116f3946120db565b92906116e9565b1115905085896116e2565b611725816120db565b90549060031b1c6000526005806020526040600020015483868210159182611772575b505061175d575b61175890612177565b611688565b9061176a61175891612177565b91905061174f565b111590508387611748565b346104d8576020806003193601126104d8576004359060405161179f8161209c565b60008152600082820152600060408201526000606082015260006080820152600060a0820152600060c0820152600060e08201526101009260008483015261012090600082840152606061014080940152806000526005845261180860406000205415156123bf565b6000526005835261181c604060002061241a565b906040519484865282518587015284830151604087015260018060a01b038060408501511660608801526060840151608088015260808401511660a087015261186d60a084015160c088019061205c565b60c083015160e087015260e0830151818701528201518186015281015182850152015190610160808401528151918261018085015260005b8381106118ca57505050816101a0916000838284010152601f80199101168101030190f35b8181018301518582016101a0015282016118a5565b346104d85760403660031901126104d8576004356118fb612046565b3360009081527fd329ff8a035c3ce5df2b0dae604d660c0d8783bf7e64be00c1d10db96c0b87b4602090815260409091205490919060ff168015611aad575b15611a4b576001600160a01b0381169182156119ee578360005260008152604060002083600052815260ff604060002054161561197357005b6001908460005260008152604060002084600052815260406000208260ff198254161790558460005252604060002090815491600160401b8310156102c9578261027a9160016119c59501815561215f565b33917f2f8788117e7eff1d82e926ec794901d17c78024a50270940304540a733656f0d600080a4005b6084906040519062461bcd60e51b82526004820152603060248201527f416363657373436f6e74726f6c3a2063616e6e6f74206772616e7420726f6c6560448201526f20746f207a65726f206164647265737360801b6064820152fd5b60405162461bcd60e51b815260048101839052603460248201527f416363657373436f6e74726f6c3a206d757374206265206f776e6572206f722060448201527361646d696e20746f206772616e7420726f6c657360601b6064820152608490fd5b507fa49807205ce4d355092ef5a8a18f56e8913cf4a201fbe287825b095693c2177560005260008252604060002033600052825260ff6040600020541661193a565b346104d85760403660031901126104d8573360009081527fb0b4ebebfe6253ca64923e3c53f81360b506c7a8e002c8b4d138d245e76cf24f60209081526040909120546024906004359082359060ff168015611e8f575b15611e32578160005260058452611b6360406000205415156123bf565b8015611ddd578160005260058452604060002060048101805460ff8160a01c166004811015611dc857600103611d6a5760ff60a01b1916600160a11b17905542600782015560088101829055611bb89061241a565b9260045493611bc685612177565b6004558051918587830193845190600860018060a01b0391888c8460408a0151169560608a01518660808c0151169160405195611c028761207f565b8a87528487019081526040870191825260608701998a526080870192835260a08701938452600660c088019542875260e0890197885261010089019c8d339052600052526040600020965187555160018701555160028601558660038601985116976001600160601b0360a01b98898254161790555160048501558560058501915116878254161790555160068301555160078201550192511690825416179055825160005260088752611cba86604060002061239a565b836000526009875285604060002055600b5490600160401b821015611d565750927f2b69ace120cc6707ad2f7ef24f7526991402466db3103f224412ac9be9a8b84f92604092611d1688610ead886001839b9a01600b55612128565b51905190867fe0daaba6f78c25810d003fd843e02ee66c8f94bb745fafde90213f6de479ab478a8651868152a481519081524287820152a3604051908152f35b634e487b7160e01b60009081526041600452fd5b60405162461bcd60e51b8152600481018890526031818801527f496e766f6963654d616e616765723a20696e766f696365206d75737420626520604482015270696e2070656e64696e672073746174757360781b6064820152608490fd5b86634e487b7160e01b60005260216004526000fd5b60405162461bcd60e51b8152600481018590526028818501527f496e766f6963654d616e616765723a20696e76616c6964207472616e736163746044820152670d2dedc40d0c2e6d60c31b6064820152608490fd5b60405162461bcd60e51b8152600481018590526030818501527f496e766f6963654d616e616765723a206d7573742062652066696e616e63652060448201526f36b0b730b3b2b91037b91030b236b4b760811b6064820152608490fd5b507fa49807205ce4d355092ef5a8a18f56e8913cf4a201fbe287825b095693c2177560005260008452604060002033600052845260ff60406000205416611b46565b346104d85760003660031901126104d85760206040517f5a3425ea67e73c95853ecfc0c443062de292a303c186bc2aac1178ae1b86c62a8152f35b346104d8576020806003193601126104d85760043560005260078152604060002090604051908181845491828152019360005281600020916000905b828210611f5f5761074585610997818903826120b9565b835486529485019460019384019390910190611f48565b346104d85760003660031901126104d8576020600b54604051908152f35b346104d85760003660031901126104d857600a5490818152602080820192600a6000527fc65a7bb8d6351c1cf70c95a316cc6a92839c986682d98bc35f958f4883f9d2a8916000905b828210611ff45761074585610997818903826120b9565b835486529485019460019384019390910190611fdd565b6020908160408183019282815285518094520193019160005b828110612032575050505090565b835185529381019392810192600101612024565b602435906001600160a01b03821682036104d857565b9060048210156106e05752565b60409060031901126104d8576004359060243590565b610120810190811067ffffffffffffffff8211176102c957604052565b610160810190811067ffffffffffffffff8211176102c957604052565b90601f8019910116810190811067ffffffffffffffff8211176102c957604052565b600a5481101561211257600a6000527fc65a7bb8d6351c1cf70c95a316cc6a92839c986682d98bc35f958f4883f9d2a80190600090565b634e487b7160e01b600052603260045260246000fd5b600b5481101561211257600b6000527f0175b7a638427703f0dbe7bb9bbf987a2551717b34e79f33b5b1008d1fa01db90190600090565b80548210156121125760005260206000200190600090565b600019811461040e5760010190565b6000818152602081815260408083206001600160a01b0395861680855292528220549192909160ff166121ba575b50505050565b80835282602052604083208284526020526040832060ff1981541690558083526001938460205260408420908585905b612224575b505050909192507ff6391f5c32d9c69d2a47ea670b442974b53935d1edc7fd64eb21e047a839171b339380a4388080806121b4565b8254808210156122d057828661223a848761215f565b929054600393841b1c161461225a57505061225490612177565b866121ea565b90939495969750600092919219938481019081116122bc579161027a916103b261228595948861215f565b815480156122a857019061229c6103d6838361215f565b559082913880806121ef565b634e487b7160e01b86526031600452602486fd5b634e487b7160e01b89526011600452602489fd5b506121ef565b156122dd57565b60405162461bcd60e51b815260206004820152603160248201527f416363657373436f6e74726f6c3a2073656e64657220646f6573206e6f74206860448201527061766520726571756972656420726f6c6560781b6064820152608490fd5b9060048110156106e057815460ff60a01b191660a09190911b60ff60a01b16179055565b90600182811c92168015612390575b602083101461237a57565b634e487b7160e01b600052602260045260246000fd5b91607f169161236f565b90815491600160401b8310156102c95782610ead9160016123bd9501815561215f565b565b156123c657565b60405162461bcd60e51b815260206004820152602660248201527f496e766f6963654d616e616765723a20696e766f69636520646f6573206e6f7460448201526508195e1a5cdd60d21b6064820152608490fd5b90604051916124288361209c565b8281548152600180830154926020938484015260ff60018060a01b03806002840154166040860152600383015460608601526004830154908116608086015260a01c169060048210156106e05760099160a0850152600581015460c0850152600681015460e08501526007810154610100850152600881015461012085015201906040519384926000928154916124be83612360565b8087529282811690811561253357506001146124ed575b5050505061014092916124e99103846120b9565b0152565b60009081528381209695945091905b81831061251b575093945091925090820101816124e9610140386124d5565b865488840185015295860195879450918301916124fc565b60ff191685880152505050151560051b8301019050816124e9610140386124d5565b604051906125628261207f565b816101006000918281528260208201528260408201528260608201528260808201528260a08201528260c08201528260e08201520152565b67ffffffffffffffff81116102c95760051b60200190565b906125bc8261259a565b6125c960405191826120b9565b82815280926125da601f199161259a565b0190602036910137565b80518210156121125760209160051b010190565b156125ff57565b60405162461bcd60e51b815260206004820152602260248201527f496e766f6963654d616e616765723a20696e76616c696420646174652072616e604482015261676560f01b6064820152608490fdfea2646970667358221220fe93aa5d2832677a667f92ebd762eda0880e74bf4e25f1240bec34d7c8f5d0d664736f6c63430008140033","opcodes":"PUSH1 0x80 PUSH1 0x40 DUP2 DUP2 MSTORE CALLVALUE PUSH2 0x128 JUMPI PUSH1 0x1 DUP1 PUSH1 0xA0 SHL SUB NOT SWAP1 CALLER DUP3 PUSH1 0x2 SLOAD AND OR PUSH1 0x2 SSTORE PUSH32 0xB19546DFF01E856FB3F010C267A7B1C60363CF8A4664E21CC89C26224620214E SWAP2 PUSH1 0x0 SWAP2 DUP4 DUP4 MSTORE PUSH1 0x20 SWAP1 DUP4 DUP3 MSTORE DUP1 DUP5 KECCAK256 CALLER DUP6 MSTORE DUP3 MSTORE PUSH1 0xFF DUP2 DUP6 KECCAK256 SLOAD AND ISZERO PUSH2 0x79 JUMPI JUMPDEST DUP6 PUSH1 0x1 PUSH1 0x3 SSTORE PUSH1 0x1 PUSH1 0x4 SSTORE PUSH2 0x2685 SWAP1 DUP2 PUSH3 0x12E DUP3 CODECOPY RETURN JUMPDEST DUP5 DUP5 MSTORE DUP4 DUP3 MSTORE DUP1 DUP5 KECCAK256 CALLER DUP6 MSTORE DUP3 MSTORE DUP1 DUP5 KECCAK256 PUSH1 0x1 PUSH1 0xFF NOT DUP3 SLOAD AND OR SWAP1 SSTORE DUP5 DUP5 MSTORE PUSH1 0x1 DUP3 MSTORE DUP4 KECCAK256 SWAP1 DUP2 SLOAD SWAP2 PUSH9 0x10000000000000000 DUP4 LT ISZERO PUSH2 0x114 JUMPI PUSH1 0x1 DUP4 ADD DUP1 DUP3 SSTORE DUP4 LT ISZERO PUSH2 0x100 JUMPI DUP5 MSTORE DUP4 KECCAK256 ADD SWAP1 CALLER SWAP1 DUP3 SLOAD AND OR SWAP1 SSTORE CALLER SWAP2 PUSH32 0x2F8788117E7EFF1D82E926EC794901D17C78024A50270940304540A733656F0D CALLER SWAP3 DUP1 LOG4 CODESIZE DUP1 DUP1 DUP1 DUP1 PUSH2 0x61 JUMP JUMPDEST PUSH4 0x4E487B71 PUSH1 0xE0 SHL DUP6 MSTORE PUSH1 0x32 PUSH1 0x4 MSTORE PUSH1 0x24 DUP6 REVERT JUMPDEST PUSH4 0x4E487B71 PUSH1 0xE0 SHL DUP6 MSTORE PUSH1 0x41 PUSH1 0x4 MSTORE PUSH1 0x24 DUP6 REVERT JUMPDEST PUSH1 0x0 DUP1 REVERT INVALID PUSH1 0x80 DUP1 PUSH1 0x40 MSTORE PUSH1 0x4 CALLDATASIZE LT ISZERO PUSH2 0x13 JUMPI PUSH1 0x0 DUP1 REVERT JUMPDEST PUSH1 0x0 CALLDATALOAD PUSH1 0xE0 SHR SWAP1 DUP2 PUSH4 0x4333861 EQ PUSH2 0x1F94 JUMPI POP DUP1 PUSH4 0x478460F EQ PUSH2 0x1F76 JUMPI DUP1 PUSH4 0x5B14794 EQ PUSH2 0x1F0C JUMPI DUP1 PUSH4 0x2A4CAB90 EQ PUSH2 0x1ED1 JUMPI DUP1 PUSH4 0x2B8375D3 EQ PUSH2 0x1AEF JUMPI DUP1 PUSH4 0x2F2FF15D EQ PUSH2 0x18DF JUMPI DUP1 PUSH4 0x3A23CC0A EQ PUSH2 0x177D JUMPI DUP1 PUSH4 0x4BA0B411 EQ PUSH2 0x1666 JUMPI DUP1 PUSH4 0x4CD78EFA EQ PUSH2 0x143B JUMPI DUP1 PUSH4 0x73114F3C EQ PUSH2 0x1322 JUMPI DUP1 PUSH4 0x75B238FC EQ PUSH2 0x12E7 JUMPI DUP1 PUSH4 0x76003926 EQ PUSH2 0x1235 JUMPI DUP1 PUSH4 0x8A780F65 EQ PUSH2 0x11FA JUMPI DUP1 PUSH4 0x8BB9C5BF EQ PUSH2 0x11DD JUMPI DUP1 PUSH4 0x8DA5CB5B EQ PUSH2 0x11B4 JUMPI DUP1 PUSH4 0x91D14854 EQ PUSH2 0x1167 JUMPI DUP1 PUSH4 0x97EFC5D8 EQ PUSH2 0x10EC JUMPI DUP1 PUSH4 0x9EBDA533 EQ PUSH2 0xBE1 JUMPI DUP1 PUSH4 0xA3246AD3 EQ PUSH2 0xB2F JUMPI DUP1 PUSH4 0xB63E6AC3 EQ PUSH2 0x9BA JUMPI DUP1 PUSH4 0xBA7C743E EQ PUSH2 0x944 JUMPI DUP1 PUSH4 0xD547741F EQ PUSH2 0x844 JUMPI DUP1 PUSH4 0xD716E9CA EQ PUSH2 0x826 JUMPI DUP1 PUSH4 0xD9AD32C1 EQ PUSH2 0x6F6 JUMPI DUP1 PUSH4 0xDA9C273D EQ PUSH2 0x518 JUMPI DUP1 PUSH4 0xE58378BB EQ PUSH2 0x4DD JUMPI PUSH4 0xF2FDE38B EQ PUSH2 0x148 JUMPI PUSH1 0x0 DUP1 REVERT JUMPDEST CALLVALUE PUSH2 0x4D8 JUMPI PUSH1 0x20 DUP1 PUSH1 0x3 NOT CALLDATASIZE ADD SLT PUSH2 0x4D8 JUMPI PUSH1 0x4 CALLDATALOAD PUSH1 0x1 PUSH1 0x1 PUSH1 0xA0 SHL SUB DUP2 DUP2 AND SWAP3 SWAP2 DUP4 DUP2 SUB PUSH2 0x4D8 JUMPI PUSH1 0x2 SLOAD SWAP3 DUP3 DUP5 AND SWAP4 DUP5 CALLER SUB PUSH2 0x484 JUMPI DUP6 ISZERO PUSH2 0x42A JUMPI DUP6 SWAP1 PUSH1 0x1 PUSH1 0x1 PUSH1 0x60 SHL SUB PUSH1 0xA0 SHL AND OR PUSH1 0x2 SSTORE PUSH32 0xB19546DFF01E856FB3F010C267A7B1C60363CF8A4664E21CC89C26224620214E SWAP3 DUP4 PUSH1 0x0 MSTORE PUSH1 0x0 DUP3 MSTORE PUSH1 0x40 PUSH1 0x0 KECCAK256 DUP6 PUSH1 0x0 MSTORE DUP3 MSTORE PUSH1 0xFF PUSH1 0x40 PUSH1 0x0 KECCAK256 SLOAD AND PUSH2 0x2DF JUMPI JUMPDEST POP DUP3 PUSH1 0x0 MSTORE PUSH1 0x0 DUP2 MSTORE PUSH1 0x40 PUSH1 0x0 KECCAK256 DUP6 PUSH1 0x0 MSTORE DUP2 MSTORE PUSH1 0xFF PUSH1 0x40 PUSH1 0x0 KECCAK256 SLOAD AND ISZERO PUSH2 0x228 JUMPI JUMPDEST POP POP POP PUSH32 0x8BE0079C531659141344CD1FD0A4F28419497F9722A3DAAFE3B4186F6B6457E0 PUSH1 0x0 DUP1 LOG3 STOP JUMPDEST PUSH1 0x1 SWAP1 DUP4 PUSH1 0x0 MSTORE PUSH1 0x0 DUP2 MSTORE PUSH1 0x40 PUSH1 0x0 KECCAK256 DUP7 PUSH1 0x0 MSTORE DUP2 MSTORE PUSH1 0x40 PUSH1 0x0 KECCAK256 DUP3 PUSH1 0xFF NOT DUP3 SLOAD AND OR SWAP1 SSTORE DUP4 PUSH1 0x0 MSTORE MSTORE PUSH1 0x40 PUSH1 0x0 KECCAK256 SWAP1 DUP2 SLOAD SWAP2 PUSH1 0x1 PUSH1 0x40 SHL DUP4 LT ISZERO PUSH2 0x2C9 JUMPI DUP3 PUSH2 0x27A SWAP2 PUSH1 0x1 PUSH2 0x299 SWAP6 ADD DUP2 SSTORE PUSH2 0x215F JUMP JUMPDEST SWAP1 SWAP2 SWAP1 DUP3 SLOAD SWAP1 PUSH1 0x3 SHL SWAP2 PUSH1 0x1 DUP1 PUSH1 0xA0 SHL SUB DUP1 SWAP2 AND DUP4 SHL SWAP3 SHL NOT AND OR SWAP1 SSTORE JUMP JUMPDEST DUP3 CALLER SWAP2 PUSH32 0x2F8788117E7EFF1D82E926EC794901D17C78024A50270940304540A733656F0D PUSH1 0x0 DUP1 LOG4 CODESIZE DUP1 DUP1 PUSH2 0x1FE JUMP JUMPDEST PUSH4 0x4E487B71 PUSH1 0xE0 SHL PUSH1 0x0 MSTORE PUSH1 0x41 PUSH1 0x4 MSTORE PUSH1 0x24 PUSH1 0x0 REVERT JUMPDEST SWAP4 SWAP3 SWAP2 SWAP1 DUP3 PUSH1 0x0 MSTORE PUSH1 0x0 DUP2 MSTORE PUSH1 0x40 PUSH1 0x0 KECCAK256 DUP5 PUSH1 0x0 MSTORE DUP2 MSTORE PUSH1 0x40 PUSH1 0x0 KECCAK256 PUSH1 0xFF NOT DUP2 SLOAD AND SWAP1 SSTORE DUP3 PUSH1 0x0 MSTORE PUSH1 0x1 SWAP5 DUP6 DUP3 MSTORE PUSH1 0x40 PUSH1 0x0 KECCAK256 SWAP1 DUP7 PUSH1 0x0 SWAP1 JUMPDEST PUSH2 0x353 JUMPI JUMPDEST POP POP POP SWAP1 SWAP2 SWAP3 SWAP4 POP CALLER DUP5 DUP5 PUSH32 0xF6391F5C32D9C69D2A47EA670B442974B53935D1EDC7FD64EB21E047A839171B PUSH1 0x0 DUP1 LOG4 CODESIZE PUSH2 0x1DB JUMP JUMPDEST DUP3 SLOAD DUP1 DUP3 LT ISZERO PUSH2 0x424 JUMPI DUP3 SWAP1 DUP9 PUSH2 0x36A DUP5 DUP8 PUSH2 0x215F JUMP JUMPDEST SWAP4 SWAP1 SLOAD PUSH1 0x3 SWAP5 DUP6 SHL SHR AND EQ PUSH2 0x38A JUMPI POP POP PUSH2 0x384 SWAP1 PUSH2 0x2177 JUMP JUMPDEST DUP8 PUSH2 0x318 JUMP JUMPDEST SWAP1 SWAP3 SWAP4 SWAP5 SWAP6 SWAP7 SWAP8 SWAP9 POP PUSH1 0x0 NOT SWAP4 DUP5 DUP3 ADD SWAP2 DUP3 GT PUSH2 0x40E JUMPI PUSH2 0x3BF SWAP4 PUSH2 0x3B2 PUSH2 0x27A SWAP4 DUP9 PUSH2 0x215F JUMP JUMPDEST SWAP1 SLOAD SWAP2 SHL SHR AND SWAP2 DUP6 PUSH2 0x215F JUMP JUMPDEST DUP2 SLOAD DUP1 ISZERO PUSH2 0x3F8 JUMPI ADD SWAP1 PUSH2 0x3EB PUSH2 0x3D6 DUP4 DUP4 PUSH2 0x215F JUMP JUMPDEST DUP2 SLOAD SWAP1 PUSH1 0x1 DUP1 PUSH1 0xA0 SHL SUB SWAP1 PUSH1 0x3 SHL SHL NOT AND SWAP1 SSTORE JUMP JUMPDEST SSTORE SWAP1 DUP4 SWAP3 SWAP2 CODESIZE DUP1 DUP1 PUSH2 0x31D JUMP JUMPDEST PUSH4 0x4E487B71 PUSH1 0xE0 SHL PUSH1 0x0 MSTORE PUSH1 0x31 PUSH1 0x4 MSTORE PUSH1 0x24 PUSH1 0x0 REVERT JUMPDEST PUSH4 0x4E487B71 PUSH1 0xE0 SHL PUSH1 0x0 MSTORE PUSH1 0x11 PUSH1 0x4 MSTORE PUSH1 0x24 PUSH1 0x0 REVERT JUMPDEST POP PUSH2 0x31D JUMP JUMPDEST PUSH1 0x40 MLOAD PUSH3 0x461BCD PUSH1 0xE5 SHL DUP2 MSTORE PUSH1 0x4 DUP2 ADD DUP4 SWAP1 MSTORE PUSH1 0x2C PUSH1 0x24 DUP3 ADD MSTORE PUSH32 0x416363657373436F6E74726F6C3A206E6577206F776E65722069732074686520 PUSH1 0x44 DUP3 ADD MSTORE PUSH12 0x7A65726F2061646472657373 PUSH1 0xA0 SHL PUSH1 0x64 DUP3 ADD MSTORE PUSH1 0x84 SWAP1 REVERT JUMPDEST PUSH1 0x40 MLOAD PUSH3 0x461BCD PUSH1 0xE5 SHL DUP2 MSTORE PUSH1 0x4 DUP2 ADD DUP4 SWAP1 MSTORE PUSH1 0x26 PUSH1 0x24 DUP3 ADD MSTORE PUSH32 0x416363657373436F6E74726F6C3A2063616C6C6572206973206E6F7420746865 PUSH1 0x44 DUP3 ADD MSTORE PUSH6 0x1037BBB732B9 PUSH1 0xD1 SHL PUSH1 0x64 DUP3 ADD MSTORE PUSH1 0x84 SWAP1 REVERT JUMPDEST PUSH1 0x0 DUP1 REVERT JUMPDEST CALLVALUE PUSH2 0x4D8 JUMPI PUSH1 0x0 CALLDATASIZE PUSH1 0x3 NOT ADD SLT PUSH2 0x4D8 JUMPI PUSH1 0x20 PUSH1 0x40 MLOAD PUSH32 0xB19546DFF01E856FB3F010C267A7B1C60363CF8A4664E21CC89C26224620214E DUP2 MSTORE RETURN JUMPDEST CALLVALUE PUSH2 0x4D8 JUMPI PUSH1 0x20 DUP1 PUSH1 0x3 NOT CALLDATASIZE ADD SLT PUSH2 0x4D8 JUMPI PUSH1 0x4 CALLDATALOAD PUSH32 0x572F022558B687EED59080237CB7778171198110A24741B57D6ED3432DF881FC PUSH1 0x0 MSTORE PUSH1 0x0 DUP3 MSTORE PUSH1 0x40 PUSH1 0x0 KECCAK256 CALLER PUSH1 0x0 MSTORE DUP3 MSTORE PUSH2 0x571 PUSH1 0xFF PUSH1 0x40 PUSH1 0x0 KECCAK256 SLOAD AND PUSH2 0x22D6 JUMP JUMPDEST DUP1 PUSH1 0x0 MSTORE PUSH1 0x5 DUP3 MSTORE PUSH2 0x589 PUSH1 0x40 PUSH1 0x0 KECCAK256 SLOAD ISZERO ISZERO PUSH2 0x23BF JUMP JUMPDEST DUP1 PUSH1 0x0 MSTORE PUSH1 0x5 DUP3 MSTORE PUSH1 0x4 PUSH1 0x40 PUSH1 0x0 KECCAK256 ADD DUP1 SLOAD SWAP1 PUSH1 0xFF DUP3 PUSH1 0xA0 SHR AND SWAP2 PUSH1 0x4 DUP4 LT ISZERO PUSH2 0x6E0 JUMPI PUSH1 0x2 DUP4 EQ PUSH2 0x688 JUMPI PUSH1 0x3 DUP4 EQ PUSH2 0x631 JUMPI PUSH1 0xFF PUSH1 0xA0 SHL NOT AND PUSH1 0x3 PUSH1 0xA0 SHL OR SWAP1 SSTORE PUSH1 0x40 DUP1 MLOAD SWAP3 SWAP4 DUP5 SWAP4 PUSH32 0x1BD9FF6DD5BAC6BCDB836CFF31CE376515B7ED6EEBADE1982CE3AB2D428D4948 SWAP4 SWAP1 SWAP2 PUSH1 0x3 SWAP2 PUSH2 0x606 SWAP1 DUP5 SWAP1 PUSH2 0x205C JUMP JUMPDEST DUP3 ADD MSTORE LOG2 PUSH32 0x2E9842040508F80E6420769A8673529EB3AF5B952F53AF83D9C9D3432DA78046 PUSH1 0x0 DUP1 LOG2 STOP JUMPDEST PUSH1 0x40 MLOAD PUSH3 0x461BCD PUSH1 0xE5 SHL DUP2 MSTORE PUSH1 0x4 DUP2 ADD DUP7 SWAP1 MSTORE PUSH1 0x29 PUSH1 0x24 DUP3 ADD MSTORE PUSH32 0x496E766F6963654D616E616765723A20696E766F69636520616C726561647920 PUSH1 0x44 DUP3 ADD MSTORE PUSH9 0x18D85B98D95B1B1959 PUSH1 0xBA SHL PUSH1 0x64 DUP3 ADD MSTORE PUSH1 0x84 SWAP1 REVERT JUMPDEST PUSH1 0x40 MLOAD PUSH3 0x461BCD PUSH1 0xE5 SHL DUP2 MSTORE PUSH1 0x4 DUP2 ADD DUP7 SWAP1 MSTORE PUSH1 0x2A PUSH1 0x24 DUP3 ADD MSTORE PUSH32 0x496E766F6963654D616E616765723A2063616E6E6F742063616E63656C207061 PUSH1 0x44 DUP3 ADD MSTORE PUSH10 0x696420696E766F696365 PUSH1 0xB0 SHL PUSH1 0x64 DUP3 ADD MSTORE PUSH1 0x84 SWAP1 REVERT JUMPDEST PUSH4 0x4E487B71 PUSH1 0xE0 SHL PUSH1 0x0 MSTORE PUSH1 0x21 PUSH1 0x4 MSTORE PUSH1 0x24 PUSH1 0x0 REVERT JUMPDEST CALLVALUE PUSH2 0x4D8 JUMPI PUSH2 0x704 CALLDATASIZE PUSH2 0x2069 JUMP JUMPDEST PUSH2 0x710 DUP2 DUP4 GT ISZERO PUSH2 0x25F8 JUMP JUMPDEST PUSH1 0xB SLOAD SWAP1 PUSH1 0x0 DUP1 JUMPDEST DUP4 DUP2 LT PUSH2 0x7C5 JUMPI POP PUSH2 0x729 SWAP1 PUSH2 0x25B2 JUMP JUMPDEST SWAP3 PUSH1 0x0 SWAP1 PUSH1 0x0 JUMPDEST DUP5 DUP2 LT PUSH2 0x749 JUMPI PUSH1 0x40 MLOAD DUP1 PUSH2 0x745 DUP9 DUP3 PUSH2 0x200B JUMP JUMPDEST SUB SWAP1 RETURN JUMPDEST PUSH2 0x752 DUP2 PUSH2 0x2128 JUMP JUMPDEST SWAP1 SLOAD PUSH1 0x3 SWAP2 DUP3 SHL SHR PUSH1 0x0 MSTORE PUSH1 0x6 DUP1 PUSH1 0x20 MSTORE PUSH1 0x40 PUSH1 0x0 KECCAK256 ADD SLOAD DUP6 DUP5 DUP3 LT ISZERO SWAP2 DUP3 PUSH2 0x7BA JUMPI JUMPDEST POP POP PUSH2 0x78C JUMPI JUMPDEST POP PUSH2 0x787 SWAP1 PUSH2 0x2177 JUMP JUMPDEST PUSH2 0x730 JUMP JUMPDEST DUP2 SWAP4 PUSH2 0x7B3 SWAP2 PUSH2 0x79E PUSH2 0x787 SWAP5 PUSH2 0x2128 JUMP JUMPDEST SWAP1 SLOAD SWAP2 SHL SHR PUSH2 0x7AD DUP3 DUP11 PUSH2 0x25E4 JUMP JUMPDEST MSTORE PUSH2 0x2177 JUMP JUMPDEST SWAP3 SWAP1 PUSH2 0x77D JUMP JUMPDEST GT ISZERO SWAP1 POP DUP6 DUP10 PUSH2 0x776 JUMP JUMPDEST PUSH2 0x7CE DUP2 PUSH2 0x2128 JUMP JUMPDEST SWAP1 SLOAD SWAP1 PUSH1 0x3 SHL SHR PUSH1 0x0 MSTORE PUSH1 0x6 DUP1 PUSH1 0x20 MSTORE PUSH1 0x40 PUSH1 0x0 KECCAK256 ADD SLOAD DUP4 DUP7 DUP3 LT ISZERO SWAP2 DUP3 PUSH2 0x81B JUMPI JUMPDEST POP POP PUSH2 0x806 JUMPI JUMPDEST PUSH2 0x801 SWAP1 PUSH2 0x2177 JUMP JUMPDEST PUSH2 0x718 JUMP JUMPDEST SWAP1 PUSH2 0x813 PUSH2 0x801 SWAP2 PUSH2 0x2177 JUMP JUMPDEST SWAP2 SWAP1 POP PUSH2 0x7F8 JUMP JUMPDEST GT ISZERO SWAP1 POP DUP4 DUP8 PUSH2 0x7F1 JUMP JUMPDEST CALLVALUE PUSH2 0x4D8 JUMPI PUSH1 0x0 CALLDATASIZE PUSH1 0x3 NOT ADD SLT PUSH2 0x4D8 JUMPI PUSH1 0x20 PUSH1 0xA SLOAD PUSH1 0x40 MLOAD SWAP1 DUP2 MSTORE RETURN JUMPDEST CALLVALUE PUSH2 0x4D8 JUMPI PUSH1 0x40 CALLDATASIZE PUSH1 0x3 NOT ADD SLT PUSH2 0x4D8 JUMPI PUSH2 0x85D PUSH2 0x2046 JUMP JUMPDEST CALLER PUSH1 0x0 SWAP1 DUP2 MSTORE PUSH32 0xD329FF8A035C3CE5DF2B0DAE604D660C0D8783BF7E64BE00C1D10DB96C0B87B4 PUSH1 0x20 MSTORE PUSH1 0x40 SWAP1 KECCAK256 SLOAD PUSH1 0xFF AND DUP1 ISZERO PUSH2 0x90C JUMPI JUMPDEST ISZERO PUSH2 0x8A9 JUMPI PUSH2 0x8A7 SWAP1 PUSH1 0x4 CALLDATALOAD PUSH2 0x2186 JUMP JUMPDEST STOP JUMPDEST PUSH1 0x40 MLOAD PUSH3 0x461BCD PUSH1 0xE5 SHL DUP2 MSTORE PUSH1 0x20 PUSH1 0x4 DUP3 ADD MSTORE PUSH1 0x35 PUSH1 0x24 DUP3 ADD MSTORE PUSH32 0x416363657373436F6E74726F6C3A206D757374206265206F776E6572206F7220 PUSH1 0x44 DUP3 ADD MSTORE PUSH21 0x61646D696E20746F207265766F6B6520726F6C6573 PUSH1 0x58 SHL PUSH1 0x64 DUP3 ADD MSTORE PUSH1 0x84 SWAP1 REVERT JUMPDEST POP CALLER PUSH1 0x0 SWAP1 DUP2 MSTORE PUSH32 0x7D7FFB7A348E1C6A02869081A26547B49160DD3DF72D1D75A570EB9B698292EC PUSH1 0x20 MSTORE PUSH1 0x40 SWAP1 KECCAK256 SLOAD PUSH1 0xFF AND PUSH2 0x896 JUMP JUMPDEST CALLVALUE PUSH2 0x4D8 JUMPI PUSH1 0x20 DUP1 PUSH1 0x3 NOT CALLDATASIZE ADD SLT PUSH2 0x4D8 JUMPI PUSH1 0x4 CALLDATALOAD PUSH1 0x0 MSTORE PUSH1 0x8 DUP2 MSTORE PUSH1 0x40 PUSH1 0x0 KECCAK256 SWAP1 PUSH1 0x40 MLOAD SWAP1 DUP2 DUP2 DUP5 SLOAD SWAP2 DUP3 DUP2 MSTORE ADD SWAP4 PUSH1 0x0 MSTORE DUP2 PUSH1 0x0 KECCAK256 SWAP2 PUSH1 0x0 SWAP1 JUMPDEST DUP3 DUP3 LT PUSH2 0x9A3 JUMPI PUSH2 0x745 DUP6 PUSH2 0x997 DUP2 DUP10 SUB DUP3 PUSH2 0x20B9 JUMP JUMPDEST PUSH1 0x40 MLOAD SWAP2 DUP3 SWAP2 DUP3 PUSH2 0x200B JUMP JUMPDEST DUP4 SLOAD DUP7 MSTORE SWAP5 DUP6 ADD SWAP5 PUSH1 0x1 SWAP4 DUP5 ADD SWAP4 SWAP1 SWAP2 ADD SWAP1 PUSH2 0x980 JUMP JUMPDEST CALLVALUE PUSH2 0x4D8 JUMPI PUSH1 0x20 CALLDATASIZE PUSH1 0x3 NOT ADD SLT PUSH2 0x4D8 JUMPI PUSH1 0x4 CALLDATALOAD PUSH2 0x9D6 PUSH2 0x2555 JUMP JUMPDEST POP DUP1 PUSH1 0x0 MSTORE PUSH1 0x6 PUSH1 0x20 MSTORE PUSH1 0x40 PUSH1 0x0 KECCAK256 SLOAD ISZERO PUSH2 0xADB JUMPI PUSH1 0x0 MSTORE PUSH1 0x6 PUSH1 0x20 MSTORE PUSH2 0x745 PUSH1 0x40 PUSH1 0x0 KECCAK256 PUSH1 0x40 MLOAD SWAP1 PUSH2 0xA08 DUP3 PUSH2 0x207F JUMP JUMPDEST DUP1 SLOAD DUP3 MSTORE PUSH1 0x1 DUP2 ADD SLOAD PUSH1 0x20 DUP4 ADD MSTORE PUSH1 0x2 DUP2 ADD SLOAD PUSH1 0x40 DUP4 ADD MSTORE PUSH1 0x8 PUSH1 0x1 DUP1 PUSH1 0xA0 SHL SUB SWAP2 DUP3 PUSH1 0x3 DUP3 ADD SLOAD AND PUSH1 0x60 DUP6 ADD MSTORE PUSH1 0x4 DUP2 ADD SLOAD PUSH1 0x80 DUP6 ADD MSTORE DUP3 PUSH1 0x5 DUP3 ADD SLOAD AND PUSH1 0xA0 DUP6 ADD MSTORE PUSH1 0x6 DUP2 ADD SLOAD PUSH1 0xC0 DUP6 ADD MSTORE PUSH1 0x7 DUP2 ADD SLOAD PUSH1 0xE0 DUP6 ADD MSTORE ADD SLOAD AND PUSH2 0x100 DUP3 ADD MSTORE PUSH1 0x40 MLOAD SWAP2 DUP3 SWAP2 DUP3 SWAP2 SWAP1 SWAP2 PUSH2 0x120 DUP2 ADD SWAP3 DUP1 MLOAD DUP3 MSTORE PUSH1 0x20 DUP2 ADD MLOAD PUSH1 0x20 DUP4 ADD MSTORE PUSH1 0x40 DUP2 ADD MLOAD PUSH1 0x40 DUP4 ADD MSTORE PUSH1 0x1 DUP1 PUSH1 0xA0 SHL SUB DUP1 PUSH1 0x60 DUP4 ADD MLOAD AND PUSH1 0x60 DUP5 ADD MSTORE PUSH1 0x80 DUP3 ADD MLOAD PUSH1 0x80 DUP5 ADD MSTORE DUP1 PUSH1 0xA0 DUP4 ADD MLOAD AND PUSH1 0xA0 DUP5 ADD MSTORE PUSH1 0xC0 DUP3 ADD MLOAD PUSH1 0xC0 DUP5 ADD MSTORE PUSH1 0xE0 DUP3 ADD MLOAD PUSH1 0xE0 DUP5 ADD MSTORE PUSH2 0x100 DUP1 SWAP3 ADD MLOAD AND SWAP2 ADD MSTORE JUMP JUMPDEST PUSH1 0x40 MLOAD PUSH3 0x461BCD PUSH1 0xE5 SHL DUP2 MSTORE PUSH1 0x20 PUSH1 0x4 DUP3 ADD MSTORE PUSH1 0x26 PUSH1 0x24 DUP3 ADD MSTORE PUSH32 0x496E766F6963654D616E616765723A207265636569707420646F6573206E6F74 PUSH1 0x44 DUP3 ADD MSTORE PUSH6 0x8195E1A5CDD PUSH1 0xD2 SHL PUSH1 0x64 DUP3 ADD MSTORE PUSH1 0x84 SWAP1 REVERT JUMPDEST CALLVALUE PUSH2 0x4D8 JUMPI PUSH1 0x20 DUP1 PUSH1 0x3 NOT CALLDATASIZE ADD SLT PUSH2 0x4D8 JUMPI PUSH1 0x4 CALLDATALOAD PUSH1 0x0 MSTORE PUSH1 0x1 SWAP1 DUP2 DUP2 MSTORE PUSH1 0x40 PUSH1 0x0 KECCAK256 SWAP2 PUSH1 0x40 MLOAD SWAP2 DUP3 DUP2 DUP6 SLOAD SWAP2 DUP3 DUP2 MSTORE ADD SWAP1 DUP2 SWAP6 PUSH1 0x0 MSTORE DUP3 PUSH1 0x0 KECCAK256 SWAP1 PUSH1 0x0 JUMPDEST DUP2 DUP2 LT PUSH2 0xBC5 JUMPI POP POP POP DUP4 PUSH2 0xB84 SWAP2 SUB DUP5 PUSH2 0x20B9 JUMP JUMPDEST PUSH1 0x40 MLOAD SWAP3 DUP2 DUP5 ADD SWAP1 DUP3 DUP6 MSTORE MLOAD DUP1 SWAP2 MSTORE PUSH1 0x40 DUP5 ADD SWAP5 SWAP2 PUSH1 0x0 JUMPDEST DUP3 DUP2 LT PUSH2 0xBA9 JUMPI DUP6 DUP8 SUB DUP7 RETURN JUMPDEST DUP4 MLOAD PUSH1 0x1 PUSH1 0x1 PUSH1 0xA0 SHL SUB AND DUP8 MSTORE SWAP6 DUP2 ADD SWAP6 SWAP3 DUP2 ADD SWAP3 DUP5 ADD PUSH2 0xB9C JUMP JUMPDEST DUP3 SLOAD PUSH1 0x1 PUSH1 0x1 PUSH1 0xA0 SHL SUB AND DUP5 MSTORE SWAP3 DUP5 ADD SWAP3 SWAP2 DUP6 ADD SWAP2 DUP6 ADD PUSH2 0xB6E JUMP JUMPDEST CALLVALUE PUSH2 0x4D8 JUMPI PUSH1 0xC0 CALLDATASIZE PUSH1 0x3 NOT ADD SLT PUSH2 0x4D8 JUMPI PUSH2 0xBFA PUSH2 0x2046 JUMP JUMPDEST PUSH1 0x64 CALLDATALOAD PUSH1 0x1 PUSH1 0x1 PUSH1 0xA0 SHL SUB DUP2 AND DUP2 SUB PUSH2 0x4D8 JUMPI PUSH8 0xFFFFFFFFFFFFFFFF PUSH1 0xA4 CALLDATALOAD GT PUSH2 0x4D8 JUMPI CALLDATASIZE PUSH1 0x23 PUSH1 0xA4 CALLDATALOAD ADD SLT ISZERO PUSH2 0x4D8 JUMPI PUSH8 0xFFFFFFFFFFFFFFFF PUSH1 0xA4 CALLDATALOAD PUSH1 0x4 ADD CALLDATALOAD GT PUSH2 0x4D8 JUMPI CALLDATASIZE PUSH1 0x24 PUSH1 0xA4 CALLDATALOAD PUSH1 0x4 ADD CALLDATALOAD PUSH1 0xA4 CALLDATALOAD ADD ADD GT PUSH2 0x4D8 JUMPI CALLER PUSH1 0x0 SWAP1 DUP2 MSTORE PUSH32 0xB0B4EBEBFE6253CA64923E3C53F81360B506C7A8E002C8B4D138D245E76CF24F PUSH1 0x20 MSTORE PUSH1 0x40 SWAP1 KECCAK256 SLOAD PUSH2 0xC8F SWAP1 PUSH1 0xFF AND PUSH2 0x22D6 JUMP JUMPDEST PUSH1 0x1 PUSH1 0x1 PUSH1 0xA0 SHL SUB DUP3 AND ISZERO PUSH2 0x1097 JUMPI PUSH1 0x44 CALLDATALOAD ISZERO PUSH2 0x1039 JUMPI TIMESTAMP PUSH1 0x84 CALLDATALOAD GT ISZERO PUSH2 0xFDD JUMPI PUSH1 0x3 SLOAD SWAP1 PUSH2 0xCBD DUP3 PUSH2 0x2177 JUMP JUMPDEST PUSH1 0x3 SSTORE PUSH1 0x40 MLOAD PUSH2 0xCCC DUP2 PUSH2 0x209C JUMP JUMPDEST DUP3 DUP2 MSTORE PUSH1 0x4 CALLDATALOAD PUSH1 0x20 DUP3 ADD MSTORE PUSH1 0x1 DUP1 PUSH1 0xA0 SHL SUB DUP5 AND PUSH1 0x40 DUP3 ADD MSTORE PUSH1 0x44 CALLDATALOAD PUSH1 0x60 DUP3 ADD MSTORE PUSH1 0x1 DUP1 PUSH1 0xA0 SHL SUB DUP3 AND PUSH1 0x80 DUP3 ADD MSTORE PUSH1 0x0 PUSH1 0xA0 DUP3 ADD MSTORE TIMESTAMP PUSH1 0xC0 DUP3 ADD MSTORE PUSH1 0x84 CALLDATALOAD PUSH1 0xE0 DUP3 ADD MSTORE PUSH1 0x0 PUSH2 0x100 DUP3 ADD MSTORE PUSH1 0x0 PUSH2 0x120 DUP3 ADD MSTORE PUSH1 0x40 MLOAD PUSH2 0xD3D PUSH1 0x20 PUSH1 0x1F NOT PUSH1 0x1F PUSH1 0xA4 CALLDATALOAD PUSH1 0x4 ADD CALLDATALOAD ADD AND ADD DUP3 PUSH2 0x20B9 JUMP JUMPDEST PUSH1 0xA4 CALLDATALOAD PUSH1 0x4 DUP2 ADD CALLDATALOAD DUP1 DUP4 MSTORE SWAP1 PUSH1 0x24 ADD PUSH1 0x20 DUP4 ADD CALLDATACOPY PUSH1 0x0 PUSH1 0x20 PUSH1 0xA4 CALLDATALOAD PUSH1 0x4 ADD CALLDATALOAD DUP4 ADD ADD MSTORE PUSH2 0x140 DUP3 ADD MSTORE DUP3 PUSH1 0x0 MSTORE PUSH1 0x5 PUSH1 0x20 MSTORE PUSH1 0x40 PUSH1 0x0 KECCAK256 SWAP1 DUP1 MLOAD DUP3 SSTORE PUSH1 0x20 DUP2 ADD MLOAD PUSH1 0x1 DUP4 ADD SSTORE PUSH1 0x2 DUP3 ADD SWAP1 PUSH1 0x1 DUP1 PUSH1 0xA0 SHL SUB PUSH1 0x40 DUP3 ADD MLOAD AND SWAP2 PUSH1 0x1 PUSH1 0x1 PUSH1 0x60 SHL SUB PUSH1 0xA0 SHL SWAP3 DUP4 DUP3 SLOAD AND OR SWAP1 SSTORE PUSH1 0x60 DUP2 ADD MLOAD PUSH1 0x3 DUP5 ADD SSTORE PUSH1 0x4 DUP4 ADD SWAP2 PUSH1 0x1 DUP1 PUSH1 0xA0 SHL SUB PUSH1 0x80 DUP4 ADD MLOAD AND SWAP1 DUP4 SLOAD AND OR DUP3 SSTORE PUSH1 0xA0 DUP2 ADD MLOAD SWAP2 PUSH1 0x4 DUP4 LT ISZERO PUSH2 0x6E0 JUMPI PUSH2 0x140 SWAP3 PUSH2 0xDE8 SWAP2 PUSH2 0x233C JUMP JUMPDEST PUSH1 0xC0 DUP2 ADD MLOAD PUSH1 0x5 DUP5 ADD SSTORE PUSH1 0xE0 DUP2 ADD MLOAD PUSH1 0x6 DUP5 ADD SSTORE PUSH2 0x100 DUP2 ADD MLOAD PUSH1 0x7 DUP5 ADD SSTORE PUSH2 0x120 DUP2 ADD MLOAD PUSH1 0x8 DUP5 ADD SSTORE ADD MLOAD DUP1 MLOAD SWAP1 PUSH8 0xFFFFFFFFFFFFFFFF DUP3 GT PUSH2 0x2C9 JUMPI PUSH2 0xE33 PUSH1 0x9 DUP5 ADD SLOAD PUSH2 0x2360 JUMP JUMPDEST PUSH1 0x1F DUP2 GT PUSH2 0xF96 JUMPI JUMPDEST POP PUSH1 0x20 SWAP1 PUSH1 0x1F DUP4 GT PUSH1 0x1 EQ PUSH2 0xF28 JUMPI PUSH1 0x9 SWAP3 SWAP2 PUSH1 0x0 SWAP2 DUP4 PUSH2 0xF1D JUMPI JUMPDEST POP POP DUP2 PUSH1 0x1 SHL SWAP2 PUSH1 0x0 NOT SWAP1 PUSH1 0x3 SHL SHR NOT AND OR SWAP2 ADD SSTORE JUMPDEST PUSH1 0x4 CALLDATALOAD PUSH1 0x0 MSTORE PUSH1 0x7 PUSH1 0x20 MSTORE PUSH2 0xE87 DUP3 PUSH1 0x40 PUSH1 0x0 KECCAK256 PUSH2 0x239A JUMP JUMPDEST PUSH1 0xA SLOAD SWAP3 PUSH1 0x1 PUSH1 0x40 SHL DUP5 LT ISZERO PUSH2 0x2C9 JUMPI PUSH2 0xEC6 DUP4 PUSH2 0xEAD DUP7 PUSH1 0x1 PUSH1 0x20 SWAP9 ADD PUSH1 0xA SSTORE PUSH2 0x20DB JUMP JUMPDEST SWAP1 SWAP2 SWAP1 DUP3 SLOAD SWAP1 PUSH1 0x3 SHL SWAP2 DUP3 SHL SWAP2 PUSH1 0x0 NOT SWAP1 SHL NOT AND OR SWAP1 SSTORE JUMP JUMPDEST PUSH1 0x40 MLOAD SWAP2 PUSH1 0x44 CALLDATALOAD DUP4 MSTORE PUSH1 0x1 DUP1 PUSH1 0xA0 SHL SUB AND DUP5 DUP4 ADD MSTORE PUSH1 0x84 CALLDATALOAD PUSH1 0x40 DUP4 ADD MSTORE PUSH1 0x1 DUP1 PUSH1 0xA0 SHL SUB AND SWAP1 DUP3 PUSH32 0x477905DC020254B6E1C96536799AC79BDBB73609EB6670EB0BB13CA99EF82380 PUSH1 0x60 PUSH1 0x4 CALLDATALOAD SWAP4 LOG4 PUSH1 0x40 MLOAD SWAP1 DUP2 MSTORE RETURN JUMPDEST ADD MLOAD SWAP1 POP DUP8 DUP1 PUSH2 0xE58 JUMP JUMPDEST SWAP1 PUSH1 0x1F NOT DUP4 AND SWAP2 PUSH1 0x9 DUP6 ADD PUSH1 0x0 MSTORE PUSH1 0x20 PUSH1 0x0 KECCAK256 SWAP3 PUSH1 0x0 JUMPDEST DUP2 DUP2 LT PUSH2 0xF7E JUMPI POP SWAP2 PUSH1 0x1 SWAP4 SWAP2 DUP6 PUSH1 0x9 SWAP7 SWAP5 LT PUSH2 0xF65 JUMPI JUMPDEST POP POP POP DUP2 SHL ADD SWAP2 ADD SSTORE PUSH2 0xE6E JUMP JUMPDEST ADD MLOAD PUSH1 0x0 NOT PUSH1 0xF8 DUP5 PUSH1 0x3 SHL AND SHR NOT AND SWAP1 SSTORE DUP8 DUP1 DUP1 PUSH2 0xF57 JUMP JUMPDEST SWAP3 SWAP4 PUSH1 0x20 PUSH1 0x1 DUP2 SWAP3 DUP8 DUP7 ADD MLOAD DUP2 SSTORE ADD SWAP6 ADD SWAP4 ADD PUSH2 0xF3F JUMP JUMPDEST PUSH1 0x9 DUP5 ADD PUSH1 0x0 MSTORE PUSH1 0x20 PUSH1 0x0 KECCAK256 PUSH1 0x1F DUP5 ADD PUSH1 0x5 SHR DUP2 ADD PUSH1 0x20 DUP6 LT PUSH2 0xFD6 JUMPI JUMPDEST PUSH1 0x1F DUP4 ADD PUSH1 0x5 SHR DUP3 ADD DUP2 LT PUSH2 0xFCA JUMPI POP POP PUSH2 0xE3C JUMP JUMPDEST PUSH1 0x0 DUP2 SSTORE PUSH1 0x1 ADD PUSH2 0xFB4 JUMP JUMPDEST POP DUP1 PUSH2 0xFB4 JUMP JUMPDEST PUSH1 0x40 MLOAD PUSH3 0x461BCD PUSH1 0xE5 SHL DUP2 MSTORE PUSH1 0x20 PUSH1 0x4 DUP3 ADD MSTORE PUSH1 0x2E PUSH1 0x24 DUP3 ADD MSTORE PUSH32 0x496E766F6963654D616E616765723A206475652064617465206D757374206265 PUSH1 0x44 DUP3 ADD MSTORE PUSH14 0x20696E2074686520667574757265 PUSH1 0x90 SHL PUSH1 0x64 DUP3 ADD MSTORE PUSH1 0x84 SWAP1 REVERT JUMPDEST PUSH1 0x40 MLOAD PUSH3 0x461BCD PUSH1 0xE5 SHL DUP2 MSTORE PUSH1 0x20 PUSH1 0x4 DUP3 ADD MSTORE PUSH1 0x30 PUSH1 0x24 DUP3 ADD MSTORE PUSH32 0x496E766F6963654D616E616765723A20616D6F756E74206D7573742062652067 PUSH1 0x44 DUP3 ADD MSTORE PUSH16 0x726561746572207468616E207A65726F PUSH1 0x80 SHL PUSH1 0x64 DUP3 ADD MSTORE PUSH1 0x84 SWAP1 REVERT JUMPDEST PUSH1 0x40 MLOAD PUSH3 0x461BCD PUSH1 0xE5 SHL DUP2 MSTORE PUSH1 0x20 PUSH1 0x4 DUP3 ADD MSTORE PUSH1 0x27 PUSH1 0x24 DUP3 ADD MSTORE PUSH32 0x496E766F6963654D616E616765723A20696E76616C696420656D706C6F796565 PUSH1 0x44 DUP3 ADD MSTORE PUSH7 0x81DD85B1B195D PUSH1 0xCA SHL PUSH1 0x64 DUP3 ADD MSTORE PUSH1 0x84 SWAP1 REVERT JUMPDEST CALLVALUE PUSH2 0x4D8 JUMPI PUSH1 0x0 CALLDATASIZE PUSH1 0x3 NOT ADD SLT PUSH2 0x4D8 JUMPI PUSH1 0x40 MLOAD DUP1 PUSH1 0xB SLOAD SWAP2 DUP3 DUP2 MSTORE PUSH1 0x20 DUP1 SWAP2 ADD SWAP3 PUSH1 0xB PUSH1 0x0 MSTORE PUSH32 0x175B7A638427703F0DBE7BB9BBF987A2551717B34E79F33B5B1008D1FA01DB9 SWAP2 PUSH1 0x0 SWAP1 JUMPDEST DUP3 DUP3 LT PUSH2 0x1150 JUMPI PUSH2 0x745 DUP6 PUSH2 0x997 DUP2 DUP10 SUB DUP3 PUSH2 0x20B9 JUMP JUMPDEST DUP4 SLOAD DUP7 MSTORE SWAP5 DUP6 ADD SWAP5 PUSH1 0x1 SWAP4 DUP5 ADD SWAP4 SWAP1 SWAP2 ADD SWAP1 PUSH2 0x1139 JUMP JUMPDEST CALLVALUE PUSH2 0x4D8 JUMPI PUSH1 0x40 CALLDATASIZE PUSH1 0x3 NOT ADD SLT PUSH2 0x4D8 JUMPI PUSH2 0x1180 PUSH2 0x2046 JUMP JUMPDEST PUSH1 0x4 CALLDATALOAD PUSH1 0x0 MSTORE PUSH1 0x0 PUSH1 0x20 MSTORE PUSH1 0x40 PUSH1 0x0 KECCAK256 SWAP1 PUSH1 0x1 DUP1 PUSH1 0xA0 SHL SUB AND PUSH1 0x0 MSTORE PUSH1 0x20 MSTORE PUSH1 0x20 PUSH1 0xFF PUSH1 0x40 PUSH1 0x0 KECCAK256 SLOAD AND PUSH1 0x40 MLOAD SWAP1 ISZERO ISZERO DUP2 MSTORE RETURN JUMPDEST CALLVALUE PUSH2 0x4D8 JUMPI PUSH1 0x0 CALLDATASIZE PUSH1 0x3 NOT ADD SLT PUSH2 0x4D8 JUMPI PUSH1 0x2 SLOAD PUSH1 0x40 MLOAD PUSH1 0x1 PUSH1 0x1 PUSH1 0xA0 SHL SUB SWAP1 SWAP2 AND DUP2 MSTORE PUSH1 0x20 SWAP1 RETURN JUMPDEST CALLVALUE PUSH2 0x4D8 JUMPI PUSH1 0x20 CALLDATASIZE PUSH1 0x3 NOT ADD SLT PUSH2 0x4D8 JUMPI PUSH2 0x8A7 CALLER PUSH1 0x4 CALLDATALOAD PUSH2 0x2186 JUMP JUMPDEST CALLVALUE PUSH2 0x4D8 JUMPI PUSH1 0x0 CALLDATASIZE PUSH1 0x3 NOT ADD SLT PUSH2 0x4D8 JUMPI PUSH1 0x20 PUSH1 0x40 MLOAD PUSH32 0x572F022558B687EED59080237CB7778171198110A24741B57D6ED3432DF881FC DUP2 MSTORE RETURN JUMPDEST CALLVALUE PUSH2 0x4D8 JUMPI PUSH1 0x20 CALLDATASIZE PUSH1 0x3 NOT ADD SLT PUSH2 0x4D8 JUMPI PUSH2 0x124E PUSH2 0x2555 JUMP JUMPDEST POP PUSH1 0x4 CALLDATALOAD PUSH1 0x0 MSTORE PUSH1 0x9 PUSH1 0x20 MSTORE PUSH1 0x40 PUSH1 0x0 KECCAK256 SLOAD DUP1 ISZERO PUSH2 0x1283 JUMPI PUSH1 0x0 MSTORE PUSH1 0x6 PUSH1 0x20 MSTORE PUSH2 0x745 PUSH1 0x40 PUSH1 0x0 KECCAK256 PUSH1 0x40 MLOAD SWAP1 PUSH2 0xA08 DUP3 PUSH2 0x207F JUMP JUMPDEST PUSH1 0x40 MLOAD PUSH3 0x461BCD PUSH1 0xE5 SHL DUP2 MSTORE PUSH1 0x20 PUSH1 0x4 DUP3 ADD MSTORE PUSH1 0x36 PUSH1 0x24 DUP3 ADD MSTORE PUSH32 0x496E766F6963654D616E616765723A2072656365697074206E6F7420666F756E PUSH1 0x44 DUP3 ADD MSTORE PUSH22 0xC840CCDEE440E8E4C2DCE6C2C6E8D2DEDC40D0C2E6D PUSH1 0x53 SHL PUSH1 0x64 DUP3 ADD MSTORE PUSH1 0x84 SWAP1 REVERT JUMPDEST CALLVALUE PUSH2 0x4D8 JUMPI PUSH1 0x0 CALLDATASIZE PUSH1 0x3 NOT ADD SLT PUSH2 0x4D8 JUMPI PUSH1 0x20 PUSH1 0x40 MLOAD PUSH32 0xA49807205CE4D355092EF5A8A18F56E8913CF4A201FBE287825B095693C21775 DUP2 MSTORE RETURN JUMPDEST CALLVALUE PUSH2 0x4D8 JUMPI PUSH1 0x20 DUP1 PUSH1 0x3 NOT CALLDATASIZE ADD SLT PUSH2 0x4D8 JUMPI PUSH1 0x4 CALLDATALOAD PUSH1 0x4 DUP2 LT ISZERO SWAP2 DUP3 PUSH2 0x4D8 JUMPI PUSH1 0xA SLOAD SWAP1 PUSH1 0x0 DUP1 JUMPDEST DUP4 DUP2 LT PUSH2 0x13DC JUMPI POP PUSH2 0x135B SWAP1 PUSH2 0x25B2 JUMP JUMPDEST SWAP3 PUSH1 0x0 SWAP1 PUSH1 0x0 JUMPDEST DUP5 DUP2 LT PUSH2 0x1377 JUMPI PUSH1 0x40 MLOAD DUP1 PUSH2 0x745 DUP9 DUP3 PUSH2 0x200B JUMP JUMPDEST PUSH2 0x1380 DUP2 PUSH2 0x20DB JUMP JUMPDEST SWAP1 SLOAD PUSH1 0x3 SWAP2 DUP3 SHL SHR PUSH1 0x0 MSTORE PUSH1 0x5 DUP6 MSTORE DUP8 PUSH1 0xFF PUSH1 0x4 PUSH1 0x40 PUSH1 0x0 KECCAK256 ADD SLOAD PUSH1 0xA0 SHR AND SWAP1 PUSH2 0x6E0 JUMPI PUSH1 0x4 DUP2 LT ISZERO PUSH2 0x6E0 JUMPI DUP4 EQ PUSH2 0x13C3 JUMPI JUMPDEST POP PUSH2 0x13BE SWAP1 PUSH2 0x2177 JUMP JUMPDEST PUSH2 0x1362 JUMP JUMPDEST DUP2 SWAP4 PUSH2 0x13D5 SWAP2 PUSH2 0x79E PUSH2 0x13BE SWAP5 PUSH2 0x20DB JUMP JUMPDEST SWAP3 SWAP1 PUSH2 0x13B4 JUMP JUMPDEST PUSH2 0x13E5 DUP2 PUSH2 0x20DB JUMP JUMPDEST SWAP1 SLOAD SWAP1 PUSH1 0x3 SHL SHR PUSH1 0x0 MSTORE PUSH1 0x5 DUP4 MSTORE DUP6 PUSH1 0xFF PUSH1 0x4 PUSH1 0x40 PUSH1 0x0 KECCAK256 ADD SLOAD PUSH1 0xA0 SHR AND SWAP1 PUSH2 0x6E0 JUMPI PUSH1 0x4 DUP2 LT ISZERO PUSH2 0x6E0 JUMPI DUP6 EQ PUSH2 0x1426 JUMPI JUMPDEST PUSH2 0x1421 SWAP1 PUSH2 0x2177 JUMP JUMPDEST PUSH2 0x134A JUMP JUMPDEST SWAP1 PUSH2 0x1433 PUSH2 0x1421 SWAP2 PUSH2 0x2177 JUMP JUMPDEST SWAP2 SWAP1 POP PUSH2 0x1418 JUMP JUMPDEST CALLVALUE PUSH2 0x4D8 JUMPI PUSH1 0x40 CALLDATASIZE PUSH1 0x3 NOT ADD SLT PUSH2 0x4D8 JUMPI PUSH1 0x4 CALLDATALOAD PUSH1 0x24 CALLDATALOAD PUSH1 0x4 DUP2 LT ISZERO PUSH2 0x4D8 JUMPI CALLER PUSH1 0x0 SWAP1 DUP2 MSTORE PUSH32 0xB0B4EBEBFE6253CA64923E3C53F81360B506C7A8E002C8B4D138D245E76CF24F PUSH1 0x20 SWAP1 DUP2 MSTORE PUSH1 0x40 SWAP1 SWAP2 KECCAK256 SLOAD SWAP1 SWAP2 SWAP1 PUSH2 0x149C SWAP1 PUSH1 0xFF AND PUSH2 0x22D6 JUMP JUMPDEST DUP3 PUSH1 0x0 MSTORE PUSH1 0x5 DUP3 MSTORE PUSH2 0x14B4 PUSH1 0x40 PUSH1 0x0 KECCAK256 SLOAD ISZERO ISZERO PUSH2 0x23BF JUMP JUMPDEST DUP3 PUSH1 0x0 MSTORE PUSH1 0x5 DUP3 MSTORE PUSH1 0x4 PUSH1 0x40 PUSH1 0x0 KECCAK256 ADD SWAP2 PUSH1 0xFF DUP4 SLOAD PUSH1 0xA0 SHR AND SWAP3 PUSH1 0x4 DUP5 LT ISZERO PUSH2 0x6E0 JUMPI PUSH1 0x2 DUP5 EQ PUSH2 0x1604 JUMPI PUSH1 0x3 DUP5 EQ PUSH2 0x1599 JUMPI DUP3 DUP5 EQ PUSH2 0x1538 JUMPI DUP3 PUSH32 0x1BD9FF6DD5BAC6BCDB836CFF31CE376515B7ED6EEBADE1982CE3AB2D428D4948 SWAP5 SWAP3 PUSH2 0x1521 PUSH1 0x40 SWAP6 PUSH2 0x1535 SWAP5 PUSH2 0x233C JUMP JUMPDEST PUSH2 0x152D DUP6 MLOAD DUP1 SWAP6 PUSH2 0x205C JUMP JUMPDEST DUP4 ADD SWAP1 PUSH2 0x205C JUMP JUMPDEST LOG2 STOP JUMPDEST PUSH1 0x40 MLOAD PUSH3 0x461BCD PUSH1 0xE5 SHL DUP2 MSTORE PUSH1 0x4 DUP2 ADD DUP4 SWAP1 MSTORE PUSH1 0x33 PUSH1 0x24 DUP3 ADD MSTORE PUSH32 0x496E766F6963654D616E616765723A2073746174757320697320616C72656164 PUSH1 0x44 DUP3 ADD MSTORE PUSH19 0x792073657420746F20746869732076616C7565 PUSH1 0x68 SHL PUSH1 0x64 DUP3 ADD MSTORE PUSH1 0x84 SWAP1 REVERT JUMPDEST PUSH1 0x40 MLOAD PUSH3 0x461BCD PUSH1 0xE5 SHL DUP2 MSTORE PUSH1 0x4 DUP2 ADD DUP4 SWAP1 MSTORE PUSH1 0x39 PUSH1 0x24 DUP3 ADD MSTORE PUSH32 0x496E766F6963654D616E616765723A2063616E6E6F74206368616E6765207374 PUSH1 0x44 DUP3 ADD MSTORE PUSH32 0x61747573206F662063616E63656C6C656420696E766F69636500000000000000 PUSH1 0x64 DUP3 ADD MSTORE PUSH1 0x84 SWAP1 REVERT JUMPDEST PUSH1 0x40 MLOAD PUSH3 0x461BCD PUSH1 0xE5 SHL DUP2 MSTORE PUSH1 0x4 DUP2 ADD DUP4 SWAP1 MSTORE PUSH1 0x34 PUSH1 0x24 DUP3 ADD MSTORE PUSH32 0x496E766F6963654D616E616765723A2063616E6E6F74206368616E6765207374 PUSH1 0x44 DUP3 ADD MSTORE PUSH20 0x61747573206F66207061696420696E766F696365 PUSH1 0x60 SHL PUSH1 0x64 DUP3 ADD MSTORE PUSH1 0x84 SWAP1 REVERT JUMPDEST CALLVALUE PUSH2 0x4D8 JUMPI PUSH2 0x1674 CALLDATASIZE PUSH2 0x2069 JUMP JUMPDEST PUSH2 0x1680 DUP2 DUP4 GT ISZERO PUSH2 0x25F8 JUMP JUMPDEST PUSH1 0xA SLOAD SWAP1 PUSH1 0x0 DUP1 JUMPDEST DUP4 DUP2 LT PUSH2 0x171C JUMPI POP PUSH2 0x1699 SWAP1 PUSH2 0x25B2 JUMP JUMPDEST SWAP3 PUSH1 0x0 SWAP1 PUSH1 0x0 JUMPDEST DUP5 DUP2 LT PUSH2 0x16B5 JUMPI PUSH1 0x40 MLOAD DUP1 PUSH2 0x745 DUP9 DUP3 PUSH2 0x200B JUMP JUMPDEST PUSH2 0x16BE DUP2 PUSH2 0x20DB JUMP JUMPDEST SWAP1 SLOAD PUSH1 0x3 SWAP2 DUP3 SHL SHR PUSH1 0x0 MSTORE PUSH1 0x5 DUP1 PUSH1 0x20 MSTORE PUSH1 0x40 PUSH1 0x0 KECCAK256 ADD SLOAD DUP6 DUP5 DUP3 LT ISZERO SWAP2 DUP3 PUSH2 0x1711 JUMPI JUMPDEST POP POP PUSH2 0x16F8 JUMPI JUMPDEST POP PUSH2 0x16F3 SWAP1 PUSH2 0x2177 JUMP JUMPDEST PUSH2 0x16A0 JUMP JUMPDEST DUP2 SWAP4 PUSH2 0x170A SWAP2 PUSH2 0x79E PUSH2 0x16F3 SWAP5 PUSH2 0x20DB JUMP JUMPDEST SWAP3 SWAP1 PUSH2 0x16E9 JUMP JUMPDEST GT ISZERO SWAP1 POP DUP6 DUP10 PUSH2 0x16E2 JUMP JUMPDEST PUSH2 0x1725 DUP2 PUSH2 0x20DB JUMP JUMPDEST SWAP1 SLOAD SWAP1 PUSH1 0x3 SHL SHR PUSH1 0x0 MSTORE PUSH1 0x5 DUP1 PUSH1 0x20 MSTORE PUSH1 0x40 PUSH1 0x0 KECCAK256 ADD SLOAD DUP4 DUP7 DUP3 LT ISZERO SWAP2 DUP3 PUSH2 0x1772 JUMPI JUMPDEST POP POP PUSH2 0x175D JUMPI JUMPDEST PUSH2 0x1758 SWAP1 PUSH2 0x2177 JUMP JUMPDEST PUSH2 0x1688 JUMP JUMPDEST SWAP1 PUSH2 0x176A PUSH2 0x1758 SWAP2 PUSH2 0x2177 JUMP JUMPDEST SWAP2 SWAP1 POP PUSH2 0x174F JUMP JUMPDEST GT ISZERO SWAP1 POP DUP4 DUP8 PUSH2 0x1748 JUMP JUMPDEST CALLVALUE PUSH2 0x4D8 JUMPI PUSH1 0x20 DUP1 PUSH1 0x3 NOT CALLDATASIZE ADD SLT PUSH2 0x4D8 JUMPI PUSH1 0x4 CALLDATALOAD SWAP1 PUSH1 0x40 MLOAD PUSH2 0x179F DUP2 PUSH2 0x209C JUMP JUMPDEST PUSH1 0x0 DUP2 MSTORE PUSH1 0x0 DUP3 DUP3 ADD MSTORE PUSH1 0x0 PUSH1 0x40 DUP3 ADD MSTORE PUSH1 0x0 PUSH1 0x60 DUP3 ADD MSTORE PUSH1 0x0 PUSH1 0x80 DUP3 ADD MSTORE PUSH1 0x0 PUSH1 0xA0 DUP3 ADD MSTORE PUSH1 0x0 PUSH1 0xC0 DUP3 ADD MSTORE PUSH1 0x0 PUSH1 0xE0 DUP3 ADD MSTORE PUSH2 0x100 SWAP3 PUSH1 0x0 DUP5 DUP4 ADD MSTORE PUSH2 0x120 SWAP1 PUSH1 0x0 DUP3 DUP5 ADD MSTORE PUSH1 0x60 PUSH2 0x140 DUP1 SWAP5 ADD MSTORE DUP1 PUSH1 0x0 MSTORE PUSH1 0x5 DUP5 MSTORE PUSH2 0x1808 PUSH1 0x40 PUSH1 0x0 KECCAK256 SLOAD ISZERO ISZERO PUSH2 0x23BF JUMP JUMPDEST PUSH1 0x0 MSTORE PUSH1 0x5 DUP4 MSTORE PUSH2 0x181C PUSH1 0x40 PUSH1 0x0 KECCAK256 PUSH2 0x241A JUMP JUMPDEST SWAP1 PUSH1 0x40 MLOAD SWAP5 DUP5 DUP7 MSTORE DUP3 MLOAD DUP6 DUP8 ADD MSTORE DUP5 DUP4 ADD MLOAD PUSH1 0x40 DUP8 ADD MSTORE PUSH1 0x1 DUP1 PUSH1 0xA0 SHL SUB DUP1 PUSH1 0x40 DUP6 ADD MLOAD AND PUSH1 0x60 DUP9 ADD MSTORE PUSH1 0x60 DUP5 ADD MLOAD PUSH1 0x80 DUP9 ADD MSTORE PUSH1 0x80 DUP5 ADD MLOAD AND PUSH1 0xA0 DUP8 ADD MSTORE PUSH2 0x186D PUSH1 0xA0 DUP5 ADD MLOAD PUSH1 0xC0 DUP9 ADD SWAP1 PUSH2 0x205C JUMP JUMPDEST PUSH1 0xC0 DUP4 ADD MLOAD PUSH1 0xE0 DUP8 ADD MSTORE PUSH1 0xE0 DUP4 ADD MLOAD DUP2 DUP8 ADD MSTORE DUP3 ADD MLOAD DUP2 DUP7 ADD MSTORE DUP2 ADD MLOAD DUP3 DUP6 ADD MSTORE ADD MLOAD SWAP1 PUSH2 0x160 DUP1 DUP5 ADD MSTORE DUP2 MLOAD SWAP2 DUP3 PUSH2 0x180 DUP6 ADD MSTORE PUSH1 0x0 JUMPDEST DUP4 DUP2 LT PUSH2 0x18CA JUMPI POP POP POP DUP2 PUSH2 0x1A0 SWAP2 PUSH1 0x0 DUP4 DUP3 DUP5 ADD ADD MSTORE PUSH1 0x1F DUP1 NOT SWAP2 ADD AND DUP2 ADD SUB ADD SWAP1 RETURN JUMPDEST DUP2 DUP2 ADD DUP4 ADD MLOAD DUP6 DUP3 ADD PUSH2 0x1A0 ADD MSTORE DUP3 ADD PUSH2 0x18A5 JUMP JUMPDEST CALLVALUE PUSH2 0x4D8 JUMPI PUSH1 0x40 CALLDATASIZE PUSH1 0x3 NOT ADD SLT PUSH2 0x4D8 JUMPI PUSH1 0x4 CALLDATALOAD PUSH2 0x18FB PUSH2 0x2046 JUMP JUMPDEST CALLER PUSH1 0x0 SWAP1 DUP2 MSTORE PUSH32 0xD329FF8A035C3CE5DF2B0DAE604D660C0D8783BF7E64BE00C1D10DB96C0B87B4 PUSH1 0x20 SWAP1 DUP2 MSTORE PUSH1 0x40 SWAP1 SWAP2 KECCAK256 SLOAD SWAP1 SWAP2 SWAP1 PUSH1 0xFF AND DUP1 ISZERO PUSH2 0x1AAD JUMPI JUMPDEST ISZERO PUSH2 0x1A4B JUMPI PUSH1 0x1 PUSH1 0x1 PUSH1 0xA0 SHL SUB DUP2 AND SWAP2 DUP3 ISZERO PUSH2 0x19EE JUMPI DUP4 PUSH1 0x0 MSTORE PUSH1 0x0 DUP2 MSTORE PUSH1 0x40 PUSH1 0x0 KECCAK256 DUP4 PUSH1 0x0 MSTORE DUP2 MSTORE PUSH1 0xFF PUSH1 0x40 PUSH1 0x0 KECCAK256 SLOAD AND ISZERO PUSH2 0x1973 JUMPI STOP JUMPDEST PUSH1 0x1 SWAP1 DUP5 PUSH1 0x0 MSTORE PUSH1 0x0 DUP2 MSTORE PUSH1 0x40 PUSH1 0x0 KECCAK256 DUP5 PUSH1 0x0 MSTORE DUP2 MSTORE PUSH1 0x40 PUSH1 0x0 KECCAK256 DUP3 PUSH1 0xFF NOT DUP3 SLOAD AND OR SWAP1 SSTORE DUP5 PUSH1 0x0 MSTORE MSTORE PUSH1 0x40 PUSH1 0x0 KECCAK256 SWAP1 DUP2 SLOAD SWAP2 PUSH1 0x1 PUSH1 0x40 SHL DUP4 LT ISZERO PUSH2 0x2C9 JUMPI DUP3 PUSH2 0x27A SWAP2 PUSH1 0x1 PUSH2 0x19C5 SWAP6 ADD DUP2 SSTORE PUSH2 0x215F JUMP JUMPDEST CALLER SWAP2 PUSH32 0x2F8788117E7EFF1D82E926EC794901D17C78024A50270940304540A733656F0D PUSH1 0x0 DUP1 LOG4 STOP JUMPDEST PUSH1 0x84 SWAP1 PUSH1 0x40 MLOAD SWAP1 PUSH3 0x461BCD PUSH1 0xE5 SHL DUP3 MSTORE PUSH1 0x4 DUP3 ADD MSTORE PUSH1 0x30 PUSH1 0x24 DUP3 ADD MSTORE PUSH32 0x416363657373436F6E74726F6C3A2063616E6E6F74206772616E7420726F6C65 PUSH1 0x44 DUP3 ADD MSTORE PUSH16 0x20746F207A65726F2061646472657373 PUSH1 0x80 SHL PUSH1 0x64 DUP3 ADD MSTORE REVERT JUMPDEST PUSH1 0x40 MLOAD PUSH3 0x461BCD PUSH1 0xE5 SHL DUP2 MSTORE PUSH1 0x4 DUP2 ADD DUP4 SWAP1 MSTORE PUSH1 0x34 PUSH1 0x24 DUP3 ADD MSTORE PUSH32 0x416363657373436F6E74726F6C3A206D757374206265206F776E6572206F7220 PUSH1 0x44 DUP3 ADD MSTORE PUSH20 0x61646D696E20746F206772616E7420726F6C6573 PUSH1 0x60 SHL PUSH1 0x64 DUP3 ADD MSTORE PUSH1 0x84 SWAP1 REVERT JUMPDEST POP PUSH32 0xA49807205CE4D355092EF5A8A18F56E8913CF4A201FBE287825B095693C21775 PUSH1 0x0 MSTORE PUSH1 0x0 DUP3 MSTORE PUSH1 0x40 PUSH1 0x0 KECCAK256 CALLER PUSH1 0x0 MSTORE DUP3 MSTORE PUSH1 0xFF PUSH1 0x40 PUSH1 0x0 KECCAK256 SLOAD AND PUSH2 0x193A JUMP JUMPDEST CALLVALUE PUSH2 0x4D8 JUMPI PUSH1 0x40 CALLDATASIZE PUSH1 0x3 NOT ADD SLT PUSH2 0x4D8 JUMPI CALLER PUSH1 0x0 SWAP1 DUP2 MSTORE PUSH32 0xB0B4EBEBFE6253CA64923E3C53F81360B506C7A8E002C8B4D138D245E76CF24F PUSH1 0x20 SWAP1 DUP2 MSTORE PUSH1 0x40 SWAP1 SWAP2 KECCAK256 SLOAD PUSH1 0x24 SWAP1 PUSH1 0x4 CALLDATALOAD SWAP1 DUP3 CALLDATALOAD SWAP1 PUSH1 0xFF AND DUP1 ISZERO PUSH2 0x1E8F JUMPI JUMPDEST ISZERO PUSH2 0x1E32 JUMPI DUP2 PUSH1 0x0 MSTORE PUSH1 0x5 DUP5 MSTORE PUSH2 0x1B63 PUSH1 0x40 PUSH1 0x0 KECCAK256 SLOAD ISZERO ISZERO PUSH2 0x23BF JUMP JUMPDEST DUP1 ISZERO PUSH2 0x1DDD JUMPI DUP2 PUSH1 0x0 MSTORE PUSH1 0x5 DUP5 MSTORE PUSH1 0x40 PUSH1 0x0 KECCAK256 PUSH1 0x4 DUP2 ADD DUP1 SLOAD PUSH1 0xFF DUP2 PUSH1 0xA0 SHR AND PUSH1 0x4 DUP2 LT ISZERO PUSH2 0x1DC8 JUMPI PUSH1 0x1 SUB PUSH2 0x1D6A JUMPI PUSH1 0xFF PUSH1 0xA0 SHL NOT AND PUSH1 0x1 PUSH1 0xA1 SHL OR SWAP1 SSTORE TIMESTAMP PUSH1 0x7 DUP3 ADD SSTORE PUSH1 0x8 DUP2 ADD DUP3 SWAP1 SSTORE PUSH2 0x1BB8 SWAP1 PUSH2 0x241A JUMP JUMPDEST SWAP3 PUSH1 0x4 SLOAD SWAP4 PUSH2 0x1BC6 DUP6 PUSH2 0x2177 JUMP JUMPDEST PUSH1 0x4 SSTORE DUP1 MLOAD SWAP2 DUP6 DUP8 DUP4 ADD SWAP4 DUP5 MLOAD SWAP1 PUSH1 0x8 PUSH1 0x1 DUP1 PUSH1 0xA0 SHL SUB SWAP2 DUP9 DUP13 DUP5 PUSH1 0x40 DUP11 ADD MLOAD AND SWAP6 PUSH1 0x60 DUP11 ADD MLOAD DUP7 PUSH1 0x80 DUP13 ADD MLOAD AND SWAP2 PUSH1 0x40 MLOAD SWAP6 PUSH2 0x1C02 DUP8 PUSH2 0x207F JUMP JUMPDEST DUP11 DUP8 MSTORE DUP5 DUP8 ADD SWAP1 DUP2 MSTORE PUSH1 0x40 DUP8 ADD SWAP2 DUP3 MSTORE PUSH1 0x60 DUP8 ADD SWAP10 DUP11 MSTORE PUSH1 0x80 DUP8 ADD SWAP3 DUP4 MSTORE PUSH1 0xA0 DUP8 ADD SWAP4 DUP5 MSTORE PUSH1 0x6 PUSH1 0xC0 DUP9 ADD SWAP6 TIMESTAMP DUP8 MSTORE PUSH1 0xE0 DUP10 ADD SWAP8 DUP9 MSTORE PUSH2 0x100 DUP10 ADD SWAP13 DUP14 CALLER SWAP1 MSTORE PUSH1 0x0 MSTORE MSTORE PUSH1 0x40 PUSH1 0x0 KECCAK256 SWAP7 MLOAD DUP8 SSTORE MLOAD PUSH1 0x1 DUP8 ADD SSTORE MLOAD PUSH1 0x2 DUP7 ADD SSTORE DUP7 PUSH1 0x3 DUP7 ADD SWAP9 MLOAD AND SWAP8 PUSH1 0x1 PUSH1 0x1 PUSH1 0x60 SHL SUB PUSH1 0xA0 SHL SWAP9 DUP10 DUP3 SLOAD AND OR SWAP1 SSTORE MLOAD PUSH1 0x4 DUP6 ADD SSTORE DUP6 PUSH1 0x5 DUP6 ADD SWAP2 MLOAD AND DUP8 DUP3 SLOAD AND OR SWAP1 SSTORE MLOAD PUSH1 0x6 DUP4 ADD SSTORE MLOAD PUSH1 0x7 DUP3 ADD SSTORE ADD SWAP3 MLOAD AND SWAP1 DUP3 SLOAD AND OR SWAP1 SSTORE DUP3 MLOAD PUSH1 0x0 MSTORE PUSH1 0x8 DUP8 MSTORE PUSH2 0x1CBA DUP7 PUSH1 0x40 PUSH1 0x0 KECCAK256 PUSH2 0x239A JUMP JUMPDEST DUP4 PUSH1 0x0 MSTORE PUSH1 0x9 DUP8 MSTORE DUP6 PUSH1 0x40 PUSH1 0x0 KECCAK256 SSTORE PUSH1 0xB SLOAD SWAP1 PUSH1 0x1 PUSH1 0x40 SHL DUP3 LT ISZERO PUSH2 0x1D56 JUMPI POP SWAP3 PUSH32 0x2B69ACE120CC6707AD2F7EF24F7526991402466DB3103F224412AC9BE9A8B84F SWAP3 PUSH1 0x40 SWAP3 PUSH2 0x1D16 DUP9 PUSH2 0xEAD DUP9 PUSH1 0x1 DUP4 SWAP12 SWAP11 ADD PUSH1 0xB SSTORE PUSH2 0x2128 JUMP JUMPDEST MLOAD SWAP1 MLOAD SWAP1 DUP7 PUSH32 0xE0DAABA6F78C25810D003FD843E02EE66C8F94BB745FAFDE90213F6DE479AB47 DUP11 DUP7 MLOAD DUP7 DUP2 MSTORE LOG4 DUP2 MLOAD SWAP1 DUP2 MSTORE TIMESTAMP DUP8 DUP3 ADD MSTORE LOG3 PUSH1 0x40 MLOAD SWAP1 DUP2 MSTORE RETURN JUMPDEST PUSH4 0x4E487B71 PUSH1 0xE0 SHL PUSH1 0x0 SWAP1 DUP2 MSTORE PUSH1 0x41 PUSH1 0x4 MSTORE REVERT JUMPDEST PUSH1 0x40 MLOAD PUSH3 0x461BCD PUSH1 0xE5 SHL DUP2 MSTORE PUSH1 0x4 DUP2 ADD DUP9 SWAP1 MSTORE PUSH1 0x31 DUP2 DUP9 ADD MSTORE PUSH32 0x496E766F6963654D616E616765723A20696E766F696365206D75737420626520 PUSH1 0x44 DUP3 ADD MSTORE PUSH17 0x696E2070656E64696E6720737461747573 PUSH1 0x78 SHL PUSH1 0x64 DUP3 ADD MSTORE PUSH1 0x84 SWAP1 REVERT JUMPDEST DUP7 PUSH4 0x4E487B71 PUSH1 0xE0 SHL PUSH1 0x0 MSTORE PUSH1 0x21 PUSH1 0x4 MSTORE PUSH1 0x0 REVERT JUMPDEST PUSH1 0x40 MLOAD PUSH3 0x461BCD PUSH1 0xE5 SHL DUP2 MSTORE PUSH1 0x4 DUP2 ADD DUP6 SWAP1 MSTORE PUSH1 0x28 DUP2 DUP6 ADD MSTORE PUSH32 0x496E766F6963654D616E616765723A20696E76616C6964207472616E73616374 PUSH1 0x44 DUP3 ADD MSTORE PUSH8 0xD2DEDC40D0C2E6D PUSH1 0xC3 SHL PUSH1 0x64 DUP3 ADD MSTORE PUSH1 0x84 SWAP1 REVERT JUMPDEST PUSH1 0x40 MLOAD PUSH3 0x461BCD PUSH1 0xE5 SHL DUP2 MSTORE PUSH1 0x4 DUP2 ADD DUP6 SWAP1 MSTORE PUSH1 0x30 DUP2 DUP6 ADD MSTORE PUSH32 0x496E766F6963654D616E616765723A206D7573742062652066696E616E636520 PUSH1 0x44 DUP3 ADD MSTORE PUSH16 0x36B0B730B3B2B91037B91030B236B4B7 PUSH1 0x81 SHL PUSH1 0x64 DUP3 ADD MSTORE PUSH1 0x84 SWAP1 REVERT JUMPDEST POP PUSH32 0xA49807205CE4D355092EF5A8A18F56E8913CF4A201FBE287825B095693C21775 PUSH1 0x0 MSTORE PUSH1 0x0 DUP5 MSTORE PUSH1 0x40 PUSH1 0x0 KECCAK256 CALLER PUSH1 0x0 MSTORE DUP5 MSTORE PUSH1 0xFF PUSH1 0x40 PUSH1 0x0 KECCAK256 SLOAD AND PUSH2 0x1B46 JUMP JUMPDEST CALLVALUE PUSH2 0x4D8 JUMPI PUSH1 0x0 CALLDATASIZE PUSH1 0x3 NOT ADD SLT PUSH2 0x4D8 JUMPI PUSH1 0x20 PUSH1 0x40 MLOAD PUSH32 0x5A3425EA67E73C95853ECFC0C443062DE292A303C186BC2AAC1178AE1B86C62A DUP2 MSTORE RETURN JUMPDEST CALLVALUE PUSH2 0x4D8 JUMPI PUSH1 0x20 DUP1 PUSH1 0x3 NOT CALLDATASIZE ADD SLT PUSH2 0x4D8 JUMPI PUSH1 0x4 CALLDATALOAD PUSH1 0x0 MSTORE PUSH1 0x7 DUP2 MSTORE PUSH1 0x40 PUSH1 0x0 KECCAK256 SWAP1 PUSH1 0x40 MLOAD SWAP1 DUP2 DUP2 DUP5 SLOAD SWAP2 DUP3 DUP2 MSTORE ADD SWAP4 PUSH1 0x0 MSTORE DUP2 PUSH1 0x0 KECCAK256 SWAP2 PUSH1 0x0 SWAP1 JUMPDEST DUP3 DUP3 LT PUSH2 0x1F5F JUMPI PUSH2 0x745 DUP6 PUSH2 0x997 DUP2 DUP10 SUB DUP3 PUSH2 0x20B9 JUMP JUMPDEST DUP4 SLOAD DUP7 MSTORE SWAP5 DUP6 ADD SWAP5 PUSH1 0x1 SWAP4 DUP5 ADD SWAP4 SWAP1 SWAP2 ADD SWAP1 PUSH2 0x1F48 JUMP JUMPDEST CALLVALUE PUSH2 0x4D8 JUMPI PUSH1 0x0 CALLDATASIZE PUSH1 0x3 NOT ADD SLT PUSH2 0x4D8 JUMPI PUSH1 0x20 PUSH1 0xB SLOAD PUSH1 0x40 MLOAD SWAP1 DUP2 MSTORE RETURN JUMPDEST CALLVALUE PUSH2 0x4D8 JUMPI PUSH1 0x0 CALLDATASIZE PUSH1 0x3 NOT ADD SLT PUSH2 0x4D8 JUMPI PUSH1 0xA SLOAD SWAP1 DUP2 DUP2 MSTORE PUSH1 0x20 DUP1 DUP3 ADD SWAP3 PUSH1 0xA PUSH1 0x0 MSTORE PUSH32 0xC65A7BB8D6351C1CF70C95A316CC6A92839C986682D98BC35F958F4883F9D2A8 SWAP2 PUSH1 0x0 SWAP1 JUMPDEST DUP3 DUP3 LT PUSH2 0x1FF4 JUMPI PUSH2 0x745 DUP6 PUSH2 0x997 DUP2 DUP10 SUB DUP3 PUSH2 0x20B9 JUMP JUMPDEST DUP4 SLOAD DUP7 MSTORE SWAP5 DUP6 ADD SWAP5 PUSH1 0x1 SWAP4 DUP5 ADD SWAP4 SWAP1 SWAP2 ADD SWAP1 PUSH2 0x1FDD JUMP JUMPDEST PUSH1 0x20 SWAP1 DUP2 PUSH1 0x40 DUP2 DUP4 ADD SWAP3 DUP3 DUP2 MSTORE DUP6 MLOAD DUP1 SWAP5 MSTORE ADD SWAP4 ADD SWAP2 PUSH1 0x0 JUMPDEST DUP3 DUP2 LT PUSH2 0x2032 JUMPI POP POP POP POP SWAP1 JUMP JUMPDEST DUP4 MLOAD DUP6 MSTORE SWAP4 DUP2 ADD SWAP4 SWAP3 DUP2 ADD SWAP3 PUSH1 0x1 ADD PUSH2 0x2024 JUMP JUMPDEST PUSH1 0x24 CALLDATALOAD SWAP1 PUSH1 0x1 PUSH1 0x1 PUSH1 0xA0 SHL SUB DUP3 AND DUP3 SUB PUSH2 0x4D8 JUMPI JUMP JUMPDEST SWAP1 PUSH1 0x4 DUP3 LT ISZERO PUSH2 0x6E0 JUMPI MSTORE JUMP JUMPDEST PUSH1 0x40 SWAP1 PUSH1 0x3 NOT ADD SLT PUSH2 0x4D8 JUMPI PUSH1 0x4 CALLDATALOAD SWAP1 PUSH1 0x24 CALLDATALOAD SWAP1 JUMP JUMPDEST PUSH2 0x120 DUP2 ADD SWAP1 DUP2 LT PUSH8 0xFFFFFFFFFFFFFFFF DUP3 GT OR PUSH2 0x2C9 JUMPI PUSH1 0x40 MSTORE JUMP JUMPDEST PUSH2 0x160 DUP2 ADD SWAP1 DUP2 LT PUSH8 0xFFFFFFFFFFFFFFFF DUP3 GT OR PUSH2 0x2C9 JUMPI PUSH1 0x40 MSTORE JUMP JUMPDEST SWAP1 PUSH1 0x1F DUP1 NOT SWAP2 ADD AND DUP2 ADD SWAP1 DUP2 LT PUSH8 0xFFFFFFFFFFFFFFFF DUP3 GT OR PUSH2 0x2C9 JUMPI PUSH1 0x40 MSTORE JUMP JUMPDEST PUSH1 0xA SLOAD DUP2 LT ISZERO PUSH2 0x2112 JUMPI PUSH1 0xA PUSH1 0x0 MSTORE PUSH32 0xC65A7BB8D6351C1CF70C95A316CC6A92839C986682D98BC35F958F4883F9D2A8 ADD SWAP1 PUSH1 0x0 SWAP1 JUMP JUMPDEST PUSH4 0x4E487B71 PUSH1 0xE0 SHL PUSH1 0x0 MSTORE PUSH1 0x32 PUSH1 0x4 MSTORE PUSH1 0x24 PUSH1 0x0 REVERT JUMPDEST PUSH1 0xB SLOAD DUP2 LT ISZERO PUSH2 0x2112 JUMPI PUSH1 0xB PUSH1 0x0 MSTORE PUSH32 0x175B7A638427703F0DBE7BB9BBF987A2551717B34E79F33B5B1008D1FA01DB9 ADD SWAP1 PUSH1 0x0 SWAP1 JUMP JUMPDEST DUP1 SLOAD DUP3 LT ISZERO PUSH2 0x2112 JUMPI PUSH1 0x0 MSTORE PUSH1 0x20 PUSH1 0x0 KECCAK256 ADD SWAP1 PUSH1 0x0 SWAP1 JUMP JUMPDEST PUSH1 0x0 NOT DUP2 EQ PUSH2 0x40E JUMPI PUSH1 0x1 ADD SWAP1 JUMP JUMPDEST PUSH1 0x0 DUP2 DUP2 MSTORE PUSH1 0x20 DUP2 DUP2 MSTORE PUSH1 0x40 DUP1 DUP4 KECCAK256 PUSH1 0x1 PUSH1 0x1 PUSH1 0xA0 SHL SUB SWAP6 DUP7 AND DUP1 DUP6 MSTORE SWAP3 MSTORE DUP3 KECCAK256 SLOAD SWAP2 SWAP3 SWAP1 SWAP2 PUSH1 0xFF AND PUSH2 0x21BA JUMPI JUMPDEST POP POP POP POP JUMP JUMPDEST DUP1 DUP4 MSTORE DUP3 PUSH1 0x20 MSTORE PUSH1 0x40 DUP4 KECCAK256 DUP3 DUP5 MSTORE PUSH1 0x20 MSTORE PUSH1 0x40 DUP4 KECCAK256 PUSH1 0xFF NOT DUP2 SLOAD AND SWAP1 SSTORE DUP1 DUP4 MSTORE PUSH1 0x1 SWAP4 DUP5 PUSH1 0x20 MSTORE PUSH1 0x40 DUP5 KECCAK256 SWAP1 DUP6 DUP6 SWAP1 JUMPDEST PUSH2 0x2224 JUMPI JUMPDEST POP POP POP SWAP1 SWAP2 SWAP3 POP PUSH32 0xF6391F5C32D9C69D2A47EA670B442974B53935D1EDC7FD64EB21E047A839171B CALLER SWAP4 DUP1 LOG4 CODESIZE DUP1 DUP1 DUP1 PUSH2 0x21B4 JUMP JUMPDEST DUP3 SLOAD DUP1 DUP3 LT ISZERO PUSH2 0x22D0 JUMPI DUP3 DUP7 PUSH2 0x223A DUP5 DUP8 PUSH2 0x215F JUMP JUMPDEST SWAP3 SWAP1 SLOAD PUSH1 0x3 SWAP4 DUP5 SHL SHR AND EQ PUSH2 0x225A JUMPI POP POP PUSH2 0x2254 SWAP1 PUSH2 0x2177 JUMP JUMPDEST DUP7 PUSH2 0x21EA JUMP JUMPDEST SWAP1 SWAP4 SWAP5 SWAP6 SWAP7 SWAP8 POP PUSH1 0x0 SWAP3 SWAP2 SWAP3 NOT SWAP4 DUP5 DUP2 ADD SWAP1 DUP2 GT PUSH2 0x22BC JUMPI SWAP2 PUSH2 0x27A SWAP2 PUSH2 0x3B2 PUSH2 0x2285 SWAP6 SWAP5 DUP9 PUSH2 0x215F JUMP JUMPDEST DUP2 SLOAD DUP1 ISZERO PUSH2 0x22A8 JUMPI ADD SWAP1 PUSH2 0x229C PUSH2 0x3D6 DUP4 DUP4 PUSH2 0x215F JUMP JUMPDEST SSTORE SWAP1 DUP3 SWAP2 CODESIZE DUP1 DUP1 PUSH2 0x21EF JUMP JUMPDEST PUSH4 0x4E487B71 PUSH1 0xE0 SHL DUP7 MSTORE PUSH1 0x31 PUSH1 0x4 MSTORE PUSH1 0x24 DUP7 REVERT JUMPDEST PUSH4 0x4E487B71 PUSH1 0xE0 SHL DUP10 MSTORE PUSH1 0x11 PUSH1 0x4 MSTORE PUSH1 0x24 DUP10 REVERT JUMPDEST POP PUSH2 0x21EF JUMP JUMPDEST ISZERO PUSH2 0x22DD JUMPI JUMP JUMPDEST PUSH1 0x40 MLOAD PUSH3 0x461BCD PUSH1 0xE5 SHL DUP2 MSTORE PUSH1 0x20 PUSH1 0x4 DUP3 ADD MSTORE PUSH1 0x31 PUSH1 0x24 DUP3 ADD MSTORE PUSH32 0x416363657373436F6E74726F6C3A2073656E64657220646F6573206E6F742068 PUSH1 0x44 DUP3 ADD MSTORE PUSH17 0x61766520726571756972656420726F6C65 PUSH1 0x78 SHL PUSH1 0x64 DUP3 ADD MSTORE PUSH1 0x84 SWAP1 REVERT JUMPDEST SWAP1 PUSH1 0x4 DUP2 LT ISZERO PUSH2 0x6E0 JUMPI DUP2 SLOAD PUSH1 0xFF PUSH1 0xA0 SHL NOT AND PUSH1 0xA0 SWAP2 SWAP1 SWAP2 SHL PUSH1 0xFF PUSH1 0xA0 SHL AND OR SWAP1 SSTORE JUMP JUMPDEST SWAP1 PUSH1 0x1 DUP3 DUP2 SHR SWAP3 AND DUP1 ISZERO PUSH2 0x2390 JUMPI JUMPDEST PUSH1 0x20 DUP4 LT EQ PUSH2 0x237A JUMPI JUMP JUMPDEST PUSH4 0x4E487B71 PUSH1 0xE0 SHL PUSH1 0x0 MSTORE PUSH1 0x22 PUSH1 0x4 MSTORE PUSH1 0x24 PUSH1 0x0 REVERT JUMPDEST SWAP2 PUSH1 0x7F AND SWAP2 PUSH2 0x236F JUMP JUMPDEST SWAP1 DUP2 SLOAD SWAP2 PUSH1 0x1 PUSH1 0x40 SHL DUP4 LT ISZERO PUSH2 0x2C9 JUMPI DUP3 PUSH2 0xEAD SWAP2 PUSH1 0x1 PUSH2 0x23BD SWAP6 ADD DUP2 SSTORE PUSH2 0x215F JUMP JUMPDEST JUMP JUMPDEST ISZERO PUSH2 0x23C6 JUMPI JUMP JUMPDEST PUSH1 0x40 MLOAD PUSH3 0x461BCD PUSH1 0xE5 SHL DUP2 MSTORE PUSH1 0x20 PUSH1 0x4 DUP3 ADD MSTORE PUSH1 0x26 PUSH1 0x24 DUP3 ADD MSTORE PUSH32 0x496E766F6963654D616E616765723A20696E766F69636520646F6573206E6F74 PUSH1 0x44 DUP3 ADD MSTORE PUSH6 0x8195E1A5CDD PUSH1 0xD2 SHL PUSH1 0x64 DUP3 ADD MSTORE PUSH1 0x84 SWAP1 REVERT JUMPDEST SWAP1 PUSH1 0x40 MLOAD SWAP2 PUSH2 0x2428 DUP4 PUSH2 0x209C JUMP JUMPDEST DUP3 DUP2 SLOAD DUP2 MSTORE PUSH1 0x1 DUP1 DUP4 ADD SLOAD SWAP3 PUSH1 0x20 SWAP4 DUP5 DUP5 ADD MSTORE PUSH1 0xFF PUSH1 0x1 DUP1 PUSH1 0xA0 SHL SUB DUP1 PUSH1 0x2 DUP5 ADD SLOAD AND PUSH1 0x40 DUP7 ADD MSTORE PUSH1 0x3 DUP4 ADD SLOAD PUSH1 0x60 DUP7 ADD MSTORE PUSH1 0x4 DUP4 ADD SLOAD SWAP1 DUP2 AND PUSH1 0x80 DUP7 ADD MSTORE PUSH1 0xA0 SHR AND SWAP1 PUSH1 0x4 DUP3 LT ISZERO PUSH2 0x6E0 JUMPI PUSH1 0x9 SWAP2 PUSH1 0xA0 DUP6 ADD MSTORE PUSH1 0x5 DUP2 ADD SLOAD PUSH1 0xC0 DUP6 ADD MSTORE PUSH1 0x6 DUP2 ADD SLOAD PUSH1 0xE0 DUP6 ADD MSTORE PUSH1 0x7 DUP2 ADD SLOAD PUSH2 0x100 DUP6 ADD MSTORE PUSH1 0x8 DUP2 ADD SLOAD PUSH2 0x120 DUP6 ADD MSTORE ADD SWAP1 PUSH1 0x40 MLOAD SWAP4 DUP5 SWAP3 PUSH1 0x0 SWAP3 DUP2 SLOAD SWAP2 PUSH2 0x24BE DUP4 PUSH2 0x2360 JUMP JUMPDEST DUP1 DUP8 MSTORE SWAP3 DUP3 DUP2 AND SWAP1 DUP2 ISZERO PUSH2 0x2533 JUMPI POP PUSH1 0x1 EQ PUSH2 0x24ED JUMPI JUMPDEST POP POP POP POP PUSH2 0x140 SWAP3 SWAP2 PUSH2 0x24E9 SWAP2 SUB DUP5 PUSH2 0x20B9 JUMP JUMPDEST ADD MSTORE JUMP JUMPDEST PUSH1 0x0 SWAP1 DUP2 MSTORE DUP4 DUP2 KECCAK256 SWAP7 SWAP6 SWAP5 POP SWAP2 SWAP1 JUMPDEST DUP2 DUP4 LT PUSH2 0x251B JUMPI POP SWAP4 SWAP5 POP SWAP2 SWAP3 POP SWAP1 DUP3 ADD ADD DUP2 PUSH2 0x24E9 PUSH2 0x140 CODESIZE PUSH2 0x24D5 JUMP JUMPDEST DUP7 SLOAD DUP9 DUP5 ADD DUP6 ADD MSTORE SWAP6 DUP7 ADD SWAP6 DUP8 SWAP5 POP SWAP2 DUP4 ADD SWAP2 PUSH2 0x24FC JUMP JUMPDEST PUSH1 0xFF NOT AND DUP6 DUP9 ADD MSTORE POP POP POP ISZERO ISZERO PUSH1 0x5 SHL DUP4 ADD ADD SWAP1 POP DUP2 PUSH2 0x24E9 PUSH2 0x140 CODESIZE PUSH2 0x24D5 JUMP JUMPDEST PUSH1 0x40 MLOAD SWAP1 PUSH2 0x2562 DUP3 PUSH2 0x207F JUMP JUMPDEST DUP2 PUSH2 0x100 PUSH1 0x0 SWAP2 DUP3 DUP2 MSTORE DUP3 PUSH1 0x20 DUP3 ADD MSTORE DUP3 PUSH1 0x40 DUP3 ADD MSTORE DUP3 PUSH1 0x60 DUP3 ADD MSTORE DUP3 PUSH1 0x80 DUP3 ADD MSTORE DUP3 PUSH1 0xA0 DUP3 ADD MSTORE DUP3 PUSH1 0xC0 DUP3 ADD MSTORE DUP3 PUSH1 0xE0 DUP3 ADD MSTORE ADD MSTORE JUMP JUMPDEST PUSH8 0xFFFFFFFFFFFFFFFF DUP2 GT PUSH2 0x2C9 JUMPI PUSH1 0x5 SHL PUSH1 0x20 ADD SWAP1 JUMP JUMPDEST SWAP1 PUSH2 0x25BC DUP3 PUSH2 0x259A JUMP JUMPDEST PUSH2 0x25C9 PUSH1 0x40 MLOAD SWAP2 DUP3 PUSH2 0x20B9 JUMP JUMPDEST DUP3 DUP2 MSTORE DUP1 SWAP3 PUSH2 0x25DA PUSH1 0x1F NOT SWAP2 PUSH2 0x259A JUMP JUMPDEST ADD SWAP1 PUSH1 0x20 CALLDATASIZE SWAP2 ADD CALLDATACOPY JUMP JUMPDEST DUP1 MLOAD DUP3 LT ISZERO PUSH2 0x2112 JUMPI PUSH1 0x20 SWAP2 PUSH1 0x5 SHL ADD ADD SWAP1 JUMP JUMPDEST ISZERO PUSH2 0x25FF JUMPI JUMP JUMPDEST PUSH1 0x40 MLOAD PUSH3 0x461BCD PUSH1 0xE5 SHL DUP2 MSTORE PUSH1 0x20 PUSH1 0x4 DUP3 ADD MSTORE PUSH1 0x22 PUSH1 0x24 DUP3 ADD MSTORE PUSH32 0x496E766F6963654D616E616765723A20696E76616C696420646174652072616E PUSH1 0x44 DUP3 ADD MSTORE PUSH2 0x6765 PUSH1 0xF0 SHL PUSH1 0x64 DUP3 ADD MSTORE PUSH1 0x84 SWAP1 REVERT INVALID LOG2 PUSH5 0x6970667358 0x22 SLT KECCAK256 INVALID SWAP4 0xAA 0x5D 0x28 ORIGIN PUSH8 0x7A667F92EBD762ED LOG0 DUP9 0xE PUSH21 0xBF4E25F1240BEC34D7C8F5D0D664736F6C63430008 EQ STOP CALLER "},"methodIdentifiers":{"ADMIN_ROLE()":"75b238fc","EMPLOYEE_ROLE()":"2a4cab90","FINANCE_MANAGER_ROLE()":"8a780f65","OWNER_ROLE()":"e58378bb","cancelInvoice(uint256)":"da9c273d","createInvoice(uint256,address,uint256,address,uint256,string)":"9ebda533","getAllInvoiceIds()":"04333861","getAllReceiptIds()":"97efc5d8","getEmployeeInvoices(uint256)":"05b14794","getEmployeeReceipts(uint256)":"ba7c743e","getInvoice(uint256)":"3a23cc0a","getInvoicesByDateRange(uint256,uint256)":"4ba0b411","getInvoicesByStatus(uint8)":"73114f3c","getReceipt(uint256)":"b63e6ac3","getReceiptByTxHash(bytes32)":"76003926","getReceiptsByDateRange(uint256,uint256)":"d9ad32c1","getRoleMembers(bytes32)":"a3246ad3","getTotalInvoices()":"d716e9ca","getTotalReceipts()":"0478460f","grantRole(bytes32,address)":"2f2ff15d","hasRole(bytes32,address)":"91d14854","markInvoiceAsPaid(uint256,bytes32)":"2b8375d3","owner()":"8da5cb5b","renounceRole(bytes32)":"8bb9c5bf","revokeRole(bytes32,address)":"d547741f","transferOwnership(address)":"f2fde38b","updateInvoiceStatus(uint256,uint8)":"4cd78efa"}}}}}