{"contracts/EmployeeRegistry.sol":{"EmployeeRegistry":{"abi":[{"inputs":[],"stateMutability":"nonpayable","type":"constructor"},{"anonymous":false,"inputs":[{"indexed":true,"internalType":"uint256","name":"employeeId","type":"uint256"},{"indexed":true,"internalType":"address","name":"walletAddress","type":"address"},{"indexed":false,"internalType":"string","name":"department","type":"string"},{"indexed":false,"internalType":"string","name":"role","type":"string"},{"indexed":false,"internalType":"uint256","name":"salaryAmount","type":"uint256"},{"indexed":false,"internalType":"address","name":"salaryToken","type":"address"}],"name":"EmployeeAdded","type":"event"},{"anonymous":false,"inputs":[{"indexed":true,"internalType":"uint256","name":"employeeId","type":"uint256"},{"indexed":true,"internalType":"address","name":"walletAddress","type":"address"}],"name":"EmployeeRemoved","type":"event"},{"anonymous":false,"inputs":[{"indexed":true,"internalType":"uint256","name":"employeeId","type":"uint256"},{"indexed":true,"internalType":"address","name":"walletAddress","type":"address"},{"indexed":false,"internalType":"enum EmployeeRegistry.EmployeeStatus","name":"oldStatus","type":"uint8"},{"indexed":false,"internalType":"enum EmployeeRegistry.EmployeeStatus","name":"newStatus","type":"uint8"}],"name":"EmployeeStatusChanged","type":"event"},{"anonymous":false,"inputs":[{"indexed":true,"internalType":"uint256","name":"employeeId","type":"uint256"},{"indexed":true,"internalType":"address","name":"walletAddress","type":"address"},{"indexed":false,"internalType":"string","name":"department","type":"string"},{"indexed":false,"internalType":"string","name":"role","type":"string"},{"indexed":false,"internalType":"uint256","name":"salaryAmount","type":"uint256"},{"indexed":false,"internalType":"address","name":"salaryToken","type":"address"}],"name":"EmployeeUpdated","type":"event"},{"anonymous":false,"inputs":[{"indexed":true,"internalType":"address","name":"previousOwner","type":"address"},{"indexed":true,"internalType":"address","name":"newOwner","type":"address"}],"name":"OwnershipTransferred","type":"event"},{"anonymous":false,"inputs":[{"indexed":true,"internalType":"bytes32","name":"role","type":"bytes32"},{"indexed":true,"internalType":"address","name":"account","type":"address"},{"indexed":true,"internalType":"address","name":"sender","type":"address"}],"name":"RoleGranted","type":"event"},{"anonymous":false,"inputs":[{"indexed":true,"internalType":"bytes32","name":"role","type":"bytes32"},{"indexed":true,"internalType":"address","name":"account","type":"address"},{"indexed":true,"internalType":"address","name":"sender","type":"address"}],"name":"RoleRevoked","type":"event"},{"inputs":[],"name":"ADMIN_ROLE","outputs":[{"internalType":"bytes32","name":"","type":"bytes32"}],"stateMutability":"view","type":"function"},{"inputs":[],"name":"EMPLOYEE_ROLE","outputs":[{"internalType":"bytes32","name":"","type":"bytes32"}],"stateMutability":"view","type":"function"},{"inputs":[],"name":"FINANCE_MANAGER_ROLE","outputs":[{"internalType":"bytes32","name":"","type":"bytes32"}],"stateMutability":"view","type":"function"},{"inputs":[],"name":"OWNER_ROLE","outputs":[{"internalType":"bytes32","name":"","type":"bytes32"}],"stateMutability":"view","type":"function"},{"inputs":[{"internalType":"address","name":"walletAddress","type":"address"},{"internalType":"string","name":"department","type":"string"},{"internalType":"string","name":"role","type":"string"},{"internalType":"uint256","name":"salaryAmount","type":"uint256"},{"internalType":"address","name":"salaryToken","type":"address"},{"internalType":"enum EmployeeRegistry.PaymentFrequency","name":"paymentFrequency","type":"uint8"}],"name":"addEmployee","outputs":[{"internalType":"uint256","name":"","type":"uint256"}],"stateMutability":"nonpayable","type":"function"},{"inputs":[{"internalType":"uint256","name":"employeeId","type":"uint256"}],"name":"employeeExists","outputs":[{"internalType":"bool","name":"","type":"bool"}],"stateMutability":"view","type":"function"},{"inputs":[],"name":"getActiveEmployees","outputs":[{"internalType":"uint256[]","name":"","type":"uint256[]"}],"stateMutability":"view","type":"function"},{"inputs":[],"name":"getAllEmployeeIds","outputs":[{"internalType":"uint256[]","name":"","type":"uint256[]"}],"stateMutability":"view","type":"function"},{"inputs":[{"internalType":"uint256","name":"employeeId","type":"uint256"}],"name":"getEmployee","outputs":[{"components":[{"internalType":"uint256","name":"employeeId","type":"uint256"},{"internalType":"address","name":"walletAddress","type":"address"},{"internalType":"string","name":"department","type":"string"},{"internalType":"string","name":"role","type":"string"},{"internalType":"uint256","name":"salaryAmount","type":"uint256"},{"internalType":"address","name":"salaryToken","type":"address"},{"internalType":"enum EmployeeRegistry.PaymentFrequency","name":"paymentFrequency","type":"uint8"},{"internalType":"enum EmployeeRegistry.EmployeeStatus","name":"status","type":"uint8"},{"internalType":"uint256","name":"createdAt","type":"uint256"},{"internalType":"uint256","name":"updatedAt","type":"uint256"}],"internalType":"struct EmployeeRegistry.Employee","name":"","type":"tuple"}],"stateMutability":"view","type":"function"},{"inputs":[{"internalType":"address","name":"walletAddress","type":"address"}],"name":"getEmployeeIdByWallet","outputs":[{"internalType":"uint256","name":"","type":"uint256"}],"stateMutability":"view","type":"function"},{"inputs":[{"internalType":"string","name":"department","type":"string"}],"name":"getEmployeesByDepartment","outputs":[{"internalType":"uint256[]","name":"","type":"uint256[]"}],"stateMutability":"view","type":"function"},{"inputs":[{"internalType":"bytes32","name":"role","type":"bytes32"}],"name":"getRoleMembers","outputs":[{"internalType":"address[]","name":"","type":"address[]"}],"stateMutability":"view","type":"function"},{"inputs":[],"name":"getTotalEmployees","outputs":[{"internalType":"uint256","name":"","type":"uint256"}],"stateMutability":"view","type":"function"},{"inputs":[{"internalType":"bytes32","name":"role","type":"bytes32"},{"internalType":"address","name":"account","type":"address"}],"name":"grantRole","outputs":[],"stateMutability":"nonpayable","type":"function"},{"inputs":[{"internalType":"bytes32","name":"role","type":"bytes32"},{"internalType":"address","name":"account","type":"address"}],"name":"hasRole","outputs":[{"internalType":"bool","name":"","type":"bool"}],"stateMutability":"view","type":"function"},{"inputs":[{"internalType":"address","name":"walletAddress","type":"address"}],"name":"isWalletRegistered","outputs":[{"internalType":"bool","name":"","type":"bool"}],"stateMutability":"view","type":"function"},{"inputs":[],"name":"owner","outputs":[{"internalType":"address","name":"","type":"address"}],"stateMutability":"view","type":"function"},{"inputs":[{"internalType":"uint256","name":"employeeId","type":"uint256"}],"name":"removeEmployee","outputs":[],"stateMutability":"nonpayable","type":"function"},{"inputs":[{"internalType":"bytes32","name":"role","type":"bytes32"}],"name":"renounceRole","outputs":[],"stateMutability":"nonpayable","type":"function"},{"inputs":[{"internalType":"bytes32","name":"role","type":"bytes32"},{"internalType":"address","name":"account","type":"address"}],"name":"revokeRole","outputs":[],"stateMutability":"nonpayable","type":"function"},{"inputs":[{"internalType":"address","name":"newOwner","type":"address"}],"name":"transferOwnership","outputs":[],"stateMutability":"nonpayable","type":"function"},{"inputs":[{"internalType":"uint256","name":"employeeId","type":"uint256"},{"internalType":"string","name":"department","type":"string"},{"internalType":"string","name":"role","type":"string"},{"internalType":"uint256","name":"salaryAmount","type":"uint256"},{"internalType":"address","name":"salaryToken","type":"address"},{"internalType":"enum EmployeeRegistry.PaymentFrequency","name":"paymentFrequency","type":"uint8"}],"name":"updateEmployee","outputs":[],"stateMutability":"nonpayable","type":"function"},{"inputs":[{"internalType":"uint256","name":"employeeId","type":"uint256"},{"internalType":"enum EmployeeRegistry.EmployeeStatus","name":"newStatus","type":"uint8"}],"name":"updateEmployeeStatus","outputs":[],"stateMutability":"nonpayable","type":"function"}],"evm":{"bytecode":{"linkReferences":{},"object":"60806040818152346101225760018060a01b031990338260025416176002557fb19546dff01e856fb3f010c267a7b1c60363cf8a4664e21cc89c26224620214e91600091838352602090838252808420338552825260ff818520541615610073575b600160035561284c8681620001288239f35b8484528382528084203385528252808420600160ff19825416179055848452600182528320908154916801000000000000000083101561010e57600183018082558310156100fa57845283200190339082541617905533917f2f8788117e7eff1d82e926ec794901d17c78024a50270940304540a733656f0d339280a43880808080610061565b634e487b7160e01b85526032600452602485fd5b634e487b7160e01b85526041600452602485fd5b600080fdfe608080604052600436101561001357600080fd5b60003560e01c9081631fcf522f14611f025750806321ed0f6414611aa85780632a4cab9014611a7f5780632f2ff15d1461188157806347e23df91461172d57806349c96d99146116ff5780635339c995146116e157806375b238fc146116a65780637f247e491461166a578063889d0715146115d45780638a780f65146115995780638bb9c5bf1461157c5780638da5cb5b1461155357806391d148541461150657806394cf1a9714611194578063a3246ad3146110e2578063a43439aa14610f8f578063ac03f0ca14610867578063bca9a5c514610668578063d547741f1461058c578063e58378bb14610551578063f2fde38b146101c25763f66a5ca01461011c57600080fd5b346101bd576020806003193601126101bd5760043567ffffffffffffffff81116101bd5761014f82913690600401611ff6565b91908260405193849283378101600681520301902090604051908181845491828152019360005281600020916000905b8282106101a6576101a28561019681890382612096565b60405191829182611f79565b0390f35b83548652948501946001938401939091019061017f565b600080fd5b346101bd576020806003193601126101bd576101dc611fca565b600254916001600160a01b03808416929091338490036104fe578282169485156104a45785906001600160601b0360a01b16176002557fb19546dff01e856fb3f010c267a7b1c60363cf8a4664e21cc89c26224620214e928360005260008252604060002085600052825260ff60406000205416610359575b508260005260008152604060002085600052815260ff60406000205416156102a2575b5050507f8be0079c531659141344cd1fd0a4f28419497f9722a3daafe3b4186f6b6457e0600080a3005b6001908360005260008152604060002086600052815260406000208260ff198254161790558360005252604060002090815491600160401b83101561034357826102f4916001610313950181556120ef565b90919082549060031b9160018060a01b03809116831b921b1916179055565b8233917f2f8788117e7eff1d82e926ec794901d17c78024a50270940304540a733656f0d600080a4828080610278565b634e487b7160e01b600052604160045260246000fd5b9392919082600052600081526040600020846000528152604060002060ff19815416905582600052600194858252604060002090866000905b6103cd575b50505090919293503384847ff6391f5c32d9c69d2a47ea670b442974b53935d1edc7fd64eb21e047a839171b600080a485610255565b82548082101561049e578290886103e484876120ef565b939054600394851b1c16146104045750506103fe90612107565b87610392565b90929394959697985060001993848201918211610488576104399361042c6102f493886120ef565b9054911b1c1691856120ef565b8154801561047257019061046561045083836120ef565b81549060018060a01b039060031b1b19169055565b5590839291868080610397565b634e487b7160e01b600052603160045260246000fd5b634e487b7160e01b600052601160045260246000fd5b50610397565b60405162461bcd60e51b815260048101839052602c60248201527f416363657373436f6e74726f6c3a206e6577206f776e6572206973207468652060448201526b7a65726f206164647265737360a01b6064820152608490fd5b6084906040519062461bcd60e51b82526004820152602660248201527f416363657373436f6e74726f6c3a2063616c6c6572206973206e6f74207468656044820152651037bbb732b960d11b6064820152fd5b346101bd5760003660031901126101bd5760206040517fb19546dff01e856fb3f010c267a7b1c60363cf8a4664e21cc89c26224620214e8152f35b346101bd5760403660031901126101bd576105a5611fb4565b3360009081526000805160206127b7833981519152602052604090205460ff168015610642575b156105df576105dd90600435612116565b005b60405162461bcd60e51b815260206004820152603560248201527f416363657373436f6e74726f6c3a206d757374206265206f776e6572206f722060448201527461646d696e20746f207265766f6b6520726f6c657360581b6064820152608490fd5b503360009081526000805160206127d7833981519152602052604090205460ff166105cc565b346101bd5760203660031901126101bd57600435600061012060405161068d81612079565b828152826020820152606060408201526060808201528260808201528260a08201528260c08201528260e08201528261010082015201528060005260046020526106dd60406000205415156125bf565b600052600460205260406000206007604051916106f983612079565b8054835260018101546001600160a01b0316602084015260405161072b81610724816002860161261d565b0382612096565b604084015260405161074481610724816003860161261d565b60608401526004810154608084015261078a60ff600583015460018060a01b03811660a087015261077d828260a01c1660c08801612441565b60a81c1660e0850161244d565b6006810154610100840152015461012082015260405190602082528051602083015260018060a01b03602082015116604083015260408101516107f46107de61014092836060870152610160860190612047565b6060840151858203601f19016080870152612047565b90608083015160a085015260018060a01b0360a08401511660c085015260c083015160058110156108515784936101209160e086015261083d60e082015161010087019061206c565b610100810151828601520151908301520390f35b634e487b7160e01b600052602160045260246000fd5b346101bd5760c03660031901126101bd57610880611fca565b60243567ffffffffffffffff81116101bd576108a0903690600401611ff6565b60449291923567ffffffffffffffff81116101bd576108c3903690600401611ff6565b9290936108ce611fe0565b90600560a43510156101bd573360009081526000805160206127d783398151915260205260409020546109039060ff16612266565b6001600160a01b03831615610f32576001600160a01b038316600090815260056020526040902054610ed95761093c60643515156122cc565b61094784151561233e565b61095285151561239f565b6003549461095f86612107565b60035560405161096e81612079565b8681526001600160a01b038516602082015261098b3687856123fa565b604082015261099b36838a6123fa565b606082015260643560808201526001600160a01b03841660a08201526109c660a43560c08301612441565b600060e08201524261010082015242610120820152866000526004602052604060002090805182556001820160018060a01b036020830151166001600160601b0360a01b825416179055604081015180519067ffffffffffffffff8211610343578190610a4382610a3a6002880154612459565b600288016124aa565b602090601f8311600114610e6757600092610e5c575b50508160011b916000199060031b1c19161760028301555b606081015180519067ffffffffffffffff8211610343578190610aa482610a9b6003880154612459565b600388016124aa565b602090601f8311600114610dea57600092610ddf575b50508160011b916000199060031b1c19161760038301555b6080810151600483015560018060a01b0360a0820151166001600160601b0360a01b60058401541617600583015560c0810151600581101561085157610b1b90600584016124f1565b60e0810151600381101561085157600791610b3c6101209260058601612515565b6101008101516006850155015191015560018060a01b038416600052600560205285604060002055610b8286604051878582376020818981016006815203019020612539565b600754600160401b8110156103435786610ba5826001610bbe94016007556120b8565b90919082549060031b91821b91600019901b1916179055565b3360009081526000805160206127b7833981519152602052604090205460ff168015610db9575b15610d57576001600160a01b03841660009081527f7859a94baa94829fcc245b7ff1854b60efd65daf0966ed82492401168584c4b160205260409020546000805160206127f78339815191529060ff1615610c8c575b5092610c817f9792c07b58d941bd54605a1b244a5f2efd7833955e6b27a4a56cebc08a71fcf19360209893889660405195869560018060a01b031699606435938761257d565b0390a3604051908152f35b93909691846000526000602052604060002060018060a01b0383166000526020526040600020600160ff19825416179055846000526001602052604060002093845491600160401b831015610343576020998997610d18866102f4877f9792c07b58d941bd54605a1b244a5f2efd7833955e6b27a4a56cebc08a71fcf19b6001610c819a0181556120ef565b33906001600160a01b038716907f2f8788117e7eff1d82e926ec794901d17c78024a50270940304540a733656f0d600080a49396509398509350610c3b565b60405162461bcd60e51b815260206004820152603460248201527f416363657373436f6e74726f6c3a206d757374206265206f776e6572206f722060448201527361646d696e20746f206772616e7420726f6c657360601b6064820152608490fd5b503360009081526000805160206127d7833981519152602052604090205460ff16610be5565b015190508b80610aba565b9250600385016000526020600020906000935b601f1984168510610e41576001945083601f19811610610e28575b505050811b016003830155610ad2565b015160001960f88460031b161c191690558b8080610e18565b81810151835560209485019460019093019290910190610dfd565b015190508b80610a59565b9250600285016000526020600020906000935b601f1984168510610ebe576001945083601f19811610610ea5575b505050811b016002830155610a71565b015160001960f88460031b161c191690558b8080610e95565b81810151835560209485019460019093019290910190610e7a565b60405162461bcd60e51b815260206004820152602b60248201527f456d706c6f79656552656769737472793a2077616c6c657420616c726561647960448201526a081c9959da5cdd195c995960aa1b6064820152608490fd5b60405162461bcd60e51b815260206004820152602f60248201527f456d706c6f79656552656769737472793a2077616c6c6574206164647265737360448201526e2063616e6e6f74206265207a65726f60881b6064820152608490fd5b346101bd5760403660031901126101bd5760243560043560038210156101bd573360009081526000805160206127d78339815191526020908152604090912054909290610fde9060ff16612266565b8160005260048352610ff660406000205415156125bf565b8160005260048352604060002090600582019160ff835460a81c169260038410156108515782841461107f57827f75440301c7cc0ab7caf96236a696e56b5867c4d6044c8db02e642dbbbffcf77a949261105560409561107c94612515565b4260078201556001808060a01b0391015416966110748551809561206c565b83019061206c565ba3005b60405162461bcd60e51b815260048101879052603560248201527f456d706c6f79656552656769737472793a2073746174757320697320616c72656044820152746164792073657420746f20746869732076616c756560581b6064820152608490fd5b346101bd576020806003193601126101bd5760043560005260019081815260406000209160405191828185549182815201908195600052826000209060005b8181106111785750505083611137910384612096565b60405192818401908285525180915260408401949160005b82811061115c5785870386f35b83516001600160a01b031687529581019592810192840161114f565b82546001600160a01b0316845292840192918501918501611121565b346101bd5760c03660031901126101bd5767ffffffffffffffff6004356024358281116101bd576111c9903690600401611ff6565b906044358481116101bd576111e2903690600401611ff6565b606495919535906111f1611fe0565b9260a4359060058210156101bd573360009081526000805160206127d7833981519152602090815260409091205490919061122e9060ff16612266565b886000526004825261124660406000205415156125bf565b6112518515156122cc565b61125c88151561233e565b61126784151561239f565b88600052600482526040600020916002830160405161128a81610724818561261d565b82815191012061129b368c8c6123fa565b838151910120036114c8575b828a11610343576112c28a6112bc8354612459565b836124aa565b896000601f821160011461146057600091611455575b508a60011b906000198c60031b1c19161790555b600383019185116103435761130b856113058454612459565b846124aa565b600090601f86116001146113b9575084926113a99694927f5d992d912fd498642d3b14b8cecce52daac5db1d22a5a983cbbcc912e12b39069a9998966001936000916113ae575b50600019600387901b1c191685841b1790555b8460048201556113936005820193838060a01b03948589166001600160601b0360a01b8254161781556124f1565b426007820155015416986040519687968761257d565b0390a3005b90508d01358e611352565b908b90601f1987168460005283600020936000905b828210611439575050928795926113a9999795927f5d992d912fd498642d3b14b8cecce52daac5db1d22a5a983cbbcc912e12b39069d9c9b996001961061141f575b5050508285811b019055611365565b0135600019600388901b60f8161c191690558d8d81611410565b600184968294958394970135815501950193018e9392916113ce565b90508901358d6112d8565b600083815284812092508c90601f19821690868e5b8383106114ae5750505010611494575b505060018a811b0190556112ec565b8a013560001960038d901b60f8161c191690558c80611485565b8501358655600190950194938401938f935001868e611475565b6114e28b6040516114dd81610724818761261d565b612713565b6115018b8b848c82604051938492833781016006815203019020612539565b6112a7565b346101bd5760403660031901126101bd5761151f611fb4565b600435600052600060205260406000209060018060a01b0316600052602052602060ff604060002054166040519015158152f35b346101bd5760003660031901126101bd576002546040516001600160a01b039091168152602090f35b346101bd5760203660031901126101bd576105dd33600435612116565b346101bd5760003660031901126101bd5760206040517f572f022558b687eed59080237cb7778171198110a24741b57d6ed3432df881fc8152f35b346101bd5760203660031901126101bd576001600160a01b036115f5611fca565b166000526005602052604060002054801561161557602090604051908152f35b60405162461bcd60e51b815260206004820152602760248201527f456d706c6f79656552656769737472793a2077616c6c6574206e6f74207265676044820152661a5cdd195c995960ca1b6064820152608490fd5b346101bd5760203660031901126101bd576001600160a01b0361168b611fca565b16600052600560205260206040600020541515604051908152f35b346101bd5760003660031901126101bd5760206040517fa49807205ce4d355092ef5a8a18f56e8913cf4a201fbe287825b095693c217758152f35b346101bd5760003660031901126101bd576020600754604051908152f35b346101bd5760203660031901126101bd57600435600052600460205260206040600020541515604051908152f35b346101bd5760003660031901126101bd57600080600754905b8181106118285750611757826126fb565b916117656040519384612096565b808352611774601f19916126fb565b0160209036828501376000805b83821061179657604051806101a28782611f79565b61179f826120b8565b9054600391821b1c6000526004845260059060ff826040600020015460a81c168181101561085157156117df575b5050906117d990612107565b90611781565b6117e8846120b8565b9054911b1c918651811015611812576117d992858261180b941b89010152612107565b90866117cd565b634e487b7160e01b600052603260045260246000fd5b611831816120b8565b9054600391821b1c600052600460205260ff60056040600020015460a81c1690811015610851571561186c575b61186790612107565b611746565b9161187961186791612107565b92905061185e565b346101bd5760403660031901126101bd5760043561189d611fb4565b3360009081526000805160206127b7833981519152602090815260409091205490919060ff168015611a3d575b156119db576001600160a01b03811691821561197e578360005260008152604060002083600052815260ff604060002054161561190357005b6001908460005260008152604060002084600052815260406000208260ff198254161790558460005252604060002090815491600160401b83101561034357826102f4916001611955950181556120ef565b33917f2f8788117e7eff1d82e926ec794901d17c78024a50270940304540a733656f0d600080a4005b6084906040519062461bcd60e51b82526004820152603060248201527f416363657373436f6e74726f6c3a2063616e6e6f74206772616e7420726f6c6560448201526f20746f207a65726f206164647265737360801b6064820152fd5b60405162461bcd60e51b815260048101839052603460248201527f416363657373436f6e74726f6c3a206d757374206265206f776e6572206f722060448201527361646d696e20746f206772616e7420726f6c657360601b6064820152608490fd5b507fa49807205ce4d355092ef5a8a18f56e8913cf4a201fbe287825b095693c2177560005260008252604060002033600052825260ff604060002054166118ca565b346101bd5760003660031901126101bd5760206040516000805160206127f78339815191528152f35b346101bd5760203660031901126101bd573360009081526000805160206127d7833981519152602052604090205460ff907fa49807205ce4d355092ef5a8a18f56e8913cf4a201fbe287825b095693c2177590611b06908316612266565b6004356000526004602052611b2160406000205415156125bf565b600435600052600460205260406000209060405192611b3f84612079565b8254845260018301546001600160a01b03166020850152604051611b6a81610724816002880161261d565b6040850152604051611b8381610724816003880161261d565b606085015260048301546080850152611bc881600585015460018060a01b03811660a0880152611bbb828260a01c1660c08901612441565b60a81c1660e0860161244d565b60068301546101008501526007928301546101208501526020808501513360009081526000805160206127b78339815191529092526040909120546001600160a01b0390911692908216908115611ede575b50156105df5760008281527f7859a94baa94829fcc245b7ff1854b60efd65daf0966ed82492401168584c4b1602052604090205416611d93575b5060018060a01b03602083015116600052600560205260006040812055611c816004356040840151612713565b6000905b805480831015611d8957611c98836120b8565b60043591549060031b1c14611cb8575090611cb290612107565b90611c85565b6000199281840191821161048857610ba5611cd5611ce2936120b8565b90549060031b1c916120b8565b80549182156104725760009201611d0c611cfb826120b8565b8154906000199060031b1b19169055565b81555b6004358252600460205260408220828155826001820155611d32600282016126b2565b611d3e600382016126b2565b8260048201558260058201558260068201550155602060018060a01b03910151166004357fdfcc7e5babfa5dde64e1e03185335f35dd50ccee8caca36c8f16e0772e00e7e0600080a3005b5060009150611d0f565b60008181527f7859a94baa94829fcc245b7ff1854b60efd65daf0966ed82492401168584c4b1602090815260408220805460ff191690556000805160206127f78339815191528252600190527f5d9605def7498c81da30f52667702ecadccaa72c017de11b5559641989a21dcd9291905b835480821015611ed45782611e1983876120ef565b905460039190911b1c6001600160a01b031614611e3f5750611e3a90612107565b611e04565b908160009593949519810111610488576102f4611e63611e7c9360001901856120ef565b905460039190911b1c6001600160a01b031691846120ef565b80548015610472576000190190611e9661045083836120ef565b555b33906000805160206127f78339815191527ff6391f5c32d9c69d2a47ea670b442974b53935d1edc7fd64eb21e047a839171b600080a482611c54565b5050909150611e98565b90506000526000602052604060002033600052602052806040600020541685611c1a565b346101bd5760003660031901126101bd576007549081815260208082019260076000527fa66cc928b5edb82af9bd49922954155ab7b0942694bea4ce44661d9a8736c688916000905b828210611f62576101a28561019681890382612096565b835486529485019460019384019390910190611f4b565b6020908160408183019282815285518094520193019160005b828110611fa0575050505090565b835185529381019392810192600101611f92565b602435906001600160a01b03821682036101bd57565b600435906001600160a01b03821682036101bd57565b608435906001600160a01b03821682036101bd57565b9181601f840112156101bd5782359167ffffffffffffffff83116101bd57602083818601950101116101bd57565b60005b8381106120375750506000910152565b8181015183820152602001612027565b9060209161206081518092818552858086019101612024565b601f01601f1916010190565b9060038210156108515752565b610140810190811067ffffffffffffffff82111761034357604052565b90601f8019910116810190811067ffffffffffffffff82111761034357604052565b6007548110156118125760076000527fa66cc928b5edb82af9bd49922954155ab7b0942694bea4ce44661d9a8736c6880190600090565b80548210156118125760005260206000200190600090565b60001981146104885760010190565b6000818152602081815260408083206001600160a01b0395861680855292528220549192909160ff1661214a575b50505050565b80835282602052604083208284526020526040832060ff1981541690558083526001938460205260408420908585905b6121b4575b505050909192507ff6391f5c32d9c69d2a47ea670b442974b53935d1edc7fd64eb21e047a839171b339380a438808080612144565b8254808210156122605782866121ca84876120ef565b929054600393841b1c16146121ea5750506121e490612107565b8661217a565b909394959697506000929192199384810190811161224c57916102f49161042c6122159594886120ef565b8154801561223857019061222c61045083836120ef565b5590829138808061217f565b634e487b7160e01b86526031600452602486fd5b634e487b7160e01b89526011600452602489fd5b5061217f565b1561226d57565b60405162461bcd60e51b815260206004820152603160248201527f416363657373436f6e74726f6c3a2073656e64657220646f6573206e6f74206860448201527061766520726571756972656420726f6c6560781b6064820152608490fd5b156122d357565b60405162461bcd60e51b815260206004820152603960248201527f456d706c6f79656552656769737472793a2073616c61727920616d6f756e742060448201527f6d7573742062652067726561746572207468616e207a65726f000000000000006064820152608490fd5b1561234557565b60405162461bcd60e51b815260206004820152602c60248201527f456d706c6f79656552656769737472793a206465706172746d656e742063616e60448201526b6e6f7420626520656d70747960a01b6064820152608490fd5b156123a657565b60405162461bcd60e51b815260206004820152602660248201527f456d706c6f79656552656769737472793a20726f6c652063616e6e6f7420626560448201526520656d70747960d01b6064820152608490fd5b92919267ffffffffffffffff82116103435760405191612424601f8201601f191660200184612096565b8294818452818301116101bd578281602093846000960137010152565b60058210156108515752565b60038210156108515752565b90600182811c92168015612489575b602083101461247357565b634e487b7160e01b600052602260045260246000fd5b91607f1691612468565b81811061249e575050565b60008155600101612493565b9190601f81116124b957505050565b6124e5926000526020600020906020601f840160051c830193106124e7575b601f0160051c0190612493565b565b90915081906124d8565b90600581101561085157815460ff60a01b191660a09190911b60ff60a01b16179055565b90600381101561085157815460ff60a81b191660a89190911b60ff60a81b16179055565b90815491600160401b8310156103435782610ba59160016124e5950181556120ef565b908060209392818452848401376000828201840152601f01601f1916010190565b94969592909361259b6060956125a99460808952608089019161255c565b91868303602088015261255c565b60408401959095526001600160a01b0316910152565b156125c657565b60405162461bcd60e51b815260206004820152602960248201527f456d706c6f79656552656769737472793a20656d706c6f79656520646f6573206044820152681b9bdd08195e1a5cdd60ba1b6064820152608490fd5b906000929180549161262e83612459565b91828252600193848116908160001461268f575060011461264f5750505050565b90919394506000526020928360002092846000945b83861061267b575050505001019038808080612144565b805485870183015294019385908201612664565b9294505050602093945060ff191683830152151560051b01019038808080612144565b6126bc8154612459565b90816126c6575050565b81601f600093116001146126d8575055565b9080839182526126f7601f60208420940160051c840160018501612493565b5555565b67ffffffffffffffff81116103435760051b60200190565b602061272c918160405193828580945193849201612024565b8101600681520301902060005b815480821015612144578361274e83856120ef565b919054600392831b1c1461276c57505061276790612107565b612739565b9293506000199291908381019081116104885761279c92612790610ba592876120ef565b9054911b1c91856120ef565b815480156104725701906127b3611cfb83836120ef565b5556fed329ff8a035c3ce5df2b0dae604d660c0d8783bf7e64be00c1d10db96c0b87b47d7ffb7a348e1c6a02869081a26547b49160dd3df72d1d75a570eb9b698292ec5a3425ea67e73c95853ecfc0c443062de292a303c186bc2aac1178ae1b86c62aa2646970667358221220d2c6c40fa2640881ec2fe4bcbf3fc99bf803e63f57fc7ccf40972d709d9ec1d964736f6c63430008140033","opcodes":"PUSH1 0x80 PUSH1 0x40 DUP2 DUP2 MSTORE CALLVALUE PUSH2 0x122 JUMPI PUSH1 0x1 DUP1 PUSH1 0xA0 SHL SUB NOT SWAP1 CALLER DUP3 PUSH1 0x2 SLOAD AND OR PUSH1 0x2 SSTORE PUSH32 0xB19546DFF01E856FB3F010C267A7B1C60363CF8A4664E21CC89C26224620214E SWAP2 PUSH1 0x0 SWAP2 DUP4 DUP4 MSTORE PUSH1 0x20 SWAP1 DUP4 DUP3 MSTORE DUP1 DUP5 KECCAK256 CALLER DUP6 MSTORE DUP3 MSTORE PUSH1 0xFF DUP2 DUP6 KECCAK256 SLOAD AND ISZERO PUSH2 0x73 JUMPI JUMPDEST PUSH1 0x1 PUSH1 0x3 SSTORE PUSH2 0x284C DUP7 DUP2 PUSH3 0x128 DUP3 CODECOPY RETURN JUMPDEST DUP5 DUP5 MSTORE DUP4 DUP3 MSTORE DUP1 DUP5 KECCAK256 CALLER DUP6 MSTORE DUP3 MSTORE DUP1 DUP5 KECCAK256 PUSH1 0x1 PUSH1 0xFF NOT DUP3 SLOAD AND OR SWAP1 SSTORE DUP5 DUP5 MSTORE PUSH1 0x1 DUP3 MSTORE DUP4 KECCAK256 SWAP1 DUP2 SLOAD SWAP2 PUSH9 0x10000000000000000 DUP4 LT ISZERO PUSH2 0x10E JUMPI PUSH1 0x1 DUP4 ADD DUP1 DUP3 SSTORE DUP4 LT ISZERO PUSH2 0xFA JUMPI DUP5 MSTORE DUP4 KECCAK256 ADD SWAP1 CALLER SWAP1 DUP3 SLOAD AND OR SWAP1 SSTORE CALLER SWAP2 PUSH32 0x2F8788117E7EFF1D82E926EC794901D17C78024A50270940304540A733656F0D CALLER SWAP3 DUP1 LOG4 CODESIZE DUP1 DUP1 DUP1 DUP1 PUSH2 0x61 JUMP JUMPDEST PUSH4 0x4E487B71 PUSH1 0xE0 SHL DUP6 MSTORE PUSH1 0x32 PUSH1 0x4 MSTORE PUSH1 0x24 DUP6 REVERT JUMPDEST PUSH4 0x4E487B71 PUSH1 0xE0 SHL DUP6 MSTORE PUSH1 0x41 PUSH1 0x4 MSTORE PUSH1 0x24 DUP6 REVERT JUMPDEST PUSH1 0x0 DUP1 REVERT INVALID PUSH1 0x80 DUP1 PUSH1 0x40 MSTORE PUSH1 0x4 CALLDATASIZE LT ISZERO PUSH2 0x13 JUMPI PUSH1 0x0 DUP1 REVERT JUMPDEST PUSH1 0x0 CALLDATALOAD PUSH1 0xE0 SHR SWAP1 DUP2 PUSH4 0x1FCF522F EQ PUSH2 0x1F02 JUMPI POP DUP1 PUSH4 0x21ED0F64 EQ PUSH2 0x1AA8 JUMPI DUP1 PUSH4 0x2A4CAB90 EQ PUSH2 0x1A7F JUMPI DUP1 PUSH4 0x2F2FF15D EQ PUSH2 0x1881 JUMPI DUP1 PUSH4 0x47E23DF9 EQ PUSH2 0x172D JUMPI DUP1 PUSH4 0x49C96D99 EQ PUSH2 0x16FF JUMPI DUP1 PUSH4 0x5339C995 EQ PUSH2 0x16E1 JUMPI DUP1 PUSH4 0x75B238FC EQ PUSH2 0x16A6 JUMPI DUP1 PUSH4 0x7F247E49 EQ PUSH2 0x166A JUMPI DUP1 PUSH4 0x889D0715 EQ PUSH2 0x15D4 JUMPI DUP1 PUSH4 0x8A780F65 EQ PUSH2 0x1599 JUMPI DUP1 PUSH4 0x8BB9C5BF EQ PUSH2 0x157C JUMPI DUP1 PUSH4 0x8DA5CB5B EQ PUSH2 0x1553 JUMPI DUP1 PUSH4 0x91D14854 EQ PUSH2 0x1506 JUMPI DUP1 PUSH4 0x94CF1A97 EQ PUSH2 0x1194 JUMPI DUP1 PUSH4 0xA3246AD3 EQ PUSH2 0x10E2 JUMPI DUP1 PUSH4 0xA43439AA EQ PUSH2 0xF8F JUMPI DUP1 PUSH4 0xAC03F0CA EQ PUSH2 0x867 JUMPI DUP1 PUSH4 0xBCA9A5C5 EQ PUSH2 0x668 JUMPI DUP1 PUSH4 0xD547741F EQ PUSH2 0x58C JUMPI DUP1 PUSH4 0xE58378BB EQ PUSH2 0x551 JUMPI DUP1 PUSH4 0xF2FDE38B EQ PUSH2 0x1C2 JUMPI PUSH4 0xF66A5CA0 EQ PUSH2 0x11C JUMPI PUSH1 0x0 DUP1 REVERT JUMPDEST CALLVALUE PUSH2 0x1BD JUMPI PUSH1 0x20 DUP1 PUSH1 0x3 NOT CALLDATASIZE ADD SLT PUSH2 0x1BD JUMPI PUSH1 0x4 CALLDATALOAD PUSH8 0xFFFFFFFFFFFFFFFF DUP2 GT PUSH2 0x1BD JUMPI PUSH2 0x14F DUP3 SWAP2 CALLDATASIZE SWAP1 PUSH1 0x4 ADD PUSH2 0x1FF6 JUMP JUMPDEST SWAP2 SWAP1 DUP3 PUSH1 0x40 MLOAD SWAP4 DUP5 SWAP3 DUP4 CALLDATACOPY DUP2 ADD PUSH1 0x6 DUP2 MSTORE SUB ADD SWAP1 KECCAK256 SWAP1 PUSH1 0x40 MLOAD SWAP1 DUP2 DUP2 DUP5 SLOAD SWAP2 DUP3 DUP2 MSTORE ADD SWAP4 PUSH1 0x0 MSTORE DUP2 PUSH1 0x0 KECCAK256 SWAP2 PUSH1 0x0 SWAP1 JUMPDEST DUP3 DUP3 LT PUSH2 0x1A6 JUMPI PUSH2 0x1A2 DUP6 PUSH2 0x196 DUP2 DUP10 SUB DUP3 PUSH2 0x2096 JUMP JUMPDEST PUSH1 0x40 MLOAD SWAP2 DUP3 SWAP2 DUP3 PUSH2 0x1F79 JUMP JUMPDEST SUB SWAP1 RETURN JUMPDEST DUP4 SLOAD DUP7 MSTORE SWAP5 DUP6 ADD SWAP5 PUSH1 0x1 SWAP4 DUP5 ADD SWAP4 SWAP1 SWAP2 ADD SWAP1 PUSH2 0x17F JUMP JUMPDEST PUSH1 0x0 DUP1 REVERT JUMPDEST CALLVALUE PUSH2 0x1BD JUMPI PUSH1 0x20 DUP1 PUSH1 0x3 NOT CALLDATASIZE ADD SLT PUSH2 0x1BD JUMPI PUSH2 0x1DC PUSH2 0x1FCA JUMP JUMPDEST PUSH1 0x2 SLOAD SWAP2 PUSH1 0x1 PUSH1 0x1 PUSH1 0xA0 SHL SUB DUP1 DUP5 AND SWAP3 SWAP1 SWAP2 CALLER DUP5 SWAP1 SUB PUSH2 0x4FE JUMPI DUP3 DUP3 AND SWAP5 DUP6 ISZERO PUSH2 0x4A4 JUMPI DUP6 SWAP1 PUSH1 0x1 PUSH1 0x1 PUSH1 0x60 SHL SUB PUSH1 0xA0 SHL AND OR PUSH1 0x2 SSTORE PUSH32 0xB19546DFF01E856FB3F010C267A7B1C60363CF8A4664E21CC89C26224620214E SWAP3 DUP4 PUSH1 0x0 MSTORE PUSH1 0x0 DUP3 MSTORE PUSH1 0x40 PUSH1 0x0 KECCAK256 DUP6 PUSH1 0x0 MSTORE DUP3 MSTORE PUSH1 0xFF PUSH1 0x40 PUSH1 0x0 KECCAK256 SLOAD AND PUSH2 0x359 JUMPI JUMPDEST POP DUP3 PUSH1 0x0 MSTORE PUSH1 0x0 DUP2 MSTORE PUSH1 0x40 PUSH1 0x0 KECCAK256 DUP6 PUSH1 0x0 MSTORE DUP2 MSTORE PUSH1 0xFF PUSH1 0x40 PUSH1 0x0 KECCAK256 SLOAD AND ISZERO PUSH2 0x2A2 JUMPI JUMPDEST POP POP POP PUSH32 0x8BE0079C531659141344CD1FD0A4F28419497F9722A3DAAFE3B4186F6B6457E0 PUSH1 0x0 DUP1 LOG3 STOP JUMPDEST PUSH1 0x1 SWAP1 DUP4 PUSH1 0x0 MSTORE PUSH1 0x0 DUP2 MSTORE PUSH1 0x40 PUSH1 0x0 KECCAK256 DUP7 PUSH1 0x0 MSTORE DUP2 MSTORE PUSH1 0x40 PUSH1 0x0 KECCAK256 DUP3 PUSH1 0xFF NOT DUP3 SLOAD AND OR SWAP1 SSTORE DUP4 PUSH1 0x0 MSTORE MSTORE PUSH1 0x40 PUSH1 0x0 KECCAK256 SWAP1 DUP2 SLOAD SWAP2 PUSH1 0x1 PUSH1 0x40 SHL DUP4 LT ISZERO PUSH2 0x343 JUMPI DUP3 PUSH2 0x2F4 SWAP2 PUSH1 0x1 PUSH2 0x313 SWAP6 ADD DUP2 SSTORE PUSH2 0x20EF JUMP JUMPDEST SWAP1 SWAP2 SWAP1 DUP3 SLOAD SWAP1 PUSH1 0x3 SHL SWAP2 PUSH1 0x1 DUP1 PUSH1 0xA0 SHL SUB DUP1 SWAP2 AND DUP4 SHL SWAP3 SHL NOT AND OR SWAP1 SSTORE JUMP JUMPDEST DUP3 CALLER SWAP2 PUSH32 0x2F8788117E7EFF1D82E926EC794901D17C78024A50270940304540A733656F0D PUSH1 0x0 DUP1 LOG4 DUP3 DUP1 DUP1 PUSH2 0x278 JUMP JUMPDEST PUSH4 0x4E487B71 PUSH1 0xE0 SHL PUSH1 0x0 MSTORE PUSH1 0x41 PUSH1 0x4 MSTORE PUSH1 0x24 PUSH1 0x0 REVERT JUMPDEST SWAP4 SWAP3 SWAP2 SWAP1 DUP3 PUSH1 0x0 MSTORE PUSH1 0x0 DUP2 MSTORE PUSH1 0x40 PUSH1 0x0 KECCAK256 DUP5 PUSH1 0x0 MSTORE DUP2 MSTORE PUSH1 0x40 PUSH1 0x0 KECCAK256 PUSH1 0xFF NOT DUP2 SLOAD AND SWAP1 SSTORE DUP3 PUSH1 0x0 MSTORE PUSH1 0x1 SWAP5 DUP6 DUP3 MSTORE PUSH1 0x40 PUSH1 0x0 KECCAK256 SWAP1 DUP7 PUSH1 0x0 SWAP1 JUMPDEST PUSH2 0x3CD JUMPI JUMPDEST POP POP POP SWAP1 SWAP2 SWAP3 SWAP4 POP CALLER DUP5 DUP5 PUSH32 0xF6391F5C32D9C69D2A47EA670B442974B53935D1EDC7FD64EB21E047A839171B PUSH1 0x0 DUP1 LOG4 DUP6 PUSH2 0x255 JUMP JUMPDEST DUP3 SLOAD DUP1 DUP3 LT ISZERO PUSH2 0x49E JUMPI DUP3 SWAP1 DUP9 PUSH2 0x3E4 DUP5 DUP8 PUSH2 0x20EF JUMP JUMPDEST SWAP4 SWAP1 SLOAD PUSH1 0x3 SWAP5 DUP6 SHL SHR AND EQ PUSH2 0x404 JUMPI POP POP PUSH2 0x3FE SWAP1 PUSH2 0x2107 JUMP JUMPDEST DUP8 PUSH2 0x392 JUMP JUMPDEST SWAP1 SWAP3 SWAP4 SWAP5 SWAP6 SWAP7 SWAP8 SWAP9 POP PUSH1 0x0 NOT SWAP4 DUP5 DUP3 ADD SWAP2 DUP3 GT PUSH2 0x488 JUMPI PUSH2 0x439 SWAP4 PUSH2 0x42C PUSH2 0x2F4 SWAP4 DUP9 PUSH2 0x20EF JUMP JUMPDEST SWAP1 SLOAD SWAP2 SHL SHR AND SWAP2 DUP6 PUSH2 0x20EF JUMP JUMPDEST DUP2 SLOAD DUP1 ISZERO PUSH2 0x472 JUMPI ADD SWAP1 PUSH2 0x465 PUSH2 0x450 DUP4 DUP4 PUSH2 0x20EF JUMP JUMPDEST DUP2 SLOAD SWAP1 PUSH1 0x1 DUP1 PUSH1 0xA0 SHL SUB SWAP1 PUSH1 0x3 SHL SHL NOT AND SWAP1 SSTORE JUMP JUMPDEST SSTORE SWAP1 DUP4 SWAP3 SWAP2 DUP7 DUP1 DUP1 PUSH2 0x397 JUMP JUMPDEST PUSH4 0x4E487B71 PUSH1 0xE0 SHL PUSH1 0x0 MSTORE PUSH1 0x31 PUSH1 0x4 MSTORE PUSH1 0x24 PUSH1 0x0 REVERT JUMPDEST PUSH4 0x4E487B71 PUSH1 0xE0 SHL PUSH1 0x0 MSTORE PUSH1 0x11 PUSH1 0x4 MSTORE PUSH1 0x24 PUSH1 0x0 REVERT JUMPDEST POP PUSH2 0x397 JUMP JUMPDEST PUSH1 0x40 MLOAD PUSH3 0x461BCD PUSH1 0xE5 SHL DUP2 MSTORE PUSH1 0x4 DUP2 ADD DUP4 SWAP1 MSTORE PUSH1 0x2C PUSH1 0x24 DUP3 ADD MSTORE PUSH32 0x416363657373436F6E74726F6C3A206E6577206F776E65722069732074686520 PUSH1 0x44 DUP3 ADD MSTORE PUSH12 0x7A65726F2061646472657373 PUSH1 0xA0 SHL PUSH1 0x64 DUP3 ADD MSTORE PUSH1 0x84 SWAP1 REVERT JUMPDEST PUSH1 0x84 SWAP1 PUSH1 0x40 MLOAD SWAP1 PUSH3 0x461BCD PUSH1 0xE5 SHL DUP3 MSTORE PUSH1 0x4 DUP3 ADD MSTORE PUSH1 0x26 PUSH1 0x24 DUP3 ADD MSTORE PUSH32 0x416363657373436F6E74726F6C3A2063616C6C6572206973206E6F7420746865 PUSH1 0x44 DUP3 ADD MSTORE PUSH6 0x1037BBB732B9 PUSH1 0xD1 SHL PUSH1 0x64 DUP3 ADD MSTORE REVERT JUMPDEST CALLVALUE PUSH2 0x1BD JUMPI PUSH1 0x0 CALLDATASIZE PUSH1 0x3 NOT ADD SLT PUSH2 0x1BD JUMPI PUSH1 0x20 PUSH1 0x40 MLOAD PUSH32 0xB19546DFF01E856FB3F010C267A7B1C60363CF8A4664E21CC89C26224620214E DUP2 MSTORE RETURN JUMPDEST CALLVALUE PUSH2 0x1BD JUMPI PUSH1 0x40 CALLDATASIZE PUSH1 0x3 NOT ADD SLT PUSH2 0x1BD JUMPI PUSH2 0x5A5 PUSH2 0x1FB4 JUMP JUMPDEST CALLER PUSH1 0x0 SWAP1 DUP2 MSTORE PUSH1 0x0 DUP1 MLOAD PUSH1 0x20 PUSH2 0x27B7 DUP4 CODECOPY DUP2 MLOAD SWAP2 MSTORE PUSH1 0x20 MSTORE PUSH1 0x40 SWAP1 KECCAK256 SLOAD PUSH1 0xFF AND DUP1 ISZERO PUSH2 0x642 JUMPI JUMPDEST ISZERO PUSH2 0x5DF JUMPI PUSH2 0x5DD SWAP1 PUSH1 0x4 CALLDATALOAD PUSH2 0x2116 JUMP JUMPDEST STOP JUMPDEST PUSH1 0x40 MLOAD PUSH3 0x461BCD PUSH1 0xE5 SHL DUP2 MSTORE PUSH1 0x20 PUSH1 0x4 DUP3 ADD MSTORE PUSH1 0x35 PUSH1 0x24 DUP3 ADD MSTORE PUSH32 0x416363657373436F6E74726F6C3A206D757374206265206F776E6572206F7220 PUSH1 0x44 DUP3 ADD MSTORE PUSH21 0x61646D696E20746F207265766F6B6520726F6C6573 PUSH1 0x58 SHL PUSH1 0x64 DUP3 ADD MSTORE PUSH1 0x84 SWAP1 REVERT JUMPDEST POP CALLER PUSH1 0x0 SWAP1 DUP2 MSTORE PUSH1 0x0 DUP1 MLOAD PUSH1 0x20 PUSH2 0x27D7 DUP4 CODECOPY DUP2 MLOAD SWAP2 MSTORE PUSH1 0x20 MSTORE PUSH1 0x40 SWAP1 KECCAK256 SLOAD PUSH1 0xFF AND PUSH2 0x5CC JUMP JUMPDEST CALLVALUE PUSH2 0x1BD JUMPI PUSH1 0x20 CALLDATASIZE PUSH1 0x3 NOT ADD SLT PUSH2 0x1BD JUMPI PUSH1 0x4 CALLDATALOAD PUSH1 0x0 PUSH2 0x120 PUSH1 0x40 MLOAD PUSH2 0x68D DUP2 PUSH2 0x2079 JUMP JUMPDEST DUP3 DUP2 MSTORE DUP3 PUSH1 0x20 DUP3 ADD MSTORE PUSH1 0x60 PUSH1 0x40 DUP3 ADD MSTORE PUSH1 0x60 DUP1 DUP3 ADD MSTORE DUP3 PUSH1 0x80 DUP3 ADD MSTORE DUP3 PUSH1 0xA0 DUP3 ADD MSTORE DUP3 PUSH1 0xC0 DUP3 ADD MSTORE DUP3 PUSH1 0xE0 DUP3 ADD MSTORE DUP3 PUSH2 0x100 DUP3 ADD MSTORE ADD MSTORE DUP1 PUSH1 0x0 MSTORE PUSH1 0x4 PUSH1 0x20 MSTORE PUSH2 0x6DD PUSH1 0x40 PUSH1 0x0 KECCAK256 SLOAD ISZERO ISZERO PUSH2 0x25BF JUMP JUMPDEST PUSH1 0x0 MSTORE PUSH1 0x4 PUSH1 0x20 MSTORE PUSH1 0x40 PUSH1 0x0 KECCAK256 PUSH1 0x7 PUSH1 0x40 MLOAD SWAP2 PUSH2 0x6F9 DUP4 PUSH2 0x2079 JUMP JUMPDEST DUP1 SLOAD DUP4 MSTORE PUSH1 0x1 DUP2 ADD SLOAD PUSH1 0x1 PUSH1 0x1 PUSH1 0xA0 SHL SUB AND PUSH1 0x20 DUP5 ADD MSTORE PUSH1 0x40 MLOAD PUSH2 0x72B DUP2 PUSH2 0x724 DUP2 PUSH1 0x2 DUP7 ADD PUSH2 0x261D JUMP JUMPDEST SUB DUP3 PUSH2 0x2096 JUMP JUMPDEST PUSH1 0x40 DUP5 ADD MSTORE PUSH1 0x40 MLOAD PUSH2 0x744 DUP2 PUSH2 0x724 DUP2 PUSH1 0x3 DUP7 ADD PUSH2 0x261D JUMP JUMPDEST PUSH1 0x60 DUP5 ADD MSTORE PUSH1 0x4 DUP2 ADD SLOAD PUSH1 0x80 DUP5 ADD MSTORE PUSH2 0x78A PUSH1 0xFF PUSH1 0x5 DUP4 ADD SLOAD PUSH1 0x1 DUP1 PUSH1 0xA0 SHL SUB DUP2 AND PUSH1 0xA0 DUP8 ADD MSTORE PUSH2 0x77D DUP3 DUP3 PUSH1 0xA0 SHR AND PUSH1 0xC0 DUP9 ADD PUSH2 0x2441 JUMP JUMPDEST PUSH1 0xA8 SHR AND PUSH1 0xE0 DUP6 ADD PUSH2 0x244D JUMP JUMPDEST PUSH1 0x6 DUP2 ADD SLOAD PUSH2 0x100 DUP5 ADD MSTORE ADD SLOAD PUSH2 0x120 DUP3 ADD MSTORE PUSH1 0x40 MLOAD SWAP1 PUSH1 0x20 DUP3 MSTORE DUP1 MLOAD PUSH1 0x20 DUP4 ADD MSTORE PUSH1 0x1 DUP1 PUSH1 0xA0 SHL SUB PUSH1 0x20 DUP3 ADD MLOAD AND PUSH1 0x40 DUP4 ADD MSTORE PUSH1 0x40 DUP2 ADD MLOAD PUSH2 0x7F4 PUSH2 0x7DE PUSH2 0x140 SWAP3 DUP4 PUSH1 0x60 DUP8 ADD MSTORE PUSH2 0x160 DUP7 ADD SWAP1 PUSH2 0x2047 JUMP JUMPDEST PUSH1 0x60 DUP5 ADD MLOAD DUP6 DUP3 SUB PUSH1 0x1F NOT ADD PUSH1 0x80 DUP8 ADD MSTORE PUSH2 0x2047 JUMP JUMPDEST SWAP1 PUSH1 0x80 DUP4 ADD MLOAD PUSH1 0xA0 DUP6 ADD MSTORE PUSH1 0x1 DUP1 PUSH1 0xA0 SHL SUB PUSH1 0xA0 DUP5 ADD MLOAD AND PUSH1 0xC0 DUP6 ADD MSTORE PUSH1 0xC0 DUP4 ADD MLOAD PUSH1 0x5 DUP2 LT ISZERO PUSH2 0x851 JUMPI DUP5 SWAP4 PUSH2 0x120 SWAP2 PUSH1 0xE0 DUP7 ADD MSTORE PUSH2 0x83D PUSH1 0xE0 DUP3 ADD MLOAD PUSH2 0x100 DUP8 ADD SWAP1 PUSH2 0x206C JUMP JUMPDEST PUSH2 0x100 DUP2 ADD MLOAD DUP3 DUP7 ADD MSTORE ADD MLOAD SWAP1 DUP4 ADD MSTORE SUB SWAP1 RETURN JUMPDEST PUSH4 0x4E487B71 PUSH1 0xE0 SHL PUSH1 0x0 MSTORE PUSH1 0x21 PUSH1 0x4 MSTORE PUSH1 0x24 PUSH1 0x0 REVERT JUMPDEST CALLVALUE PUSH2 0x1BD JUMPI PUSH1 0xC0 CALLDATASIZE PUSH1 0x3 NOT ADD SLT PUSH2 0x1BD JUMPI PUSH2 0x880 PUSH2 0x1FCA JUMP JUMPDEST PUSH1 0x24 CALLDATALOAD PUSH8 0xFFFFFFFFFFFFFFFF DUP2 GT PUSH2 0x1BD JUMPI PUSH2 0x8A0 SWAP1 CALLDATASIZE SWAP1 PUSH1 0x4 ADD PUSH2 0x1FF6 JUMP JUMPDEST PUSH1 0x44 SWAP3 SWAP2 SWAP3 CALLDATALOAD PUSH8 0xFFFFFFFFFFFFFFFF DUP2 GT PUSH2 0x1BD JUMPI PUSH2 0x8C3 SWAP1 CALLDATASIZE SWAP1 PUSH1 0x4 ADD PUSH2 0x1FF6 JUMP JUMPDEST SWAP3 SWAP1 SWAP4 PUSH2 0x8CE PUSH2 0x1FE0 JUMP JUMPDEST SWAP1 PUSH1 0x5 PUSH1 0xA4 CALLDATALOAD LT ISZERO PUSH2 0x1BD JUMPI CALLER PUSH1 0x0 SWAP1 DUP2 MSTORE PUSH1 0x0 DUP1 MLOAD PUSH1 0x20 PUSH2 0x27D7 DUP4 CODECOPY DUP2 MLOAD SWAP2 MSTORE PUSH1 0x20 MSTORE PUSH1 0x40 SWAP1 KECCAK256 SLOAD PUSH2 0x903 SWAP1 PUSH1 0xFF AND PUSH2 0x2266 JUMP JUMPDEST PUSH1 0x1 PUSH1 0x1 PUSH1 0xA0 SHL SUB DUP4 AND ISZERO PUSH2 0xF32 JUMPI PUSH1 0x1 PUSH1 0x1 PUSH1 0xA0 SHL SUB DUP4 AND PUSH1 0x0 SWAP1 DUP2 MSTORE PUSH1 0x5 PUSH1 0x20 MSTORE PUSH1 0x40 SWAP1 KECCAK256 SLOAD PUSH2 0xED9 JUMPI PUSH2 0x93C PUSH1 0x64 CALLDATALOAD ISZERO ISZERO PUSH2 0x22CC JUMP JUMPDEST PUSH2 0x947 DUP5 ISZERO ISZERO PUSH2 0x233E JUMP JUMPDEST PUSH2 0x952 DUP6 ISZERO ISZERO PUSH2 0x239F JUMP JUMPDEST PUSH1 0x3 SLOAD SWAP5 PUSH2 0x95F DUP7 PUSH2 0x2107 JUMP JUMPDEST PUSH1 0x3 SSTORE PUSH1 0x40 MLOAD PUSH2 0x96E DUP2 PUSH2 0x2079 JUMP JUMPDEST DUP7 DUP2 MSTORE PUSH1 0x1 PUSH1 0x1 PUSH1 0xA0 SHL SUB DUP6 AND PUSH1 0x20 DUP3 ADD MSTORE PUSH2 0x98B CALLDATASIZE DUP8 DUP6 PUSH2 0x23FA JUMP JUMPDEST PUSH1 0x40 DUP3 ADD MSTORE PUSH2 0x99B CALLDATASIZE DUP4 DUP11 PUSH2 0x23FA JUMP JUMPDEST PUSH1 0x60 DUP3 ADD MSTORE PUSH1 0x64 CALLDATALOAD PUSH1 0x80 DUP3 ADD MSTORE PUSH1 0x1 PUSH1 0x1 PUSH1 0xA0 SHL SUB DUP5 AND PUSH1 0xA0 DUP3 ADD MSTORE PUSH2 0x9C6 PUSH1 0xA4 CALLDATALOAD PUSH1 0xC0 DUP4 ADD PUSH2 0x2441 JUMP JUMPDEST PUSH1 0x0 PUSH1 0xE0 DUP3 ADD MSTORE TIMESTAMP PUSH2 0x100 DUP3 ADD MSTORE TIMESTAMP PUSH2 0x120 DUP3 ADD MSTORE DUP7 PUSH1 0x0 MSTORE PUSH1 0x4 PUSH1 0x20 MSTORE PUSH1 0x40 PUSH1 0x0 KECCAK256 SWAP1 DUP1 MLOAD DUP3 SSTORE PUSH1 0x1 DUP3 ADD PUSH1 0x1 DUP1 PUSH1 0xA0 SHL SUB PUSH1 0x20 DUP4 ADD MLOAD AND PUSH1 0x1 PUSH1 0x1 PUSH1 0x60 SHL SUB PUSH1 0xA0 SHL DUP3 SLOAD AND OR SWAP1 SSTORE PUSH1 0x40 DUP2 ADD MLOAD DUP1 MLOAD SWAP1 PUSH8 0xFFFFFFFFFFFFFFFF DUP3 GT PUSH2 0x343 JUMPI DUP2 SWAP1 PUSH2 0xA43 DUP3 PUSH2 0xA3A PUSH1 0x2 DUP9 ADD SLOAD PUSH2 0x2459 JUMP JUMPDEST PUSH1 0x2 DUP9 ADD PUSH2 0x24AA JUMP JUMPDEST PUSH1 0x20 SWAP1 PUSH1 0x1F DUP4 GT PUSH1 0x1 EQ PUSH2 0xE67 JUMPI PUSH1 0x0 SWAP3 PUSH2 0xE5C JUMPI JUMPDEST POP POP DUP2 PUSH1 0x1 SHL SWAP2 PUSH1 0x0 NOT SWAP1 PUSH1 0x3 SHL SHR NOT AND OR PUSH1 0x2 DUP4 ADD SSTORE JUMPDEST PUSH1 0x60 DUP2 ADD MLOAD DUP1 MLOAD SWAP1 PUSH8 0xFFFFFFFFFFFFFFFF DUP3 GT PUSH2 0x343 JUMPI DUP2 SWAP1 PUSH2 0xAA4 DUP3 PUSH2 0xA9B PUSH1 0x3 DUP9 ADD SLOAD PUSH2 0x2459 JUMP JUMPDEST PUSH1 0x3 DUP9 ADD PUSH2 0x24AA JUMP JUMPDEST PUSH1 0x20 SWAP1 PUSH1 0x1F DUP4 GT PUSH1 0x1 EQ PUSH2 0xDEA JUMPI PUSH1 0x0 SWAP3 PUSH2 0xDDF JUMPI JUMPDEST POP POP DUP2 PUSH1 0x1 SHL SWAP2 PUSH1 0x0 NOT SWAP1 PUSH1 0x3 SHL SHR NOT AND OR PUSH1 0x3 DUP4 ADD SSTORE JUMPDEST PUSH1 0x80 DUP2 ADD MLOAD PUSH1 0x4 DUP4 ADD SSTORE PUSH1 0x1 DUP1 PUSH1 0xA0 SHL SUB PUSH1 0xA0 DUP3 ADD MLOAD AND PUSH1 0x1 PUSH1 0x1 PUSH1 0x60 SHL SUB PUSH1 0xA0 SHL PUSH1 0x5 DUP5 ADD SLOAD AND OR PUSH1 0x5 DUP4 ADD SSTORE PUSH1 0xC0 DUP2 ADD MLOAD PUSH1 0x5 DUP2 LT ISZERO PUSH2 0x851 JUMPI PUSH2 0xB1B SWAP1 PUSH1 0x5 DUP5 ADD PUSH2 0x24F1 JUMP JUMPDEST PUSH1 0xE0 DUP2 ADD MLOAD PUSH1 0x3 DUP2 LT ISZERO PUSH2 0x851 JUMPI PUSH1 0x7 SWAP2 PUSH2 0xB3C PUSH2 0x120 SWAP3 PUSH1 0x5 DUP7 ADD PUSH2 0x2515 JUMP JUMPDEST PUSH2 0x100 DUP2 ADD MLOAD PUSH1 0x6 DUP6 ADD SSTORE ADD MLOAD SWAP2 ADD SSTORE PUSH1 0x1 DUP1 PUSH1 0xA0 SHL SUB DUP5 AND PUSH1 0x0 MSTORE PUSH1 0x5 PUSH1 0x20 MSTORE DUP6 PUSH1 0x40 PUSH1 0x0 KECCAK256 SSTORE PUSH2 0xB82 DUP7 PUSH1 0x40 MLOAD DUP8 DUP6 DUP3 CALLDATACOPY PUSH1 0x20 DUP2 DUP10 DUP2 ADD PUSH1 0x6 DUP2 MSTORE SUB ADD SWAP1 KECCAK256 PUSH2 0x2539 JUMP JUMPDEST PUSH1 0x7 SLOAD PUSH1 0x1 PUSH1 0x40 SHL DUP2 LT ISZERO PUSH2 0x343 JUMPI DUP7 PUSH2 0xBA5 DUP3 PUSH1 0x1 PUSH2 0xBBE SWAP5 ADD PUSH1 0x7 SSTORE PUSH2 0x20B8 JUMP JUMPDEST SWAP1 SWAP2 SWAP1 DUP3 SLOAD SWAP1 PUSH1 0x3 SHL SWAP2 DUP3 SHL SWAP2 PUSH1 0x0 NOT SWAP1 SHL NOT AND OR SWAP1 SSTORE JUMP JUMPDEST CALLER PUSH1 0x0 SWAP1 DUP2 MSTORE PUSH1 0x0 DUP1 MLOAD PUSH1 0x20 PUSH2 0x27B7 DUP4 CODECOPY DUP2 MLOAD SWAP2 MSTORE PUSH1 0x20 MSTORE PUSH1 0x40 SWAP1 KECCAK256 SLOAD PUSH1 0xFF AND DUP1 ISZERO PUSH2 0xDB9 JUMPI JUMPDEST ISZERO PUSH2 0xD57 JUMPI PUSH1 0x1 PUSH1 0x1 PUSH1 0xA0 SHL SUB DUP5 AND PUSH1 0x0 SWAP1 DUP2 MSTORE PUSH32 0x7859A94BAA94829FCC245B7FF1854B60EFD65DAF0966ED82492401168584C4B1 PUSH1 0x20 MSTORE PUSH1 0x40 SWAP1 KECCAK256 SLOAD PUSH1 0x0 DUP1 MLOAD PUSH1 0x20 PUSH2 0x27F7 DUP4 CODECOPY DUP2 MLOAD SWAP2 MSTORE SWAP1 PUSH1 0xFF AND ISZERO PUSH2 0xC8C JUMPI JUMPDEST POP SWAP3 PUSH2 0xC81 PUSH32 0x9792C07B58D941BD54605A1B244A5F2EFD7833955E6B27A4A56CEBC08A71FCF1 SWAP4 PUSH1 0x20 SWAP9 SWAP4 DUP9 SWAP7 PUSH1 0x40 MLOAD SWAP6 DUP7 SWAP6 PUSH1 0x1 DUP1 PUSH1 0xA0 SHL SUB AND SWAP10 PUSH1 0x64 CALLDATALOAD SWAP4 DUP8 PUSH2 0x257D JUMP JUMPDEST SUB SWAP1 LOG3 PUSH1 0x40 MLOAD SWAP1 DUP2 MSTORE RETURN JUMPDEST SWAP4 SWAP1 SWAP7 SWAP2 DUP5 PUSH1 0x0 MSTORE PUSH1 0x0 PUSH1 0x20 MSTORE PUSH1 0x40 PUSH1 0x0 KECCAK256 PUSH1 0x1 DUP1 PUSH1 0xA0 SHL SUB DUP4 AND PUSH1 0x0 MSTORE PUSH1 0x20 MSTORE PUSH1 0x40 PUSH1 0x0 KECCAK256 PUSH1 0x1 PUSH1 0xFF NOT DUP3 SLOAD AND OR SWAP1 SSTORE DUP5 PUSH1 0x0 MSTORE PUSH1 0x1 PUSH1 0x20 MSTORE PUSH1 0x40 PUSH1 0x0 KECCAK256 SWAP4 DUP5 SLOAD SWAP2 PUSH1 0x1 PUSH1 0x40 SHL DUP4 LT ISZERO PUSH2 0x343 JUMPI PUSH1 0x20 SWAP10 DUP10 SWAP8 PUSH2 0xD18 DUP7 PUSH2 0x2F4 DUP8 PUSH32 0x9792C07B58D941BD54605A1B244A5F2EFD7833955E6B27A4A56CEBC08A71FCF1 SWAP12 PUSH1 0x1 PUSH2 0xC81 SWAP11 ADD DUP2 SSTORE PUSH2 0x20EF JUMP JUMPDEST CALLER SWAP1 PUSH1 0x1 PUSH1 0x1 PUSH1 0xA0 SHL SUB DUP8 AND SWAP1 PUSH32 0x2F8788117E7EFF1D82E926EC794901D17C78024A50270940304540A733656F0D PUSH1 0x0 DUP1 LOG4 SWAP4 SWAP7 POP SWAP4 SWAP9 POP SWAP4 POP PUSH2 0xC3B JUMP JUMPDEST PUSH1 0x40 MLOAD PUSH3 0x461BCD PUSH1 0xE5 SHL DUP2 MSTORE PUSH1 0x20 PUSH1 0x4 DUP3 ADD MSTORE PUSH1 0x34 PUSH1 0x24 DUP3 ADD MSTORE PUSH32 0x416363657373436F6E74726F6C3A206D757374206265206F776E6572206F7220 PUSH1 0x44 DUP3 ADD MSTORE PUSH20 0x61646D696E20746F206772616E7420726F6C6573 PUSH1 0x60 SHL PUSH1 0x64 DUP3 ADD MSTORE PUSH1 0x84 SWAP1 REVERT JUMPDEST POP CALLER PUSH1 0x0 SWAP1 DUP2 MSTORE PUSH1 0x0 DUP1 MLOAD PUSH1 0x20 PUSH2 0x27D7 DUP4 CODECOPY DUP2 MLOAD SWAP2 MSTORE PUSH1 0x20 MSTORE PUSH1 0x40 SWAP1 KECCAK256 SLOAD PUSH1 0xFF AND PUSH2 0xBE5 JUMP JUMPDEST ADD MLOAD SWAP1 POP DUP12 DUP1 PUSH2 0xABA JUMP JUMPDEST SWAP3 POP PUSH1 0x3 DUP6 ADD PUSH1 0x0 MSTORE PUSH1 0x20 PUSH1 0x0 KECCAK256 SWAP1 PUSH1 0x0 SWAP4 JUMPDEST PUSH1 0x1F NOT DUP5 AND DUP6 LT PUSH2 0xE41 JUMPI PUSH1 0x1 SWAP5 POP DUP4 PUSH1 0x1F NOT DUP2 AND LT PUSH2 0xE28 JUMPI JUMPDEST POP POP POP DUP2 SHL ADD PUSH1 0x3 DUP4 ADD SSTORE PUSH2 0xAD2 JUMP JUMPDEST ADD MLOAD PUSH1 0x0 NOT PUSH1 0xF8 DUP5 PUSH1 0x3 SHL AND SHR NOT AND SWAP1 SSTORE DUP12 DUP1 DUP1 PUSH2 0xE18 JUMP JUMPDEST DUP2 DUP2 ADD MLOAD DUP4 SSTORE PUSH1 0x20 SWAP5 DUP6 ADD SWAP5 PUSH1 0x1 SWAP1 SWAP4 ADD SWAP3 SWAP1 SWAP2 ADD SWAP1 PUSH2 0xDFD JUMP JUMPDEST ADD MLOAD SWAP1 POP DUP12 DUP1 PUSH2 0xA59 JUMP JUMPDEST SWAP3 POP PUSH1 0x2 DUP6 ADD PUSH1 0x0 MSTORE PUSH1 0x20 PUSH1 0x0 KECCAK256 SWAP1 PUSH1 0x0 SWAP4 JUMPDEST PUSH1 0x1F NOT DUP5 AND DUP6 LT PUSH2 0xEBE JUMPI PUSH1 0x1 SWAP5 POP DUP4 PUSH1 0x1F NOT DUP2 AND LT PUSH2 0xEA5 JUMPI JUMPDEST POP POP POP DUP2 SHL ADD PUSH1 0x2 DUP4 ADD SSTORE PUSH2 0xA71 JUMP JUMPDEST ADD MLOAD PUSH1 0x0 NOT PUSH1 0xF8 DUP5 PUSH1 0x3 SHL AND SHR NOT AND SWAP1 SSTORE DUP12 DUP1 DUP1 PUSH2 0xE95 JUMP JUMPDEST DUP2 DUP2 ADD MLOAD DUP4 SSTORE PUSH1 0x20 SWAP5 DUP6 ADD SWAP5 PUSH1 0x1 SWAP1 SWAP4 ADD SWAP3 SWAP1 SWAP2 ADD SWAP1 PUSH2 0xE7A JUMP JUMPDEST PUSH1 0x40 MLOAD PUSH3 0x461BCD PUSH1 0xE5 SHL DUP2 MSTORE PUSH1 0x20 PUSH1 0x4 DUP3 ADD MSTORE PUSH1 0x2B PUSH1 0x24 DUP3 ADD MSTORE PUSH32 0x456D706C6F79656552656769737472793A2077616C6C657420616C7265616479 PUSH1 0x44 DUP3 ADD MSTORE PUSH11 0x81C9959DA5CDD195C9959 PUSH1 0xAA SHL PUSH1 0x64 DUP3 ADD MSTORE PUSH1 0x84 SWAP1 REVERT JUMPDEST PUSH1 0x40 MLOAD PUSH3 0x461BCD PUSH1 0xE5 SHL DUP2 MSTORE PUSH1 0x20 PUSH1 0x4 DUP3 ADD MSTORE PUSH1 0x2F PUSH1 0x24 DUP3 ADD MSTORE PUSH32 0x456D706C6F79656552656769737472793A2077616C6C65742061646472657373 PUSH1 0x44 DUP3 ADD MSTORE PUSH15 0x2063616E6E6F74206265207A65726F PUSH1 0x88 SHL PUSH1 0x64 DUP3 ADD MSTORE PUSH1 0x84 SWAP1 REVERT JUMPDEST CALLVALUE PUSH2 0x1BD JUMPI PUSH1 0x40 CALLDATASIZE PUSH1 0x3 NOT ADD SLT PUSH2 0x1BD JUMPI PUSH1 0x24 CALLDATALOAD PUSH1 0x4 CALLDATALOAD PUSH1 0x3 DUP3 LT ISZERO PUSH2 0x1BD JUMPI CALLER PUSH1 0x0 SWAP1 DUP2 MSTORE PUSH1 0x0 DUP1 MLOAD PUSH1 0x20 PUSH2 0x27D7 DUP4 CODECOPY DUP2 MLOAD SWAP2 MSTORE PUSH1 0x20 SWAP1 DUP2 MSTORE PUSH1 0x40 SWAP1 SWAP2 KECCAK256 SLOAD SWAP1 SWAP3 SWAP1 PUSH2 0xFDE SWAP1 PUSH1 0xFF AND PUSH2 0x2266 JUMP JUMPDEST DUP2 PUSH1 0x0 MSTORE PUSH1 0x4 DUP4 MSTORE PUSH2 0xFF6 PUSH1 0x40 PUSH1 0x0 KECCAK256 SLOAD ISZERO ISZERO PUSH2 0x25BF JUMP JUMPDEST DUP2 PUSH1 0x0 MSTORE PUSH1 0x4 DUP4 MSTORE PUSH1 0x40 PUSH1 0x0 KECCAK256 SWAP1 PUSH1 0x5 DUP3 ADD SWAP2 PUSH1 0xFF DUP4 SLOAD PUSH1 0xA8 SHR AND SWAP3 PUSH1 0x3 DUP5 LT ISZERO PUSH2 0x851 JUMPI DUP3 DUP5 EQ PUSH2 0x107F JUMPI DUP3 PUSH32 0x75440301C7CC0AB7CAF96236A696E56B5867C4D6044C8DB02E642DBBBFFCF77A SWAP5 SWAP3 PUSH2 0x1055 PUSH1 0x40 SWAP6 PUSH2 0x107C SWAP5 PUSH2 0x2515 JUMP JUMPDEST TIMESTAMP PUSH1 0x7 DUP3 ADD SSTORE PUSH1 0x1 DUP1 DUP1 PUSH1 0xA0 SHL SUB SWAP2 ADD SLOAD AND SWAP7 PUSH2 0x1074 DUP6 MLOAD DUP1 SWAP6 PUSH2 0x206C JUMP JUMPDEST DUP4 ADD SWAP1 PUSH2 0x206C JUMP JUMPDEST LOG3 STOP JUMPDEST PUSH1 0x40 MLOAD PUSH3 0x461BCD PUSH1 0xE5 SHL DUP2 MSTORE PUSH1 0x4 DUP2 ADD DUP8 SWAP1 MSTORE PUSH1 0x35 PUSH1 0x24 DUP3 ADD MSTORE PUSH32 0x456D706C6F79656552656769737472793A2073746174757320697320616C7265 PUSH1 0x44 DUP3 ADD MSTORE PUSH21 0x6164792073657420746F20746869732076616C7565 PUSH1 0x58 SHL PUSH1 0x64 DUP3 ADD MSTORE PUSH1 0x84 SWAP1 REVERT JUMPDEST CALLVALUE PUSH2 0x1BD JUMPI PUSH1 0x20 DUP1 PUSH1 0x3 NOT CALLDATASIZE ADD SLT PUSH2 0x1BD JUMPI PUSH1 0x4 CALLDATALOAD PUSH1 0x0 MSTORE PUSH1 0x1 SWAP1 DUP2 DUP2 MSTORE PUSH1 0x40 PUSH1 0x0 KECCAK256 SWAP2 PUSH1 0x40 MLOAD SWAP2 DUP3 DUP2 DUP6 SLOAD SWAP2 DUP3 DUP2 MSTORE ADD SWAP1 DUP2 SWAP6 PUSH1 0x0 MSTORE DUP3 PUSH1 0x0 KECCAK256 SWAP1 PUSH1 0x0 JUMPDEST DUP2 DUP2 LT PUSH2 0x1178 JUMPI POP POP POP DUP4 PUSH2 0x1137 SWAP2 SUB DUP5 PUSH2 0x2096 JUMP JUMPDEST PUSH1 0x40 MLOAD SWAP3 DUP2 DUP5 ADD SWAP1 DUP3 DUP6 MSTORE MLOAD DUP1 SWAP2 MSTORE PUSH1 0x40 DUP5 ADD SWAP5 SWAP2 PUSH1 0x0 JUMPDEST DUP3 DUP2 LT PUSH2 0x115C JUMPI DUP6 DUP8 SUB DUP7 RETURN JUMPDEST DUP4 MLOAD PUSH1 0x1 PUSH1 0x1 PUSH1 0xA0 SHL SUB AND DUP8 MSTORE SWAP6 DUP2 ADD SWAP6 SWAP3 DUP2 ADD SWAP3 DUP5 ADD PUSH2 0x114F JUMP JUMPDEST DUP3 SLOAD PUSH1 0x1 PUSH1 0x1 PUSH1 0xA0 SHL SUB AND DUP5 MSTORE SWAP3 DUP5 ADD SWAP3 SWAP2 DUP6 ADD SWAP2 DUP6 ADD PUSH2 0x1121 JUMP JUMPDEST CALLVALUE PUSH2 0x1BD JUMPI PUSH1 0xC0 CALLDATASIZE PUSH1 0x3 NOT ADD SLT PUSH2 0x1BD JUMPI PUSH8 0xFFFFFFFFFFFFFFFF PUSH1 0x4 CALLDATALOAD PUSH1 0x24 CALLDATALOAD DUP3 DUP2 GT PUSH2 0x1BD JUMPI PUSH2 0x11C9 SWAP1 CALLDATASIZE SWAP1 PUSH1 0x4 ADD PUSH2 0x1FF6 JUMP JUMPDEST SWAP1 PUSH1 0x44 CALLDATALOAD DUP5 DUP2 GT PUSH2 0x1BD JUMPI PUSH2 0x11E2 SWAP1 CALLDATASIZE SWAP1 PUSH1 0x4 ADD PUSH2 0x1FF6 JUMP JUMPDEST PUSH1 0x64 SWAP6 SWAP2 SWAP6 CALLDATALOAD SWAP1 PUSH2 0x11F1 PUSH2 0x1FE0 JUMP JUMPDEST SWAP3 PUSH1 0xA4 CALLDATALOAD SWAP1 PUSH1 0x5 DUP3 LT ISZERO PUSH2 0x1BD JUMPI CALLER PUSH1 0x0 SWAP1 DUP2 MSTORE PUSH1 0x0 DUP1 MLOAD PUSH1 0x20 PUSH2 0x27D7 DUP4 CODECOPY DUP2 MLOAD SWAP2 MSTORE PUSH1 0x20 SWAP1 DUP2 MSTORE PUSH1 0x40 SWAP1 SWAP2 KECCAK256 SLOAD SWAP1 SWAP2 SWAP1 PUSH2 0x122E SWAP1 PUSH1 0xFF AND PUSH2 0x2266 JUMP JUMPDEST DUP9 PUSH1 0x0 MSTORE PUSH1 0x4 DUP3 MSTORE PUSH2 0x1246 PUSH1 0x40 PUSH1 0x0 KECCAK256 SLOAD ISZERO ISZERO PUSH2 0x25BF JUMP JUMPDEST PUSH2 0x1251 DUP6 ISZERO ISZERO PUSH2 0x22CC JUMP JUMPDEST PUSH2 0x125C DUP9 ISZERO ISZERO PUSH2 0x233E JUMP JUMPDEST PUSH2 0x1267 DUP5 ISZERO ISZERO PUSH2 0x239F JUMP JUMPDEST DUP9 PUSH1 0x0 MSTORE PUSH1 0x4 DUP3 MSTORE PUSH1 0x40 PUSH1 0x0 KECCAK256 SWAP2 PUSH1 0x2 DUP4 ADD PUSH1 0x40 MLOAD PUSH2 0x128A DUP2 PUSH2 0x724 DUP2 DUP6 PUSH2 0x261D JUMP JUMPDEST DUP3 DUP2 MLOAD SWAP2 ADD KECCAK256 PUSH2 0x129B CALLDATASIZE DUP13 DUP13 PUSH2 0x23FA JUMP JUMPDEST DUP4 DUP2 MLOAD SWAP2 ADD KECCAK256 SUB PUSH2 0x14C8 JUMPI JUMPDEST DUP3 DUP11 GT PUSH2 0x343 JUMPI PUSH2 0x12C2 DUP11 PUSH2 0x12BC DUP4 SLOAD PUSH2 0x2459 JUMP JUMPDEST DUP4 PUSH2 0x24AA JUMP JUMPDEST DUP10 PUSH1 0x0 PUSH1 0x1F DUP3 GT PUSH1 0x1 EQ PUSH2 0x1460 JUMPI PUSH1 0x0 SWAP2 PUSH2 0x1455 JUMPI JUMPDEST POP DUP11 PUSH1 0x1 SHL SWAP1 PUSH1 0x0 NOT DUP13 PUSH1 0x3 SHL SHR NOT AND OR SWAP1 SSTORE JUMPDEST PUSH1 0x3 DUP4 ADD SWAP2 DUP6 GT PUSH2 0x343 JUMPI PUSH2 0x130B DUP6 PUSH2 0x1305 DUP5 SLOAD PUSH2 0x2459 JUMP JUMPDEST DUP5 PUSH2 0x24AA JUMP JUMPDEST PUSH1 0x0 SWAP1 PUSH1 0x1F DUP7 GT PUSH1 0x1 EQ PUSH2 0x13B9 JUMPI POP DUP5 SWAP3 PUSH2 0x13A9 SWAP7 SWAP5 SWAP3 PUSH32 0x5D992D912FD498642D3B14B8CECCE52DAAC5DB1D22A5A983CBBCC912E12B3906 SWAP11 SWAP10 SWAP9 SWAP7 PUSH1 0x1 SWAP4 PUSH1 0x0 SWAP2 PUSH2 0x13AE JUMPI JUMPDEST POP PUSH1 0x0 NOT PUSH1 0x3 DUP8 SWAP1 SHL SHR NOT AND DUP6 DUP5 SHL OR SWAP1 SSTORE JUMPDEST DUP5 PUSH1 0x4 DUP3 ADD SSTORE PUSH2 0x1393 PUSH1 0x5 DUP3 ADD SWAP4 DUP4 DUP1 PUSH1 0xA0 SHL SUB SWAP5 DUP6 DUP10 AND PUSH1 0x1 PUSH1 0x1 PUSH1 0x60 SHL SUB PUSH1 0xA0 SHL DUP3 SLOAD AND OR DUP2 SSTORE PUSH2 0x24F1 JUMP JUMPDEST TIMESTAMP PUSH1 0x7 DUP3 ADD SSTORE ADD SLOAD AND SWAP9 PUSH1 0x40 MLOAD SWAP7 DUP8 SWAP7 DUP8 PUSH2 0x257D JUMP JUMPDEST SUB SWAP1 LOG3 STOP JUMPDEST SWAP1 POP DUP14 ADD CALLDATALOAD DUP15 PUSH2 0x1352 JUMP JUMPDEST SWAP1 DUP12 SWAP1 PUSH1 0x1F NOT DUP8 AND DUP5 PUSH1 0x0 MSTORE DUP4 PUSH1 0x0 KECCAK256 SWAP4 PUSH1 0x0 SWAP1 JUMPDEST DUP3 DUP3 LT PUSH2 0x1439 JUMPI POP POP SWAP3 DUP8 SWAP6 SWAP3 PUSH2 0x13A9 SWAP10 SWAP8 SWAP6 SWAP3 PUSH32 0x5D992D912FD498642D3B14B8CECCE52DAAC5DB1D22A5A983CBBCC912E12B3906 SWAP14 SWAP13 SWAP12 SWAP10 PUSH1 0x1 SWAP7 LT PUSH2 0x141F JUMPI JUMPDEST POP POP POP DUP3 DUP6 DUP2 SHL ADD SWAP1 SSTORE PUSH2 0x1365 JUMP JUMPDEST ADD CALLDATALOAD PUSH1 0x0 NOT PUSH1 0x3 DUP9 SWAP1 SHL PUSH1 0xF8 AND SHR NOT AND SWAP1 SSTORE DUP14 DUP14 DUP2 PUSH2 0x1410 JUMP JUMPDEST PUSH1 0x1 DUP5 SWAP7 DUP3 SWAP5 SWAP6 DUP4 SWAP5 SWAP8 ADD CALLDATALOAD DUP2 SSTORE ADD SWAP6 ADD SWAP4 ADD DUP15 SWAP4 SWAP3 SWAP2 PUSH2 0x13CE JUMP JUMPDEST SWAP1 POP DUP10 ADD CALLDATALOAD DUP14 PUSH2 0x12D8 JUMP JUMPDEST PUSH1 0x0 DUP4 DUP2 MSTORE DUP5 DUP2 KECCAK256 SWAP3 POP DUP13 SWAP1 PUSH1 0x1F NOT DUP3 AND SWAP1 DUP7 DUP15 JUMPDEST DUP4 DUP4 LT PUSH2 0x14AE JUMPI POP POP POP LT PUSH2 0x1494 JUMPI JUMPDEST POP POP PUSH1 0x1 DUP11 DUP2 SHL ADD SWAP1 SSTORE PUSH2 0x12EC JUMP JUMPDEST DUP11 ADD CALLDATALOAD PUSH1 0x0 NOT PUSH1 0x3 DUP14 SWAP1 SHL PUSH1 0xF8 AND SHR NOT AND SWAP1 SSTORE DUP13 DUP1 PUSH2 0x1485 JUMP JUMPDEST DUP6 ADD CALLDATALOAD DUP7 SSTORE PUSH1 0x1 SWAP1 SWAP6 ADD SWAP5 SWAP4 DUP5 ADD SWAP4 DUP16 SWAP4 POP ADD DUP7 DUP15 PUSH2 0x1475 JUMP JUMPDEST PUSH2 0x14E2 DUP12 PUSH1 0x40 MLOAD PUSH2 0x14DD DUP2 PUSH2 0x724 DUP2 DUP8 PUSH2 0x261D JUMP JUMPDEST PUSH2 0x2713 JUMP JUMPDEST PUSH2 0x1501 DUP12 DUP12 DUP5 DUP13 DUP3 PUSH1 0x40 MLOAD SWAP4 DUP5 SWAP3 DUP4 CALLDATACOPY DUP2 ADD PUSH1 0x6 DUP2 MSTORE SUB ADD SWAP1 KECCAK256 PUSH2 0x2539 JUMP JUMPDEST PUSH2 0x12A7 JUMP JUMPDEST CALLVALUE PUSH2 0x1BD JUMPI PUSH1 0x40 CALLDATASIZE PUSH1 0x3 NOT ADD SLT PUSH2 0x1BD JUMPI PUSH2 0x151F PUSH2 0x1FB4 JUMP JUMPDEST PUSH1 0x4 CALLDATALOAD PUSH1 0x0 MSTORE PUSH1 0x0 PUSH1 0x20 MSTORE PUSH1 0x40 PUSH1 0x0 KECCAK256 SWAP1 PUSH1 0x1 DUP1 PUSH1 0xA0 SHL SUB AND PUSH1 0x0 MSTORE PUSH1 0x20 MSTORE PUSH1 0x20 PUSH1 0xFF PUSH1 0x40 PUSH1 0x0 KECCAK256 SLOAD AND PUSH1 0x40 MLOAD SWAP1 ISZERO ISZERO DUP2 MSTORE RETURN JUMPDEST CALLVALUE PUSH2 0x1BD JUMPI PUSH1 0x0 CALLDATASIZE PUSH1 0x3 NOT ADD SLT PUSH2 0x1BD JUMPI PUSH1 0x2 SLOAD PUSH1 0x40 MLOAD PUSH1 0x1 PUSH1 0x1 PUSH1 0xA0 SHL SUB SWAP1 SWAP2 AND DUP2 MSTORE PUSH1 0x20 SWAP1 RETURN JUMPDEST CALLVALUE PUSH2 0x1BD JUMPI PUSH1 0x20 CALLDATASIZE PUSH1 0x3 NOT ADD SLT PUSH2 0x1BD JUMPI PUSH2 0x5DD CALLER PUSH1 0x4 CALLDATALOAD PUSH2 0x2116 JUMP JUMPDEST CALLVALUE PUSH2 0x1BD JUMPI PUSH1 0x0 CALLDATASIZE PUSH1 0x3 NOT ADD SLT PUSH2 0x1BD JUMPI PUSH1 0x20 PUSH1 0x40 MLOAD PUSH32 0x572F022558B687EED59080237CB7778171198110A24741B57D6ED3432DF881FC DUP2 MSTORE RETURN JUMPDEST CALLVALUE PUSH2 0x1BD JUMPI PUSH1 0x20 CALLDATASIZE PUSH1 0x3 NOT ADD SLT PUSH2 0x1BD JUMPI PUSH1 0x1 PUSH1 0x1 PUSH1 0xA0 SHL SUB PUSH2 0x15F5 PUSH2 0x1FCA JUMP JUMPDEST AND PUSH1 0x0 MSTORE PUSH1 0x5 PUSH1 0x20 MSTORE PUSH1 0x40 PUSH1 0x0 KECCAK256 SLOAD DUP1 ISZERO PUSH2 0x1615 JUMPI PUSH1 0x20 SWAP1 PUSH1 0x40 MLOAD SWAP1 DUP2 MSTORE RETURN JUMPDEST PUSH1 0x40 MLOAD PUSH3 0x461BCD PUSH1 0xE5 SHL DUP2 MSTORE PUSH1 0x20 PUSH1 0x4 DUP3 ADD MSTORE PUSH1 0x27 PUSH1 0x24 DUP3 ADD MSTORE PUSH32 0x456D706C6F79656552656769737472793A2077616C6C6574206E6F7420726567 PUSH1 0x44 DUP3 ADD MSTORE PUSH7 0x1A5CDD195C9959 PUSH1 0xCA SHL PUSH1 0x64 DUP3 ADD MSTORE PUSH1 0x84 SWAP1 REVERT JUMPDEST CALLVALUE PUSH2 0x1BD JUMPI PUSH1 0x20 CALLDATASIZE PUSH1 0x3 NOT ADD SLT PUSH2 0x1BD JUMPI PUSH1 0x1 PUSH1 0x1 PUSH1 0xA0 SHL SUB PUSH2 0x168B PUSH2 0x1FCA JUMP JUMPDEST AND PUSH1 0x0 MSTORE PUSH1 0x5 PUSH1 0x20 MSTORE PUSH1 0x20 PUSH1 0x40 PUSH1 0x0 KECCAK256 SLOAD ISZERO ISZERO PUSH1 0x40 MLOAD SWAP1 DUP2 MSTORE RETURN JUMPDEST CALLVALUE PUSH2 0x1BD JUMPI PUSH1 0x0 CALLDATASIZE PUSH1 0x3 NOT ADD SLT PUSH2 0x1BD JUMPI PUSH1 0x20 PUSH1 0x40 MLOAD PUSH32 0xA49807205CE4D355092EF5A8A18F56E8913CF4A201FBE287825B095693C21775 DUP2 MSTORE RETURN JUMPDEST CALLVALUE PUSH2 0x1BD JUMPI PUSH1 0x0 CALLDATASIZE PUSH1 0x3 NOT ADD SLT PUSH2 0x1BD JUMPI PUSH1 0x20 PUSH1 0x7 SLOAD PUSH1 0x40 MLOAD SWAP1 DUP2 MSTORE RETURN JUMPDEST CALLVALUE PUSH2 0x1BD JUMPI PUSH1 0x20 CALLDATASIZE PUSH1 0x3 NOT ADD SLT PUSH2 0x1BD JUMPI PUSH1 0x4 CALLDATALOAD PUSH1 0x0 MSTORE PUSH1 0x4 PUSH1 0x20 MSTORE PUSH1 0x20 PUSH1 0x40 PUSH1 0x0 KECCAK256 SLOAD ISZERO ISZERO PUSH1 0x40 MLOAD SWAP1 DUP2 MSTORE RETURN JUMPDEST CALLVALUE PUSH2 0x1BD JUMPI PUSH1 0x0 CALLDATASIZE PUSH1 0x3 NOT ADD SLT PUSH2 0x1BD JUMPI PUSH1 0x0 DUP1 PUSH1 0x7 SLOAD SWAP1 JUMPDEST DUP2 DUP2 LT PUSH2 0x1828 JUMPI POP PUSH2 0x1757 DUP3 PUSH2 0x26FB JUMP JUMPDEST SWAP2 PUSH2 0x1765 PUSH1 0x40 MLOAD SWAP4 DUP5 PUSH2 0x2096 JUMP JUMPDEST DUP1 DUP4 MSTORE PUSH2 0x1774 PUSH1 0x1F NOT SWAP2 PUSH2 0x26FB JUMP JUMPDEST ADD PUSH1 0x20 SWAP1 CALLDATASIZE DUP3 DUP6 ADD CALLDATACOPY PUSH1 0x0 DUP1 JUMPDEST DUP4 DUP3 LT PUSH2 0x1796 JUMPI PUSH1 0x40 MLOAD DUP1 PUSH2 0x1A2 DUP8 DUP3 PUSH2 0x1F79 JUMP JUMPDEST PUSH2 0x179F DUP3 PUSH2 0x20B8 JUMP JUMPDEST SWAP1 SLOAD PUSH1 0x3 SWAP2 DUP3 SHL SHR PUSH1 0x0 MSTORE PUSH1 0x4 DUP5 MSTORE PUSH1 0x5 SWAP1 PUSH1 0xFF DUP3 PUSH1 0x40 PUSH1 0x0 KECCAK256 ADD SLOAD PUSH1 0xA8 SHR AND DUP2 DUP2 LT ISZERO PUSH2 0x851 JUMPI ISZERO PUSH2 0x17DF JUMPI JUMPDEST POP POP SWAP1 PUSH2 0x17D9 SWAP1 PUSH2 0x2107 JUMP JUMPDEST SWAP1 PUSH2 0x1781 JUMP JUMPDEST PUSH2 0x17E8 DUP5 PUSH2 0x20B8 JUMP JUMPDEST SWAP1 SLOAD SWAP2 SHL SHR SWAP2 DUP7 MLOAD DUP2 LT ISZERO PUSH2 0x1812 JUMPI PUSH2 0x17D9 SWAP3 DUP6 DUP3 PUSH2 0x180B SWAP5 SHL DUP10 ADD ADD MSTORE PUSH2 0x2107 JUMP JUMPDEST SWAP1 DUP7 PUSH2 0x17CD JUMP JUMPDEST PUSH4 0x4E487B71 PUSH1 0xE0 SHL PUSH1 0x0 MSTORE PUSH1 0x32 PUSH1 0x4 MSTORE PUSH1 0x24 PUSH1 0x0 REVERT JUMPDEST PUSH2 0x1831 DUP2 PUSH2 0x20B8 JUMP JUMPDEST SWAP1 SLOAD PUSH1 0x3 SWAP2 DUP3 SHL SHR PUSH1 0x0 MSTORE PUSH1 0x4 PUSH1 0x20 MSTORE PUSH1 0xFF PUSH1 0x5 PUSH1 0x40 PUSH1 0x0 KECCAK256 ADD SLOAD PUSH1 0xA8 SHR AND SWAP1 DUP2 LT ISZERO PUSH2 0x851 JUMPI ISZERO PUSH2 0x186C JUMPI JUMPDEST PUSH2 0x1867 SWAP1 PUSH2 0x2107 JUMP JUMPDEST PUSH2 0x1746 JUMP JUMPDEST SWAP2 PUSH2 0x1879 PUSH2 0x1867 SWAP2 PUSH2 0x2107 JUMP JUMPDEST SWAP3 SWAP1 POP PUSH2 0x185E JUMP JUMPDEST CALLVALUE PUSH2 0x1BD JUMPI PUSH1 0x40 CALLDATASIZE PUSH1 0x3 NOT ADD SLT PUSH2 0x1BD JUMPI PUSH1 0x4 CALLDATALOAD PUSH2 0x189D PUSH2 0x1FB4 JUMP JUMPDEST CALLER PUSH1 0x0 SWAP1 DUP2 MSTORE PUSH1 0x0 DUP1 MLOAD PUSH1 0x20 PUSH2 0x27B7 DUP4 CODECOPY DUP2 MLOAD SWAP2 MSTORE PUSH1 0x20 SWAP1 DUP2 MSTORE PUSH1 0x40 SWAP1 SWAP2 KECCAK256 SLOAD SWAP1 SWAP2 SWAP1 PUSH1 0xFF AND DUP1 ISZERO PUSH2 0x1A3D JUMPI JUMPDEST ISZERO PUSH2 0x19DB JUMPI PUSH1 0x1 PUSH1 0x1 PUSH1 0xA0 SHL SUB DUP2 AND SWAP2 DUP3 ISZERO PUSH2 0x197E JUMPI DUP4 PUSH1 0x0 MSTORE PUSH1 0x0 DUP2 MSTORE PUSH1 0x40 PUSH1 0x0 KECCAK256 DUP4 PUSH1 0x0 MSTORE DUP2 MSTORE PUSH1 0xFF PUSH1 0x40 PUSH1 0x0 KECCAK256 SLOAD AND ISZERO PUSH2 0x1903 JUMPI STOP JUMPDEST PUSH1 0x1 SWAP1 DUP5 PUSH1 0x0 MSTORE PUSH1 0x0 DUP2 MSTORE PUSH1 0x40 PUSH1 0x0 KECCAK256 DUP5 PUSH1 0x0 MSTORE DUP2 MSTORE PUSH1 0x40 PUSH1 0x0 KECCAK256 DUP3 PUSH1 0xFF NOT DUP3 SLOAD AND OR SWAP1 SSTORE DUP5 PUSH1 0x0 MSTORE MSTORE PUSH1 0x40 PUSH1 0x0 KECCAK256 SWAP1 DUP2 SLOAD SWAP2 PUSH1 0x1 PUSH1 0x40 SHL DUP4 LT ISZERO PUSH2 0x343 JUMPI DUP3 PUSH2 0x2F4 SWAP2 PUSH1 0x1 PUSH2 0x1955 SWAP6 ADD DUP2 SSTORE PUSH2 0x20EF JUMP JUMPDEST CALLER SWAP2 PUSH32 0x2F8788117E7EFF1D82E926EC794901D17C78024A50270940304540A733656F0D PUSH1 0x0 DUP1 LOG4 STOP JUMPDEST PUSH1 0x84 SWAP1 PUSH1 0x40 MLOAD SWAP1 PUSH3 0x461BCD PUSH1 0xE5 SHL DUP3 MSTORE PUSH1 0x4 DUP3 ADD MSTORE PUSH1 0x30 PUSH1 0x24 DUP3 ADD MSTORE PUSH32 0x416363657373436F6E74726F6C3A2063616E6E6F74206772616E7420726F6C65 PUSH1 0x44 DUP3 ADD MSTORE PUSH16 0x20746F207A65726F2061646472657373 PUSH1 0x80 SHL PUSH1 0x64 DUP3 ADD MSTORE REVERT JUMPDEST PUSH1 0x40 MLOAD PUSH3 0x461BCD PUSH1 0xE5 SHL DUP2 MSTORE PUSH1 0x4 DUP2 ADD DUP4 SWAP1 MSTORE PUSH1 0x34 PUSH1 0x24 DUP3 ADD MSTORE PUSH32 0x416363657373436F6E74726F6C3A206D757374206265206F776E6572206F7220 PUSH1 0x44 DUP3 ADD MSTORE PUSH20 0x61646D696E20746F206772616E7420726F6C6573 PUSH1 0x60 SHL PUSH1 0x64 DUP3 ADD MSTORE PUSH1 0x84 SWAP1 REVERT JUMPDEST POP PUSH32 0xA49807205CE4D355092EF5A8A18F56E8913CF4A201FBE287825B095693C21775 PUSH1 0x0 MSTORE PUSH1 0x0 DUP3 MSTORE PUSH1 0x40 PUSH1 0x0 KECCAK256 CALLER PUSH1 0x0 MSTORE DUP3 MSTORE PUSH1 0xFF PUSH1 0x40 PUSH1 0x0 KECCAK256 SLOAD AND PUSH2 0x18CA JUMP JUMPDEST CALLVALUE PUSH2 0x1BD JUMPI PUSH1 0x0 CALLDATASIZE PUSH1 0x3 NOT ADD SLT PUSH2 0x1BD JUMPI PUSH1 0x20 PUSH1 0x40 MLOAD PUSH1 0x0 DUP1 MLOAD PUSH1 0x20 PUSH2 0x27F7 DUP4 CODECOPY DUP2 MLOAD SWAP2 MSTORE DUP2 MSTORE RETURN JUMPDEST CALLVALUE PUSH2 0x1BD JUMPI PUSH1 0x20 CALLDATASIZE PUSH1 0x3 NOT ADD SLT PUSH2 0x1BD JUMPI CALLER PUSH1 0x0 SWAP1 DUP2 MSTORE PUSH1 0x0 DUP1 MLOAD PUSH1 0x20 PUSH2 0x27D7 DUP4 CODECOPY DUP2 MLOAD SWAP2 MSTORE PUSH1 0x20 MSTORE PUSH1 0x40 SWAP1 KECCAK256 SLOAD PUSH1 0xFF SWAP1 PUSH32 0xA49807205CE4D355092EF5A8A18F56E8913CF4A201FBE287825B095693C21775 SWAP1 PUSH2 0x1B06 SWAP1 DUP4 AND PUSH2 0x2266 JUMP JUMPDEST PUSH1 0x4 CALLDATALOAD PUSH1 0x0 MSTORE PUSH1 0x4 PUSH1 0x20 MSTORE PUSH2 0x1B21 PUSH1 0x40 PUSH1 0x0 KECCAK256 SLOAD ISZERO ISZERO PUSH2 0x25BF JUMP JUMPDEST PUSH1 0x4 CALLDATALOAD PUSH1 0x0 MSTORE PUSH1 0x4 PUSH1 0x20 MSTORE PUSH1 0x40 PUSH1 0x0 KECCAK256 SWAP1 PUSH1 0x40 MLOAD SWAP3 PUSH2 0x1B3F DUP5 PUSH2 0x2079 JUMP JUMPDEST DUP3 SLOAD DUP5 MSTORE PUSH1 0x1 DUP4 ADD SLOAD PUSH1 0x1 PUSH1 0x1 PUSH1 0xA0 SHL SUB AND PUSH1 0x20 DUP6 ADD MSTORE PUSH1 0x40 MLOAD PUSH2 0x1B6A DUP2 PUSH2 0x724 DUP2 PUSH1 0x2 DUP9 ADD PUSH2 0x261D JUMP JUMPDEST PUSH1 0x40 DUP6 ADD MSTORE PUSH1 0x40 MLOAD PUSH2 0x1B83 DUP2 PUSH2 0x724 DUP2 PUSH1 0x3 DUP9 ADD PUSH2 0x261D JUMP JUMPDEST PUSH1 0x60 DUP6 ADD MSTORE PUSH1 0x4 DUP4 ADD SLOAD PUSH1 0x80 DUP6 ADD MSTORE PUSH2 0x1BC8 DUP2 PUSH1 0x5 DUP6 ADD SLOAD PUSH1 0x1 DUP1 PUSH1 0xA0 SHL SUB DUP2 AND PUSH1 0xA0 DUP9 ADD MSTORE PUSH2 0x1BBB DUP3 DUP3 PUSH1 0xA0 SHR AND PUSH1 0xC0 DUP10 ADD PUSH2 0x2441 JUMP JUMPDEST PUSH1 0xA8 SHR AND PUSH1 0xE0 DUP7 ADD PUSH2 0x244D JUMP JUMPDEST PUSH1 0x6 DUP4 ADD SLOAD PUSH2 0x100 DUP6 ADD MSTORE PUSH1 0x7 SWAP3 DUP4 ADD SLOAD PUSH2 0x120 DUP6 ADD MSTORE PUSH1 0x20 DUP1 DUP6 ADD MLOAD CALLER PUSH1 0x0 SWAP1 DUP2 MSTORE PUSH1 0x0 DUP1 MLOAD PUSH1 0x20 PUSH2 0x27B7 DUP4 CODECOPY DUP2 MLOAD SWAP2 MSTORE SWAP1 SWAP3 MSTORE PUSH1 0x40 SWAP1 SWAP2 KECCAK256 SLOAD PUSH1 0x1 PUSH1 0x1 PUSH1 0xA0 SHL SUB SWAP1 SWAP2 AND SWAP3 SWAP1 DUP3 AND SWAP1 DUP2 ISZERO PUSH2 0x1EDE JUMPI JUMPDEST POP ISZERO PUSH2 0x5DF JUMPI PUSH1 0x0 DUP3 DUP2 MSTORE PUSH32 0x7859A94BAA94829FCC245B7FF1854B60EFD65DAF0966ED82492401168584C4B1 PUSH1 0x20 MSTORE PUSH1 0x40 SWAP1 KECCAK256 SLOAD AND PUSH2 0x1D93 JUMPI JUMPDEST POP PUSH1 0x1 DUP1 PUSH1 0xA0 SHL SUB PUSH1 0x20 DUP4 ADD MLOAD AND PUSH1 0x0 MSTORE PUSH1 0x5 PUSH1 0x20 MSTORE PUSH1 0x0 PUSH1 0x40 DUP2 KECCAK256 SSTORE PUSH2 0x1C81 PUSH1 0x4 CALLDATALOAD PUSH1 0x40 DUP5 ADD MLOAD PUSH2 0x2713 JUMP JUMPDEST PUSH1 0x0 SWAP1 JUMPDEST DUP1 SLOAD DUP1 DUP4 LT ISZERO PUSH2 0x1D89 JUMPI PUSH2 0x1C98 DUP4 PUSH2 0x20B8 JUMP JUMPDEST PUSH1 0x4 CALLDATALOAD SWAP2 SLOAD SWAP1 PUSH1 0x3 SHL SHR EQ PUSH2 0x1CB8 JUMPI POP SWAP1 PUSH2 0x1CB2 SWAP1 PUSH2 0x2107 JUMP JUMPDEST SWAP1 PUSH2 0x1C85 JUMP JUMPDEST PUSH1 0x0 NOT SWAP3 DUP2 DUP5 ADD SWAP2 DUP3 GT PUSH2 0x488 JUMPI PUSH2 0xBA5 PUSH2 0x1CD5 PUSH2 0x1CE2 SWAP4 PUSH2 0x20B8 JUMP JUMPDEST SWAP1 SLOAD SWAP1 PUSH1 0x3 SHL SHR SWAP2 PUSH2 0x20B8 JUMP JUMPDEST DUP1 SLOAD SWAP2 DUP3 ISZERO PUSH2 0x472 JUMPI PUSH1 0x0 SWAP3 ADD PUSH2 0x1D0C PUSH2 0x1CFB DUP3 PUSH2 0x20B8 JUMP JUMPDEST DUP2 SLOAD SWAP1 PUSH1 0x0 NOT SWAP1 PUSH1 0x3 SHL SHL NOT AND SWAP1 SSTORE JUMP JUMPDEST DUP2 SSTORE JUMPDEST PUSH1 0x4 CALLDATALOAD DUP3 MSTORE PUSH1 0x4 PUSH1 0x20 MSTORE PUSH1 0x40 DUP3 KECCAK256 DUP3 DUP2 SSTORE DUP3 PUSH1 0x1 DUP3 ADD SSTORE PUSH2 0x1D32 PUSH1 0x2 DUP3 ADD PUSH2 0x26B2 JUMP JUMPDEST PUSH2 0x1D3E PUSH1 0x3 DUP3 ADD PUSH2 0x26B2 JUMP JUMPDEST DUP3 PUSH1 0x4 DUP3 ADD SSTORE DUP3 PUSH1 0x5 DUP3 ADD SSTORE DUP3 PUSH1 0x6 DUP3 ADD SSTORE ADD SSTORE PUSH1 0x20 PUSH1 0x1 DUP1 PUSH1 0xA0 SHL SUB SWAP2 ADD MLOAD AND PUSH1 0x4 CALLDATALOAD PUSH32 0xDFCC7E5BABFA5DDE64E1E03185335F35DD50CCEE8CACA36C8F16E0772E00E7E0 PUSH1 0x0 DUP1 LOG3 STOP JUMPDEST POP PUSH1 0x0 SWAP2 POP PUSH2 0x1D0F JUMP JUMPDEST PUSH1 0x0 DUP2 DUP2 MSTORE PUSH32 0x7859A94BAA94829FCC245B7FF1854B60EFD65DAF0966ED82492401168584C4B1 PUSH1 0x20 SWAP1 DUP2 MSTORE PUSH1 0x40 DUP3 KECCAK256 DUP1 SLOAD PUSH1 0xFF NOT AND SWAP1 SSTORE PUSH1 0x0 DUP1 MLOAD PUSH1 0x20 PUSH2 0x27F7 DUP4 CODECOPY DUP2 MLOAD SWAP2 MSTORE DUP3 MSTORE PUSH1 0x1 SWAP1 MSTORE PUSH32 0x5D9605DEF7498C81DA30F52667702ECADCCAA72C017DE11B5559641989A21DCD SWAP3 SWAP2 SWAP1 JUMPDEST DUP4 SLOAD DUP1 DUP3 LT ISZERO PUSH2 0x1ED4 JUMPI DUP3 PUSH2 0x1E19 DUP4 DUP8 PUSH2 0x20EF JUMP JUMPDEST SWAP1 SLOAD PUSH1 0x3 SWAP2 SWAP1 SWAP2 SHL SHR PUSH1 0x1 PUSH1 0x1 PUSH1 0xA0 SHL SUB AND EQ PUSH2 0x1E3F JUMPI POP PUSH2 0x1E3A SWAP1 PUSH2 0x2107 JUMP JUMPDEST PUSH2 0x1E04 JUMP JUMPDEST SWAP1 DUP2 PUSH1 0x0 SWAP6 SWAP4 SWAP5 SWAP6 NOT DUP2 ADD GT PUSH2 0x488 JUMPI PUSH2 0x2F4 PUSH2 0x1E63 PUSH2 0x1E7C SWAP4 PUSH1 0x0 NOT ADD DUP6 PUSH2 0x20EF JUMP JUMPDEST SWAP1 SLOAD PUSH1 0x3 SWAP2 SWAP1 SWAP2 SHL SHR PUSH1 0x1 PUSH1 0x1 PUSH1 0xA0 SHL SUB AND SWAP2 DUP5 PUSH2 0x20EF JUMP JUMPDEST DUP1 SLOAD DUP1 ISZERO PUSH2 0x472 JUMPI PUSH1 0x0 NOT ADD SWAP1 PUSH2 0x1E96 PUSH2 0x450 DUP4 DUP4 PUSH2 0x20EF JUMP JUMPDEST SSTORE JUMPDEST CALLER SWAP1 PUSH1 0x0 DUP1 MLOAD PUSH1 0x20 PUSH2 0x27F7 DUP4 CODECOPY DUP2 MLOAD SWAP2 MSTORE PUSH32 0xF6391F5C32D9C69D2A47EA670B442974B53935D1EDC7FD64EB21E047A839171B PUSH1 0x0 DUP1 LOG4 DUP3 PUSH2 0x1C54 JUMP JUMPDEST POP POP SWAP1 SWAP2 POP PUSH2 0x1E98 JUMP JUMPDEST SWAP1 POP PUSH1 0x0 MSTORE PUSH1 0x0 PUSH1 0x20 MSTORE PUSH1 0x40 PUSH1 0x0 KECCAK256 CALLER PUSH1 0x0 MSTORE PUSH1 0x20 MSTORE DUP1 PUSH1 0x40 PUSH1 0x0 KECCAK256 SLOAD AND DUP6 PUSH2 0x1C1A JUMP JUMPDEST CALLVALUE PUSH2 0x1BD JUMPI PUSH1 0x0 CALLDATASIZE PUSH1 0x3 NOT ADD SLT PUSH2 0x1BD JUMPI PUSH1 0x7 SLOAD SWAP1 DUP2 DUP2 MSTORE PUSH1 0x20 DUP1 DUP3 ADD SWAP3 PUSH1 0x7 PUSH1 0x0 MSTORE PUSH32 0xA66CC928B5EDB82AF9BD49922954155AB7B0942694BEA4CE44661D9A8736C688 SWAP2 PUSH1 0x0 SWAP1 JUMPDEST DUP3 DUP3 LT PUSH2 0x1F62 JUMPI PUSH2 0x1A2 DUP6 PUSH2 0x196 DUP2 DUP10 SUB DUP3 PUSH2 0x2096 JUMP JUMPDEST DUP4 SLOAD DUP7 MSTORE SWAP5 DUP6 ADD SWAP5 PUSH1 0x1 SWAP4 DUP5 ADD SWAP4 SWAP1 SWAP2 ADD SWAP1 PUSH2 0x1F4B JUMP JUMPDEST PUSH1 0x20 SWAP1 DUP2 PUSH1 0x40 DUP2 DUP4 ADD SWAP3 DUP3 DUP2 MSTORE DUP6 MLOAD DUP1 SWAP5 MSTORE ADD SWAP4 ADD SWAP2 PUSH1 0x0 JUMPDEST DUP3 DUP2 LT PUSH2 0x1FA0 JUMPI POP POP POP POP SWAP1 JUMP JUMPDEST DUP4 MLOAD DUP6 MSTORE SWAP4 DUP2 ADD SWAP4 SWAP3 DUP2 ADD SWAP3 PUSH1 0x1 ADD PUSH2 0x1F92 JUMP JUMPDEST PUSH1 0x24 CALLDATALOAD SWAP1 PUSH1 0x1 PUSH1 0x1 PUSH1 0xA0 SHL SUB DUP3 AND DUP3 SUB PUSH2 0x1BD JUMPI JUMP JUMPDEST PUSH1 0x4 CALLDATALOAD SWAP1 PUSH1 0x1 PUSH1 0x1 PUSH1 0xA0 SHL SUB DUP3 AND DUP3 SUB PUSH2 0x1BD JUMPI JUMP JUMPDEST PUSH1 0x84 CALLDATALOAD SWAP1 PUSH1 0x1 PUSH1 0x1 PUSH1 0xA0 SHL SUB DUP3 AND DUP3 SUB PUSH2 0x1BD JUMPI JUMP JUMPDEST SWAP2 DUP2 PUSH1 0x1F DUP5 ADD SLT ISZERO PUSH2 0x1BD JUMPI DUP3 CALLDATALOAD SWAP2 PUSH8 0xFFFFFFFFFFFFFFFF DUP4 GT PUSH2 0x1BD JUMPI PUSH1 0x20 DUP4 DUP2 DUP7 ADD SWAP6 ADD ADD GT PUSH2 0x1BD JUMPI JUMP JUMPDEST PUSH1 0x0 JUMPDEST DUP4 DUP2 LT PUSH2 0x2037 JUMPI POP POP PUSH1 0x0 SWAP2 ADD MSTORE JUMP JUMPDEST DUP2 DUP2 ADD MLOAD DUP4 DUP3 ADD MSTORE PUSH1 0x20 ADD PUSH2 0x2027 JUMP JUMPDEST SWAP1 PUSH1 0x20 SWAP2 PUSH2 0x2060 DUP2 MLOAD DUP1 SWAP3 DUP2 DUP6 MSTORE DUP6 DUP1 DUP7 ADD SWAP2 ADD PUSH2 0x2024 JUMP JUMPDEST PUSH1 0x1F ADD PUSH1 0x1F NOT AND ADD ADD SWAP1 JUMP JUMPDEST SWAP1 PUSH1 0x3 DUP3 LT ISZERO PUSH2 0x851 JUMPI MSTORE JUMP JUMPDEST PUSH2 0x140 DUP2 ADD SWAP1 DUP2 LT PUSH8 0xFFFFFFFFFFFFFFFF DUP3 GT OR PUSH2 0x343 JUMPI PUSH1 0x40 MSTORE JUMP JUMPDEST SWAP1 PUSH1 0x1F DUP1 NOT SWAP2 ADD AND DUP2 ADD SWAP1 DUP2 LT PUSH8 0xFFFFFFFFFFFFFFFF DUP3 GT OR PUSH2 0x343 JUMPI PUSH1 0x40 MSTORE JUMP JUMPDEST PUSH1 0x7 SLOAD DUP2 LT ISZERO PUSH2 0x1812 JUMPI PUSH1 0x7 PUSH1 0x0 MSTORE PUSH32 0xA66CC928B5EDB82AF9BD49922954155AB7B0942694BEA4CE44661D9A8736C688 ADD SWAP1 PUSH1 0x0 SWAP1 JUMP JUMPDEST DUP1 SLOAD DUP3 LT ISZERO PUSH2 0x1812 JUMPI PUSH1 0x0 MSTORE PUSH1 0x20 PUSH1 0x0 KECCAK256 ADD SWAP1 PUSH1 0x0 SWAP1 JUMP JUMPDEST PUSH1 0x0 NOT DUP2 EQ PUSH2 0x488 JUMPI PUSH1 0x1 ADD SWAP1 JUMP JUMPDEST PUSH1 0x0 DUP2 DUP2 MSTORE PUSH1 0x20 DUP2 DUP2 MSTORE PUSH1 0x40 DUP1 DUP4 KECCAK256 PUSH1 0x1 PUSH1 0x1 PUSH1 0xA0 SHL SUB SWAP6 DUP7 AND DUP1 DUP6 MSTORE SWAP3 MSTORE DUP3 KECCAK256 SLOAD SWAP2 SWAP3 SWAP1 SWAP2 PUSH1 0xFF AND PUSH2 0x214A JUMPI JUMPDEST POP POP POP POP JUMP JUMPDEST DUP1 DUP4 MSTORE DUP3 PUSH1 0x20 MSTORE PUSH1 0x40 DUP4 KECCAK256 DUP3 DUP5 MSTORE PUSH1 0x20 MSTORE PUSH1 0x40 DUP4 KECCAK256 PUSH1 0xFF NOT DUP2 SLOAD AND SWAP1 SSTORE DUP1 DUP4 MSTORE PUSH1 0x1 SWAP4 DUP5 PUSH1 0x20 MSTORE PUSH1 0x40 DUP5 KECCAK256 SWAP1 DUP6 DUP6 SWAP1 JUMPDEST PUSH2 0x21B4 JUMPI JUMPDEST POP POP POP SWAP1 SWAP2 SWAP3 POP PUSH32 0xF6391F5C32D9C69D2A47EA670B442974B53935D1EDC7FD64EB21E047A839171B CALLER SWAP4 DUP1 LOG4 CODESIZE DUP1 DUP1 DUP1 PUSH2 0x2144 JUMP JUMPDEST DUP3 SLOAD DUP1 DUP3 LT ISZERO PUSH2 0x2260 JUMPI DUP3 DUP7 PUSH2 0x21CA DUP5 DUP8 PUSH2 0x20EF JUMP JUMPDEST SWAP3 SWAP1 SLOAD PUSH1 0x3 SWAP4 DUP5 SHL SHR AND EQ PUSH2 0x21EA JUMPI POP POP PUSH2 0x21E4 SWAP1 PUSH2 0x2107 JUMP JUMPDEST DUP7 PUSH2 0x217A JUMP JUMPDEST SWAP1 SWAP4 SWAP5 SWAP6 SWAP7 SWAP8 POP PUSH1 0x0 SWAP3 SWAP2 SWAP3 NOT SWAP4 DUP5 DUP2 ADD SWAP1 DUP2 GT PUSH2 0x224C JUMPI SWAP2 PUSH2 0x2F4 SWAP2 PUSH2 0x42C PUSH2 0x2215 SWAP6 SWAP5 DUP9 PUSH2 0x20EF JUMP JUMPDEST DUP2 SLOAD DUP1 ISZERO PUSH2 0x2238 JUMPI ADD SWAP1 PUSH2 0x222C PUSH2 0x450 DUP4 DUP4 PUSH2 0x20EF JUMP JUMPDEST SSTORE SWAP1 DUP3 SWAP2 CODESIZE DUP1 DUP1 PUSH2 0x217F JUMP JUMPDEST PUSH4 0x4E487B71 PUSH1 0xE0 SHL DUP7 MSTORE PUSH1 0x31 PUSH1 0x4 MSTORE PUSH1 0x24 DUP7 REVERT JUMPDEST PUSH4 0x4E487B71 PUSH1 0xE0 SHL DUP10 MSTORE PUSH1 0x11 PUSH1 0x4 MSTORE PUSH1 0x24 DUP10 REVERT JUMPDEST POP PUSH2 0x217F JUMP JUMPDEST ISZERO PUSH2 0x226D JUMPI JUMP JUMPDEST PUSH1 0x40 MLOAD PUSH3 0x461BCD PUSH1 0xE5 SHL DUP2 MSTORE PUSH1 0x20 PUSH1 0x4 DUP3 ADD MSTORE PUSH1 0x31 PUSH1 0x24 DUP3 ADD MSTORE PUSH32 0x416363657373436F6E74726F6C3A2073656E64657220646F6573206E6F742068 PUSH1 0x44 DUP3 ADD MSTORE PUSH17 0x61766520726571756972656420726F6C65 PUSH1 0x78 SHL PUSH1 0x64 DUP3 ADD MSTORE PUSH1 0x84 SWAP1 REVERT JUMPDEST ISZERO PUSH2 0x22D3 JUMPI JUMP JUMPDEST PUSH1 0x40 MLOAD PUSH3 0x461BCD PUSH1 0xE5 SHL DUP2 MSTORE PUSH1 0x20 PUSH1 0x4 DUP3 ADD MSTORE PUSH1 0x39 PUSH1 0x24 DUP3 ADD MSTORE PUSH32 0x456D706C6F79656552656769737472793A2073616C61727920616D6F756E7420 PUSH1 0x44 DUP3 ADD MSTORE PUSH32 0x6D7573742062652067726561746572207468616E207A65726F00000000000000 PUSH1 0x64 DUP3 ADD MSTORE PUSH1 0x84 SWAP1 REVERT JUMPDEST ISZERO PUSH2 0x2345 JUMPI JUMP JUMPDEST PUSH1 0x40 MLOAD PUSH3 0x461BCD PUSH1 0xE5 SHL DUP2 MSTORE PUSH1 0x20 PUSH1 0x4 DUP3 ADD MSTORE PUSH1 0x2C PUSH1 0x24 DUP3 ADD MSTORE PUSH32 0x456D706C6F79656552656769737472793A206465706172746D656E742063616E PUSH1 0x44 DUP3 ADD MSTORE PUSH12 0x6E6F7420626520656D707479 PUSH1 0xA0 SHL PUSH1 0x64 DUP3 ADD MSTORE PUSH1 0x84 SWAP1 REVERT JUMPDEST ISZERO PUSH2 0x23A6 JUMPI JUMP JUMPDEST PUSH1 0x40 MLOAD PUSH3 0x461BCD PUSH1 0xE5 SHL DUP2 MSTORE PUSH1 0x20 PUSH1 0x4 DUP3 ADD MSTORE PUSH1 0x26 PUSH1 0x24 DUP3 ADD MSTORE PUSH32 0x456D706C6F79656552656769737472793A20726F6C652063616E6E6F74206265 PUSH1 0x44 DUP3 ADD MSTORE PUSH6 0x20656D707479 PUSH1 0xD0 SHL PUSH1 0x64 DUP3 ADD MSTORE PUSH1 0x84 SWAP1 REVERT JUMPDEST SWAP3 SWAP2 SWAP3 PUSH8 0xFFFFFFFFFFFFFFFF DUP3 GT PUSH2 0x343 JUMPI PUSH1 0x40 MLOAD SWAP2 PUSH2 0x2424 PUSH1 0x1F DUP3 ADD PUSH1 0x1F NOT AND PUSH1 0x20 ADD DUP5 PUSH2 0x2096 JUMP JUMPDEST DUP3 SWAP5 DUP2 DUP5 MSTORE DUP2 DUP4 ADD GT PUSH2 0x1BD JUMPI DUP3 DUP2 PUSH1 0x20 SWAP4 DUP5 PUSH1 0x0 SWAP7 ADD CALLDATACOPY ADD ADD MSTORE JUMP JUMPDEST PUSH1 0x5 DUP3 LT ISZERO PUSH2 0x851 JUMPI MSTORE JUMP JUMPDEST PUSH1 0x3 DUP3 LT ISZERO PUSH2 0x851 JUMPI MSTORE JUMP JUMPDEST SWAP1 PUSH1 0x1 DUP3 DUP2 SHR SWAP3 AND DUP1 ISZERO PUSH2 0x2489 JUMPI JUMPDEST PUSH1 0x20 DUP4 LT EQ PUSH2 0x2473 JUMPI JUMP JUMPDEST PUSH4 0x4E487B71 PUSH1 0xE0 SHL PUSH1 0x0 MSTORE PUSH1 0x22 PUSH1 0x4 MSTORE PUSH1 0x24 PUSH1 0x0 REVERT JUMPDEST SWAP2 PUSH1 0x7F AND SWAP2 PUSH2 0x2468 JUMP JUMPDEST DUP2 DUP2 LT PUSH2 0x249E JUMPI POP POP JUMP JUMPDEST PUSH1 0x0 DUP2 SSTORE PUSH1 0x1 ADD PUSH2 0x2493 JUMP JUMPDEST SWAP2 SWAP1 PUSH1 0x1F DUP2 GT PUSH2 0x24B9 JUMPI POP POP POP JUMP JUMPDEST PUSH2 0x24E5 SWAP3 PUSH1 0x0 MSTORE PUSH1 0x20 PUSH1 0x0 KECCAK256 SWAP1 PUSH1 0x20 PUSH1 0x1F DUP5 ADD PUSH1 0x5 SHR DUP4 ADD SWAP4 LT PUSH2 0x24E7 JUMPI JUMPDEST PUSH1 0x1F ADD PUSH1 0x5 SHR ADD SWAP1 PUSH2 0x2493 JUMP JUMPDEST JUMP JUMPDEST SWAP1 SWAP2 POP DUP2 SWAP1 PUSH2 0x24D8 JUMP JUMPDEST SWAP1 PUSH1 0x5 DUP2 LT ISZERO PUSH2 0x851 JUMPI DUP2 SLOAD PUSH1 0xFF PUSH1 0xA0 SHL NOT AND PUSH1 0xA0 SWAP2 SWAP1 SWAP2 SHL PUSH1 0xFF PUSH1 0xA0 SHL AND OR SWAP1 SSTORE JUMP JUMPDEST SWAP1 PUSH1 0x3 DUP2 LT ISZERO PUSH2 0x851 JUMPI DUP2 SLOAD PUSH1 0xFF PUSH1 0xA8 SHL NOT AND PUSH1 0xA8 SWAP2 SWAP1 SWAP2 SHL PUSH1 0xFF PUSH1 0xA8 SHL AND OR SWAP1 SSTORE JUMP JUMPDEST SWAP1 DUP2 SLOAD SWAP2 PUSH1 0x1 PUSH1 0x40 SHL DUP4 LT ISZERO PUSH2 0x343 JUMPI DUP3 PUSH2 0xBA5 SWAP2 PUSH1 0x1 PUSH2 0x24E5 SWAP6 ADD DUP2 SSTORE PUSH2 0x20EF JUMP JUMPDEST SWAP1 DUP1 PUSH1 0x20 SWAP4 SWAP3 DUP2 DUP5 MSTORE DUP5 DUP5 ADD CALLDATACOPY PUSH1 0x0 DUP3 DUP3 ADD DUP5 ADD MSTORE PUSH1 0x1F ADD PUSH1 0x1F NOT AND ADD ADD SWAP1 JUMP JUMPDEST SWAP5 SWAP7 SWAP6 SWAP3 SWAP1 SWAP4 PUSH2 0x259B PUSH1 0x60 SWAP6 PUSH2 0x25A9 SWAP5 PUSH1 0x80 DUP10 MSTORE PUSH1 0x80 DUP10 ADD SWAP2 PUSH2 0x255C JUMP JUMPDEST SWAP2 DUP7 DUP4 SUB PUSH1 0x20 DUP9 ADD MSTORE PUSH2 0x255C JUMP JUMPDEST PUSH1 0x40 DUP5 ADD SWAP6 SWAP1 SWAP6 MSTORE PUSH1 0x1 PUSH1 0x1 PUSH1 0xA0 SHL SUB AND SWAP2 ADD MSTORE JUMP JUMPDEST ISZERO PUSH2 0x25C6 JUMPI JUMP JUMPDEST PUSH1 0x40 MLOAD PUSH3 0x461BCD PUSH1 0xE5 SHL DUP2 MSTORE PUSH1 0x20 PUSH1 0x4 DUP3 ADD MSTORE PUSH1 0x29 PUSH1 0x24 DUP3 ADD MSTORE PUSH32 0x456D706C6F79656552656769737472793A20656D706C6F79656520646F657320 PUSH1 0x44 DUP3 ADD MSTORE PUSH9 0x1B9BDD08195E1A5CDD PUSH1 0xBA SHL PUSH1 0x64 DUP3 ADD MSTORE PUSH1 0x84 SWAP1 REVERT JUMPDEST SWAP1 PUSH1 0x0 SWAP3 SWAP2 DUP1 SLOAD SWAP2 PUSH2 0x262E DUP4 PUSH2 0x2459 JUMP JUMPDEST SWAP2 DUP3 DUP3 MSTORE PUSH1 0x1 SWAP4 DUP5 DUP2 AND SWAP1 DUP2 PUSH1 0x0 EQ PUSH2 0x268F JUMPI POP PUSH1 0x1 EQ PUSH2 0x264F JUMPI POP POP POP POP JUMP JUMPDEST SWAP1 SWAP2 SWAP4 SWAP5 POP PUSH1 0x0 MSTORE PUSH1 0x20 SWAP3 DUP4 PUSH1 0x0 KECCAK256 SWAP3 DUP5 PUSH1 0x0 SWAP5 JUMPDEST DUP4 DUP7 LT PUSH2 0x267B JUMPI POP POP POP POP ADD ADD SWAP1 CODESIZE DUP1 DUP1 DUP1 PUSH2 0x2144 JUMP JUMPDEST DUP1 SLOAD DUP6 DUP8 ADD DUP4 ADD MSTORE SWAP5 ADD SWAP4 DUP6 SWAP1 DUP3 ADD PUSH2 0x2664 JUMP JUMPDEST SWAP3 SWAP5 POP POP POP PUSH1 0x20 SWAP4 SWAP5 POP PUSH1 0xFF NOT AND DUP4 DUP4 ADD MSTORE ISZERO ISZERO PUSH1 0x5 SHL ADD ADD SWAP1 CODESIZE DUP1 DUP1 DUP1 PUSH2 0x2144 JUMP JUMPDEST PUSH2 0x26BC DUP2 SLOAD PUSH2 0x2459 JUMP JUMPDEST SWAP1 DUP2 PUSH2 0x26C6 JUMPI POP POP JUMP JUMPDEST DUP2 PUSH1 0x1F PUSH1 0x0 SWAP4 GT PUSH1 0x1 EQ PUSH2 0x26D8 JUMPI POP SSTORE JUMP JUMPDEST SWAP1 DUP1 DUP4 SWAP2 DUP3 MSTORE PUSH2 0x26F7 PUSH1 0x1F PUSH1 0x20 DUP5 KECCAK256 SWAP5 ADD PUSH1 0x5 SHR DUP5 ADD PUSH1 0x1 DUP6 ADD PUSH2 0x2493 JUMP JUMPDEST SSTORE SSTORE JUMP JUMPDEST PUSH8 0xFFFFFFFFFFFFFFFF DUP2 GT PUSH2 0x343 JUMPI PUSH1 0x5 SHL PUSH1 0x20 ADD SWAP1 JUMP JUMPDEST PUSH1 0x20 PUSH2 0x272C SWAP2 DUP2 PUSH1 0x40 MLOAD SWAP4 DUP3 DUP6 DUP1 SWAP5 MLOAD SWAP4 DUP5 SWAP3 ADD PUSH2 0x2024 JUMP JUMPDEST DUP2 ADD PUSH1 0x6 DUP2 MSTORE SUB ADD SWAP1 KECCAK256 PUSH1 0x0 JUMPDEST DUP2 SLOAD DUP1 DUP3 LT ISZERO PUSH2 0x2144 JUMPI DUP4 PUSH2 0x274E DUP4 DUP6 PUSH2 0x20EF JUMP JUMPDEST SWAP2 SWAP1 SLOAD PUSH1 0x3 SWAP3 DUP4 SHL SHR EQ PUSH2 0x276C JUMPI POP POP PUSH2 0x2767 SWAP1 PUSH2 0x2107 JUMP JUMPDEST PUSH2 0x2739 JUMP JUMPDEST SWAP3 SWAP4 POP PUSH1 0x0 NOT SWAP3 SWAP2 SWAP1 DUP4 DUP2 ADD SWAP1 DUP2 GT PUSH2 0x488 JUMPI PUSH2 0x279C SWAP3 PUSH2 0x2790 PUSH2 0xBA5 SWAP3 DUP8 PUSH2 0x20EF JUMP JUMPDEST SWAP1 SLOAD SWAP2 SHL SHR SWAP2 DUP6 PUSH2 0x20EF JUMP JUMPDEST DUP2 SLOAD DUP1 ISZERO PUSH2 0x472 JUMPI ADD SWAP1 PUSH2 0x27B3 PUSH2 0x1CFB DUP4 DUP4 PUSH2 0x20EF JUMP JUMPDEST SSTORE JUMP INVALID 0xD3 0x29 SELFDESTRUCT DUP11 SUB 0x5C EXTCODECOPY 0xE5 0xDF 0x2B 0xD 0xAE PUSH1 0x4D PUSH7 0xC0D8783BF7E64 0xBE STOP 0xC1 0xD1 0xD 0xB9 PUSH13 0xB87B47D7FFB7A348E1C6A0286 SWAP1 DUP2 LOG2 PUSH6 0x47B49160DD3D 0xF7 0x2D SAR PUSH22 0xA570EB9B698292EC5A3425EA67E73C95853ECFC0C443 MOD 0x2D 0xE2 SWAP3 LOG3 SUB 0xC1 DUP7 0xBC 0x2A 0xAC GT PUSH25 0xAE1B86C62AA2646970667358221220D2C6C40FA2640881EC2F 0xE4 0xBC 0xBF EXTCODEHASH 0xC9 SWAP12 0xF8 SUB 0xE6 EXTCODEHASH JUMPI 0xFC PUSH29 0xCF40972D709D9EC1D964736F6C63430008140033000000000000000000 "},"methodIdentifiers":{"ADMIN_ROLE()":"75b238fc","EMPLOYEE_ROLE()":"2a4cab90","FINANCE_MANAGER_ROLE()":"8a780f65","OWNER_ROLE()":"e58378bb","addEmployee(address,string,string,uint256,address,uint8)":"ac03f0ca","employeeExists(uint256)":"49c96d99","getActiveEmployees()":"47e23df9","getAllEmployeeIds()":"1fcf522f","getEmployee(uint256)":"bca9a5c5","getEmployeeIdByWallet(address)":"889d0715","getEmployeesByDepartment(string)":"f66a5ca0","getRoleMembers(bytes32)":"a3246ad3","getTotalEmployees()":"5339c995","grantRole(bytes32,address)":"2f2ff15d","hasRole(bytes32,address)":"91d14854","isWalletRegistered(address)":"7f247e49","owner()":"8da5cb5b","removeEmployee(uint256)":"21ed0f64","renounceRole(bytes32)":"8bb9c5bf","revokeRole(bytes32,address)":"d547741f","transferOwnership(address)":"f2fde38b","updateEmployee(uint256,string,string,uint256,address,uint8)":"94cf1a97","updateEmployeeStatus(uint256,uint8)":"a43439aa"}}}}}