{
  "_format": "hh-sol-artifact-1",
  "contractName": "EmployeeRegistry",
  "sourceName": "contracts/EmployeeRegistry.sol",
  "abi": [
    {
      "inputs": [],
      "stateMutability": "nonpayable",
      "type": "constructor"
    },
    {
      "anonymous": false,
      "inputs": [
        {
          "indexed": true,
          "internalType": "uint256",
          "name": "employeeId",
          "type": "uint256"
        },
        {
          "indexed": true,
          "internalType": "address",
          "name": "walletAddress",
          "type": "address"
        },
        {
          "indexed": false,
          "internalType": "string",
          "name": "department",
          "type": "string"
        },
        {
          "indexed": false,
          "internalType": "string",
          "name": "role",
          "type": "string"
        },
        {
          "indexed": false,
          "internalType": "uint256",
          "name": "salaryAmount",
          "type": "uint256"
        },
        {
          "indexed": false,
          "internalType": "address",
          "name": "salaryToken",
          "type": "address"
        }
      ],
      "name": "EmployeeAdded",
      "type": "event"
    },
    {
      "anonymous": false,
      "inputs": [
        {
          "indexed": true,
          "internalType": "uint256",
          "name": "employeeId",
          "type": "uint256"
        },
        {
          "indexed": true,
          "internalType": "address",
          "name": "walletAddress",
          "type": "address"
        }
      ],
      "name": "EmployeeRemoved",
      "type": "event"
    },
    {
      "anonymous": false,
      "inputs": [
        {
          "indexed": true,
          "internalType": "uint256",
          "name": "employeeId",
          "type": "uint256"
        },
        {
          "indexed": true,
          "internalType": "address",
          "name": "walletAddress",
          "type": "address"
        },
        {
          "indexed": false,
          "internalType": "enum EmployeeRegistry.EmployeeStatus",
          "name": "oldStatus",
          "type": "uint8"
        },
        {
          "indexed": false,
          "internalType": "enum EmployeeRegistry.EmployeeStatus",
          "name": "newStatus",
          "type": "uint8"
        }
      ],
      "name": "EmployeeStatusChanged",
      "type": "event"
    },
    {
      "anonymous": false,
      "inputs": [
        {
          "indexed": true,
          "internalType": "uint256",
          "name": "employeeId",
          "type": "uint256"
        },
        {
          "indexed": true,
          "internalType": "address",
          "name": "walletAddress",
          "type": "address"
        },
        {
          "indexed": false,
          "internalType": "string",
          "name": "department",
          "type": "string"
        },
        {
          "indexed": false,
          "internalType": "string",
          "name": "role",
          "type": "string"
        },
        {
          "indexed": false,
          "internalType": "uint256",
          "name": "salaryAmount",
          "type": "uint256"
        },
        {
          "indexed": false,
          "internalType": "address",
          "name": "salaryToken",
          "type": "address"
        }
      ],
      "name": "EmployeeUpdated",
      "type": "event"
    },
    {
      "anonymous": false,
      "inputs": [
        {
          "indexed": true,
          "internalType": "address",
          "name": "previousOwner",
          "type": "address"
        },
        {
          "indexed": true,
          "internalType": "address",
          "name": "newOwner",
          "type": "address"
        }
      ],
      "name": "OwnershipTransferred",
      "type": "event"
    },
    {
      "anonymous": false,
      "inputs": [
        {
          "indexed": true,
          "internalType": "bytes32",
          "name": "role",
          "type": "bytes32"
        },
        {
          "indexed": true,
          "internalType": "address",
          "name": "account",
          "type": "address"
        },
        {
          "indexed": true,
          "internalType": "address",
          "name": "sender",
          "type": "address"
        }
      ],
      "name": "RoleGranted",
      "type": "event"
    },
    {
      "anonymous": false,
      "inputs": [
        {
          "indexed": true,
          "internalType": "bytes32",
          "name": "role",
          "type": "bytes32"
        },
        {
          "indexed": true,
          "internalType": "address",
          "name": "account",
          "type": "address"
        },
        {
          "indexed": true,
          "internalType": "address",
          "name": "sender",
          "type": "address"
        }
      ],
      "name": "RoleRevoked",
      "type": "event"
    },
    {
      "inputs": [],
      "name": "ADMIN_ROLE",
      "outputs": [
        {
          "internalType": "bytes32",
          "name": "",
          "type": "bytes32"
        }
      ],
      "stateMutability": "view",
      "type": "function"
    },
    {
      "inputs": [],
      "name": "EMPLOYEE_ROLE",
      "outputs": [
        {
          "internalType": "bytes32",
          "name": "",
          "type": "bytes32"
        }
      ],
      "stateMutability": "view",
      "type": "function"
    },
    {
      "inputs": [],
      "name": "FINANCE_MANAGER_ROLE",
      "outputs": [
        {
          "internalType": "bytes32",
          "name": "",
          "type": "bytes32"
        }
      ],
      "stateMutability": "view",
      "type": "function"
    },
    {
      "inputs": [],
      "name": "OWNER_ROLE",
      "outputs": [
        {
          "internalType": "bytes32",
          "name": "",
          "type": "bytes32"
        }
      ],
      "stateMutability": "view",
      "type": "function"
    },
    {
      "inputs": [
        {
          "internalType": "address",
          "name": "walletAddress",
          "type": "address"
        },
        {
          "internalType": "string",
          "name": "department",
          "type": "string"
        },
        {
          "internalType": "string",
          "name": "role",
          "type": "string"
        },
        {
          "internalType": "uint256",
          "name": "salaryAmount",
          "type": "uint256"
        },
        {
          "internalType": "address",
          "name": "salaryToken",
          "type": "address"
        },
        {
          "internalType": "enum EmployeeRegistry.PaymentFrequency",
          "name": "paymentFrequency",
          "type": "uint8"
        }
      ],
      "name": "addEmployee",
      "outputs": [
        {
          "internalType": "uint256",
          "name": "",
          "type": "uint256"
        }
      ],
      "stateMutability": "nonpayable",
      "type": "function"
    },
    {
      "inputs": [
        {
          "internalType": "uint256",
          "name": "employeeId",
          "type": "uint256"
        }
      ],
      "name": "employeeExists",
      "outputs": [
        {
          "internalType": "bool",
          "name": "",
          "type": "bool"
        }
      ],
      "stateMutability": "view",
      "type": "function"
    },
    {
      "inputs": [],
      "name": "getActiveEmployees",
      "outputs": [
        {
          "internalType": "uint256[]",
          "name": "",
          "type": "uint256[]"
        }
      ],
      "stateMutability": "view",
      "type": "function"
    },
    {
      "inputs": [],
      "name": "getAllEmployeeIds",
      "outputs": [
        {
          "internalType": "uint256[]",
          "name": "",
          "type": "uint256[]"
        }
      ],
      "stateMutability": "view",
      "type": "function"
    },
    {
      "inputs": [
        {
          "internalType": "uint256",
          "name": "employeeId",
          "type": "uint256"
        }
      ],
      "name": "getEmployee",
      "outputs": [
        {
          "components": [
            {
              "internalType": "uint256",
              "name": "employeeId",
              "type": "uint256"
            },
            {
              "internalType": "address",
              "name": "walletAddress",
              "type": "address"
            },
            {
              "internalType": "string",
              "name": "department",
              "type": "string"
            },
            {
              "internalType": "string",
              "name": "role",
              "type": "string"
            },
            {
              "internalType": "uint256",
              "name": "salaryAmount",
              "type": "uint256"
            },
            {
              "internalType": "address",
              "name": "salaryToken",
              "type": "address"
            },
            {
              "internalType": "enum EmployeeRegistry.PaymentFrequency",
              "name": "paymentFrequency",
              "type": "uint8"
            },
            {
              "internalType": "enum EmployeeRegistry.EmployeeStatus",
              "name": "status",
              "type": "uint8"
            },
            {
              "internalType": "uint256",
              "name": "createdAt",
              "type": "uint256"
            },
            {
              "internalType": "uint256",
              "name": "updatedAt",
              "type": "uint256"
            }
          ],
          "internalType": "struct EmployeeRegistry.Employee",
          "name": "",
          "type": "tuple"
        }
      ],
      "stateMutability": "view",
      "type": "function"
    },
    {
      "inputs": [
        {
          "internalType": "address",
          "name": "walletAddress",
          "type": "address"
        }
      ],
      "name": "getEmployeeIdByWallet",
      "outputs": [
        {
          "internalType": "uint256",
          "name": "",
          "type": "uint256"
        }
      ],
      "stateMutability": "view",
      "type": "function"
    },
    {
      "inputs": [
        {
          "internalType": "string",
          "name": "department",
          "type": "string"
        }
      ],
      "name": "getEmployeesByDepartment",
      "outputs": [
        {
          "internalType": "uint256[]",
          "name": "",
          "type": "uint256[]"
        }
      ],
      "stateMutability": "view",
      "type": "function"
    },
    {
      "inputs": [
        {
          "internalType": "bytes32",
          "name": "role",
          "type": "bytes32"
        }
      ],
      "name": "getRoleMembers",
      "outputs": [
        {
          "internalType": "address[]",
          "name": "",
          "type": "address[]"
        }
      ],
      "stateMutability": "view",
      "type": "function"
    },
    {
      "inputs": [],
      "name": "getTotalEmployees",
      "outputs": [
        {
          "internalType": "uint256",
          "name": "",
          "type": "uint256"
        }
      ],
      "stateMutability": "view",
      "type": "function"
    },
    {
      "inputs": [
        {
          "internalType": "bytes32",
          "name": "role",
          "type": "bytes32"
        },
        {
          "internalType": "address",
          "name": "account",
          "type": "address"
        }
      ],
      "name": "grantRole",
      "outputs": [],
      "stateMutability": "nonpayable",
      "type": "function"
    },
    {
      "inputs": [
        {
          "internalType": "bytes32",
          "name": "role",
          "type": "bytes32"
        },
        {
          "internalType": "address",
          "name": "account",
          "type": "address"
        }
      ],
      "name": "hasRole",
      "outputs": [
        {
          "internalType": "bool",
          "name": "",
          "type": "bool"
        }
      ],
      "stateMutability": "view",
      "type": "function"
    },
    {
      "inputs": [
        {
          "internalType": "address",
          "name": "walletAddress",
          "type": "address"
        }
      ],
      "name": "isWalletRegistered",
      "outputs": [
        {
          "internalType": "bool",
          "name": "",
          "type": "bool"
        }
      ],
      "stateMutability": "view",
      "type": "function"
    },
    {
      "inputs": [],
      "name": "owner",
      "outputs": [
        {
          "internalType": "address",
          "name": "",
          "type": "address"
        }
      ],
      "stateMutability": "view",
      "type": "function"
    },
    {
      "inputs": [
        {
          "internalType": "uint256",
          "name": "employeeId",
          "type": "uint256"
        }
      ],
      "name": "removeEmployee",
      "outputs": [],
      "stateMutability": "nonpayable",
      "type": "function"
    },
    {
      "inputs": [
        {
          "internalType": "bytes32",
          "name": "role",
          "type": "bytes32"
        }
      ],
      "name": "renounceRole",
      "outputs": [],
      "stateMutability": "nonpayable",
      "type": "function"
    },
    {
      "inputs": [
        {
          "internalType": "bytes32",
          "name": "role",
          "type": "bytes32"
        },
        {
          "internalType": "address",
          "name": "account",
          "type": "address"
        }
      ],
      "name": "revokeRole",
      "outputs": [],
      "stateMutability": "nonpayable",
      "type": "function"
    },
    {
      "inputs": [
        {
          "internalType": "address",
          "name": "newOwner",
          "type": "address"
        }
      ],
      "name": "transferOwnership",
      "outputs": [],
      "stateMutability": "nonpayable",
      "type": "function"
    },
    {
      "inputs": [
        {
          "internalType": "uint256",
          "name": "employeeId",
          "type": "uint256"
        },
        {
          "internalType": "string",
          "name": "department",
          "type": "string"
        },
        {
          "internalType": "string",
          "name": "role",
          "type": "string"
        },
        {
          "internalType": "uint256",
          "name": "salaryAmount",
          "type": "uint256"
        },
        {
          "internalType": "address",
          "name": "salaryToken",
          "type": "address"
        },
        {
          "internalType": "enum EmployeeRegistry.PaymentFrequency",
          "name": "paymentFrequency",
          "type": "uint8"
        }
      ],
      "name": "updateEmployee",
      "outputs": [],
      "stateMutability": "nonpayable",
      "type": "function"
    },
    {
      "inputs": [
        {
          "internalType": "uint256",
          "name": "employeeId",
          "type": "uint256"
        },
        {
          "internalType": "enum EmployeeRegistry.EmployeeStatus",
          "name": "newStatus",
          "type": "uint8"
        }
      ],
      "name": "updateEmployeeStatus",
      "outputs": [],
      "stateMutability": "nonpayable",
      "type": "function"
    }
  ],
  "bytecode": "0x60806040818152346101225760018060a01b031990338260025416176002557fb19546dff01e856fb3f010c267a7b1c60363cf8a4664e21cc89c26224620214e91600091838352602090838252808420338552825260ff818520541615610073575b600160035561284c8681620001288239f35b8484528382528084203385528252808420600160ff19825416179055848452600182528320908154916801000000000000000083101561010e57600183018082558310156100fa57845283200190339082541617905533917f2f8788117e7eff1d82e926ec794901d17c78024a50270940304540a733656f0d339280a43880808080610061565b634e487b7160e01b85526032600452602485fd5b634e487b7160e01b85526041600452602485fd5b600080fdfe608080604052600436101561001357600080fd5b60003560e01c9081631fcf522f14611f025750806321ed0f6414611aa85780632a4cab9014611a7f5780632f2ff15d1461188157806347e23df91461172d57806349c96d99146116ff5780635339c995146116e157806375b238fc146116a65780637f247e491461166a578063889d0715146115d45780638a780f65146115995780638bb9c5bf1461157c5780638da5cb5b1461155357806391d148541461150657806394cf1a9714611194578063a3246ad3146110e2578063a43439aa14610f8f578063ac03f0ca14610867578063bca9a5c514610668578063d547741f1461058c578063e58378bb14610551578063f2fde38b146101c25763f66a5ca01461011c57600080fd5b346101bd576020806003193601126101bd5760043567ffffffffffffffff81116101bd5761014f82913690600401611ff6565b91908260405193849283378101600681520301902090604051908181845491828152019360005281600020916000905b8282106101a6576101a28561019681890382612096565b60405191829182611f79565b0390f35b83548652948501946001938401939091019061017f565b600080fd5b346101bd576020806003193601126101bd576101dc611fca565b600254916001600160a01b03808416929091338490036104fe578282169485156104a45785906001600160601b0360a01b16176002557fb19546dff01e856fb3f010c267a7b1c60363cf8a4664e21cc89c26224620214e928360005260008252604060002085600052825260ff60406000205416610359575b508260005260008152604060002085600052815260ff60406000205416156102a2575b5050507f8be0079c531659141344cd1fd0a4f28419497f9722a3daafe3b4186f6b6457e0600080a3005b6001908360005260008152604060002086600052815260406000208260ff198254161790558360005252604060002090815491600160401b83101561034357826102f4916001610313950181556120ef565b90919082549060031b9160018060a01b03809116831b921b1916179055565b8233917f2f8788117e7eff1d82e926ec794901d17c78024a50270940304540a733656f0d600080a4828080610278565b634e487b7160e01b600052604160045260246000fd5b9392919082600052600081526040600020846000528152604060002060ff19815416905582600052600194858252604060002090866000905b6103cd575b50505090919293503384847ff6391f5c32d9c69d2a47ea670b442974b53935d1edc7fd64eb21e047a839171b600080a485610255565b82548082101561049e578290886103e484876120ef565b939054600394851b1c16146104045750506103fe90612107565b87610392565b90929394959697985060001993848201918211610488576104399361042c6102f493886120ef565b9054911b1c1691856120ef565b8154801561047257019061046561045083836120ef565b81549060018060a01b039060031b1b19169055565b5590839291868080610397565b634e487b7160e01b600052603160045260246000fd5b634e487b7160e01b600052601160045260246000fd5b50610397565b60405162461bcd60e51b815260048101839052602c60248201527f416363657373436f6e74726f6c3a206e6577206f776e6572206973207468652060448201526b7a65726f206164647265737360a01b6064820152608490fd5b6084906040519062461bcd60e51b82526004820152602660248201527f416363657373436f6e74726f6c3a2063616c6c6572206973206e6f74207468656044820152651037bbb732b960d11b6064820152fd5b346101bd5760003660031901126101bd5760206040517fb19546dff01e856fb3f010c267a7b1c60363cf8a4664e21cc89c26224620214e8152f35b346101bd5760403660031901126101bd576105a5611fb4565b3360009081526000805160206127b7833981519152602052604090205460ff168015610642575b156105df576105dd90600435612116565b005b60405162461bcd60e51b815260206004820152603560248201527f416363657373436f6e74726f6c3a206d757374206265206f776e6572206f722060448201527461646d696e20746f207265766f6b6520726f6c657360581b6064820152608490fd5b503360009081526000805160206127d7833981519152602052604090205460ff166105cc565b346101bd5760203660031901126101bd57600435600061012060405161068d81612079565b828152826020820152606060408201526060808201528260808201528260a08201528260c08201528260e08201528261010082015201528060005260046020526106dd60406000205415156125bf565b600052600460205260406000206007604051916106f983612079565b8054835260018101546001600160a01b0316602084015260405161072b81610724816002860161261d565b0382612096565b604084015260405161074481610724816003860161261d565b60608401526004810154608084015261078a60ff600583015460018060a01b03811660a087015261077d828260a01c1660c08801612441565b60a81c1660e0850161244d565b6006810154610100840152015461012082015260405190602082528051602083015260018060a01b03602082015116604083015260408101516107f46107de61014092836060870152610160860190612047565b6060840151858203601f19016080870152612047565b90608083015160a085015260018060a01b0360a08401511660c085015260c083015160058110156108515784936101209160e086015261083d60e082015161010087019061206c565b610100810151828601520151908301520390f35b634e487b7160e01b600052602160045260246000fd5b346101bd5760c03660031901126101bd57610880611fca565b60243567ffffffffffffffff81116101bd576108a0903690600401611ff6565b60449291923567ffffffffffffffff81116101bd576108c3903690600401611ff6565b9290936108ce611fe0565b90600560a43510156101bd573360009081526000805160206127d783398151915260205260409020546109039060ff16612266565b6001600160a01b03831615610f32576001600160a01b038316600090815260056020526040902054610ed95761093c60643515156122cc565b61094784151561233e565b61095285151561239f565b6003549461095f86612107565b60035560405161096e81612079565b8681526001600160a01b038516602082015261098b3687856123fa565b604082015261099b36838a6123fa565b606082015260643560808201526001600160a01b03841660a08201526109c660a43560c08301612441565b600060e08201524261010082015242610120820152866000526004602052604060002090805182556001820160018060a01b036020830151166001600160601b0360a01b825416179055604081015180519067ffffffffffffffff8211610343578190610a4382610a3a6002880154612459565b600288016124aa565b602090601f8311600114610e6757600092610e5c575b50508160011b916000199060031b1c19161760028301555b606081015180519067ffffffffffffffff8211610343578190610aa482610a9b6003880154612459565b600388016124aa565b602090601f8311600114610dea57600092610ddf575b50508160011b916000199060031b1c19161760038301555b6080810151600483015560018060a01b0360a0820151166001600160601b0360a01b60058401541617600583015560c0810151600581101561085157610b1b90600584016124f1565b60e0810151600381101561085157600791610b3c6101209260058601612515565b6101008101516006850155015191015560018060a01b038416600052600560205285604060002055610b8286604051878582376020818981016006815203019020612539565b600754600160401b8110156103435786610ba5826001610bbe94016007556120b8565b90919082549060031b91821b91600019901b1916179055565b3360009081526000805160206127b7833981519152602052604090205460ff168015610db9575b15610d57576001600160a01b03841660009081527f7859a94baa94829fcc245b7ff1854b60efd65daf0966ed82492401168584c4b160205260409020546000805160206127f78339815191529060ff1615610c8c575b5092610c817f9792c07b58d941bd54605a1b244a5f2efd7833955e6b27a4a56cebc08a71fcf19360209893889660405195869560018060a01b031699606435938761257d565b0390a3604051908152f35b93909691846000526000602052604060002060018060a01b0383166000526020526040600020600160ff19825416179055846000526001602052604060002093845491600160401b831015610343576020998997610d18866102f4877f9792c07b58d941bd54605a1b244a5f2efd7833955e6b27a4a56cebc08a71fcf19b6001610c819a0181556120ef565b33906001600160a01b038716907f2f8788117e7eff1d82e926ec794901d17c78024a50270940304540a733656f0d600080a49396509398509350610c3b565b60405162461bcd60e51b815260206004820152603460248201527f416363657373436f6e74726f6c3a206d757374206265206f776e6572206f722060448201527361646d696e20746f206772616e7420726f6c657360601b6064820152608490fd5b503360009081526000805160206127d7833981519152602052604090205460ff16610be5565b015190508b80610aba565b9250600385016000526020600020906000935b601f1984168510610e41576001945083601f19811610610e28575b505050811b016003830155610ad2565b015160001960f88460031b161c191690558b8080610e18565b81810151835560209485019460019093019290910190610dfd565b015190508b80610a59565b9250600285016000526020600020906000935b601f1984168510610ebe576001945083601f19811610610ea5575b505050811b016002830155610a71565b015160001960f88460031b161c191690558b8080610e95565b81810151835560209485019460019093019290910190610e7a565b60405162461bcd60e51b815260206004820152602b60248201527f456d706c6f79656552656769737472793a2077616c6c657420616c726561647960448201526a081c9959da5cdd195c995960aa1b6064820152608490fd5b60405162461bcd60e51b815260206004820152602f60248201527f456d706c6f79656552656769737472793a2077616c6c6574206164647265737360448201526e2063616e6e6f74206265207a65726f60881b6064820152608490fd5b346101bd5760403660031901126101bd5760243560043560038210156101bd573360009081526000805160206127d78339815191526020908152604090912054909290610fde9060ff16612266565b8160005260048352610ff660406000205415156125bf565b8160005260048352604060002090600582019160ff835460a81c169260038410156108515782841461107f57827f75440301c7cc0ab7caf96236a696e56b5867c4d6044c8db02e642dbbbffcf77a949261105560409561107c94612515565b4260078201556001808060a01b0391015416966110748551809561206c565b83019061206c565ba3005b60405162461bcd60e51b815260048101879052603560248201527f456d706c6f79656552656769737472793a2073746174757320697320616c72656044820152746164792073657420746f20746869732076616c756560581b6064820152608490fd5b346101bd576020806003193601126101bd5760043560005260019081815260406000209160405191828185549182815201908195600052826000209060005b8181106111785750505083611137910384612096565b60405192818401908285525180915260408401949160005b82811061115c5785870386f35b83516001600160a01b031687529581019592810192840161114f565b82546001600160a01b0316845292840192918501918501611121565b346101bd5760c03660031901126101bd5767ffffffffffffffff6004356024358281116101bd576111c9903690600401611ff6565b906044358481116101bd576111e2903690600401611ff6565b606495919535906111f1611fe0565b9260a4359060058210156101bd573360009081526000805160206127d7833981519152602090815260409091205490919061122e9060ff16612266565b886000526004825261124660406000205415156125bf565b6112518515156122cc565b61125c88151561233e565b61126784151561239f565b88600052600482526040600020916002830160405161128a81610724818561261d565b82815191012061129b368c8c6123fa565b838151910120036114c8575b828a11610343576112c28a6112bc8354612459565b836124aa565b896000601f821160011461146057600091611455575b508a60011b906000198c60031b1c19161790555b600383019185116103435761130b856113058454612459565b846124aa565b600090601f86116001146113b9575084926113a99694927f5d992d912fd498642d3b14b8cecce52daac5db1d22a5a983cbbcc912e12b39069a9998966001936000916113ae575b50600019600387901b1c191685841b1790555b8460048201556113936005820193838060a01b03948589166001600160601b0360a01b8254161781556124f1565b426007820155015416986040519687968761257d565b0390a3005b90508d01358e611352565b908b90601f1987168460005283600020936000905b828210611439575050928795926113a9999795927f5d992d912fd498642d3b14b8cecce52daac5db1d22a5a983cbbcc912e12b39069d9c9b996001961061141f575b5050508285811b019055611365565b0135600019600388901b60f8161c191690558d8d81611410565b600184968294958394970135815501950193018e9392916113ce565b90508901358d6112d8565b600083815284812092508c90601f19821690868e5b8383106114ae5750505010611494575b505060018a811b0190556112ec565b8a013560001960038d901b60f8161c191690558c80611485565b8501358655600190950194938401938f935001868e611475565b6114e28b6040516114dd81610724818761261d565b612713565b6115018b8b848c82604051938492833781016006815203019020612539565b6112a7565b346101bd5760403660031901126101bd5761151f611fb4565b600435600052600060205260406000209060018060a01b0316600052602052602060ff604060002054166040519015158152f35b346101bd5760003660031901126101bd576002546040516001600160a01b039091168152602090f35b346101bd5760203660031901126101bd576105dd33600435612116565b346101bd5760003660031901126101bd5760206040517f572f022558b687eed59080237cb7778171198110a24741b57d6ed3432df881fc8152f35b346101bd5760203660031901126101bd576001600160a01b036115f5611fca565b166000526005602052604060002054801561161557602090604051908152f35b60405162461bcd60e51b815260206004820152602760248201527f456d706c6f79656552656769737472793a2077616c6c6574206e6f74207265676044820152661a5cdd195c995960ca1b6064820152608490fd5b346101bd5760203660031901126101bd576001600160a01b0361168b611fca565b16600052600560205260206040600020541515604051908152f35b346101bd5760003660031901126101bd5760206040517fa49807205ce4d355092ef5a8a18f56e8913cf4a201fbe287825b095693c217758152f35b346101bd5760003660031901126101bd576020600754604051908152f35b346101bd5760203660031901126101bd57600435600052600460205260206040600020541515604051908152f35b346101bd5760003660031901126101bd57600080600754905b8181106118285750611757826126fb565b916117656040519384612096565b808352611774601f19916126fb565b0160209036828501376000805b83821061179657604051806101a28782611f79565b61179f826120b8565b9054600391821b1c6000526004845260059060ff826040600020015460a81c168181101561085157156117df575b5050906117d990612107565b90611781565b6117e8846120b8565b9054911b1c918651811015611812576117d992858261180b941b89010152612107565b90866117cd565b634e487b7160e01b600052603260045260246000fd5b611831816120b8565b9054600391821b1c600052600460205260ff60056040600020015460a81c1690811015610851571561186c575b61186790612107565b611746565b9161187961186791612107565b92905061185e565b346101bd5760403660031901126101bd5760043561189d611fb4565b3360009081526000805160206127b7833981519152602090815260409091205490919060ff168015611a3d575b156119db576001600160a01b03811691821561197e578360005260008152604060002083600052815260ff604060002054161561190357005b6001908460005260008152604060002084600052815260406000208260ff198254161790558460005252604060002090815491600160401b83101561034357826102f4916001611955950181556120ef565b33917f2f8788117e7eff1d82e926ec794901d17c78024a50270940304540a733656f0d600080a4005b6084906040519062461bcd60e51b82526004820152603060248201527f416363657373436f6e74726f6c3a2063616e6e6f74206772616e7420726f6c6560448201526f20746f207a65726f206164647265737360801b6064820152fd5b60405162461bcd60e51b815260048101839052603460248201527f416363657373436f6e74726f6c3a206d757374206265206f776e6572206f722060448201527361646d696e20746f206772616e7420726f6c657360601b6064820152608490fd5b507fa49807205ce4d355092ef5a8a18f56e8913cf4a201fbe287825b095693c2177560005260008252604060002033600052825260ff604060002054166118ca565b346101bd5760003660031901126101bd5760206040516000805160206127f78339815191528152f35b346101bd5760203660031901126101bd573360009081526000805160206127d7833981519152602052604090205460ff907fa49807205ce4d355092ef5a8a18f56e8913cf4a201fbe287825b095693c2177590611b06908316612266565b6004356000526004602052611b2160406000205415156125bf565b600435600052600460205260406000209060405192611b3f84612079565b8254845260018301546001600160a01b03166020850152604051611b6a81610724816002880161261d565b6040850152604051611b8381610724816003880161261d565b606085015260048301546080850152611bc881600585015460018060a01b03811660a0880152611bbb828260a01c1660c08901612441565b60a81c1660e0860161244d565b60068301546101008501526007928301546101208501526020808501513360009081526000805160206127b78339815191529092526040909120546001600160a01b0390911692908216908115611ede575b50156105df5760008281527f7859a94baa94829fcc245b7ff1854b60efd65daf0966ed82492401168584c4b1602052604090205416611d93575b5060018060a01b03602083015116600052600560205260006040812055611c816004356040840151612713565b6000905b805480831015611d8957611c98836120b8565b60043591549060031b1c14611cb8575090611cb290612107565b90611c85565b6000199281840191821161048857610ba5611cd5611ce2936120b8565b90549060031b1c916120b8565b80549182156104725760009201611d0c611cfb826120b8565b8154906000199060031b1b19169055565b81555b6004358252600460205260408220828155826001820155611d32600282016126b2565b611d3e600382016126b2565b8260048201558260058201558260068201550155602060018060a01b03910151166004357fdfcc7e5babfa5dde64e1e03185335f35dd50ccee8caca36c8f16e0772e00e7e0600080a3005b5060009150611d0f565b60008181527f7859a94baa94829fcc245b7ff1854b60efd65daf0966ed82492401168584c4b1602090815260408220805460ff191690556000805160206127f78339815191528252600190527f5d9605def7498c81da30f52667702ecadccaa72c017de11b5559641989a21dcd9291905b835480821015611ed45782611e1983876120ef565b905460039190911b1c6001600160a01b031614611e3f5750611e3a90612107565b611e04565b908160009593949519810111610488576102f4611e63611e7c9360001901856120ef565b905460039190911b1c6001600160a01b031691846120ef565b80548015610472576000190190611e9661045083836120ef565b555b33906000805160206127f78339815191527ff6391f5c32d9c69d2a47ea670b442974b53935d1edc7fd64eb21e047a839171b600080a482611c54565b5050909150611e98565b90506000526000602052604060002033600052602052806040600020541685611c1a565b346101bd5760003660031901126101bd576007549081815260208082019260076000527fa66cc928b5edb82af9bd49922954155ab7b0942694bea4ce44661d9a8736c688916000905b828210611f62576101a28561019681890382612096565b835486529485019460019384019390910190611f4b565b6020908160408183019282815285518094520193019160005b828110611fa0575050505090565b835185529381019392810192600101611f92565b602435906001600160a01b03821682036101bd57565b600435906001600160a01b03821682036101bd57565b608435906001600160a01b03821682036101bd57565b9181601f840112156101bd5782359167ffffffffffffffff83116101bd57602083818601950101116101bd57565b60005b8381106120375750506000910152565b8181015183820152602001612027565b9060209161206081518092818552858086019101612024565b601f01601f1916010190565b9060038210156108515752565b610140810190811067ffffffffffffffff82111761034357604052565b90601f8019910116810190811067ffffffffffffffff82111761034357604052565b6007548110156118125760076000527fa66cc928b5edb82af9bd49922954155ab7b0942694bea4ce44661d9a8736c6880190600090565b80548210156118125760005260206000200190600090565b60001981146104885760010190565b6000818152602081815260408083206001600160a01b0395861680855292528220549192909160ff1661214a575b50505050565b80835282602052604083208284526020526040832060ff1981541690558083526001938460205260408420908585905b6121b4575b505050909192507ff6391f5c32d9c69d2a47ea670b442974b53935d1edc7fd64eb21e047a839171b339380a438808080612144565b8254808210156122605782866121ca84876120ef565b929054600393841b1c16146121ea5750506121e490612107565b8661217a565b909394959697506000929192199384810190811161224c57916102f49161042c6122159594886120ef565b8154801561223857019061222c61045083836120ef565b5590829138808061217f565b634e487b7160e01b86526031600452602486fd5b634e487b7160e01b89526011600452602489fd5b5061217f565b1561226d57565b60405162461bcd60e51b815260206004820152603160248201527f416363657373436f6e74726f6c3a2073656e64657220646f6573206e6f74206860448201527061766520726571756972656420726f6c6560781b6064820152608490fd5b156122d357565b60405162461bcd60e51b815260206004820152603960248201527f456d706c6f79656552656769737472793a2073616c61727920616d6f756e742060448201527f6d7573742062652067726561746572207468616e207a65726f000000000000006064820152608490fd5b1561234557565b60405162461bcd60e51b815260206004820152602c60248201527f456d706c6f79656552656769737472793a206465706172746d656e742063616e60448201526b6e6f7420626520656d70747960a01b6064820152608490fd5b156123a657565b60405162461bcd60e51b815260206004820152602660248201527f456d706c6f79656552656769737472793a20726f6c652063616e6e6f7420626560448201526520656d70747960d01b6064820152608490fd5b92919267ffffffffffffffff82116103435760405191612424601f8201601f191660200184612096565b8294818452818301116101bd578281602093846000960137010152565b60058210156108515752565b60038210156108515752565b90600182811c92168015612489575b602083101461247357565b634e487b7160e01b600052602260045260246000fd5b91607f1691612468565b81811061249e575050565b60008155600101612493565b9190601f81116124b957505050565b6124e5926000526020600020906020601f840160051c830193106124e7575b601f0160051c0190612493565b565b90915081906124d8565b90600581101561085157815460ff60a01b191660a09190911b60ff60a01b16179055565b90600381101561085157815460ff60a81b191660a89190911b60ff60a81b16179055565b90815491600160401b8310156103435782610ba59160016124e5950181556120ef565b908060209392818452848401376000828201840152601f01601f1916010190565b94969592909361259b6060956125a99460808952608089019161255c565b91868303602088015261255c565b60408401959095526001600160a01b0316910152565b156125c657565b60405162461bcd60e51b815260206004820152602960248201527f456d706c6f79656552656769737472793a20656d706c6f79656520646f6573206044820152681b9bdd08195e1a5cdd60ba1b6064820152608490fd5b906000929180549161262e83612459565b91828252600193848116908160001461268f575060011461264f5750505050565b90919394506000526020928360002092846000945b83861061267b575050505001019038808080612144565b805485870183015294019385908201612664565b9294505050602093945060ff191683830152151560051b01019038808080612144565b6126bc8154612459565b90816126c6575050565b81601f600093116001146126d8575055565b9080839182526126f7601f60208420940160051c840160018501612493565b5555565b67ffffffffffffffff81116103435760051b60200190565b602061272c918160405193828580945193849201612024565b8101600681520301902060005b815480821015612144578361274e83856120ef565b919054600392831b1c1461276c57505061276790612107565b612739565b9293506000199291908381019081116104885761279c92612790610ba592876120ef565b9054911b1c91856120ef565b815480156104725701906127b3611cfb83836120ef565b5556fed329ff8a035c3ce5df2b0dae604d660c0d8783bf7e64be00c1d10db96c0b87b47d7ffb7a348e1c6a02869081a26547b49160dd3df72d1d75a570eb9b698292ec5a3425ea67e73c95853ecfc0c443062de292a303c186bc2aac1178ae1b86c62aa2646970667358221220d2c6c40fa2640881ec2fe4bcbf3fc99bf803e63f57fc7ccf40972d709d9ec1d964736f6c63430008140033",
  "linkReferences": {},
  "deployedLinkReferences": {}
}