{
  "_format": "hh-sol-artifact-1",
  "contractName": "AccessControl",
  "sourceName": "contracts/AccessControl.sol",
  "abi": [
    {
      "inputs": [],
      "stateMutability": "nonpayable",
      "type": "constructor"
    },
    {
      "anonymous": false,
      "inputs": [
        {
          "indexed": true,
          "internalType": "address",
          "name": "previousOwner",
          "type": "address"
        },
        {
          "indexed": true,
          "internalType": "address",
          "name": "newOwner",
          "type": "address"
        }
      ],
      "name": "OwnershipTransferred",
      "type": "event"
    },
    {
      "anonymous": false,
      "inputs": [
        {
          "indexed": true,
          "internalType": "bytes32",
          "name": "role",
          "type": "bytes32"
        },
        {
          "indexed": true,
          "internalType": "address",
          "name": "account",
          "type": "address"
        },
        {
          "indexed": true,
          "internalType": "address",
          "name": "sender",
          "type": "address"
        }
      ],
      "name": "RoleGranted",
      "type": "event"
    },
    {
      "anonymous": false,
      "inputs": [
        {
          "indexed": true,
          "internalType": "bytes32",
          "name": "role",
          "type": "bytes32"
        },
        {
          "indexed": true,
          "internalType": "address",
          "name": "account",
          "type": "address"
        },
        {
          "indexed": true,
          "internalType": "address",
          "name": "sender",
          "type": "address"
        }
      ],
      "name": "RoleRevoked",
      "type": "event"
    },
    {
      "inputs": [],
      "name": "ADMIN_ROLE",
      "outputs": [
        {
          "internalType": "bytes32",
          "name": "",
          "type": "bytes32"
        }
      ],
      "stateMutability": "view",
      "type": "function"
    },
    {
      "inputs": [],
      "name": "EMPLOYEE_ROLE",
      "outputs": [
        {
          "internalType": "bytes32",
          "name": "",
          "type": "bytes32"
        }
      ],
      "stateMutability": "view",
      "type": "function"
    },
    {
      "inputs": [],
      "name": "FINANCE_MANAGER_ROLE",
      "outputs": [
        {
          "internalType": "bytes32",
          "name": "",
          "type": "bytes32"
        }
      ],
      "stateMutability": "view",
      "type": "function"
    },
    {
      "inputs": [],
      "name": "OWNER_ROLE",
      "outputs": [
        {
          "internalType": "bytes32",
          "name": "",
          "type": "bytes32"
        }
      ],
      "stateMutability": "view",
      "type": "function"
    },
    {
      "inputs": [
        {
          "internalType": "bytes32",
          "name": "role",
          "type": "bytes32"
        }
      ],
      "name": "getRoleMembers",
      "outputs": [
        {
          "internalType": "address[]",
          "name": "",
          "type": "address[]"
        }
      ],
      "stateMutability": "view",
      "type": "function"
    },
    {
      "inputs": [
        {
          "internalType": "bytes32",
          "name": "role",
          "type": "bytes32"
        },
        {
          "internalType": "address",
          "name": "account",
          "type": "address"
        }
      ],
      "name": "grantRole",
      "outputs": [],
      "stateMutability": "nonpayable",
      "type": "function"
    },
    {
      "inputs": [
        {
          "internalType": "bytes32",
          "name": "role",
          "type": "bytes32"
        },
        {
          "internalType": "address",
          "name": "account",
          "type": "address"
        }
      ],
      "name": "hasRole",
      "outputs": [
        {
          "internalType": "bool",
          "name": "",
          "type": "bool"
        }
      ],
      "stateMutability": "view",
      "type": "function"
    },
    {
      "inputs": [],
      "name": "owner",
      "outputs": [
        {
          "internalType": "address",
          "name": "",
          "type": "address"
        }
      ],
      "stateMutability": "view",
      "type": "function"
    },
    {
      "inputs": [
        {
          "internalType": "bytes32",
          "name": "role",
          "type": "bytes32"
        }
      ],
      "name": "renounceRole",
      "outputs": [],
      "stateMutability": "nonpayable",
      "type": "function"
    },
    {
      "inputs": [
        {
          "internalType": "bytes32",
          "name": "role",
          "type": "bytes32"
        },
        {
          "internalType": "address",
          "name": "account",
          "type": "address"
        }
      ],
      "name": "revokeRole",
      "outputs": [],
      "stateMutability": "nonpayable",
      "type": "function"
    },
    {
      "inputs": [
        {
          "internalType": "address",
          "name": "newOwner",
          "type": "address"
        }
      ],
      "name": "transferOwnership",
      "outputs": [],
      "stateMutability": "nonpayable",
      "type": "function"
    }
  ],
  "bytecode": "0x608060408181523461011c5760018060a01b031990338260025416176002557fb19546dff01e856fb3f010c267a7b1c60363cf8a4664e21cc89c26224620214e91600091838352602090838252808420338552825260ff81852054161561006d575b610b3b86816101228239f35b8484528382528084203385528252808420600160ff19825416179055848452600182528320908154916801000000000000000083101561010857600183018082558310156100f457845283200190339082541617905533917f2f8788117e7eff1d82e926ec794901d17c78024a50270940304540a733656f0d339280a43880808080610061565b634e487b7160e01b85526032600452602485fd5b634e487b7160e01b85526041600452602485fd5b600080fdfe6080604081815260048036101561001557600080fd5b600092833560e01c9081632a4cab9014610903575080632f2ff15d1461070557806375b238fc146106ca5780638a780f651461068f5780638bb9c5bf146106705780638da5cb5b1461064757806391d1485414610602578063a3246ad314610523578063d547741f1461042a578063e58378bb146103fd5763f2fde38b1461009c57600080fd5b346103f957602090816003193601126103f55780356001600160a01b03818116949092908583036103f15760025494848616958633036103a0578715610349576001600160a01b0319168717600255600080516020610ae6833981519152808952888252828920878a5282528289205490959060ff16610208575b50848852878152818820878952815260ff82892054161561015d575b8787877f8be0079c531659141344cd1fd0a4f28419497f9722a3daafe3b4186f6b6457e08380a380f35b600190858952888152828920888a5281528289208260ff19825416179055858952528620805491600160401b8310156101f55750816101a59160016101c49594018155610958565b90919082549060031b9160018060a01b03809116831b921b1916179055565b8233917f2f8788117e7eff1d82e926ec794901d17c78024a50270940304540a733656f0d8680a43880808080610133565b634e487b7160e01b885260419052602487fd5b858952888252828920878a528252828920805460ff191690558589526001808352838a2090918a835b610267575b505050503386867ff6391f5c32d9c69d2a47ea670b442974b53935d1edc7fd64eb21e047a839171b8b80a438610117565b82548082101561034357828b61027d8487610958565b929054600393841b1c16146102b2575050600019811461029f57830183610231565b634e487b7160e01b8c526011875260248cfd5b939450600019939192919084810190811161033057916101a5916102da6102e7959488610958565b9054911b1c169185610958565b8154801561031d5701906103136102fe8383610958565b81549060018060a01b039060031b1b19169055565b5538808080610236565b634e487b7160e01b8b526031865260248bfd5b634e487b7160e01b8e526011895260248efd5b50610236565b50905162461bcd60e51b815291820152602c60248201527f416363657373436f6e74726f6c3a206e6577206f776e6572206973207468652060448201526b7a65726f206164647265737360a01b6064820152608490fd5b50905162461bcd60e51b815291820152602660248201527f416363657373436f6e74726f6c3a2063616c6c6572206973206e6f74207468656044820152651037bbb732b960d11b6064820152608490fd5b8680fd5b8380fd5b8280fd5b50503461042657816003193601126104265760209051600080516020610ae68339815191528152f35b5080fd5b5082903461042657826003193601126104265761044561093d565b90600080516020610ae683398151915283528260205283832033845260205260ff848420541680156104e6575b1561048557906104829135610986565b80f35b608490602085519162461bcd60e51b8352820152603560248201527f416363657373436f6e74726f6c3a206d757374206265206f776e6572206f722060448201527461646d696e20746f207265766f6b6520726f6c657360581b6064820152fd5b507fa49807205ce4d355092ef5a8a18f56e8913cf4a201fbe287825b095693c2177583528260205283832033845260205260ff8484205416610472565b5082346105ff5760209283600319360112610426578235825260019384815281832092825192828481875491828152019081978552828520908a865b8281106105e15750505050859003601f01601f1916850196905067ffffffffffffffff8711858810176105ce575092869284878096528186019282875251809352850195925b8281106105b25785870386f35b83516001600160a01b03168752958101959281019284016105a5565b634e487b7160e01b835260419052602482fd5b83546001600160a01b0316855288959094019392810192810161055f565b80fd5b50346103f957816003193601126103f9578160209360ff9261062261093d565b903582528186528282206001600160a01b039091168252855220549151911615158152f35b50503461042657816003193601126104265760025490516001600160a01b039091168152602090f35b8382346104265760203660031901126104265761048290339035610986565b505034610426578160031936011261042657602090517f572f022558b687eed59080237cb7778171198110a24741b57d6ed3432df881fc8152f35b505034610426578160031936011261042657602090517fa49807205ce4d355092ef5a8a18f56e8913cf4a201fbe287825b095693c217758152f35b5090346103f957806003193601126103f95781359161072261093d565b90600080516020610ae68339815191528552602092858452808620338752845260ff818720541680156108c8575b15610869576001600160a01b03831693841561080f57858752868152818720858852815260ff828820541615610784578680f35b60019086885287815282882086895281528288208260ff19825416179055868852528520805491600160401b8310156107fc5750816101a59160016107cc9594018155610958565b33917f2f8788117e7eff1d82e926ec794901d17c78024a50270940304540a733656f0d8480a43880808080808680f35b634e487b7160e01b875260419052602486fd5b905162461bcd60e51b815291820152603060248201527f416363657373436f6e74726f6c3a2063616e6e6f74206772616e7420726f6c6560448201526f20746f207a65726f206164647265737360801b6064820152608490fd5b5162461bcd60e51b8152908101839052603460248201527f416363657373436f6e74726f6c3a206d757374206265206f776e6572206f722060448201527361646d696e20746f206772616e7420726f6c657360601b6064820152608490fd5b507fa49807205ce4d355092ef5a8a18f56e8913cf4a201fbe287825b095693c217758652858452808620338752845260ff8187205416610750565b849034610426578160031936011261042657807f5a3425ea67e73c95853ecfc0c443062de292a303c186bc2aac1178ae1b86c62a60209252f35b602435906001600160a01b038216820361095357565b600080fd5b80548210156109705760005260206000200190600090565b634e487b7160e01b600052603260045260246000fd5b6000818152602081815260408083206001600160a01b039586168085529252822054919390929160ff166109bb575b50505050565b81845283602052604084208385526020526040842060ff1981541690558184526001908160205260408520908286905b610a22575b505050507ff6391f5c32d9c69d2a47ea670b442974b53935d1edc7fd64eb21e047a839171b339380a4388080806109b5565b825480821015610adf578287610a388487610958565b929054600393841b1c1614610a6e5750506000198114610a5a578301836109eb565b634e487b7160e01b87526011600452602487fd5b9394506000199391929190848101908111610acb57916101a5916102da610a96959488610958565b81548015610ab7570190610aad6102fe8383610958565b55388080806109f0565b634e487b7160e01b86526031600452602486fd5b634e487b7160e01b89526011600452602489fd5b506109f056feb19546dff01e856fb3f010c267a7b1c60363cf8a4664e21cc89c26224620214ea2646970667358221220abca05fdf3fe683dc7ee624692d25d9bab6eb6814b958b8356e3e04c7bfbdd0d64736f6c63430008140033",
  "linkReferences": {},
  "deployedLinkReferences": {}
}